{
  "_format": "hh-sol-artifact-1",
  "contractName": "FNDR",
  "sourceName": "contracts/FNDR.sol",
  "abi": [
    {
      "inputs": [],
      "stateMutability": "nonpayable",
      "type": "constructor"
    },
    {
      "anonymous": false,
      "inputs": [
        {
          "indexed": true,
          "internalType": "address",
          "name": "tokenOwner",
          "type": "address"
        },
        {
          "indexed": true,
          "internalType": "address",
          "name": "spender",
          "type": "address"
        },
        {
          "indexed": false,
          "internalType": "uint256",
          "name": "tokens",
          "type": "uint256"
        }
      ],
      "name": "Approval",
      "type": "event"
    },
    {
      "anonymous": false,
      "inputs": [
        {
          "indexed": true,
          "internalType": "address",
          "name": "from",
          "type": "address"
        },
        {
          "indexed": true,
          "internalType": "address",
          "name": "to",
          "type": "address"
        },
        {
          "indexed": false,
          "internalType": "uint256",
          "name": "tokens",
          "type": "uint256"
        }
      ],
      "name": "Transfer",
      "type": "event"
    },
    {
      "inputs": [],
      "name": "_totalSupply",
      "outputs": [
        {
          "internalType": "uint256",
          "name": "",
          "type": "uint256"
        }
      ],
      "stateMutability": "view",
      "type": "function"
    },
    {
      "inputs": [
        {
          "internalType": "address",
          "name": "tokenOwner",
          "type": "address"
        },
        {
          "internalType": "address",
          "name": "spender",
          "type": "address"
        }
      ],
      "name": "allowance",
      "outputs": [
        {
          "internalType": "uint256",
          "name": "remaining",
          "type": "uint256"
        }
      ],
      "stateMutability": "view",
      "type": "function"
    },
    {
      "inputs": [
        {
          "internalType": "address",
          "name": "spender",
          "type": "address"
        },
        {
          "internalType": "uint256",
          "name": "tokens",
          "type": "uint256"
        }
      ],
      "name": "approve",
      "outputs": [
        {
          "internalType": "bool",
          "name": "success",
          "type": "bool"
        }
      ],
      "stateMutability": "nonpayable",
      "type": "function"
    },
    {
      "inputs": [
        {
          "internalType": "address",
          "name": "tokenOwner",
          "type": "address"
        }
      ],
      "name": "balanceOf",
      "outputs": [
        {
          "internalType": "uint256",
          "name": "balance",
          "type": "uint256"
        }
      ],
      "stateMutability": "view",
      "type": "function"
    },
    {
      "inputs": [
        {
          "internalType": "address",
          "name": "account",
          "type": "address"
        },
        {
          "internalType": "uint256",
          "name": "amount",
          "type": "uint256"
        }
      ],
      "name": "burn",
      "outputs": [],
      "stateMutability": "nonpayable",
      "type": "function"
    },
    {
      "inputs": [],
      "name": "decimals",
      "outputs": [
        {
          "internalType": "uint8",
          "name": "",
          "type": "uint8"
        }
      ],
      "stateMutability": "view",
      "type": "function"
    },
    {
      "inputs": [],
      "name": "name",
      "outputs": [
        {
          "internalType": "string",
          "name": "",
          "type": "string"
        }
      ],
      "stateMutability": "view",
      "type": "function"
    },
    {
      "inputs": [
        {
          "internalType": "uint256",
          "name": "a",
          "type": "uint256"
        },
        {
          "internalType": "uint256",
          "name": "b",
          "type": "uint256"
        }
      ],
      "name": "safeAdd",
      "outputs": [
        {
          "internalType": "uint256",
          "name": "c",
          "type": "uint256"
        }
      ],
      "stateMutability": "pure",
      "type": "function"
    },
    {
      "inputs": [
        {
          "internalType": "uint256",
          "name": "a",
          "type": "uint256"
        },
        {
          "internalType": "uint256",
          "name": "b",
          "type": "uint256"
        }
      ],
      "name": "safeDiv",
      "outputs": [
        {
          "internalType": "uint256",
          "name": "c",
          "type": "uint256"
        }
      ],
      "stateMutability": "pure",
      "type": "function"
    },
    {
      "inputs": [
        {
          "internalType": "uint256",
          "name": "a",
          "type": "uint256"
        },
        {
          "internalType": "uint256",
          "name": "b",
          "type": "uint256"
        }
      ],
      "name": "safeMul",
      "outputs": [
        {
          "internalType": "uint256",
          "name": "c",
          "type": "uint256"
        }
      ],
      "stateMutability": "pure",
      "type": "function"
    },
    {
      "inputs": [
        {
          "internalType": "uint256",
          "name": "a",
          "type": "uint256"
        },
        {
          "internalType": "uint256",
          "name": "b",
          "type": "uint256"
        }
      ],
      "name": "safeSub",
      "outputs": [
        {
          "internalType": "uint256",
          "name": "c",
          "type": "uint256"
        }
      ],
      "stateMutability": "pure",
      "type": "function"
    },
    {
      "inputs": [],
      "name": "symbol",
      "outputs": [
        {
          "internalType": "string",
          "name": "",
          "type": "string"
        }
      ],
      "stateMutability": "view",
      "type": "function"
    },
    {
      "inputs": [],
      "name": "totalSupply",
      "outputs": [
        {
          "internalType": "uint256",
          "name": "",
          "type": "uint256"
        }
      ],
      "stateMutability": "view",
      "type": "function"
    },
    {
      "inputs": [
        {
          "internalType": "address",
          "name": "to",
          "type": "address"
        },
        {
          "internalType": "uint256",
          "name": "tokens",
          "type": "uint256"
        }
      ],
      "name": "transfer",
      "outputs": [
        {
          "internalType": "bool",
          "name": "success",
          "type": "bool"
        }
      ],
      "stateMutability": "nonpayable",
      "type": "function"
    },
    {
      "inputs": [
        {
          "internalType": "address",
          "name": "from",
          "type": "address"
        },
        {
          "internalType": "address",
          "name": "to",
          "type": "address"
        },
        {
          "internalType": "uint256",
          "name": "tokens",
          "type": "uint256"
        }
      ],
      "name": "transferFrom",
      "outputs": [
        {
          "internalType": "bool",
          "name": "success",
          "type": "bool"
        }
      ],
      "stateMutability": "nonpayable",
      "type": "function"
    }
  ],
  "bytecode": "0x608060405234801561001057600080fd5b50604080518082019091526011808252702327222916a337bab73232b939a1b7b4b760791b6020909201918252610049916000916100e3565b50604080518082019091526004808252632327222960e11b6020909201918252610075916001916100e3565b506002805460ff19166006179055655af3107a400060038190553360008181526004602052604080822084905551919290917fddf252ad1be2c89b69c2b068fc378daa952ba7f163c4a11628f55a4df523b3ef916100d69190815260200190565b60405180910390a36101b7565b8280546100ef9061017c565b90600052602060002090601f0160209004810192826101115760008555610157565b82601f1061012a57805160ff1916838001178555610157565b82800160010185558215610157579182015b8281111561015757825182559160200191906001019061013c565b50610163929150610167565b5090565b5b808211156101635760008155600101610168565b600181811c9082168061019057607f821691505b602082108114156101b157634e487b7160e01b600052602260045260246000fd5b50919050565b6109bf806101c66000396000f3fe608060405234801561001057600080fd5b50600436106100f55760003560e01c806395d89b4111610097578063b5931f7c11610066578063b5931f7c146101f8578063d05c78da1461020b578063dd62ed3e1461021e578063e6cb90131461025757600080fd5b806395d89b41146101b55780639dc29fac146101bd578063a293d1e8146101d2578063a9059cbb146101e557600080fd5b806323b872dd116100d357806323b872dd14610151578063313ce567146101645780633eaaf86b1461018357806370a082311461018c57600080fd5b806306fdde03146100fa578063095ea7b31461011857806318160ddd1461013b575b600080fd5b61010261026a565b60405161010f9190610873565b60405180910390f35b61012b610126366004610827565b6102f8565b604051901515815260200161010f565b610143610365565b60405190815260200161010f565b61012b61015f3660046107eb565b6103a3565b6002546101719060ff1681565b60405160ff909116815260200161010f565b61014360035481565b61014361019a36600461079d565b6001600160a01b031660009081526004602052604090205490565b6101026104a1565b6101d06101cb366004610827565b6104ae565b005b6101436101e0366004610851565b61066b565b61012b6101f3366004610827565b61068b565b610143610206366004610851565b610722565b610143610219366004610851565b61073a565b61014361022c3660046107b8565b6001600160a01b03918216600090815260056020908152604080832093909416825291909152205490565b610143610265366004610851565b610766565b6000805461027790610938565b80601f01602080910402602001604051908101604052809291908181526020018280546102a390610938565b80156102f05780601f106102c5576101008083540402835291602001916102f0565b820191906000526020600020905b8154815290600101906020018083116102d357829003601f168201915b505050505081565b3360008181526005602090815260408083206001600160a01b038716808552925280832085905551919290917f8c5be1e5ebec7d5bd14f71427d1e84f3dd0314c0f7b2291e5b200ac8c7c3b925906103539086815260200190565b60405180910390a35060015b92915050565b600080805260046020527f17ef568e3e12ab5b9c7254a8d58478811de00f9e6eb34345acd53bf8fd09d3ec5460035461039e9190610921565b905090565b6001600160a01b0383166000908152600460205260408120546103c6908361066b565b6001600160a01b03851660009081526004602090815260408083209390935560058152828220338352905220546103fd908361066b565b6001600160a01b03808616600090815260056020908152604080832033845282528083209490945591861681526004909152205461043b9083610766565b6001600160a01b0380851660008181526004602052604090819020939093559151908616907fddf252ad1be2c89b69c2b068fc378daa952ba7f163c4a11628f55a4df523b3ef9061048f9086815260200190565b60405180910390a35060019392505050565b6001805461027790610938565b6001600160a01b0382166105135760405162461bcd60e51b815260206004820152602160248201527f45524332303a206275726e2066726f6d20746865207a65726f206164647265736044820152607360f81b60648201526084015b60405180910390fd5b6001600160a01b0382166000908152600460205260409020548111156105865760405162461bcd60e51b815260206004820152602260248201527f45524332303a206275726e20616d6f756e7420657863656564732062616c616e604482015261636560f01b606482015260840161050a565b6001600160a01b0382166000908152600460205260409020546105a9908261066b565b6001600160a01b03831660009081526004602052604081209190915580527f17ef568e3e12ab5b9c7254a8d58478811de00f9e6eb34345acd53bf8fd09d3ec546105f39082610766565b600080805260046020527f17ef568e3e12ab5b9c7254a8d58478811de00f9e6eb34345acd53bf8fd09d3ec919091556040516001600160a01b038416907fddf252ad1be2c89b69c2b068fc378daa952ba7f163c4a11628f55a4df523b3ef9061065f9085815260200190565b60405180910390a35050565b60008282111561067a57600080fd5b6106848284610921565b9392505050565b336000908152600460205260408120546106a5908361066b565b33600090815260046020526040808220929092556001600160a01b038516815220546106d19083610766565b6001600160a01b0384166000818152600460205260409081902092909255905133907fddf252ad1be2c89b69c2b068fc378daa952ba7f163c4a11628f55a4df523b3ef906103539086815260200190565b600080821161073057600080fd5b61068482846108e0565b60006107468284610902565b905082158061075d57508161075b84836108e0565b145b61035f57600080fd5b600061077282846108c8565b90508281101561035f57600080fd5b80356001600160a01b038116811461079857600080fd5b919050565b6000602082840312156107af57600080fd5b61068482610781565b600080604083850312156107cb57600080fd5b6107d483610781565b91506107e260208401610781565b90509250929050565b60008060006060848603121561080057600080fd5b61080984610781565b925061081760208501610781565b9150604084013590509250925092565b6000806040838503121561083a57600080fd5b61084383610781565b946020939093013593505050565b6000806040838503121561086457600080fd5b50508035926020909101359150565b600060208083528351808285015260005b818110156108a057858101830151858201604001528201610884565b818111156108b2576000604083870101525b50601f01601f1916929092016040019392505050565b600082198211156108db576108db610973565b500190565b6000826108fd57634e487b7160e01b600052601260045260246000fd5b500490565b600081600019048311821515161561091c5761091c610973565b500290565b60008282101561093357610933610973565b500390565b600181811c9082168061094c57607f821691505b6020821081141561096d57634e487b7160e01b600052602260045260246000fd5b50919050565b634e487b7160e01b600052601160045260246000fdfea26469706673582212205f65b07d9cc33b9ef237f86d72e62a4c1d7d42dfe511c7ea1b77666b4d25f11a64736f6c63430008070033",
  "linkReferences": {},
  "deployedLinkReferences": {}
}