{
  "_format": "hh-sol-artifact-1",
  "contractName": "Project",
  "sourceName": "contracts/Project.sol",
  "abi": [
    {
      "inputs": [
        {
          "internalType": "address",
          "name": "_tokenAddress",
          "type": "address"
        },
        {
          "internalType": "address",
          "name": "_owner",
          "type": "address"
        },
        {
          "internalType": "string",
          "name": "_name",
          "type": "string"
        },
        {
          "internalType": "string",
          "name": "_description",
          "type": "string"
        },
        {
          "internalType": "uint256",
          "name": "_budget",
          "type": "uint256"
        }
      ],
      "stateMutability": "nonpayable",
      "type": "constructor"
    },
    {
      "inputs": [],
      "name": "USDCtoken",
      "outputs": [
        {
          "internalType": "contract IERC20",
          "name": "",
          "type": "address"
        }
      ],
      "stateMutability": "view",
      "type": "function"
    },
    {
      "inputs": [
        {
          "internalType": "uint256",
          "name": "_taskId",
          "type": "uint256"
        }
      ],
      "name": "addTask",
      "outputs": [],
      "stateMutability": "nonpayable",
      "type": "function"
    },
    {
      "inputs": [],
      "name": "budget",
      "outputs": [
        {
          "internalType": "uint256",
          "name": "",
          "type": "uint256"
        }
      ],
      "stateMutability": "view",
      "type": "function"
    },
    {
      "inputs": [],
      "name": "completeProject",
      "outputs": [],
      "stateMutability": "nonpayable",
      "type": "function"
    },
    {
      "inputs": [
        {
          "internalType": "uint256",
          "name": "_taskId",
          "type": "uint256"
        }
      ],
      "name": "completeTask",
      "outputs": [],
      "stateMutability": "nonpayable",
      "type": "function"
    },
    {
      "inputs": [],
      "name": "currentState",
      "outputs": [
        {
          "internalType": "enum Project.State",
          "name": "",
          "type": "uint8"
        }
      ],
      "stateMutability": "view",
      "type": "function"
    },
    {
      "inputs": [
        {
          "internalType": "uint256",
          "name": "_amount",
          "type": "uint256"
        }
      ],
      "name": "depositFunds",
      "outputs": [],
      "stateMutability": "nonpayable",
      "type": "function"
    },
    {
      "inputs": [],
      "name": "description",
      "outputs": [
        {
          "internalType": "string",
          "name": "",
          "type": "string"
        }
      ],
      "stateMutability": "view",
      "type": "function"
    },
    {
      "inputs": [],
      "name": "founderAddress",
      "outputs": [
        {
          "internalType": "address",
          "name": "",
          "type": "address"
        }
      ],
      "stateMutability": "view",
      "type": "function"
    },
    {
      "inputs": [],
      "name": "isDeposit",
      "outputs": [
        {
          "internalType": "bool",
          "name": "",
          "type": "bool"
        }
      ],
      "stateMutability": "view",
      "type": "function"
    },
    {
      "inputs": [],
      "name": "name",
      "outputs": [
        {
          "internalType": "string",
          "name": "",
          "type": "string"
        }
      ],
      "stateMutability": "view",
      "type": "function"
    },
    {
      "inputs": [
        {
          "internalType": "uint256",
          "name": "_taskId",
          "type": "uint256"
        }
      ],
      "name": "removeTask",
      "outputs": [],
      "stateMutability": "nonpayable",
      "type": "function"
    },
    {
      "inputs": [],
      "name": "startProject",
      "outputs": [],
      "stateMutability": "nonpayable",
      "type": "function"
    },
    {
      "inputs": [
        {
          "internalType": "uint256",
          "name": "",
          "type": "uint256"
        }
      ],
      "name": "taskIds",
      "outputs": [
        {
          "internalType": "uint256",
          "name": "",
          "type": "uint256"
        }
      ],
      "stateMutability": "view",
      "type": "function"
    },
    {
      "inputs": [
        {
          "internalType": "string",
          "name": "_description",
          "type": "string"
        }
      ],
      "name": "updateProjectDescription",
      "outputs": [],
      "stateMutability": "nonpayable",
      "type": "function"
    },
    {
      "inputs": [
        {
          "internalType": "string",
          "name": "_name",
          "type": "string"
        }
      ],
      "name": "updateProjectName",
      "outputs": [],
      "stateMutability": "nonpayable",
      "type": "function"
    },
    {
      "inputs": [],
      "name": "withdraw",
      "outputs": [],
      "stateMutability": "nonpayable",
      "type": "function"
    }
  ],
  "bytecode": "0x6080604052600a600755735ee8d1b65942116da65700849d65cc839e38cc5e600860006101000a81548173ffffffffffffffffffffffffffffffffffffffff021916908373ffffffffffffffffffffffffffffffffffffffff16021790555073bcddf66c85ce1856bd9066bbb128663e2745849a600960006101000a81548173ffffffffffffffffffffffffffffffffffffffff021916908373ffffffffffffffffffffffffffffffffffffffff160217905550348015620000c057600080fd5b50604051620026af380380620026af8339818101604052810190620000e6919062000350565b846000806101000a81548173ffffffffffffffffffffffffffffffffffffffff021916908373ffffffffffffffffffffffffffffffffffffffff16021790555083600160006101000a81548173ffffffffffffffffffffffffffffffffffffffff021916908373ffffffffffffffffffffffffffffffffffffffff16021790555082600290805190602001906200017f929190620001f4565b50816003908051906020019062000198929190620001f4565b50806004819055506000600660006101000a81548160ff02191690836002811115620001c957620001c862000555565b5b02179055506000600660016101000a81548160ff02191690831515021790555050505050506200063b565b8280546200020290620004e9565b90600052602060002090601f01602090048101928262000226576000855562000272565b82601f106200024157805160ff191683800117855562000272565b8280016001018555821562000272579182015b828111156200027157825182559160200191906001019062000254565b5b50905062000281919062000285565b5090565b5b80821115620002a057600081600090555060010162000286565b5090565b6000620002bb620002b5846200043f565b62000416565b905082815260208101848484011115620002da57620002d9620005e7565b5b620002e7848285620004b3565b509392505050565b600081519050620003008162000607565b92915050565b600082601f8301126200031e576200031d620005e2565b5b815162000330848260208601620002a4565b91505092915050565b6000815190506200034a8162000621565b92915050565b600080600080600060a086880312156200036f576200036e620005f1565b5b60006200037f88828901620002ef565b95505060206200039288828901620002ef565b945050604086015167ffffffffffffffff811115620003b657620003b5620005ec565b5b620003c48882890162000306565b935050606086015167ffffffffffffffff811115620003e857620003e7620005ec565b5b620003f68882890162000306565b9250506080620004098882890162000339565b9150509295509295909350565b60006200042262000435565b90506200043082826200051f565b919050565b6000604051905090565b600067ffffffffffffffff8211156200045d576200045c620005b3565b5b6200046882620005f6565b9050602081019050919050565b6000620004828262000489565b9050919050565b600073ffffffffffffffffffffffffffffffffffffffff82169050919050565b6000819050919050565b60005b83811015620004d3578082015181840152602081019050620004b6565b83811115620004e3576000848401525b50505050565b600060028204905060018216806200050257607f821691505b6020821081141562000519576200051862000584565b5b50919050565b6200052a82620005f6565b810181811067ffffffffffffffff821117156200054c576200054b620005b3565b5b80604052505050565b7f4e487b7100000000000000000000000000000000000000000000000000000000600052602160045260246000fd5b7f4e487b7100000000000000000000000000000000000000000000000000000000600052602260045260246000fd5b7f4e487b7100000000000000000000000000000000000000000000000000000000600052604160045260246000fd5b600080fd5b600080fd5b600080fd5b600080fd5b6000601f19601f8301169050919050565b620006128162000475565b81146200061e57600080fd5b50565b6200062c81620004a9565b81146200063857600080fd5b50565b612064806200064b6000396000f3fe608060405234801561001057600080fd5b506004361061010b5760003560e01c80637284e416116100a2578063c6da612811610071578063c6da61281461026e578063c7656f6e1461028a578063e1e2955814610294578063ed01bf29146102b0578063fc0e9739146102ce5761010b565b80637284e416146101fa5780637bc3b5ff14610218578063ba73cfc514610236578063c3084117146102525761010b565b80633b76594d116100de5780633b76594d146101985780633ccfd60b146101b45780634185e507146101be57806346bb2833146101dc5761010b565b806306fdde03146101105780630c3f6acf1461012e57806323a22bcb1461014c57806339118d2514610168575b600080fd5b6101186102d8565b60405161012591906119c7565b60405180910390f35b610136610366565b60405161014391906119ac565b60405180910390f35b610166600480360381019061016191906116b9565b610379565b005b610182600480360381019061017d919061174b565b6103ed565b60405161018f9190611aa9565b60405180910390f35b6101b260048036038101906101ad919061174b565b610411565b005b6101bc6105eb565b005b6101c6610809565b6040516101d39190611991565b60405180910390f35b6101e461082d565b6040516101f191906118fb565b60405180910390f35b610202610853565b60405161020f91906119c7565b60405180910390f35b6102206108e1565b60405161022d9190611976565b60405180910390f35b610250600480360381019061024b919061174b565b6108f4565b005b61026c6004803603810190610267919061174b565b610cdf565b005b610288600480360381019061028391906116b9565b610f1f565b005b610292610f93565b005b6102ae60048036038101906102a9919061174b565b611090565b005b6102b861126a565b6040516102c59190611aa9565b60405180910390f35b6102d6611270565b005b600280546102e590611cda565b80601f016020809104026020016040519081016040528092919081815260200182805461031190611cda565b801561035e5780601f106103335761010080835404028352916020019161035e565b820191906000526020600020905b81548152906001019060200180831161034157829003601f168201915b505050505081565b600660009054906101000a900460ff1681565b600160009054906101000a900473ffffffffffffffffffffffffffffffffffffffff1673ffffffffffffffffffffffffffffffffffffffff163373ffffffffffffffffffffffffffffffffffffffff16146103d357600080fd5b80600390805190602001906103e992919061136d565b5050565b600581815481106103fd57600080fd5b906000526020600020016000915090505481565b600160009054906101000a900473ffffffffffffffffffffffffffffffffffffffff1673ffffffffffffffffffffffffffffffffffffffff163373ffffffffffffffffffffffffffffffffffffffff161461046b57600080fd5b600081116104ae576040517f08c379a00000000000000000000000000000000000000000000000000000000081526004016104a5906119e9565b60405180910390fd5b6064606e6004546104bf9190611b67565b6104c99190611b36565b811461050a576040517f08c379a000000000000000000000000000000000000000000000000000000000815260040161050190611a69565b60405180910390fd5b6001600660016101000a81548160ff02191690831515021790555060008054906101000a900473ffffffffffffffffffffffffffffffffffffffff1673ffffffffffffffffffffffffffffffffffffffff166323b872dd3330670de0b6b3a7640000856105779190611b67565b6040518463ffffffff1660e01b815260040161059593929190611916565b602060405180830381600087803b1580156105af57600080fd5b505af11580156105c3573d6000803e3d6000fd5b505050506040513d601f19601f820116820180604052508101906105e7919061168c565b5050565b600160009054906101000a900473ffffffffffffffffffffffffffffffffffffffff1673ffffffffffffffffffffffffffffffffffffffff163373ffffffffffffffffffffffffffffffffffffffff161461064557600080fd5b60008060009054906101000a900473ffffffffffffffffffffffffffffffffffffffff1673ffffffffffffffffffffffffffffffffffffffff166370a08231306040518263ffffffff1660e01b81526004016106a191906118fb565b60206040518083038186803b1580156106b957600080fd5b505afa1580156106cd573d6000803e3d6000fd5b505050506040513d601f19601f820116820180604052508101906106f19190611778565b905060008111610736576040517f08c379a000000000000000000000000000000000000000000000000000000000815260040161072d90611a09565b60405180910390fd5b60008054906101000a900473ffffffffffffffffffffffffffffffffffffffff1673ffffffffffffffffffffffffffffffffffffffff1663a9059cbb600160009054906101000a900473ffffffffffffffffffffffffffffffffffffffff16836040518363ffffffff1660e01b81526004016107b392919061194d565b602060405180830381600087803b1580156107cd57600080fd5b505af11580156107e1573d6000803e3d6000fd5b505050506040513d601f19601f82011682018060405250810190610805919061168c565b5050565b60008054906101000a900473ffffffffffffffffffffffffffffffffffffffff1681565b600160009054906101000a900473ffffffffffffffffffffffffffffffffffffffff1681565b6003805461086090611cda565b80601f016020809104026020016040519081016040528092919081815260200182805461088c90611cda565b80156108d95780601f106108ae576101008083540402835291602001916108d9565b820191906000526020600020905b8154815290600101906020018083116108bc57829003601f168201915b505050505081565b600660019054906101000a900460ff1681565b600160009054906101000a900473ffffffffffffffffffffffffffffffffffffffff1673ffffffffffffffffffffffffffffffffffffffff163373ffffffffffffffffffffffffffffffffffffffff161461094e57600080fd5b6000600960009054906101000a900473ffffffffffffffffffffffffffffffffffffffff1673ffffffffffffffffffffffffffffffffffffffff16638c02263b836040518263ffffffff1660e01b81526004016109ab9190611aa9565b60206040518083038186803b1580156109c357600080fd5b505afa1580156109d7573d6000803e3d6000fd5b505050506040513d601f19601f820116820180604052508101906109fb919061168c565b905080610a3d576040517f08c379a0000000000000000000000000000000000000000000000000000000008152600401610a3490611a89565b60405180910390fd5b6000600960009054906101000a900473ffffffffffffffffffffffffffffffffffffffff1673ffffffffffffffffffffffffffffffffffffffff1663976217cd846040518263ffffffff1660e01b8152600401610a9a9190611aa9565b60006040518083038186803b158015610ab257600080fd5b505afa158015610ac6573d6000803e3d6000fd5b505050506040513d6000823e3d601f19601f82011682018060405250810190610aef9190611702565b905060008054906101000a900473ffffffffffffffffffffffffffffffffffffffff1673ffffffffffffffffffffffffffffffffffffffff1663a9059cbb600960009054906101000a900473ffffffffffffffffffffffffffffffffffffffff1683608001516040518363ffffffff1660e01b8152600401610b7292919061194d565b602060405180830381600087803b158015610b8c57600080fd5b505af1158015610ba0573d6000803e3d6000fd5b505050506040513d601f19601f82011682018060405250810190610bc4919061168c565b5060008054906101000a900473ffffffffffffffffffffffffffffffffffffffff1673ffffffffffffffffffffffffffffffffffffffff1663a9059cbb600860009054906101000a900473ffffffffffffffffffffffffffffffffffffffff166064600a8560800151610c379190611b36565b610c419190611b67565b6040518363ffffffff1660e01b8152600401610c5e92919061194d565b602060405180830381600087803b158015610c7857600080fd5b505af1158015610c8c573d6000803e3d6000fd5b505050506040513d601f19601f82011682018060405250810190610cb0919061168c565b506005839080600181540180825580915050600190039060005260206000200160009091909190915055505050565b600160009054906101000a900473ffffffffffffffffffffffffffffffffffffffff1673ffffffffffffffffffffffffffffffffffffffff163373ffffffffffffffffffffffffffffffffffffffff1614610d3957600080fd5b6000811415610d7d576040517f08c379a0000000000000000000000000000000000000000000000000000000008152600401610d7490611a89565b60405180910390fd5b6000805b600580549050811015610dcc578260058281548110610da357610da2611e42565b5b90600052602060002001541415610db957600191505b8080610dc490611d3d565b915050610d81565b5080610e0d576040517f08c379a0000000000000000000000000000000000000000000000000000000008152600401610e0490611a89565b60405180910390fd5b60006001600580549050610e219190611bc1565b67ffffffffffffffff811115610e3a57610e39611e71565b5b604051908082528060200260200182016040528015610e685781602001602082028036833780820191505090505b5090506000805b600580549050811015610f01578460058281548110610e9157610e90611e42565b5b906000526020600020015414610eee5760058181548110610eb557610eb4611e42565b5b9060005260206000200154838381518110610ed357610ed2611e42565b5b6020026020010181815250508180610eea90611d3d565b9250505b8080610ef990611d3d565b915050610e6f565b508160059080519060200190610f189291906113f3565b5050505050565b600160009054906101000a900473ffffffffffffffffffffffffffffffffffffffff1673ffffffffffffffffffffffffffffffffffffffff163373ffffffffffffffffffffffffffffffffffffffff1614610f7957600080fd5b8060029080519060200190610f8f92919061136d565b5050565b600160009054906101000a900473ffffffffffffffffffffffffffffffffffffffff1673ffffffffffffffffffffffffffffffffffffffff163373ffffffffffffffffffffffffffffffffffffffff1614610fed57600080fd5b6000600281111561100157611000611de4565b5b600660009054906101000a900460ff16600281111561102357611022611de4565b5b14611063576040517f08c379a000000000000000000000000000000000000000000000000000000000815260040161105a90611a49565b60405180910390fd5b6001600660006101000a81548160ff0219169083600281111561108957611088611de4565b5b0217905550565b600160009054906101000a900473ffffffffffffffffffffffffffffffffffffffff1673ffffffffffffffffffffffffffffffffffffffff163373ffffffffffffffffffffffffffffffffffffffff16146110ea57600080fd5b6000600960009054906101000a900473ffffffffffffffffffffffffffffffffffffffff1673ffffffffffffffffffffffffffffffffffffffff16638c02263b836040518263ffffffff1660e01b81526004016111479190611aa9565b60206040518083038186803b15801561115f57600080fd5b505afa158015611173573d6000803e3d6000fd5b505050506040513d601f19601f82011682018060405250810190611197919061168c565b9050806111d9576040517f08c379a00000000000000000000000000000000000000000000000000000000081526004016111d090611a89565b60405180910390fd5b600960009054906101000a900473ffffffffffffffffffffffffffffffffffffffff1673ffffffffffffffffffffffffffffffffffffffff1663e1e29558836040518263ffffffff1660e01b81526004016112349190611aa9565b600060405180830381600087803b15801561124e57600080fd5b505af1158015611262573d6000803e3d6000fd5b505050505050565b60045481565b600160009054906101000a900473ffffffffffffffffffffffffffffffffffffffff1673ffffffffffffffffffffffffffffffffffffffff163373ffffffffffffffffffffffffffffffffffffffff16146112ca57600080fd5b600160028111156112de576112dd611de4565b5b600660009054906101000a900460ff166002811115611300576112ff611de4565b5b14611340576040517f08c379a000000000000000000000000000000000000000000000000000000000815260040161133790611a29565b60405180910390fd5b6002600660006101000a81548160ff0219169083600281111561136657611365611de4565b5b0217905550565b82805461137990611cda565b90600052602060002090601f01602090048101928261139b57600085556113e2565b82601f106113b457805160ff19168380011785556113e2565b828001600101855582156113e2579182015b828111156113e15782518255916020019190600101906113c6565b5b5090506113ef9190611440565b5090565b82805482825590600052602060002090810192821561142f579160200282015b8281111561142e578251825591602001919060010190611413565b5b50905061143c9190611440565b5090565b5b80821115611459576000816000905550600101611441565b5090565b600061147061146b84611ae9565b611ac4565b90508281526020810184848401111561148c5761148b611eaf565b5b611497848285611c98565b509392505050565b60006114b26114ad84611ae9565b611ac4565b9050828152602081018484840111156114ce576114cd611eaf565b5b6114d9848285611ca7565b509392505050565b6000815190506114f081611fd9565b92915050565b60008151905061150581611ff0565b92915050565b60008151905061151a81612007565b92915050565b600082601f83011261153557611534611ea0565b5b813561154584826020860161145d565b91505092915050565b600082601f83011261156357611562611ea0565b5b815161157384826020860161149f565b91505092915050565b6000610100828403121561159357611592611ea5565b5b61159e610100611ac4565b9050600082015167ffffffffffffffff8111156115be576115bd611eaa565b5b6115ca8482850161154e565b60008301525060206115de8482850161150b565b60208301525060406115f2848285016114e1565b6040830152506060611606848285016114e1565b606083015250608061161a84828501611677565b60808301525060a061162e84828501611677565b60a08301525060c061164284828501611677565b60c08301525060e0611656848285016114f6565b60e08301525092915050565b60008135905061167181612017565b92915050565b60008151905061168681612017565b92915050565b6000602082840312156116a2576116a1611eb9565b5b60006116b0848285016114f6565b91505092915050565b6000602082840312156116cf576116ce611eb9565b5b600082013567ffffffffffffffff8111156116ed576116ec611eb4565b5b6116f984828501611520565b91505092915050565b60006020828403121561171857611717611eb9565b5b600082015167ffffffffffffffff81111561173657611735611eb4565b5b6117428482850161157c565b91505092915050565b60006020828403121561176157611760611eb9565b5b600061176f84828501611662565b91505092915050565b60006020828403121561178e5761178d611eb9565b5b600061179c84828501611677565b91505092915050565b6117ae81611bf5565b82525050565b6117bd81611c07565b82525050565b6117cc81611c50565b82525050565b6117db81611c62565b82525050565b60006117ec82611b1a565b6117f68185611b25565b9350611806818560208601611ca7565b61180f81611ebe565b840191505092915050565b6000611827601983611b25565b915061183282611ecf565b602082019050919050565b600061184a601983611b25565b915061185582611ef8565b602082019050919050565b600061186d601a83611b25565b915061187882611f21565b602082019050919050565b6000611890600f83611b25565b915061189b82611f4a565b602082019050919050565b60006118b3601783611b25565b91506118be82611f73565b602082019050919050565b60006118d6600e83611b25565b91506118e182611f9c565b602082019050919050565b6118f581611c46565b82525050565b600060208201905061191060008301846117a5565b92915050565b600060608201905061192b60008301866117a5565b61193860208301856117a5565b61194560408301846118ec565b949350505050565b600060408201905061196260008301856117a5565b61196f60208301846118ec565b9392505050565b600060208201905061198b60008301846117b4565b92915050565b60006020820190506119a660008301846117c3565b92915050565b60006020820190506119c160008301846117d2565b92915050565b600060208201905081810360008301526119e181846117e1565b905092915050565b60006020820190508181036000830152611a028161181a565b9050919050565b60006020820190508181036000830152611a228161183d565b9050919050565b60006020820190508181036000830152611a4281611860565b9050919050565b60006020820190508181036000830152611a6281611883565b9050919050565b60006020820190508181036000830152611a82816118a6565b9050919050565b60006020820190508181036000830152611aa2816118c9565b9050919050565b6000602082019050611abe60008301846118ec565b92915050565b6000611ace611adf565b9050611ada8282611d0c565b919050565b6000604051905090565b600067ffffffffffffffff821115611b0457611b03611e71565b5b611b0d82611ebe565b9050602081019050919050565b600081519050919050565b600082825260208201905092915050565b6000611b4182611c46565b9150611b4c83611c46565b925082611b5c57611b5b611db5565b5b828204905092915050565b6000611b7282611c46565b9150611b7d83611c46565b9250817fffffffffffffffffffffffffffffffffffffffffffffffffffffffffffffffff0483118215151615611bb657611bb5611d86565b5b828202905092915050565b6000611bcc82611c46565b9150611bd783611c46565b925082821015611bea57611be9611d86565b5b828203905092915050565b6000611c0082611c26565b9050919050565b60008115159050919050565b6000819050611c2182611fc5565b919050565b600073ffffffffffffffffffffffffffffffffffffffff82169050919050565b6000819050919050565b6000611c5b82611c74565b9050919050565b6000611c6d82611c13565b9050919050565b6000611c7f82611c86565b9050919050565b6000611c9182611c26565b9050919050565b82818337600083830152505050565b60005b83811015611cc5578082015181840152602081019050611caa565b83811115611cd4576000848401525b50505050565b60006002820490506001821680611cf257607f821691505b60208210811415611d0657611d05611e13565b5b50919050565b611d1582611ebe565b810181811067ffffffffffffffff82111715611d3457611d33611e71565b5b80604052505050565b6000611d4882611c46565b91507fffffffffffffffffffffffffffffffffffffffffffffffffffffffffffffffff821415611d7b57611d7a611d86565b5b600182019050919050565b7f4e487b7100000000000000000000000000000000000000000000000000000000600052601160045260246000fd5b7f4e487b7100000000000000000000000000000000000000000000000000000000600052601260045260246000fd5b7f4e487b7100000000000000000000000000000000000000000000000000000000600052602160045260246000fd5b7f4e487b7100000000000000000000000000000000000000000000000000000000600052602260045260246000fd5b7f4e487b7100000000000000000000000000000000000000000000000000000000600052603260045260246000fd5b7f4e487b7100000000000000000000000000000000000000000000000000000000600052604160045260246000fd5b600080fd5b600080fd5b600080fd5b600080fd5b600080fd5b600080fd5b6000601f19601f8301169050919050565b7f496e636f727265637420616d6f756e74206f6620746f6b656e00000000000000600082015250565b7f496e73756666696369656e7420555344432062616c616e636500000000000000600082015250565b7f546869732070726f6a656374206973206f6e6c79206f70656e2e000000000000600082015250565b7f416c726561647920737461727465640000000000000000000000000000000000600082015250565b7f496e636f7272656374206465706f7369742066756e6473000000000000000000600082015250565b7f5461736b206e6f7420666f756e64000000000000000000000000000000000000600082015250565b60038110611fd657611fd5611de4565b5b50565b611fe281611bf5565b8114611fed57600080fd5b50565b611ff981611c07565b811461200457600080fd5b50565b6006811061201457600080fd5b50565b61202081611c46565b811461202b57600080fd5b5056fea264697066735822122055aaa42e4a8fdc77103893432b9e9d05211d54d280bce662f50f7e443c09423e64736f6c63430008070033",
  "linkReferences": {},
  "deployedLinkReferences": {}
}