{
  "_format": "hh-sol-artifact-1",
  "contractName": "Project",
  "sourceName": "contracts/Project.sol",
  "abi": [
    {
      "inputs": [
        {
          "internalType": "address",
          "name": "_tokenAddress",
          "type": "address"
        },
        {
          "internalType": "address",
          "name": "_owner",
          "type": "address"
        },
        {
          "internalType": "string",
          "name": "_name",
          "type": "string"
        },
        {
          "internalType": "string",
          "name": "_description",
          "type": "string"
        },
        {
          "internalType": "uint256",
          "name": "_budget",
          "type": "uint256"
        }
      ],
      "stateMutability": "nonpayable",
      "type": "constructor"
    },
    {
      "inputs": [],
      "name": "USDCtoken",
      "outputs": [
        {
          "internalType": "contract IERC20",
          "name": "",
          "type": "address"
        }
      ],
      "stateMutability": "view",
      "type": "function"
    },
    {
      "inputs": [
        {
          "internalType": "uint256",
          "name": "_taskId",
          "type": "uint256"
        },
        {
          "internalType": "address",
          "name": "_taskAddress",
          "type": "address"
        }
      ],
      "name": "addTask",
      "outputs": [],
      "stateMutability": "nonpayable",
      "type": "function"
    },
    {
      "inputs": [],
      "name": "budget",
      "outputs": [
        {
          "internalType": "uint256",
          "name": "",
          "type": "uint256"
        }
      ],
      "stateMutability": "view",
      "type": "function"
    },
    {
      "inputs": [],
      "name": "completeProject",
      "outputs": [],
      "stateMutability": "nonpayable",
      "type": "function"
    },
    {
      "inputs": [],
      "name": "currentState",
      "outputs": [
        {
          "internalType": "enum Project.State",
          "name": "",
          "type": "uint8"
        }
      ],
      "stateMutability": "view",
      "type": "function"
    },
    {
      "inputs": [
        {
          "internalType": "uint256",
          "name": "_amount",
          "type": "uint256"
        }
      ],
      "name": "depositFunds",
      "outputs": [],
      "stateMutability": "nonpayable",
      "type": "function"
    },
    {
      "inputs": [],
      "name": "description",
      "outputs": [
        {
          "internalType": "string",
          "name": "",
          "type": "string"
        }
      ],
      "stateMutability": "view",
      "type": "function"
    },
    {
      "inputs": [],
      "name": "founderAddress",
      "outputs": [
        {
          "internalType": "address",
          "name": "",
          "type": "address"
        }
      ],
      "stateMutability": "view",
      "type": "function"
    },
    {
      "inputs": [],
      "name": "getProjectBuget",
      "outputs": [
        {
          "internalType": "uint256",
          "name": "",
          "type": "uint256"
        }
      ],
      "stateMutability": "view",
      "type": "function"
    },
    {
      "inputs": [],
      "name": "getTaskIds",
      "outputs": [
        {
          "internalType": "uint256[]",
          "name": "",
          "type": "uint256[]"
        }
      ],
      "stateMutability": "view",
      "type": "function"
    },
    {
      "inputs": [],
      "name": "isDeposit",
      "outputs": [
        {
          "internalType": "bool",
          "name": "",
          "type": "bool"
        }
      ],
      "stateMutability": "view",
      "type": "function"
    },
    {
      "inputs": [],
      "name": "name",
      "outputs": [
        {
          "internalType": "string",
          "name": "",
          "type": "string"
        }
      ],
      "stateMutability": "view",
      "type": "function"
    },
    {
      "inputs": [
        {
          "internalType": "uint256",
          "name": "_taskId",
          "type": "uint256"
        }
      ],
      "name": "removeTask",
      "outputs": [],
      "stateMutability": "nonpayable",
      "type": "function"
    },
    {
      "inputs": [],
      "name": "startProject",
      "outputs": [],
      "stateMutability": "nonpayable",
      "type": "function"
    },
    {
      "inputs": [
        {
          "internalType": "uint256",
          "name": "",
          "type": "uint256"
        }
      ],
      "name": "taskIds",
      "outputs": [
        {
          "internalType": "uint256",
          "name": "",
          "type": "uint256"
        }
      ],
      "stateMutability": "view",
      "type": "function"
    },
    {
      "inputs": [
        {
          "internalType": "string",
          "name": "_description",
          "type": "string"
        }
      ],
      "name": "updateProjectDescription",
      "outputs": [],
      "stateMutability": "nonpayable",
      "type": "function"
    },
    {
      "inputs": [
        {
          "internalType": "string",
          "name": "_name",
          "type": "string"
        }
      ],
      "name": "updateProjectName",
      "outputs": [],
      "stateMutability": "nonpayable",
      "type": "function"
    },
    {
      "inputs": [],
      "name": "withdraw",
      "outputs": [],
      "stateMutability": "nonpayable",
      "type": "function"
    }
  ],
  "bytecode": "0x6080604052600a600755735ee8d1b65942116da65700849d65cc839e38cc5e600860006101000a81548173ffffffffffffffffffffffffffffffffffffffff021916908373ffffffffffffffffffffffffffffffffffffffff1602179055503480156200006b57600080fd5b50604051620029d4380380620029d48339818101604052810190620000919190620002fb565b846000806101000a81548173ffffffffffffffffffffffffffffffffffffffff021916908373ffffffffffffffffffffffffffffffffffffffff16021790555083600160006101000a81548173ffffffffffffffffffffffffffffffffffffffff021916908373ffffffffffffffffffffffffffffffffffffffff16021790555082600290805190602001906200012a9291906200019f565b508160039080519060200190620001439291906200019f565b50806004819055506000600660006101000a81548160ff0219169083600281111562000174576200017362000500565b5b02179055506000600660016101000a81548160ff0219169083151502179055505050505050620005e6565b828054620001ad9062000494565b90600052602060002090601f016020900481019282620001d157600085556200021d565b82601f10620001ec57805160ff19168380011785556200021d565b828001600101855582156200021d579182015b828111156200021c578251825591602001919060010190620001ff565b5b5090506200022c919062000230565b5090565b5b808211156200024b57600081600090555060010162000231565b5090565b6000620002666200026084620003ea565b620003c1565b90508281526020810184848401111562000285576200028462000592565b5b620002928482856200045e565b509392505050565b600081519050620002ab81620005b2565b92915050565b600082601f830112620002c957620002c86200058d565b5b8151620002db8482602086016200024f565b91505092915050565b600081519050620002f581620005cc565b92915050565b600080600080600060a086880312156200031a57620003196200059c565b5b60006200032a888289016200029a565b95505060206200033d888289016200029a565b945050604086015167ffffffffffffffff81111562000361576200036062000597565b5b6200036f88828901620002b1565b935050606086015167ffffffffffffffff81111562000393576200039262000597565b5b620003a188828901620002b1565b9250506080620003b488828901620002e4565b9150509295509295909350565b6000620003cd620003e0565b9050620003db8282620004ca565b919050565b6000604051905090565b600067ffffffffffffffff8211156200040857620004076200055e565b5b6200041382620005a1565b9050602081019050919050565b60006200042d8262000434565b9050919050565b600073ffffffffffffffffffffffffffffffffffffffff82169050919050565b6000819050919050565b60005b838110156200047e57808201518184015260208101905062000461565b838111156200048e576000848401525b50505050565b60006002820490506001821680620004ad57607f821691505b60208210811415620004c457620004c36200052f565b5b50919050565b620004d582620005a1565b810181811067ffffffffffffffff82111715620004f757620004f66200055e565b5b80604052505050565b7f4e487b7100000000000000000000000000000000000000000000000000000000600052602160045260246000fd5b7f4e487b7100000000000000000000000000000000000000000000000000000000600052602260045260246000fd5b7f4e487b7100000000000000000000000000000000000000000000000000000000600052604160045260246000fd5b600080fd5b600080fd5b600080fd5b600080fd5b6000601f19601f8301169050919050565b620005bd8162000420565b8114620005c957600080fd5b50565b620005d78162000454565b8114620005e357600080fd5b50565b6123de80620005f66000396000f3fe608060405234801561001057600080fd5b50600436106101165760003560e01c80637284e416116100a2578063c308411711610071578063c308411714610299578063c6da6128146102b5578063c7656f6e146102d1578063ed01bf29146102db578063fc0e9739146102f957610116565b80637284e416146102235780637bc3b5ff14610241578063b6bd3ae41461025f578063bcd148051461027b57610116565b806339118d25116100e957806339118d25146101915780633b76594d146101c15780633ccfd60b146101dd5780634185e507146101e757806346bb28331461020557610116565b806306fdde031461011b5780630c3f6acf14610139578063235eee1d1461015757806323a22bcb14610175575b600080fd5b610123610303565b6040516101309190611c2d565b60405180910390f35b610141610391565b60405161014e9190611c12565b60405180910390f35b61015f6103a4565b60405161016c9190611d6f565b60405180910390f35b61018f600480360381019061018a91906117cf565b6103ae565b005b6101ab60048036038101906101a69190611861565b610458565b6040516101b89190611d6f565b60405180910390f35b6101db60048036038101906101d69190611861565b61047c565b005b6101e5610679565b005b6101ef610943565b6040516101fc9190611bf7565b60405180910390f35b61020d610967565b60405161021a9190611b3f565b60405180910390f35b61022b61098d565b6040516102389190611c2d565b60405180910390f35b610249610a1b565b6040516102569190611bdc565b60405180910390f35b610279600480360381019061027491906118bb565b610a2e565b005b610283610e74565b6040516102909190611bba565b60405180910390f35b6102b360048036038101906102ae9190611861565b610ecc565b005b6102cf60048036038101906102ca91906117cf565b611142565b005b6102d96111ec565b005b6102e361131f565b6040516102f09190611d6f565b60405180910390f35b610301611325565b005b6002805461031090611fd9565b80601f016020809104026020016040519081016040528092919081815260200182805461033c90611fd9565b80156103895780601f1061035e57610100808354040283529160200191610389565b820191906000526020600020905b81548152906001019060200180831161036c57829003601f168201915b505050505081565b600660009054906101000a900460ff1681565b6000600454905090565b600160009054906101000a900473ffffffffffffffffffffffffffffffffffffffff1673ffffffffffffffffffffffffffffffffffffffff163373ffffffffffffffffffffffffffffffffffffffff161461043e576040517f08c379a000000000000000000000000000000000000000000000000000000000815260040161043590611d2f565b60405180910390fd5b8060039080519060200190610454929190611458565b5050565b6005818154811061046857600080fd5b906000526020600020016000915090505481565b600160009054906101000a900473ffffffffffffffffffffffffffffffffffffffff1673ffffffffffffffffffffffffffffffffffffffff163373ffffffffffffffffffffffffffffffffffffffff161461050c576040517f08c379a000000000000000000000000000000000000000000000000000000000815260040161050390611d2f565b60405180910390fd5b6000811161054f576040517f08c379a000000000000000000000000000000000000000000000000000000000815260040161054690611c4f565b60405180910390fd5b6064606e6004546105609190611e66565b61056a9190611e35565b81146105ab576040517f08c379a00000000000000000000000000000000000000000000000000000000081526004016105a290611cef565b60405180910390fd5b6001600660016101000a81548160ff02191690831515021790555060008054906101000a900473ffffffffffffffffffffffffffffffffffffffff1673ffffffffffffffffffffffffffffffffffffffff166323b872dd3330846040518463ffffffff1660e01b815260040161062393929190611b5a565b602060405180830381600087803b15801561063d57600080fd5b505af1158015610651573d6000803e3d6000fd5b505050506040513d601f19601f8201168201806040525081019061067591906117a2565b5050565b600160009054906101000a900473ffffffffffffffffffffffffffffffffffffffff1673ffffffffffffffffffffffffffffffffffffffff163373ffffffffffffffffffffffffffffffffffffffff1614610709576040517f08c379a000000000000000000000000000000000000000000000000000000000815260040161070090611d2f565b60405180910390fd5b60008060009054906101000a900473ffffffffffffffffffffffffffffffffffffffff1673ffffffffffffffffffffffffffffffffffffffff166370a08231306040518263ffffffff1660e01b81526004016107659190611b3f565b60206040518083038186803b15801561077d57600080fd5b505afa158015610791573d6000803e3d6000fd5b505050506040513d601f19601f820116820180604052508101906107b5919061188e565b9050600081116107fa576040517f08c379a00000000000000000000000000000000000000000000000000000000081526004016107f190611c6f565b60405180910390fd5b6000600281111561080e5761080d6120e3565b5b600660009054906101000a900460ff1660028111156108305761082f6120e3565b5b14610870576040517f08c379a000000000000000000000000000000000000000000000000000000000815260040161086790611d4f565b60405180910390fd5b60008054906101000a900473ffffffffffffffffffffffffffffffffffffffff1673ffffffffffffffffffffffffffffffffffffffff1663a9059cbb600160009054906101000a900473ffffffffffffffffffffffffffffffffffffffff16836040518363ffffffff1660e01b81526004016108ed929190611b91565b602060405180830381600087803b15801561090757600080fd5b505af115801561091b573d6000803e3d6000fd5b505050506040513d601f19601f8201168201806040525081019061093f91906117a2565b5050565b60008054906101000a900473ffffffffffffffffffffffffffffffffffffffff1681565b600160009054906101000a900473ffffffffffffffffffffffffffffffffffffffff1681565b6003805461099a90611fd9565b80601f01602080910402602001604051908101604052809291908181526020018280546109c690611fd9565b8015610a135780601f106109e857610100808354040283529160200191610a13565b820191906000526020600020905b8154815290600101906020018083116109f657829003601f168201915b505050505081565b600660019054906101000a900460ff1681565b600160009054906101000a900473ffffffffffffffffffffffffffffffffffffffff1673ffffffffffffffffffffffffffffffffffffffff163373ffffffffffffffffffffffffffffffffffffffff1614610abe576040517f08c379a0000000000000000000000000000000000000000000000000000000008152600401610ab590611d2f565b60405180910390fd5b60008173ffffffffffffffffffffffffffffffffffffffff16638c02263b846040518263ffffffff1660e01b8152600401610af99190611d6f565b60206040518083038186803b158015610b1157600080fd5b505afa158015610b25573d6000803e3d6000fd5b505050506040513d601f19601f82011682018060405250810190610b4991906117a2565b905080610b8b576040517f08c379a0000000000000000000000000000000000000000000000000000000008152600401610b8290611d0f565b60405180910390fd5b6000805b600580549050811015610bde578460058281548110610bb157610bb0612141565b5b90600052602060002001541415610bcb5760019150610bde565b8080610bd69061203c565b915050610b8f565b508015610c20576040517f08c379a0000000000000000000000000000000000000000000000000000000008152600401610c1790611c8f565b60405180910390fd5b60008373ffffffffffffffffffffffffffffffffffffffff1663976217cd866040518263ffffffff1660e01b8152600401610c5b9190611d6f565b60006040518083038186803b158015610c7357600080fd5b505afa158015610c87573d6000803e3d6000fd5b505050506040513d6000823e3d601f19601f82011682018060405250810190610cb09190611818565b905060008054906101000a900473ffffffffffffffffffffffffffffffffffffffff1673ffffffffffffffffffffffffffffffffffffffff1663a9059cbb858360a001516040518363ffffffff1660e01b8152600401610d11929190611b91565b602060405180830381600087803b158015610d2b57600080fd5b505af1158015610d3f573d6000803e3d6000fd5b505050506040513d601f19601f82011682018060405250810190610d6391906117a2565b5060008054906101000a900473ffffffffffffffffffffffffffffffffffffffff1673ffffffffffffffffffffffffffffffffffffffff1663a9059cbb600860009054906101000a900473ffffffffffffffffffffffffffffffffffffffff16600a8460a00151610dd49190611e35565b6040518363ffffffff1660e01b8152600401610df1929190611b91565b602060405180830381600087803b158015610e0b57600080fd5b505af1158015610e1f573d6000803e3d6000fd5b505050506040513d601f19601f82011682018060405250810190610e4391906117a2565b5060058590806001815401808255809150506001900390600052602060002001600090919091909150555050505050565b60606005805480602002602001604051908101604052809291908181526020018280548015610ec257602002820191906000526020600020905b815481526020019060010190808311610eae575b5050505050905090565b600160009054906101000a900473ffffffffffffffffffffffffffffffffffffffff1673ffffffffffffffffffffffffffffffffffffffff163373ffffffffffffffffffffffffffffffffffffffff1614610f5c576040517f08c379a0000000000000000000000000000000000000000000000000000000008152600401610f5390611d2f565b60405180910390fd5b6000811415610fa0576040517f08c379a0000000000000000000000000000000000000000000000000000000008152600401610f9790611d0f565b60405180910390fd5b6000805b600580549050811015610fef578260058281548110610fc657610fc5612141565b5b90600052602060002001541415610fdc57600191505b8080610fe79061203c565b915050610fa4565b5080611030576040517f08c379a000000000000000000000000000000000000000000000000000000000815260040161102790611d0f565b60405180910390fd5b600060016005805490506110449190611ec0565b67ffffffffffffffff81111561105d5761105c612170565b5b60405190808252806020026020018201604052801561108b5781602001602082028036833780820191505090505b5090506000805b6005805490508110156111245784600582815481106110b4576110b3612141565b5b90600052602060002001541461111157600581815481106110d8576110d7612141565b5b90600052602060002001548383815181106110f6576110f5612141565b5b602002602001018181525050818061110d9061203c565b9250505b808061111c9061203c565b915050611092565b50816005908051906020019061113b9291906114de565b5050505050565b600160009054906101000a900473ffffffffffffffffffffffffffffffffffffffff1673ffffffffffffffffffffffffffffffffffffffff163373ffffffffffffffffffffffffffffffffffffffff16146111d2576040517f08c379a00000000000000000000000000000000000000000000000000000000081526004016111c990611d2f565b60405180910390fd5b80600290805190602001906111e8929190611458565b5050565b600160009054906101000a900473ffffffffffffffffffffffffffffffffffffffff1673ffffffffffffffffffffffffffffffffffffffff163373ffffffffffffffffffffffffffffffffffffffff161461127c576040517f08c379a000000000000000000000000000000000000000000000000000000000815260040161127390611d2f565b60405180910390fd5b600060028111156112905761128f6120e3565b5b600660009054906101000a900460ff1660028111156112b2576112b16120e3565b5b146112f2576040517f08c379a00000000000000000000000000000000000000000000000000000000081526004016112e990611ccf565b60405180910390fd5b6001600660006101000a81548160ff02191690836002811115611318576113176120e3565b5b0217905550565b60045481565b600160009054906101000a900473ffffffffffffffffffffffffffffffffffffffff1673ffffffffffffffffffffffffffffffffffffffff163373ffffffffffffffffffffffffffffffffffffffff16146113b5576040517f08c379a00000000000000000000000000000000000000000000000000000000081526004016113ac90611d2f565b60405180910390fd5b600160028111156113c9576113c86120e3565b5b600660009054906101000a900460ff1660028111156113eb576113ea6120e3565b5b1461142b576040517f08c379a000000000000000000000000000000000000000000000000000000000815260040161142290611caf565b60405180910390fd5b6002600660006101000a81548160ff02191690836002811115611451576114506120e3565b5b0217905550565b82805461146490611fd9565b90600052602060002090601f01602090048101928261148657600085556114cd565b82601f1061149f57805160ff19168380011785556114cd565b828001600101855582156114cd579182015b828111156114cc5782518255916020019190600101906114b1565b5b5090506114da919061152b565b5090565b82805482825590600052602060002090810192821561151a579160200282015b828111156115195782518255916020019190600101906114fe565b5b509050611527919061152b565b5090565b5b8082111561154457600081600090555060010161152c565b5090565b600061155b61155684611daf565b611d8a565b905082815260208101848484011115611577576115766121ae565b5b611582848285611f97565b509392505050565b600061159d61159884611daf565b611d8a565b9050828152602081018484840111156115b9576115b86121ae565b5b6115c4848285611fa6565b509392505050565b6000813590506115db81612353565b92915050565b6000815190506115f081612353565b92915050565b6000815190506116058161236a565b92915050565b60008151905061161a81612381565b92915050565b600082601f8301126116355761163461219f565b5b8135611645848260208601611548565b91505092915050565b600082601f8301126116635761166261219f565b5b815161167384826020860161158a565b91505092915050565b60006101208284031215611693576116926121a4565b5b61169e610120611d8a565b9050600082015167ffffffffffffffff8111156116be576116bd6121a9565b5b6116ca8482850161164e565b60008301525060206116de8482850161160b565b60208301525060406116f2848285016115e1565b6040830152506060611706848285016115e1565b606083015250608061171a848285016115e1565b60808301525060a061172e8482850161178d565b60a08301525060c06117428482850161178d565b60c08301525060e06117568482850161178d565b60e08301525061010061176b848285016115f6565b6101008301525092915050565b60008135905061178781612391565b92915050565b60008151905061179c81612391565b92915050565b6000602082840312156117b8576117b76121b8565b5b60006117c6848285016115f6565b91505092915050565b6000602082840312156117e5576117e46121b8565b5b600082013567ffffffffffffffff811115611803576118026121b3565b5b61180f84828501611620565b91505092915050565b60006020828403121561182e5761182d6121b8565b5b600082015167ffffffffffffffff81111561184c5761184b6121b3565b5b6118588482850161167c565b91505092915050565b600060208284031215611877576118766121b8565b5b600061188584828501611778565b91505092915050565b6000602082840312156118a4576118a36121b8565b5b60006118b28482850161178d565b91505092915050565b600080604083850312156118d2576118d16121b8565b5b60006118e085828601611778565b92505060206118f1858286016115cc565b9150509250929050565b60006119078383611b21565b60208301905092915050565b61191c81611ef4565b82525050565b600061192d82611df0565b6119378185611e13565b935061194283611de0565b8060005b8381101561197357815161195a88826118fb565b975061196583611e06565b925050600181019050611946565b5085935050505092915050565b61198981611f06565b82525050565b61199881611f4f565b82525050565b6119a781611f61565b82525050565b60006119b882611dfb565b6119c28185611e24565b93506119d2818560208601611fa6565b6119db816121bd565b840191505092915050565b60006119f3601483611e24565b91506119fe826121ce565b602082019050919050565b6000611a16601983611e24565b9150611a21826121f7565b602082019050919050565b6000611a39601883611e24565b9150611a4482612220565b602082019050919050565b6000611a5c601a83611e24565b9150611a6782612249565b602082019050919050565b6000611a7f600f83611e24565b9150611a8a82612272565b602082019050919050565b6000611aa2601883611e24565b9150611aad8261229b565b602082019050919050565b6000611ac5600e83611e24565b9150611ad0826122c4565b602082019050919050565b6000611ae8601c83611e24565b9150611af3826122ed565b602082019050919050565b6000611b0b601783611e24565b9150611b1682612316565b602082019050919050565b611b2a81611f45565b82525050565b611b3981611f45565b82525050565b6000602082019050611b546000830184611913565b92915050565b6000606082019050611b6f6000830186611913565b611b7c6020830185611913565b611b896040830184611b30565b949350505050565b6000604082019050611ba66000830185611913565b611bb36020830184611b30565b9392505050565b60006020820190508181036000830152611bd48184611922565b905092915050565b6000602082019050611bf16000830184611980565b92915050565b6000602082019050611c0c600083018461198f565b92915050565b6000602082019050611c27600083018461199e565b92915050565b60006020820190508181036000830152611c4781846119ad565b905092915050565b60006020820190508181036000830152611c68816119e6565b9050919050565b60006020820190508181036000830152611c8881611a09565b9050919050565b60006020820190508181036000830152611ca881611a2c565b9050919050565b60006020820190508181036000830152611cc881611a4f565b9050919050565b60006020820190508181036000830152611ce881611a72565b9050919050565b60006020820190508181036000830152611d0881611a95565b9050919050565b60006020820190508181036000830152611d2881611ab8565b9050919050565b60006020820190508181036000830152611d4881611adb565b9050919050565b60006020820190508181036000830152611d6881611afe565b9050919050565b6000602082019050611d846000830184611b30565b92915050565b6000611d94611da5565b9050611da0828261200b565b919050565b6000604051905090565b600067ffffffffffffffff821115611dca57611dc9612170565b5b611dd3826121bd565b9050602081019050919050565b6000819050602082019050919050565b600081519050919050565b600081519050919050565b6000602082019050919050565b600082825260208201905092915050565b600082825260208201905092915050565b6000611e4082611f45565b9150611e4b83611f45565b925082611e5b57611e5a6120b4565b5b828204905092915050565b6000611e7182611f45565b9150611e7c83611f45565b9250817fffffffffffffffffffffffffffffffffffffffffffffffffffffffffffffffff0483118215151615611eb557611eb4612085565b5b828202905092915050565b6000611ecb82611f45565b9150611ed683611f45565b925082821015611ee957611ee8612085565b5b828203905092915050565b6000611eff82611f25565b9050919050565b60008115159050919050565b6000819050611f208261233f565b919050565b600073ffffffffffffffffffffffffffffffffffffffff82169050919050565b6000819050919050565b6000611f5a82611f73565b9050919050565b6000611f6c82611f12565b9050919050565b6000611f7e82611f85565b9050919050565b6000611f9082611f25565b9050919050565b82818337600083830152505050565b60005b83811015611fc4578082015181840152602081019050611fa9565b83811115611fd3576000848401525b50505050565b60006002820490506001821680611ff157607f821691505b6020821081141561200557612004612112565b5b50919050565b612014826121bd565b810181811067ffffffffffffffff8211171561203357612032612170565b5b80604052505050565b600061204782611f45565b91507fffffffffffffffffffffffffffffffffffffffffffffffffffffffffffffffff82141561207a57612079612085565b5b600182019050919050565b7f4e487b7100000000000000000000000000000000000000000000000000000000600052601160045260246000fd5b7f4e487b7100000000000000000000000000000000000000000000000000000000600052601260045260246000fd5b7f4e487b7100000000000000000000000000000000000000000000000000000000600052602160045260246000fd5b7f4e487b7100000000000000000000000000000000000000000000000000000000600052602260045260246000fd5b7f4e487b7100000000000000000000000000000000000000000000000000000000600052603260045260246000fd5b7f4e487b7100000000000000000000000000000000000000000000000000000000600052604160045260246000fd5b600080fd5b600080fd5b600080fd5b600080fd5b600080fd5b600080fd5b6000601f19601f8301169050919050565b7f5a65726f20616d6f756e74206f6620746f6b656e000000000000000000000000600082015250565b7f496e73756666696369656e7420555344432062616c616e636500000000000000600082015250565b7f416c726561647920616464656420696e2070726f6a6563740000000000000000600082015250565b7f546869732070726f6a656374206973206f6e6c79206f70656e2e000000000000600082015250565b7f416c726561647920737461727465640000000000000000000000000000000000600082015250565b7f496e636f7272656374206465706f736974652066756e64730000000000000000600082015250565b7f5461736b206e6f7420666f756e64000000000000000000000000000000000000600082015250565b7f596f75277265206e6f7420612070726f6a65637420666f756e64657200000000600082015250565b7f50726f6a65637420616c72656164792073746172746564000000000000000000600082015250565b600381106123505761234f6120e3565b5b50565b61235c81611ef4565b811461236757600080fd5b50565b61237381611f06565b811461237e57600080fd5b50565b6005811061238e57600080fd5b50565b61239a81611f45565b81146123a557600080fd5b5056fea2646970667358221220f624784a267d5493ad4ab12ffbb0cae535b8e4e663753f053e61aa9d504043e764736f6c63430008070033",
  "linkReferences": {},
  "deployedLinkReferences": {}
}