{
  "_format": "hh-sol-artifact-1",
  "contractName": "Project",
  "sourceName": "contracts/Project.sol",
  "abi": [
    {
      "anonymous": false,
      "inputs": [
        {
          "indexed": false,
          "internalType": "uint8",
          "name": "version",
          "type": "uint8"
        }
      ],
      "name": "Initialized",
      "type": "event"
    },
    {
      "inputs": [],
      "name": "USDCtoken",
      "outputs": [
        {
          "internalType": "contract IERC20",
          "name": "",
          "type": "address"
        }
      ],
      "stateMutability": "view",
      "type": "function"
    },
    {
      "inputs": [
        {
          "internalType": "uint256",
          "name": "_amount",
          "type": "uint256"
        }
      ],
      "name": "depositFunds",
      "outputs": [],
      "stateMutability": "nonpayable",
      "type": "function"
    },
    {
      "inputs": [
        {
          "internalType": "address",
          "name": "_taskFactoryAddress",
          "type": "address"
        },
        {
          "internalType": "address",
          "name": "_projectAddress",
          "type": "address"
        },
        {
          "internalType": "uint256",
          "name": "_amount",
          "type": "uint256"
        }
      ],
      "name": "fundProjectTask",
      "outputs": [],
      "stateMutability": "nonpayable",
      "type": "function"
    },
    {
      "inputs": [
        {
          "internalType": "address",
          "name": "_tokenAddress",
          "type": "address"
        },
        {
          "internalType": "string",
          "name": "_projectId",
          "type": "string"
        },
        {
          "internalType": "address",
          "name": "_owner",
          "type": "address"
        }
      ],
      "name": "initialize",
      "outputs": [],
      "stateMutability": "nonpayable",
      "type": "function"
    },
    {
      "inputs": [],
      "name": "owner",
      "outputs": [
        {
          "internalType": "address",
          "name": "",
          "type": "address"
        }
      ],
      "stateMutability": "view",
      "type": "function"
    },
    {
      "inputs": [],
      "name": "projectId",
      "outputs": [
        {
          "internalType": "string",
          "name": "",
          "type": "string"
        }
      ],
      "stateMutability": "view",
      "type": "function"
    },
    {
      "inputs": [
        {
          "internalType": "uint256",
          "name": "_amount",
          "type": "uint256"
        }
      ],
      "name": "withdraw",
      "outputs": [],
      "stateMutability": "nonpayable",
      "type": "function"
    }
  ],
  "bytecode": "0x608060405234801561001057600080fd5b50610cd9806100206000396000f3fe608060405234801561001057600080fd5b506004361061007d5760003560e01c80634185e5071161005b5780634185e507146100c85780634e0030d9146100f95780637bb7c0d81461010c5780638da5cb5b1461011f57600080fd5b80632e1a7d4d146100825780633b76594d146100975780633fafa127146100aa575b600080fd5b6100956100903660046109f9565b610132565b005b6100956100a53660046109f9565b610337565b6100b2610408565b6040516100bf9190610a12565b60405180910390f35b6000546100e1906201000090046001600160a01b031681565b6040516001600160a01b0390911681526020016100bf565b610095610107366004610a8f565b610496565b61009561011a366004610ae6565b6107ff565b6002546100e1906001600160a01b031681565b6002546001600160a01b031633146101895760405162461bcd60e51b81526020600482015260156024820152742737ba103090383937b532b1ba103337bab73232b960591b60448201526064015b60405180910390fd5b600080546040516370a0823160e01b8152306004820152620100009091046001600160a01b0316906370a082319060240160206040518083038186803b1580156101d257600080fd5b505afa1580156101e6573d6000803e3d6000fd5b505050506040513d601f19601f8201168201806040525081019061020a9190610bba565b9050600081116102585760405162461bcd60e51b8152602060048201526019602482015278496e73756666696369656e7420555344432062616c616e636560381b6044820152606401610180565b818110156102a45760405162461bcd60e51b8152602060048201526019602482015278496e73756666696369656e7420555344432062616c616e636560381b6044820152606401610180565b60005460025460405163a9059cbb60e01b81526001600160a01b0391821660048201526024810185905262010000909204169063a9059cbb90604401602060405180830381600087803b1580156102fa57600080fd5b505af115801561030e573d6000803e3d6000fd5b505050506040513d601f19601f820116820180604052508101906103329190610bd3565b505050565b600081116103755760405162461bcd60e51b815260206004820152600b60248201526a16995c9bc8185b5bdd5b9d60aa1b6044820152606401610180565b6000546040516323b872dd60e01b815233600482015230602482015260448101839052620100009091046001600160a01b0316906323b872dd90606401602060405180830381600087803b1580156103cc57600080fd5b505af11580156103e0573d6000803e3d6000fd5b505050506040513d601f19601f820116820180604052508101906104049190610bd3565b5050565b6001805461041590610bfc565b80601f016020809104026020016040519081016040528092919081815260200182805461044190610bfc565b801561048e5780601f106104635761010080835404028352916020019161048e565b820191906000526020600020905b81548152906001019060200180831161047157829003601f168201915b505050505081565b6002546001600160a01b031633146104e85760405162461bcd60e51b81526020600482015260156024820152742737ba103090383937b532b1ba103337bab73232b960591b6044820152606401610180565b600081116105265760405162461bcd60e51b815260206004820152600b60248201526a16995c9bc8185b5bdd5b9d60aa1b6044820152606401610180565b604051632ce9e9bb60e21b81526001600160a01b038381166004830152849160009183169063b3a7a6ec9060240160206040518083038186803b15801561056c57600080fd5b505afa158015610580573d6000803e3d6000fd5b505050506040513d601f19601f820116820180604052508101906105a49190610c37565b90506000826001600160a01b0316632d6b3a6b6040518163ffffffff1660e01b815260040160206040518083038186803b1580156105e157600080fd5b505afa1580156105f5573d6000803e3d6000fd5b505050506040513d601f19601f820116820180604052508101906106199190610c37565b60005490915081906201000090046001600160a01b031663a9059cbb846064610643896069610c54565b61064d9190610c81565b6040516001600160e01b031960e085901b1681526001600160a01b0390921660048301526024820152604401602060405180830381600087803b15801561069357600080fd5b505af11580156106a7573d6000803e3d6000fd5b505050506040513d601f19601f820116820180604052508101906106cb9190610bd3565b50600060029054906101000a90046001600160a01b03166001600160a01b031663a9059cbb826001600160a01b031662da7e726040518163ffffffff1660e01b815260040160206040518083038186803b15801561072857600080fd5b505afa15801561073c573d6000803e3d6000fd5b505050506040513d601f19601f820116820180604052508101906107609190610c37565b606461076d896005610c54565b6107779190610c81565b6040516001600160e01b031960e085901b1681526001600160a01b0390921660048301526024820152604401602060405180830381600087803b1580156107bd57600080fd5b505af11580156107d1573d6000803e3d6000fd5b505050506040513d601f19601f820116820180604052508101906107f59190610bd3565b5050505050505050565b600054610100900460ff161580801561081f5750600054600160ff909116105b806108395750303b158015610839575060005460ff166001145b61089c5760405162461bcd60e51b815260206004820152602e60248201527f496e697469616c697a61626c653a20636f6e747261637420697320616c72656160448201526d191e481a5b9a5d1a585b1a5e995960921b6064820152608401610180565b6000805460ff1916600117905580156108bf576000805461ff0019166101001790555b6000805462010000600160b01b031916620100006001600160a01b038781169190910291909117909155600280546001600160a01b0319169184169190911790558251610913906001906020860190610960565b50801561095a576000805461ff0019169055604051600181527f7f26b83ff96e1f2b6a682f133852f6798a09c465da95921460cefb38474024989060200160405180910390a15b50505050565b82805461096c90610bfc565b90600052602060002090601f01602090048101928261098e57600085556109d4565b82601f106109a757805160ff19168380011785556109d4565b828001600101855582156109d4579182015b828111156109d45782518255916020019190600101906109b9565b506109e09291506109e4565b5090565b5b808211156109e057600081556001016109e5565b600060208284031215610a0b57600080fd5b5035919050565b600060208083528351808285015260005b81811015610a3f57858101830151858201604001528201610a23565b81811115610a51576000604083870101525b50601f01601f1916929092016040019392505050565b6001600160a01b0381168114610a7c57600080fd5b50565b8035610a8a81610a67565b919050565b600080600060608486031215610aa457600080fd5b8335610aaf81610a67565b92506020840135610abf81610a67565b929592945050506040919091013590565b634e487b7160e01b600052604160045260246000fd5b600080600060608486031215610afb57600080fd5b8335610b0681610a67565b9250602084013567ffffffffffffffff80821115610b2357600080fd5b818601915086601f830112610b3757600080fd5b813581811115610b4957610b49610ad0565b604051601f8201601f19908116603f01168101908382118183101715610b7157610b71610ad0565b81604052828152896020848701011115610b8a57600080fd5b826020860160208301376000602084830101528096505050505050610bb160408501610a7f565b90509250925092565b600060208284031215610bcc57600080fd5b5051919050565b600060208284031215610be557600080fd5b81518015158114610bf557600080fd5b9392505050565b600181811c90821680610c1057607f821691505b60208210811415610c3157634e487b7160e01b600052602260045260246000fd5b50919050565b600060208284031215610c4957600080fd5b8151610bf581610a67565b6000816000190483118215151615610c7c57634e487b7160e01b600052601160045260246000fd5b500290565b600082610c9e57634e487b7160e01b600052601260045260246000fd5b50049056fea26469706673582212206e9a43b4034008579b4f5a43a39cf94c5d59e81bfd3fce5191491c20ce67c15164736f6c63430008090033",
  "linkReferences": {},
  "deployedLinkReferences": {}
}