{
  "_format": "hh-sol-artifact-1",
  "contractName": "Project",
  "sourceName": "contracts/Project.sol",
  "abi": [
    {
      "inputs": [
        {
          "internalType": "address",
          "name": "_tokenAddress",
          "type": "address"
        },
        {
          "internalType": "address",
          "name": "_owner",
          "type": "address"
        },
        {
          "internalType": "string",
          "name": "_projectId",
          "type": "string"
        }
      ],
      "stateMutability": "nonpayable",
      "type": "constructor"
    },
    {
      "inputs": [],
      "name": "USDCtoken",
      "outputs": [
        {
          "internalType": "contract IERC20",
          "name": "",
          "type": "address"
        }
      ],
      "stateMutability": "view",
      "type": "function"
    },
    {
      "inputs": [
        {
          "internalType": "uint256",
          "name": "_taskId",
          "type": "uint256"
        },
        {
          "internalType": "address",
          "name": "_taskAddress",
          "type": "address"
        }
      ],
      "name": "addTask",
      "outputs": [],
      "stateMutability": "nonpayable",
      "type": "function"
    },
    {
      "inputs": [
        {
          "internalType": "uint256",
          "name": "_amount",
          "type": "uint256"
        }
      ],
      "name": "depositFunds",
      "outputs": [],
      "stateMutability": "nonpayable",
      "type": "function"
    },
    {
      "inputs": [],
      "name": "founderAddress",
      "outputs": [
        {
          "internalType": "address",
          "name": "",
          "type": "address"
        }
      ],
      "stateMutability": "view",
      "type": "function"
    },
    {
      "inputs": [],
      "name": "getTaskIds",
      "outputs": [
        {
          "internalType": "uint256[]",
          "name": "",
          "type": "uint256[]"
        }
      ],
      "stateMutability": "view",
      "type": "function"
    },
    {
      "inputs": [],
      "name": "projectId",
      "outputs": [
        {
          "internalType": "string",
          "name": "",
          "type": "string"
        }
      ],
      "stateMutability": "view",
      "type": "function"
    },
    {
      "inputs": [
        {
          "internalType": "uint256",
          "name": "_taskId",
          "type": "uint256"
        }
      ],
      "name": "removeTask",
      "outputs": [],
      "stateMutability": "nonpayable",
      "type": "function"
    },
    {
      "inputs": [
        {
          "internalType": "uint256",
          "name": "",
          "type": "uint256"
        }
      ],
      "name": "taskIds",
      "outputs": [
        {
          "internalType": "uint256",
          "name": "",
          "type": "uint256"
        }
      ],
      "stateMutability": "view",
      "type": "function"
    },
    {
      "inputs": [
        {
          "internalType": "uint256",
          "name": "_amount",
          "type": "uint256"
        }
      ],
      "name": "withdraw",
      "outputs": [],
      "stateMutability": "nonpayable",
      "type": "function"
    }
  ],
  "bytecode": "0x6080604052600480546001600160a01b031916735ee8d1b65942116da65700849d65cc839e38cc5e1790553480156200003757600080fd5b5060405162001165380380620011658339810160408190526200005a916200016c565b600080546001600160a01b038086166001600160a01b031992831617909255600180549285169290911691909117905580516200009f906002906020840190620000a9565b50505050620002c3565b828054620000b79062000270565b90600052602060002090601f016020900481019282620000db576000855562000126565b82601f10620000f657805160ff191683800117855562000126565b8280016001018555821562000126579182015b828111156200012657825182559160200191906001019062000109565b506200013492915062000138565b5090565b5b8082111562000134576000815560010162000139565b80516001600160a01b03811681146200016757600080fd5b919050565b6000806000606084860312156200018257600080fd5b6200018d846200014f565b925060206200019e8186016200014f565b60408601519093506001600160401b0380821115620001bc57600080fd5b818701915087601f830112620001d157600080fd5b815181811115620001e657620001e6620002ad565b604051601f8201601f19908116603f01168101908382118183101715620002115762000211620002ad565b816040528281528a868487010111156200022a57600080fd5b600093505b828410156200024e57848401860151818501870152928501926200022f565b82841115620002605760008684830101525b8096505050505050509250925092565b600181811c908216806200028557607f821691505b60208210811415620002a757634e487b7160e01b600052602260045260246000fd5b50919050565b634e487b7160e01b600052604160045260246000fd5b610e9280620002d36000396000f3fe608060405234801561001057600080fd5b50600436106100935760003560e01c80634185e507116100665780634185e507146100fb57806346bb283314610126578063b6bd3ae414610139578063bcd148051461014c578063c30841171461016157600080fd5b80632e1a7d4d1461009857806339118d25146100ad5780633b76594d146100d35780633fafa127146100e6575b600080fd5b6100ab6100a6366004610bc2565b610174565b005b6100c06100bb366004610bc2565b61034a565b6040519081526020015b60405180910390f35b6100ab6100e1366004610bc2565b61036b565b6100ee610440565b6040516100ca9190610c68565b60005461010e906001600160a01b031681565b6040516001600160a01b0390911681526020016100ca565b60015461010e906001600160a01b031681565b6100ab610147366004610bf4565b6104ce565b61015461079e565b6040516100ca9190610c24565b6100ab61016f366004610bc2565b6107f6565b6001546001600160a01b031633146101a75760405162461bcd60e51b815260040161019e90610cc3565b60405180910390fd5b600080546040516370a0823160e01b81523060048201526001600160a01b03909116906370a082319060240160206040518083038186803b1580156101eb57600080fd5b505afa1580156101ff573d6000803e3d6000fd5b505050506040513d601f19601f820116820180604052508101906102239190610bdb565b9050600081116102715760405162461bcd60e51b8152602060048201526019602482015278496e73756666696369656e7420555344432062616c616e636560381b604482015260640161019e565b818110156102bd5760405162461bcd60e51b8152602060048201526019602482015278496e73756666696369656e7420555344432062616c616e636560381b604482015260640161019e565b60005460015460405163a9059cbb60e01b81526001600160a01b0391821660048201526024810185905291169063a9059cbb90604401602060405180830381600087803b15801561030d57600080fd5b505af1158015610321573d6000803e3d6000fd5b505050506040513d601f19601f820116820180604052508101906103459190610aba565b505050565b6003818154811061035a57600080fd5b600091825260209091200154905081565b600081116103b25760405162461bcd60e51b81526020600482015260146024820152732d32b9379030b6b7bab73a1037b3103a37b5b2b760611b604482015260640161019e565b6000546040516323b872dd60e01b8152336004820152306024820152604481018390526001600160a01b03909116906323b872dd90606401602060405180830381600087803b15801561040457600080fd5b505af1158015610418573d6000803e3d6000fd5b505050506040513d601f19601f8201168201806040525081019061043c9190610aba565b5050565b6002805461044d90610dac565b80601f016020809104026020016040519081016040528092919081815260200182805461047990610dac565b80156104c65780601f1061049b576101008083540402835291602001916104c6565b820191906000526020600020905b8154815290600101906020018083116104a957829003601f168201915b505050505081565b6001546001600160a01b031633146104f85760405162461bcd60e51b815260040161019e90610cc3565b604051638c02263b60e01b8152600481018390526000906001600160a01b03831690638c02263b9060240160206040518083038186803b15801561053b57600080fd5b505afa15801561054f573d6000803e3d6000fd5b505050506040513d601f19601f820116820180604052508101906105739190610aba565b9050806105925760405162461bcd60e51b815260040161019e90610c9b565b6000805b6003548110156105e05784600382815481106105b4576105b4610e18565b906000526020600020015414156105ce57600191506105e0565b806105d881610de7565b915050610596565b50801561062f5760405162461bcd60e51b815260206004820152601860248201527f416c726561647920616464656420696e2070726f6a6563740000000000000000604482015260640161019e565b60405163976217cd60e01b8152600481018590526000906001600160a01b0385169063976217cd9060240160006040518083038186803b15801561067257600080fd5b505afa158015610686573d6000803e3d6000fd5b505050506040513d6000823e601f3d908101601f191682016040526106ae9190810190610adc565b60005460a08201519192506001600160a01b03169063a9059cbb9086906064906106d990606e610d46565b6106e39190610d24565b6040516001600160e01b031960e085901b1681526001600160a01b0390921660048301526024820152604401602060405180830381600087803b15801561072957600080fd5b505af115801561073d573d6000803e3d6000fd5b505050506040513d601f19601f820116820180604052508101906107619190610aba565b5050600380546001810182556000919091527fc2575a0e9e593c00f959f8c92f12db2869c3395a3b0502d05e2516446f71f85b0193909355505050565b606060038054806020026020016040519081016040528092919081815260200182805480156107ec57602002820191906000526020600020905b8154815260200190600101908083116107d8575b5050505050905090565b6001546001600160a01b031633146108205760405162461bcd60e51b815260040161019e90610cc3565b8061083d5760405162461bcd60e51b815260040161019e90610c9b565b6000805b60035481101561088757826003828154811061085f5761085f610e18565b9060005260206000200154141561087557600191505b8061087f81610de7565b915050610841565b50806108a55760405162461bcd60e51b815260040161019e90610c9b565b6003546000906108b790600190610d65565b67ffffffffffffffff8111156108cf576108cf610e2e565b6040519080825280602002602001820160405280156108f8578160200160208202803683370190505b5090506000805b60035481101561098857846003828154811061091d5761091d610e18565b906000526020600020015414610976576003818154811061094057610940610e18565b906000526020600020015483838151811061095d5761095d610e18565b60209081029190910101528161097281610de7565b9250505b8061098081610de7565b9150506108ff565b50815161099c9060039060208501906109a3565b5050505050565b8280548282559060005260206000209081019282156109de579160200282015b828111156109de5782518255916020019190600101906109c3565b506109ea9291506109ee565b5090565b5b808211156109ea57600081556001016109ef565b8051610a0e81610e44565b919050565b80518015158114610a0e57600080fd5b805160038110610a0e57600080fd5b600082601f830112610a4357600080fd5b815167ffffffffffffffff80821115610a5e57610a5e610e2e565b604051601f8301601f19908116603f01168101908282118183101715610a8657610a86610e2e565b81604052838152866020858801011115610a9f57600080fd5b610ab0846020830160208901610d7c565b9695505050505050565b600060208284031215610acc57600080fd5b610ad582610a13565b9392505050565b600060208284031215610aee57600080fd5b815167ffffffffffffffff80821115610b0657600080fd5b908301906101208286031215610b1b57600080fd5b610b23610cfa565b825182811115610b3257600080fd5b610b3e87828601610a32565b825250610b4d60208401610a23565b6020820152610b5e60408401610a03565b6040820152610b6f60608401610a03565b6060820152610b8060808401610a03565b608082015260a083015160a082015260c083015160c082015260e083015160e08201526101009150610bb3828401610a13565b91810191909152949350505050565b600060208284031215610bd457600080fd5b5035919050565b600060208284031215610bed57600080fd5b5051919050565b60008060408385031215610c0757600080fd5b823591506020830135610c1981610e44565b809150509250929050565b6020808252825182820181905260009190848201906040850190845b81811015610c5c57835183529284019291840191600101610c40565b50909695505050505050565b6020815260008251806020840152610c87816040850160208701610d7c565b601f01601f19169190910160400192915050565b6020808252600e908201526d15185cdac81b9bdd08199bdd5b9960921b604082015260600190565b6020808252601c908201527f596f75277265206e6f7420612070726f6a65637420666f756e64657200000000604082015260600190565b604051610120810167ffffffffffffffff81118282101715610d1e57610d1e610e2e565b60405290565b600082610d4157634e487b7160e01b600052601260045260246000fd5b500490565b6000816000190483118215151615610d6057610d60610e02565b500290565b600082821015610d7757610d77610e02565b500390565b60005b83811015610d97578181015183820152602001610d7f565b83811115610da6576000848401525b50505050565b600181811c90821680610dc057607f821691505b60208210811415610de157634e487b7160e01b600052602260045260246000fd5b50919050565b6000600019821415610dfb57610dfb610e02565b5060010190565b634e487b7160e01b600052601160045260246000fd5b634e487b7160e01b600052603260045260246000fd5b634e487b7160e01b600052604160045260246000fd5b6001600160a01b0381168114610e5957600080fd5b5056fea2646970667358221220db98d180731b58468f6525fa448156168194f81b701d84a1370d64f5cb0a46a664736f6c63430008070033",
  "linkReferences": {},
  "deployedLinkReferences": {}
}