{
  "_format": "hh-sol-artifact-1",
  "contractName": "Project",
  "sourceName": "contracts/Project.sol",
  "abi": [
    {
      "anonymous": false,
      "inputs": [
        {
          "indexed": false,
          "internalType": "uint8",
          "name": "version",
          "type": "uint8"
        }
      ],
      "name": "Initialized",
      "type": "event"
    },
    {
      "inputs": [],
      "name": "USDCtoken",
      "outputs": [
        {
          "internalType": "contract IERC20",
          "name": "",
          "type": "address"
        }
      ],
      "stateMutability": "view",
      "type": "function"
    },
    {
      "inputs": [
        {
          "internalType": "uint256",
          "name": "_amount",
          "type": "uint256"
        }
      ],
      "name": "depositFunds",
      "outputs": [],
      "stateMutability": "nonpayable",
      "type": "function"
    },
    {
      "inputs": [
        {
          "internalType": "address",
          "name": "_taskFactoryAddress",
          "type": "address"
        },
        {
          "internalType": "address",
          "name": "_projectAddress",
          "type": "address"
        },
        {
          "internalType": "uint256",
          "name": "_amount",
          "type": "uint256"
        }
      ],
      "name": "fundProjectTask",
      "outputs": [],
      "stateMutability": "nonpayable",
      "type": "function"
    },
    {
      "inputs": [
        {
          "internalType": "address",
          "name": "_tokenAddress",
          "type": "address"
        },
        {
          "internalType": "string",
          "name": "_projectId",
          "type": "string"
        },
        {
          "internalType": "address",
          "name": "_owner",
          "type": "address"
        }
      ],
      "name": "initialize",
      "outputs": [],
      "stateMutability": "nonpayable",
      "type": "function"
    },
    {
      "inputs": [],
      "name": "owner",
      "outputs": [
        {
          "internalType": "address",
          "name": "",
          "type": "address"
        }
      ],
      "stateMutability": "view",
      "type": "function"
    },
    {
      "inputs": [],
      "name": "projectId",
      "outputs": [
        {
          "internalType": "string",
          "name": "",
          "type": "string"
        }
      ],
      "stateMutability": "view",
      "type": "function"
    },
    {
      "inputs": [
        {
          "internalType": "uint256",
          "name": "_amount",
          "type": "uint256"
        }
      ],
      "name": "withdraw",
      "outputs": [],
      "stateMutability": "nonpayable",
      "type": "function"
    }
  ],
  "bytecode": "0x608060405234801561001057600080fd5b50610b0d806100206000396000f3fe608060405234801561001057600080fd5b506004361061007d5760003560e01c80634185e5071161005b5780634185e507146100c85780634e0030d9146100f95780637bb7c0d81461010c5780638da5cb5b1461011f57600080fd5b80632e1a7d4d146100825780633b76594d146100975780633fafa127146100aa575b600080fd5b610095610090366004610998565b610132565b005b6100956100a5366004610998565b61033f565b6100b2610419565b6040516100bf91906109ca565b60405180910390f35b6000546100e1906201000090046001600160a01b031681565b6040516001600160a01b0390911681526020016100bf565b610095610107366004610861565b6104a7565b61009561011a3660046108a2565b610633565b6002546100e1906001600160a01b031681565b6002546001600160a01b031633146101915760405162461bcd60e51b815260206004820152601c60248201527f596f75277265206e6f7420612070726f6a65637420666f756e6465720000000060448201526064015b60405180910390fd5b600080546040516370a0823160e01b8152306004820152620100009091046001600160a01b0316906370a082319060240160206040518083038186803b1580156101da57600080fd5b505afa1580156101ee573d6000803e3d6000fd5b505050506040513d601f19601f8201168201806040525081019061021291906109b1565b9050600081116102605760405162461bcd60e51b8152602060048201526019602482015278496e73756666696369656e7420555344432062616c616e636560381b6044820152606401610188565b818110156102ac5760405162461bcd60e51b8152602060048201526019602482015278496e73756666696369656e7420555344432062616c616e636560381b6044820152606401610188565b60005460025460405163a9059cbb60e01b81526001600160a01b0391821660048201526024810185905262010000909204169063a9059cbb90604401602060405180830381600087803b15801561030257600080fd5b505af1158015610316573d6000803e3d6000fd5b505050506040513d601f19601f8201168201806040525081019061033a9190610976565b505050565b600081116103865760405162461bcd60e51b81526020600482015260146024820152732d32b9379030b6b7bab73a1037b3103a37b5b2b760611b6044820152606401610188565b6000546040516323b872dd60e01b815233600482015230602482015260448101839052620100009091046001600160a01b0316906323b872dd90606401602060405180830381600087803b1580156103dd57600080fd5b505af11580156103f1573d6000803e3d6000fd5b505050506040513d601f19601f820116820180604052508101906104159190610976565b5050565b6001805461042690610a6e565b80601f016020809104026020016040519081016040528092919081815260200182805461045290610a6e565b801561049f5780601f106104745761010080835404028352916020019161049f565b820191906000526020600020905b81548152906001019060200180831161048257829003601f168201915b505050505081565b6002546001600160a01b031633146105015760405162461bcd60e51b815260206004820152601c60248201527f596f75277265206e6f7420612070726f6a65637420666f756e646572000000006044820152606401610188565b604051632ce9e9bb60e21b81526001600160a01b038381166004830152849160009183169063b3a7a6ec9060240160206040518083038186803b15801561054757600080fd5b505afa15801561055b573d6000803e3d6000fd5b505050506040513d601f19601f8201168201806040525081019061057f919061083d565b90506000606461059085606e610a41565b61059a9190610a1f565b60005460405163a9059cbb60e01b81526001600160a01b03858116600483015260248201849052929350620100009091049091169063a9059cbb90604401602060405180830381600087803b1580156105f257600080fd5b505af1158015610606573d6000803e3d6000fd5b505050506040513d601f19601f8201168201806040525081019061062a9190610976565b50505050505050565b600054610100900460ff16158080156106535750600054600160ff909116105b8061066d5750303b15801561066d575060005460ff166001145b6106d05760405162461bcd60e51b815260206004820152602e60248201527f496e697469616c697a61626c653a20636f6e747261637420697320616c72656160448201526d191e481a5b9a5d1a585b1a5e995960921b6064820152608401610188565b6000805460ff1916600117905580156106f3576000805461ff0019166101001790555b6000805462010000600160b01b031916620100006001600160a01b038781169190910291909117909155600280546001600160a01b0319169184169190911790558251610747906001906020860190610794565b50801561078e576000805461ff0019169055604051600181527f7f26b83ff96e1f2b6a682f133852f6798a09c465da95921460cefb38474024989060200160405180910390a15b50505050565b8280546107a090610a6e565b90600052602060002090601f0160209004810192826107c25760008555610808565b82601f106107db57805160ff1916838001178555610808565b82800160010185558215610808579182015b828111156108085782518255916020019190600101906107ed565b50610814929150610818565b5090565b5b808211156108145760008155600101610819565b803561083881610abf565b919050565b60006020828403121561084f57600080fd5b815161085a81610abf565b9392505050565b60008060006060848603121561087657600080fd5b833561088181610abf565b9250602084013561089181610abf565b929592945050506040919091013590565b6000806000606084860312156108b757600080fd5b83356108c281610abf565b9250602084013567ffffffffffffffff808211156108df57600080fd5b818601915086601f8301126108f357600080fd5b81358181111561090557610905610aa9565b604051601f8201601f19908116603f0116810190838211818310171561092d5761092d610aa9565b8160405282815289602084870101111561094657600080fd5b82602086016020830137600060208483010152809650505050505061096d6040850161082d565b90509250925092565b60006020828403121561098857600080fd5b8151801515811461085a57600080fd5b6000602082840312156109aa57600080fd5b5035919050565b6000602082840312156109c357600080fd5b5051919050565b600060208083528351808285015260005b818110156109f7578581018301518582016040015282016109db565b81811115610a09576000604083870101525b50601f01601f1916929092016040019392505050565b600082610a3c57634e487b7160e01b600052601260045260246000fd5b500490565b6000816000190483118215151615610a6957634e487b7160e01b600052601160045260246000fd5b500290565b600181811c90821680610a8257607f821691505b60208210811415610aa357634e487b7160e01b600052602260045260246000fd5b50919050565b634e487b7160e01b600052604160045260246000fd5b6001600160a01b0381168114610ad457600080fd5b5056fea26469706673582212206dba7712ab6f4bf67fe664121ebae1d755bec9e1482be9b90f13ad1d0bea6c8364736f6c63430008070033",
  "linkReferences": {},
  "deployedLinkReferences": {}
}