{
  "_format": "hh-sol-artifact-1",
  "contractName": "Project",
  "sourceName": "contracts/Project.sol",
  "abi": [
    {
      "inputs": [
        {
          "internalType": "address",
          "name": "_tokenAddress",
          "type": "address"
        },
        {
          "internalType": "address",
          "name": "_owner",
          "type": "address"
        },
        {
          "internalType": "string",
          "name": "_name",
          "type": "string"
        },
        {
          "internalType": "string",
          "name": "_description",
          "type": "string"
        },
        {
          "internalType": "uint256",
          "name": "_budget",
          "type": "uint256"
        }
      ],
      "stateMutability": "nonpayable",
      "type": "constructor"
    },
    {
      "inputs": [],
      "name": "USDCtoken",
      "outputs": [
        {
          "internalType": "contract IERC20",
          "name": "",
          "type": "address"
        }
      ],
      "stateMutability": "view",
      "type": "function"
    },
    {
      "inputs": [
        {
          "internalType": "uint256",
          "name": "_taskId",
          "type": "uint256"
        },
        {
          "internalType": "address",
          "name": "_taskAddress",
          "type": "address"
        }
      ],
      "name": "addTask",
      "outputs": [],
      "stateMutability": "nonpayable",
      "type": "function"
    },
    {
      "inputs": [],
      "name": "budget",
      "outputs": [
        {
          "internalType": "uint256",
          "name": "",
          "type": "uint256"
        }
      ],
      "stateMutability": "view",
      "type": "function"
    },
    {
      "inputs": [],
      "name": "completeProject",
      "outputs": [],
      "stateMutability": "nonpayable",
      "type": "function"
    },
    {
      "inputs": [],
      "name": "currentState",
      "outputs": [
        {
          "internalType": "enum Project.State",
          "name": "",
          "type": "uint8"
        }
      ],
      "stateMutability": "view",
      "type": "function"
    },
    {
      "inputs": [
        {
          "internalType": "uint256",
          "name": "_amount",
          "type": "uint256"
        }
      ],
      "name": "depositFunds",
      "outputs": [],
      "stateMutability": "nonpayable",
      "type": "function"
    },
    {
      "inputs": [],
      "name": "description",
      "outputs": [
        {
          "internalType": "string",
          "name": "",
          "type": "string"
        }
      ],
      "stateMutability": "view",
      "type": "function"
    },
    {
      "inputs": [],
      "name": "founderAddress",
      "outputs": [
        {
          "internalType": "address",
          "name": "",
          "type": "address"
        }
      ],
      "stateMutability": "view",
      "type": "function"
    },
    {
      "inputs": [],
      "name": "getProjectBuget",
      "outputs": [
        {
          "internalType": "uint256",
          "name": "",
          "type": "uint256"
        }
      ],
      "stateMutability": "view",
      "type": "function"
    },
    {
      "inputs": [],
      "name": "getTaskIds",
      "outputs": [
        {
          "internalType": "uint256[]",
          "name": "",
          "type": "uint256[]"
        }
      ],
      "stateMutability": "view",
      "type": "function"
    },
    {
      "inputs": [],
      "name": "isDeposit",
      "outputs": [
        {
          "internalType": "bool",
          "name": "",
          "type": "bool"
        }
      ],
      "stateMutability": "view",
      "type": "function"
    },
    {
      "inputs": [],
      "name": "name",
      "outputs": [
        {
          "internalType": "string",
          "name": "",
          "type": "string"
        }
      ],
      "stateMutability": "view",
      "type": "function"
    },
    {
      "inputs": [
        {
          "internalType": "uint256",
          "name": "_taskId",
          "type": "uint256"
        }
      ],
      "name": "removeTask",
      "outputs": [],
      "stateMutability": "nonpayable",
      "type": "function"
    },
    {
      "inputs": [],
      "name": "startProject",
      "outputs": [],
      "stateMutability": "nonpayable",
      "type": "function"
    },
    {
      "inputs": [
        {
          "internalType": "uint256",
          "name": "",
          "type": "uint256"
        }
      ],
      "name": "taskIds",
      "outputs": [
        {
          "internalType": "uint256",
          "name": "",
          "type": "uint256"
        }
      ],
      "stateMutability": "view",
      "type": "function"
    },
    {
      "inputs": [
        {
          "internalType": "uint256",
          "name": "_newBudget",
          "type": "uint256"
        }
      ],
      "name": "updateProjectBudget",
      "outputs": [],
      "stateMutability": "nonpayable",
      "type": "function"
    },
    {
      "inputs": [
        {
          "internalType": "string",
          "name": "_description",
          "type": "string"
        }
      ],
      "name": "updateProjectDescription",
      "outputs": [],
      "stateMutability": "nonpayable",
      "type": "function"
    },
    {
      "inputs": [
        {
          "internalType": "string",
          "name": "_name",
          "type": "string"
        }
      ],
      "name": "updateProjectName",
      "outputs": [],
      "stateMutability": "nonpayable",
      "type": "function"
    },
    {
      "inputs": [],
      "name": "withdraw",
      "outputs": [],
      "stateMutability": "nonpayable",
      "type": "function"
    }
  ],
  "bytecode": "0x6080604052600a600755600880546001600160a01b031916735ee8d1b65942116da65700849d65cc839e38cc5e1790553480156200003c57600080fd5b50604051620018d8380380620018d88339810160408190526200005f916200024e565b600080546001600160a01b038088166001600160a01b03199283161790925560018054928716929091169190911790558251620000a4906002906020860190620000d4565b508151620000ba906003906020850190620000d4565b5060045550506006805461ffff19169055506200033b9050565b828054620000e290620002e8565b90600052602060002090601f01602090048101928262000106576000855562000151565b82601f106200012157805160ff191683800117855562000151565b8280016001018555821562000151579182015b828111156200015157825182559160200191906001019062000134565b506200015f92915062000163565b5090565b5b808211156200015f576000815560010162000164565b80516001600160a01b03811681146200019257600080fd5b919050565b600082601f830112620001a957600080fd5b81516001600160401b0380821115620001c657620001c662000325565b604051601f8301601f19908116603f01168101908282118183101715620001f157620001f162000325565b816040528381526020925086838588010111156200020e57600080fd5b600091505b8382101562000232578582018301518183018401529082019062000213565b83821115620002445760008385830101525b9695505050505050565b600080600080600060a086880312156200026757600080fd5b62000272866200017a565b945062000282602087016200017a565b60408701519094506001600160401b0380821115620002a057600080fd5b620002ae89838a0162000197565b94506060880151915080821115620002c557600080fd5b50620002d48882890162000197565b925050608086015190509295509295909350565b600181811c90821680620002fd57607f821691505b602082108114156200031f57634e487b7160e01b600052602260045260246000fd5b50919050565b634e487b7160e01b600052604160045260246000fd5b61158d806200034b6000396000f3fe608060405234801561001057600080fd5b50600436106101215760003560e01c80637284e416116100ad578063c308411711610071578063c308411714610256578063c6da612814610269578063c7656f6e1461027c578063ed01bf2914610284578063fc0e97391461028d57600080fd5b80637284e416146101f15780637bc3b5ff146101f9578063a019e5351461021b578063b6bd3ae41461022e578063bcd148051461024157600080fd5b806339118d25116100f457806339118d25146101855780633b76594d146101985780633ccfd60b146101ab5780634185e507146101b357806346bb2833146101de57600080fd5b806306fdde03146101265780630c3f6acf14610144578063235eee1d1461015e57806323a22bcb14610170575b600080fd5b61012e610295565b60405161013b91906112f7565b60405180910390f35b6006546101519060ff1681565b60405161013b91906112cf565b6004545b60405190815260200161013b565b61018361017e3660046110c8565b610323565b005b610162610193366004611229565b61036d565b6101836101a6366004611229565b61038e565b6101836103c4565b6000546101c6906001600160a01b031681565b6040516001600160a01b03909116815260200161013b565b6001546101c6906001600160a01b031681565b61012e6105ab565b60065461020b90610100900460ff1681565b604051901515815260200161013b565b610183610229366004611229565b6105b8565b61018361023c36600461125b565b6107de565b610249610aae565b60405161013b919061128b565b610183610264366004611229565b610b06565b6101836102773660046110c8565b610cb3565b610183610cf0565b61016260045481565b610183610d88565b600280546102a290611494565b80601f01602080910402602001604051908101604052809291908181526020018280546102ce90611494565b801561031b5780601f106102f05761010080835404028352916020019161031b565b820191906000526020600020905b8154815290600101906020018083116102fe57829003601f168201915b505050505081565b6001546001600160a01b031633146103565760405162461bcd60e51b815260040161034d90611352565b60405180910390fd5b8051610369906003906020840190610f52565b5050565b6005818154811061037d57600080fd5b600091825260209091200154905081565b6001546001600160a01b031633146103b85760405162461bcd60e51b815260040161034d90611352565b6103c181610e2c565b50565b6001546001600160a01b031633146103ee5760405162461bcd60e51b815260040161034d90611352565b600080546040516370a0823160e01b81523060048201526001600160a01b03909116906370a082319060240160206040518083038186803b15801561043257600080fd5b505afa158015610446573d6000803e3d6000fd5b505050506040513d601f19601f8201168201806040525081019061046a9190611242565b9050600081116104bc5760405162461bcd60e51b815260206004820152601960248201527f496e73756666696369656e7420555344432062616c616e636500000000000000604482015260640161034d565b600060065460ff1660028111156104d5576104d5611500565b146105225760405162461bcd60e51b815260206004820152601760248201527f50726f6a65637420616c72656164792073746172746564000000000000000000604482015260640161034d565b60005460015460405163a9059cbb60e01b81526001600160a01b0391821660048201526024810184905291169063a9059cbb906044015b602060405180830381600087803b15801561057357600080fd5b505af1158015610587573d6000803e3d6000fd5b505050506040513d601f19601f8201168201806040525081019061036991906110a6565b600380546102a290611494565b6001546001600160a01b031633146105e25760405162461bcd60e51b815260040161034d90611352565b600654610100900460ff16156107d9576064600454606e610603919061142e565b61060d919061140c565b6000546040516370a0823160e01b81523060048201526001600160a01b03909116906370a082319060240160206040518083038186803b15801561065057600080fd5b505afa158015610664573d6000803e3d6000fd5b505050506040513d601f19601f820116820180604052508101906106889190611242565b10156107145760405162461bcd60e51b815260206004820152604f60248201527f596f752063616e277420757064617465207468652062756467657420666f722060448201527f70726f6a6563742062656361757365206e6f7420656e6f75676820746865206360648201526e3ab93932b73a103130b630b731b29760891b608482015260a40161034d565b6000546004546001600160a01b039091169063a9059cbb90339060649061073c90606e61142e565b610746919061140c565b6040516001600160e01b031960e085901b1681526001600160a01b0390921660048301526024820152604401602060405180830381600087803b15801561078c57600080fd5b505af11580156107a0573d6000803e3d6000fd5b505050506040513d601f19601f820116820180604052508101906107c491906110a6565b506006805461ff00191690556103c181610e2c565b600455565b6001546001600160a01b031633146108085760405162461bcd60e51b815260040161034d90611352565b604051638c02263b60e01b8152600481018390526000906001600160a01b03831690638c02263b9060240160206040518083038186803b15801561084b57600080fd5b505afa15801561085f573d6000803e3d6000fd5b505050506040513d601f19601f8201168201806040525081019061088391906110a6565b9050806108a25760405162461bcd60e51b815260040161034d9061132a565b6000805b6005548110156108f05784600582815481106108c4576108c4611516565b906000526020600020015414156108de57600191506108f0565b806108e8816114cf565b9150506108a6565b50801561093f5760405162461bcd60e51b815260206004820152601860248201527f416c726561647920616464656420696e2070726f6a6563740000000000000000604482015260640161034d565b60405163976217cd60e01b8152600481018590526000906001600160a01b0385169063976217cd9060240160006040518083038186803b15801561098257600080fd5b505afa158015610996573d6000803e3d6000fd5b505050506040513d6000823e601f3d908101601f191682016040526109be9190810190611143565b60005460a08201519192506001600160a01b03169063a9059cbb9086906064906109e990606e61142e565b6109f3919061140c565b6040516001600160e01b031960e085901b1681526001600160a01b0390921660048301526024820152604401602060405180830381600087803b158015610a3957600080fd5b505af1158015610a4d573d6000803e3d6000fd5b505050506040513d601f19601f82011682018060405250810190610a7191906110a6565b5050600580546001810182556000919091527f036b6384b5eca791c62761152d0c79bb0604c104a5fb6f4eb0703f3154bb3db00193909355505050565b60606005805480602002602001604051908101604052809291908181526020018280548015610afc57602002820191906000526020600020905b815481526020019060010190808311610ae8575b5050505050905090565b6001546001600160a01b03163314610b305760405162461bcd60e51b815260040161034d90611352565b80610b4d5760405162461bcd60e51b815260040161034d9061132a565b6000805b600554811015610b97578260058281548110610b6f57610b6f611516565b90600052602060002001541415610b8557600191505b80610b8f816114cf565b915050610b51565b5080610bb55760405162461bcd60e51b815260040161034d9061132a565b600554600090610bc79060019061144d565b67ffffffffffffffff811115610bdf57610bdf61152c565b604051908082528060200260200182016040528015610c08578160200160208202803683370190505b5090506000805b600554811015610c98578460058281548110610c2d57610c2d611516565b906000526020600020015414610c865760058181548110610c5057610c50611516565b9060005260206000200154838381518110610c6d57610c6d611516565b602090810291909101015281610c82816114cf565b9250505b80610c90816114cf565b915050610c0f565b508151610cac906005906020850190610fd6565b5050505050565b6001546001600160a01b03163314610cdd5760405162461bcd60e51b815260040161034d90611352565b8051610369906002906020840190610f52565b6001546001600160a01b03163314610d1a5760405162461bcd60e51b815260040161034d90611352565b600060065460ff166002811115610d3357610d33611500565b14610d725760405162461bcd60e51b815260206004820152600f60248201526e105b1c9958591e481cdd185c9d1959608a1b604482015260640161034d565b600680546001919060ff191682805b0217905550565b6001546001600160a01b03163314610db25760405162461bcd60e51b815260040161034d90611352565b600160065460ff166002811115610dcb57610dcb611500565b14610e185760405162461bcd60e51b815260206004820152601a60248201527f546869732070726f6a656374206973206f6e6c79206f70656e2e000000000000604482015260640161034d565b600680546002919060ff1916600183610d81565b6001546001600160a01b03163314610e565760405162461bcd60e51b815260040161034d90611352565b60008111610e9d5760405162461bcd60e51b81526020600482015260146024820152732d32b9379030b6b7bab73a1037b3103a37b5b2b760611b604482015260640161034d565b6064600454606e610eae919061142e565b610eb8919061140c565b8114610f065760405162461bcd60e51b815260206004820152601860248201527f496e636f7272656374206465706f736974652066756e64730000000000000000604482015260640161034d565b6006805461ff0019166101001790556000546040516323b872dd60e01b8152336004820152306024820152604481018390526001600160a01b03909116906323b872dd90606401610559565b828054610f5e90611494565b90600052602060002090601f016020900481019282610f805760008555610fc6565b82601f10610f9957805160ff1916838001178555610fc6565b82800160010185558215610fc6579182015b82811115610fc6578251825591602001919060010190610fab565b50610fd2929150611010565b5090565b828054828255906000526020600020908101928215610fc65791602002820182811115610fc6578251825591602001919060010190610fab565b5b80821115610fd25760008155600101611011565b805161103081611542565b919050565b8051801515811461103057600080fd5b80516003811061103057600080fd5b600082601f83011261106557600080fd5b8151611078611073826113e4565b6113b3565b81815284602083860101111561108d57600080fd5b61109e826020830160208701611464565b949350505050565b6000602082840312156110b857600080fd5b6110c182611035565b9392505050565b6000602082840312156110da57600080fd5b813567ffffffffffffffff8111156110f157600080fd5b8201601f8101841361110257600080fd5b8035611110611073826113e4565b81815285602083850101111561112557600080fd5b81602084016020830137600091810160200191909152949350505050565b60006020828403121561115557600080fd5b815167ffffffffffffffff8082111561116d57600080fd5b90830190610120828603121561118257600080fd5b61118a611389565b82518281111561119957600080fd5b6111a587828601611054565b8252506111b460208401611045565b60208201526111c560408401611025565b60408201526111d660608401611025565b60608201526111e760808401611025565b608082015260a083015160a082015260c083015160c082015260e083015160e0820152610100915061121a828401611035565b91810191909152949350505050565b60006020828403121561123b57600080fd5b5035919050565b60006020828403121561125457600080fd5b5051919050565b6000806040838503121561126e57600080fd5b82359150602083013561128081611542565b809150509250929050565b6020808252825182820181905260009190848201906040850190845b818110156112c3578351835292840192918401916001016112a7565b50909695505050505050565b60208101600383106112f157634e487b7160e01b600052602160045260246000fd5b91905290565b6020815260008251806020840152611316816040850160208701611464565b601f01601f19169190910160400192915050565b6020808252600e908201526d15185cdac81b9bdd08199bdd5b9960921b604082015260600190565b6020808252601c908201527f596f75277265206e6f7420612070726f6a65637420666f756e64657200000000604082015260600190565b604051610120810167ffffffffffffffff811182821017156113ad576113ad61152c565b60405290565b604051601f8201601f1916810167ffffffffffffffff811182821017156113dc576113dc61152c565b604052919050565b600067ffffffffffffffff8211156113fe576113fe61152c565b50601f01601f191660200190565b60008261142957634e487b7160e01b600052601260045260246000fd5b500490565b6000816000190483118215151615611448576114486114ea565b500290565b60008282101561145f5761145f6114ea565b500390565b60005b8381101561147f578181015183820152602001611467565b8381111561148e576000848401525b50505050565b600181811c908216806114a857607f821691505b602082108114156114c957634e487b7160e01b600052602260045260246000fd5b50919050565b60006000198214156114e3576114e36114ea565b5060010190565b634e487b7160e01b600052601160045260246000fd5b634e487b7160e01b600052602160045260246000fd5b634e487b7160e01b600052603260045260246000fd5b634e487b7160e01b600052604160045260246000fd5b6001600160a01b03811681146103c157600080fdfea2646970667358221220029435eb04c00c0edea7f8fb4bb49d806dda828e1f5b5cc0ddf29df1e342e33964736f6c63430008070033",
  "linkReferences": {},
  "deployedLinkReferences": {}
}