{
  "_format": "hh-sol-artifact-1",
  "contractName": "Project",
  "sourceName": "contracts/Project.sol",
  "abi": [
    {
      "inputs": [
        {
          "internalType": "address",
          "name": "_tokenAddress",
          "type": "address"
        },
        {
          "internalType": "address",
          "name": "_owner",
          "type": "address"
        },
        {
          "internalType": "string",
          "name": "_name",
          "type": "string"
        },
        {
          "internalType": "string",
          "name": "_description",
          "type": "string"
        },
        {
          "internalType": "uint256",
          "name": "_budget",
          "type": "uint256"
        }
      ],
      "stateMutability": "nonpayable",
      "type": "constructor"
    },
    {
      "inputs": [],
      "name": "USDCtoken",
      "outputs": [
        {
          "internalType": "contract IERC20",
          "name": "",
          "type": "address"
        }
      ],
      "stateMutability": "view",
      "type": "function"
    },
    {
      "inputs": [
        {
          "internalType": "uint256",
          "name": "_taskId",
          "type": "uint256"
        }
      ],
      "name": "addTask",
      "outputs": [],
      "stateMutability": "nonpayable",
      "type": "function"
    },
    {
      "inputs": [],
      "name": "budget",
      "outputs": [
        {
          "internalType": "uint256",
          "name": "",
          "type": "uint256"
        }
      ],
      "stateMutability": "view",
      "type": "function"
    },
    {
      "inputs": [],
      "name": "completeProject",
      "outputs": [],
      "stateMutability": "nonpayable",
      "type": "function"
    },
    {
      "inputs": [
        {
          "internalType": "uint256",
          "name": "_taskId",
          "type": "uint256"
        }
      ],
      "name": "completeTask",
      "outputs": [],
      "stateMutability": "nonpayable",
      "type": "function"
    },
    {
      "inputs": [],
      "name": "currentState",
      "outputs": [
        {
          "internalType": "enum Project.State",
          "name": "",
          "type": "uint8"
        }
      ],
      "stateMutability": "view",
      "type": "function"
    },
    {
      "inputs": [
        {
          "internalType": "uint256",
          "name": "_amount",
          "type": "uint256"
        }
      ],
      "name": "depositFunds",
      "outputs": [],
      "stateMutability": "nonpayable",
      "type": "function"
    },
    {
      "inputs": [],
      "name": "description",
      "outputs": [
        {
          "internalType": "string",
          "name": "",
          "type": "string"
        }
      ],
      "stateMutability": "view",
      "type": "function"
    },
    {
      "inputs": [],
      "name": "founderAddress",
      "outputs": [
        {
          "internalType": "address",
          "name": "",
          "type": "address"
        }
      ],
      "stateMutability": "view",
      "type": "function"
    },
    {
      "inputs": [],
      "name": "name",
      "outputs": [
        {
          "internalType": "string",
          "name": "",
          "type": "string"
        }
      ],
      "stateMutability": "view",
      "type": "function"
    },
    {
      "inputs": [
        {
          "internalType": "uint256",
          "name": "_taskId",
          "type": "uint256"
        }
      ],
      "name": "removeTask",
      "outputs": [],
      "stateMutability": "nonpayable",
      "type": "function"
    },
    {
      "inputs": [],
      "name": "startProject",
      "outputs": [],
      "stateMutability": "nonpayable",
      "type": "function"
    },
    {
      "inputs": [
        {
          "internalType": "uint256",
          "name": "",
          "type": "uint256"
        }
      ],
      "name": "taskIds",
      "outputs": [
        {
          "internalType": "uint256",
          "name": "",
          "type": "uint256"
        }
      ],
      "stateMutability": "view",
      "type": "function"
    },
    {
      "inputs": [
        {
          "internalType": "string",
          "name": "_description",
          "type": "string"
        }
      ],
      "name": "updateProjectDescription",
      "outputs": [],
      "stateMutability": "nonpayable",
      "type": "function"
    },
    {
      "inputs": [
        {
          "internalType": "string",
          "name": "_name",
          "type": "string"
        }
      ],
      "name": "updateProjectName",
      "outputs": [],
      "stateMutability": "nonpayable",
      "type": "function"
    },
    {
      "inputs": [],
      "name": "withdraw",
      "outputs": [],
      "stateMutability": "nonpayable",
      "type": "function"
    }
  ],
  "bytecode": "0x6080604052600a600755735ee8d1b65942116da65700849d65cc839e38cc5e600860006101000a81548173ffffffffffffffffffffffffffffffffffffffff021916908373ffffffffffffffffffffffffffffffffffffffff16021790555073bcddf66c85ce1856bd9066bbb128663e2745849a600960006101000a81548173ffffffffffffffffffffffffffffffffffffffff021916908373ffffffffffffffffffffffffffffffffffffffff160217905550348015620000c057600080fd5b5060405162002600380380620026008339818101604052810190620000e6919062000335565b846000806101000a81548173ffffffffffffffffffffffffffffffffffffffff021916908373ffffffffffffffffffffffffffffffffffffffff16021790555083600160006101000a81548173ffffffffffffffffffffffffffffffffffffffff021916908373ffffffffffffffffffffffffffffffffffffffff16021790555082600290805190602001906200017f929190620001d9565b50816003908051906020019062000198929190620001d9565b50806004819055506000600660006101000a81548160ff02191690836002811115620001c957620001c86200053a565b5b0217905550505050505062000620565b828054620001e790620004ce565b90600052602060002090601f0160209004810192826200020b576000855562000257565b82601f106200022657805160ff191683800117855562000257565b8280016001018555821562000257579182015b828111156200025657825182559160200191906001019062000239565b5b5090506200026691906200026a565b5090565b5b80821115620002855760008160009055506001016200026b565b5090565b6000620002a06200029a8462000424565b620003fb565b905082815260208101848484011115620002bf57620002be620005cc565b5b620002cc84828562000498565b509392505050565b600081519050620002e581620005ec565b92915050565b600082601f830112620003035762000302620005c7565b5b81516200031584826020860162000289565b91505092915050565b6000815190506200032f8162000606565b92915050565b600080600080600060a08688031215620003545762000353620005d6565b5b60006200036488828901620002d4565b95505060206200037788828901620002d4565b945050604086015167ffffffffffffffff8111156200039b576200039a620005d1565b5b620003a988828901620002eb565b935050606086015167ffffffffffffffff811115620003cd57620003cc620005d1565b5b620003db88828901620002eb565b9250506080620003ee888289016200031e565b9150509295509295909350565b6000620004076200041a565b905062000415828262000504565b919050565b6000604051905090565b600067ffffffffffffffff82111562000442576200044162000598565b5b6200044d82620005db565b9050602081019050919050565b600062000467826200046e565b9050919050565b600073ffffffffffffffffffffffffffffffffffffffff82169050919050565b6000819050919050565b60005b83811015620004b85780820151818401526020810190506200049b565b83811115620004c8576000848401525b50505050565b60006002820490506001821680620004e757607f821691505b60208210811415620004fe57620004fd62000569565b5b50919050565b6200050f82620005db565b810181811067ffffffffffffffff8211171562000531576200053062000598565b5b80604052505050565b7f4e487b7100000000000000000000000000000000000000000000000000000000600052602160045260246000fd5b7f4e487b7100000000000000000000000000000000000000000000000000000000600052602260045260246000fd5b7f4e487b7100000000000000000000000000000000000000000000000000000000600052604160045260246000fd5b600080fd5b600080fd5b600080fd5b600080fd5b6000601f19601f8301169050919050565b620005f7816200045a565b81146200060357600080fd5b50565b62000611816200048e565b81146200061d57600080fd5b50565b611fd080620006306000396000f3fe608060405234801561001057600080fd5b50600436106101005760003560e01c80637284e41611610097578063c7656f6e11610066578063c7656f6e14610261578063e1e295581461026b578063ed01bf2914610287578063fc0e9739146102a557610100565b80637284e416146101ef578063ba73cfc51461020d578063c308411714610229578063c6da61281461024557610100565b80633b76594d116100d35780633b76594d1461018d5780633ccfd60b146101a95780634185e507146101b357806346bb2833146101d157610100565b806306fdde03146101055780630c3f6acf1461012357806323a22bcb1461014157806339118d251461015d575b600080fd5b61010d6102af565b60405161011a9190611933565b60405180910390f35b61012b61033d565b6040516101389190611918565b60405180910390f35b61015b6004803603810190610156919061164f565b610350565b005b610177600480360381019061017291906116e1565b6103c4565b6040516101849190611a15565b60405180910390f35b6101a760048036038101906101a291906116e1565b6103e8565b005b6101b1610594565b005b6101bb6107b2565b6040516101c891906118fd565b60405180910390f35b6101d96107d6565b6040516101e69190611882565b60405180910390f35b6101f76107fc565b6040516102049190611933565b60405180910390f35b610227600480360381019061022291906116e1565b61088a565b005b610243600480360381019061023e91906116e1565b610c75565b005b61025f600480360381019061025a919061164f565b610eb5565b005b610269610f29565b005b610285600480360381019061028091906116e1565b611026565b005b61028f611200565b60405161029c9190611a15565b60405180910390f35b6102ad611206565b005b600280546102bc90611c46565b80601f01602080910402602001604051908101604052809291908181526020018280546102e890611c46565b80156103355780601f1061030a57610100808354040283529160200191610335565b820191906000526020600020905b81548152906001019060200180831161031857829003601f168201915b505050505081565b600660009054906101000a900460ff1681565b600160009054906101000a900473ffffffffffffffffffffffffffffffffffffffff1673ffffffffffffffffffffffffffffffffffffffff163373ffffffffffffffffffffffffffffffffffffffff16146103aa57600080fd5b80600390805190602001906103c0929190611303565b5050565b600581815481106103d457600080fd5b906000526020600020016000915090505481565b600160009054906101000a900473ffffffffffffffffffffffffffffffffffffffff1673ffffffffffffffffffffffffffffffffffffffff163373ffffffffffffffffffffffffffffffffffffffff161461044257600080fd5b60008111610485576040517f08c379a000000000000000000000000000000000000000000000000000000000815260040161047c90611955565b60405180910390fd5b6064606e6004546104969190611ad3565b6104a09190611aa2565b81146104e1576040517f08c379a00000000000000000000000000000000000000000000000000000000081526004016104d8906119d5565b60405180910390fd5b60008054906101000a900473ffffffffffffffffffffffffffffffffffffffff1673ffffffffffffffffffffffffffffffffffffffff166323b872dd3330846040518463ffffffff1660e01b815260040161053e9392919061189d565b602060405180830381600087803b15801561055857600080fd5b505af115801561056c573d6000803e3d6000fd5b505050506040513d601f19601f820116820180604052508101906105909190611622565b5050565b600160009054906101000a900473ffffffffffffffffffffffffffffffffffffffff1673ffffffffffffffffffffffffffffffffffffffff163373ffffffffffffffffffffffffffffffffffffffff16146105ee57600080fd5b60008060009054906101000a900473ffffffffffffffffffffffffffffffffffffffff1673ffffffffffffffffffffffffffffffffffffffff166370a08231306040518263ffffffff1660e01b815260040161064a9190611882565b60206040518083038186803b15801561066257600080fd5b505afa158015610676573d6000803e3d6000fd5b505050506040513d601f19601f8201168201806040525081019061069a919061170e565b9050600081116106df576040517f08c379a00000000000000000000000000000000000000000000000000000000081526004016106d690611975565b60405180910390fd5b60008054906101000a900473ffffffffffffffffffffffffffffffffffffffff1673ffffffffffffffffffffffffffffffffffffffff1663a9059cbb600160009054906101000a900473ffffffffffffffffffffffffffffffffffffffff16836040518363ffffffff1660e01b815260040161075c9291906118d4565b602060405180830381600087803b15801561077657600080fd5b505af115801561078a573d6000803e3d6000fd5b505050506040513d601f19601f820116820180604052508101906107ae9190611622565b5050565b60008054906101000a900473ffffffffffffffffffffffffffffffffffffffff1681565b600160009054906101000a900473ffffffffffffffffffffffffffffffffffffffff1681565b6003805461080990611c46565b80601f016020809104026020016040519081016040528092919081815260200182805461083590611c46565b80156108825780601f1061085757610100808354040283529160200191610882565b820191906000526020600020905b81548152906001019060200180831161086557829003601f168201915b505050505081565b600160009054906101000a900473ffffffffffffffffffffffffffffffffffffffff1673ffffffffffffffffffffffffffffffffffffffff163373ffffffffffffffffffffffffffffffffffffffff16146108e457600080fd5b6000600960009054906101000a900473ffffffffffffffffffffffffffffffffffffffff1673ffffffffffffffffffffffffffffffffffffffff16638c02263b836040518263ffffffff1660e01b81526004016109419190611a15565b60206040518083038186803b15801561095957600080fd5b505afa15801561096d573d6000803e3d6000fd5b505050506040513d601f19601f820116820180604052508101906109919190611622565b9050806109d3576040517f08c379a00000000000000000000000000000000000000000000000000000000081526004016109ca906119f5565b60405180910390fd5b6000600960009054906101000a900473ffffffffffffffffffffffffffffffffffffffff1673ffffffffffffffffffffffffffffffffffffffff1663976217cd846040518263ffffffff1660e01b8152600401610a309190611a15565b60006040518083038186803b158015610a4857600080fd5b505afa158015610a5c573d6000803e3d6000fd5b505050506040513d6000823e3d601f19601f82011682018060405250810190610a859190611698565b905060008054906101000a900473ffffffffffffffffffffffffffffffffffffffff1673ffffffffffffffffffffffffffffffffffffffff1663a9059cbb600960009054906101000a900473ffffffffffffffffffffffffffffffffffffffff1683608001516040518363ffffffff1660e01b8152600401610b089291906118d4565b602060405180830381600087803b158015610b2257600080fd5b505af1158015610b36573d6000803e3d6000fd5b505050506040513d601f19601f82011682018060405250810190610b5a9190611622565b5060008054906101000a900473ffffffffffffffffffffffffffffffffffffffff1673ffffffffffffffffffffffffffffffffffffffff1663a9059cbb600860009054906101000a900473ffffffffffffffffffffffffffffffffffffffff166064600a8560800151610bcd9190611aa2565b610bd79190611ad3565b6040518363ffffffff1660e01b8152600401610bf49291906118d4565b602060405180830381600087803b158015610c0e57600080fd5b505af1158015610c22573d6000803e3d6000fd5b505050506040513d601f19601f82011682018060405250810190610c469190611622565b506005839080600181540180825580915050600190039060005260206000200160009091909190915055505050565b600160009054906101000a900473ffffffffffffffffffffffffffffffffffffffff1673ffffffffffffffffffffffffffffffffffffffff163373ffffffffffffffffffffffffffffffffffffffff1614610ccf57600080fd5b6000811415610d13576040517f08c379a0000000000000000000000000000000000000000000000000000000008152600401610d0a906119f5565b60405180910390fd5b6000805b600580549050811015610d62578260058281548110610d3957610d38611dae565b5b90600052602060002001541415610d4f57600191505b8080610d5a90611ca9565b915050610d17565b5080610da3576040517f08c379a0000000000000000000000000000000000000000000000000000000008152600401610d9a906119f5565b60405180910390fd5b60006001600580549050610db79190611b2d565b67ffffffffffffffff811115610dd057610dcf611ddd565b5b604051908082528060200260200182016040528015610dfe5781602001602082028036833780820191505090505b5090506000805b600580549050811015610e97578460058281548110610e2757610e26611dae565b5b906000526020600020015414610e845760058181548110610e4b57610e4a611dae565b5b9060005260206000200154838381518110610e6957610e68611dae565b5b6020026020010181815250508180610e8090611ca9565b9250505b8080610e8f90611ca9565b915050610e05565b508160059080519060200190610eae929190611389565b5050505050565b600160009054906101000a900473ffffffffffffffffffffffffffffffffffffffff1673ffffffffffffffffffffffffffffffffffffffff163373ffffffffffffffffffffffffffffffffffffffff1614610f0f57600080fd5b8060029080519060200190610f25929190611303565b5050565b600160009054906101000a900473ffffffffffffffffffffffffffffffffffffffff1673ffffffffffffffffffffffffffffffffffffffff163373ffffffffffffffffffffffffffffffffffffffff1614610f8357600080fd5b60006002811115610f9757610f96611d50565b5b600660009054906101000a900460ff166002811115610fb957610fb8611d50565b5b14610ff9576040517f08c379a0000000000000000000000000000000000000000000000000000000008152600401610ff0906119b5565b60405180910390fd5b6001600660006101000a81548160ff0219169083600281111561101f5761101e611d50565b5b0217905550565b600160009054906101000a900473ffffffffffffffffffffffffffffffffffffffff1673ffffffffffffffffffffffffffffffffffffffff163373ffffffffffffffffffffffffffffffffffffffff161461108057600080fd5b6000600960009054906101000a900473ffffffffffffffffffffffffffffffffffffffff1673ffffffffffffffffffffffffffffffffffffffff16638c02263b836040518263ffffffff1660e01b81526004016110dd9190611a15565b60206040518083038186803b1580156110f557600080fd5b505afa158015611109573d6000803e3d6000fd5b505050506040513d601f19601f8201168201806040525081019061112d9190611622565b90508061116f576040517f08c379a0000000000000000000000000000000000000000000000000000000008152600401611166906119f5565b60405180910390fd5b600960009054906101000a900473ffffffffffffffffffffffffffffffffffffffff1673ffffffffffffffffffffffffffffffffffffffff1663e1e29558836040518263ffffffff1660e01b81526004016111ca9190611a15565b600060405180830381600087803b1580156111e457600080fd5b505af11580156111f8573d6000803e3d6000fd5b505050505050565b60045481565b600160009054906101000a900473ffffffffffffffffffffffffffffffffffffffff1673ffffffffffffffffffffffffffffffffffffffff163373ffffffffffffffffffffffffffffffffffffffff161461126057600080fd5b6001600281111561127457611273611d50565b5b600660009054906101000a900460ff16600281111561129657611295611d50565b5b146112d6576040517f08c379a00000000000000000000000000000000000000000000000000000000081526004016112cd90611995565b60405180910390fd5b6002600660006101000a81548160ff021916908360028111156112fc576112fb611d50565b5b0217905550565b82805461130f90611c46565b90600052602060002090601f0160209004810192826113315760008555611378565b82601f1061134a57805160ff1916838001178555611378565b82800160010185558215611378579182015b8281111561137757825182559160200191906001019061135c565b5b50905061138591906113d6565b5090565b8280548282559060005260206000209081019282156113c5579160200282015b828111156113c45782518255916020019190600101906113a9565b5b5090506113d291906113d6565b5090565b5b808211156113ef5760008160009055506001016113d7565b5090565b600061140661140184611a55565b611a30565b90508281526020810184848401111561142257611421611e1b565b5b61142d848285611c04565b509392505050565b600061144861144384611a55565b611a30565b90508281526020810184848401111561146457611463611e1b565b5b61146f848285611c13565b509392505050565b60008151905061148681611f45565b92915050565b60008151905061149b81611f5c565b92915050565b6000815190506114b081611f73565b92915050565b600082601f8301126114cb576114ca611e0c565b5b81356114db8482602086016113f3565b91505092915050565b600082601f8301126114f9576114f8611e0c565b5b8151611509848260208601611435565b91505092915050565b6000610100828403121561152957611528611e11565b5b611534610100611a30565b9050600082015167ffffffffffffffff81111561155457611553611e16565b5b611560848285016114e4565b6000830152506020611574848285016114a1565b602083015250604061158884828501611477565b604083015250606061159c84828501611477565b60608301525060806115b08482850161160d565b60808301525060a06115c48482850161160d565b60a08301525060c06115d88482850161160d565b60c08301525060e06115ec8482850161148c565b60e08301525092915050565b60008135905061160781611f83565b92915050565b60008151905061161c81611f83565b92915050565b60006020828403121561163857611637611e25565b5b60006116468482850161148c565b91505092915050565b60006020828403121561166557611664611e25565b5b600082013567ffffffffffffffff81111561168357611682611e20565b5b61168f848285016114b6565b91505092915050565b6000602082840312156116ae576116ad611e25565b5b600082015167ffffffffffffffff8111156116cc576116cb611e20565b5b6116d884828501611512565b91505092915050565b6000602082840312156116f7576116f6611e25565b5b6000611705848285016115f8565b91505092915050565b60006020828403121561172457611723611e25565b5b60006117328482850161160d565b91505092915050565b61174481611b61565b82525050565b61175381611bbc565b82525050565b61176281611bce565b82525050565b600061177382611a86565b61177d8185611a91565b935061178d818560208601611c13565b61179681611e2a565b840191505092915050565b60006117ae601983611a91565b91506117b982611e3b565b602082019050919050565b60006117d1601983611a91565b91506117dc82611e64565b602082019050919050565b60006117f4601a83611a91565b91506117ff82611e8d565b602082019050919050565b6000611817600f83611a91565b915061182282611eb6565b602082019050919050565b600061183a601783611a91565b915061184582611edf565b602082019050919050565b600061185d600e83611a91565b915061186882611f08565b602082019050919050565b61187c81611bb2565b82525050565b6000602082019050611897600083018461173b565b92915050565b60006060820190506118b2600083018661173b565b6118bf602083018561173b565b6118cc6040830184611873565b949350505050565b60006040820190506118e9600083018561173b565b6118f66020830184611873565b9392505050565b6000602082019050611912600083018461174a565b92915050565b600060208201905061192d6000830184611759565b92915050565b6000602082019050818103600083015261194d8184611768565b905092915050565b6000602082019050818103600083015261196e816117a1565b9050919050565b6000602082019050818103600083015261198e816117c4565b9050919050565b600060208201905081810360008301526119ae816117e7565b9050919050565b600060208201905081810360008301526119ce8161180a565b9050919050565b600060208201905081810360008301526119ee8161182d565b9050919050565b60006020820190508181036000830152611a0e81611850565b9050919050565b6000602082019050611a2a6000830184611873565b92915050565b6000611a3a611a4b565b9050611a468282611c78565b919050565b6000604051905090565b600067ffffffffffffffff821115611a7057611a6f611ddd565b5b611a7982611e2a565b9050602081019050919050565b600081519050919050565b600082825260208201905092915050565b6000611aad82611bb2565b9150611ab883611bb2565b925082611ac857611ac7611d21565b5b828204905092915050565b6000611ade82611bb2565b9150611ae983611bb2565b9250817fffffffffffffffffffffffffffffffffffffffffffffffffffffffffffffffff0483118215151615611b2257611b21611cf2565b5b828202905092915050565b6000611b3882611bb2565b9150611b4383611bb2565b925082821015611b5657611b55611cf2565b5b828203905092915050565b6000611b6c82611b92565b9050919050565b60008115159050919050565b6000819050611b8d82611f31565b919050565b600073ffffffffffffffffffffffffffffffffffffffff82169050919050565b6000819050919050565b6000611bc782611be0565b9050919050565b6000611bd982611b7f565b9050919050565b6000611beb82611bf2565b9050919050565b6000611bfd82611b92565b9050919050565b82818337600083830152505050565b60005b83811015611c31578082015181840152602081019050611c16565b83811115611c40576000848401525b50505050565b60006002820490506001821680611c5e57607f821691505b60208210811415611c7257611c71611d7f565b5b50919050565b611c8182611e2a565b810181811067ffffffffffffffff82111715611ca057611c9f611ddd565b5b80604052505050565b6000611cb482611bb2565b91507fffffffffffffffffffffffffffffffffffffffffffffffffffffffffffffffff821415611ce757611ce6611cf2565b5b600182019050919050565b7f4e487b7100000000000000000000000000000000000000000000000000000000600052601160045260246000fd5b7f4e487b7100000000000000000000000000000000000000000000000000000000600052601260045260246000fd5b7f4e487b7100000000000000000000000000000000000000000000000000000000600052602160045260246000fd5b7f4e487b7100000000000000000000000000000000000000000000000000000000600052602260045260246000fd5b7f4e487b7100000000000000000000000000000000000000000000000000000000600052603260045260246000fd5b7f4e487b7100000000000000000000000000000000000000000000000000000000600052604160045260246000fd5b600080fd5b600080fd5b600080fd5b600080fd5b600080fd5b600080fd5b6000601f19601f8301169050919050565b7f496e636f727265637420616d6f756e74206f6620746f6b656e00000000000000600082015250565b7f496e73756666696369656e7420555344432062616c616e636500000000000000600082015250565b7f546869732070726f6a656374206973206f6e6c79206f70656e2e000000000000600082015250565b7f416c726561647920737461727465640000000000000000000000000000000000600082015250565b7f496e636f7272656374206465706f7369742066756e6473000000000000000000600082015250565b7f5461736b206e6f7420666f756e64000000000000000000000000000000000000600082015250565b60038110611f4257611f41611d50565b5b50565b611f4e81611b61565b8114611f5957600080fd5b50565b611f6581611b73565b8114611f7057600080fd5b50565b60068110611f8057600080fd5b50565b611f8c81611bb2565b8114611f9757600080fd5b5056fea264697066735822122019bcf8c82f1f2c787ecca9249f659d470ac028fb8fad76fd331233304f6b852264736f6c63430008070033",
  "linkReferences": {},
  "deployedLinkReferences": {}
}