{
  "_format": "hh-sol-artifact-1",
  "contractName": "ProjectFactory",
  "sourceName": "contracts/ProjectFactory.sol",
  "abi": [
    {
      "inputs": [
        {
          "internalType": "address",
          "name": "_initBlueprint",
          "type": "address"
        }
      ],
      "stateMutability": "nonpayable",
      "type": "constructor"
    },
    {
      "anonymous": false,
      "inputs": [
        {
          "indexed": false,
          "internalType": "address",
          "name": "founderAddress",
          "type": "address"
        },
        {
          "indexed": false,
          "internalType": "address",
          "name": "contractAddress",
          "type": "address"
        }
      ],
      "name": "DeployedNewProject",
      "type": "event"
    },
    {
      "inputs": [
        {
          "internalType": "address",
          "name": "founder",
          "type": "address"
        },
        {
          "internalType": "string",
          "name": "id",
          "type": "string"
        }
      ],
      "name": "checkProjectExist",
      "outputs": [
        {
          "internalType": "bool",
          "name": "",
          "type": "bool"
        }
      ],
      "stateMutability": "view",
      "type": "function"
    },
    {
      "inputs": [
        {
          "internalType": "string",
          "name": "_projectId",
          "type": "string"
        },
        {
          "internalType": "address",
          "name": "_usdcAddress",
          "type": "address"
        }
      ],
      "name": "createProject",
      "outputs": [
        {
          "internalType": "address",
          "name": "",
          "type": "address"
        }
      ],
      "stateMutability": "nonpayable",
      "type": "function"
    },
    {
      "inputs": [],
      "name": "getBeacon",
      "outputs": [
        {
          "internalType": "address",
          "name": "",
          "type": "address"
        }
      ],
      "stateMutability": "view",
      "type": "function"
    },
    {
      "inputs": [
        {
          "internalType": "address",
          "name": "_projectAddress",
          "type": "address"
        }
      ],
      "name": "getFounderFromProjectAddress",
      "outputs": [
        {
          "internalType": "address",
          "name": "",
          "type": "address"
        }
      ],
      "stateMutability": "view",
      "type": "function"
    },
    {
      "inputs": [],
      "name": "getImplementation",
      "outputs": [
        {
          "internalType": "address",
          "name": "",
          "type": "address"
        }
      ],
      "stateMutability": "view",
      "type": "function"
    },
    {
      "inputs": [],
      "name": "getProjectContractAddresses",
      "outputs": [
        {
          "components": [
            {
              "internalType": "address",
              "name": "contractAddress",
              "type": "address"
            },
            {
              "internalType": "string",
              "name": "projectId",
              "type": "string"
            }
          ],
          "internalType": "struct ProjectFactory.ProjectInfo[]",
          "name": "",
          "type": "tuple[]"
        }
      ],
      "stateMutability": "view",
      "type": "function"
    },
    {
      "inputs": [
        {
          "internalType": "address",
          "name": "",
          "type": "address"
        },
        {
          "internalType": "uint256",
          "name": "",
          "type": "uint256"
        }
      ],
      "name": "ownerToProjects",
      "outputs": [
        {
          "internalType": "address",
          "name": "contractAddress",
          "type": "address"
        },
        {
          "internalType": "string",
          "name": "projectId",
          "type": "string"
        }
      ],
      "stateMutability": "view",
      "type": "function"
    }
  ],
  "bytecode": "0x60a060405234801561001057600080fd5b5060405161235e38038061235e83398101604081905261002f9161008c565b8060405161003c9061007f565b6001600160a01b039091168152602001604051809103906000f080158015610068573d6000803e3d6000fd5b5060601b6001600160601b031916608052506100bc565b610afd8061186183390190565b60006020828403121561009e57600080fd5b81516001600160a01b03811681146100b557600080fd5b9392505050565b60805160601c61177a6100e76000396000818160c2015281816103f10152610599015261177a6000f3fe60806040523480156200001157600080fd5b5060043610620000875760003560e01c8063aaf10f421162000062578063aaf10f42146200010f578063c65579ad1462000119578063d53ccd4c1462000130578063d92ff494146200014957600080fd5b806323a30b23146200008c5780632d6b3a6b14620000c0578063740a593914620000e7575b600080fd5b620000a36200009d36600462000a44565b62000170565b6040516001600160a01b0390911681526020015b60405180910390f35b7f0000000000000000000000000000000000000000000000000000000000000000620000a3565b620000fe620000f836600462000a8b565b6200030a565b6040519015158152602001620000b7565b620000a3620003ed565b620000a36200012a36600462000b10565b62000489565b6200013a62000707565b604051620000b7919062000cbd565b620001606200015a36600462000ae1565b62000822565b604051620000b792919062000c58565b60006001600160a01b038216620001ce5760405162461bcd60e51b815260206004820152601760248201527f496e76616c69642070726f6a656374206164647265737300000000000000000060448201526064015b60405180910390fd5b6000805b600154811015620003035760005b6002600060018481548110620001fa57620001fa62000dd8565b60009182526020808320909101546001600160a01b03168352820192909252604001902054811015620002ed57846001600160a01b031660026000600185815481106200024b576200024b62000dd8565b60009182526020808320909101546001600160a01b03168352820192909252604001902080548390811062000284576200028462000dd8565b60009182526020909120600290910201546001600160a01b03161415620002d85760018281548110620002bb57620002bb62000dd8565b6000918252602090912001546001600160a01b03169250620002ed565b80620002e48162000dae565b915050620001e0565b5080620002fa8162000dae565b915050620001d2565b5092915050565b600080805b6001600160a01b038516600090815260026020526040902054811015620003e5578360405160200162000343919062000b96565b60408051601f1981840301815291815281516020928301206001600160a01b03881660009081526002909352912080548390811062000386576200038662000dd8565b9060005260206000209060020201600101604051602001620003a9919062000bb4565b604051602081830303815290604052805190602001201415620003d05760019150620003e5565b80620003dc8162000dae565b9150506200030f565b509392505050565b60007f00000000000000000000000000000000000000000000000000000000000000006001600160a01b0316635c60da1b6040518163ffffffff1660e01b815260040160206040518083038186803b1580156200044957600080fd5b505afa1580156200045e573d6000803e3d6000fd5b505050506040513d601f19601f8201168201806040525081019062000484919062000a6b565b905090565b6000338360006200049b83836200030a565b90508015620004e55760405162461bcd60e51b8152602060048201526015602482015274141c9bda9958dd08185b1c9958591e481b1a5d9959605a1b6044820152606401620001c5565b6001600160a01b0385166200052f5760405162461bcd60e51b815260206004820152600f60248201526e496e76616c6964206164647265737360881b6044820152606401620001c5565b3360009081526002602052604090205462000586576001805480820182556000919091527fb10e2d527612073b26eecdfd717e6a320cf44b4afac2b0732d9fcbe2b7fa0cf60180546001600160a01b031916331790555b62000595600080546001019055565b60007f0000000000000000000000000000000000000000000000000000000000000000637bb7c0d860e01b878933604051602401620005d79392919062000c86565b60408051601f198184030181529181526020820180516001600160e01b03166001600160e01b03199094169390931790925290516200061690620008fb565b6200062392919062000c58565b604051809103906000f08015801562000640573d6000803e3d6000fd5b5033600090815260026020818152604080842081518083019092526001600160a01b0386811683528284018e81528254600180820185559388529685902084519790960290950180546001600160a01b03191696909116959095178555925180519596509094620006b993850192919091019062000909565b5050604080513381526001600160a01b03841660208201527f02695cc8954e338f8a21303c3d81cac3464fe3bb4b2e0fe6cf96e658bc14aeb492500160405180910390a19695505050505050565b3360009081526002602090815260408083208054825181850281018501909352808352606094919384929084015b8282101562000818576000848152602090819020604080518082019091526002850290910180546001600160a01b031682526001810180549293919291840191620007809062000d71565b80601f0160208091040260200160405190810160405280929190818152602001828054620007ae9062000d71565b8015620007ff5780601f10620007d357610100808354040283529160200191620007ff565b820191906000526020600020905b815481529060010190602001808311620007e157829003601f168201915b5050505050815250508152602001906001019062000735565b5050505091505090565b600260205281600052604060002081815481106200083f57600080fd5b6000918252602090912060029091020180546001820180546001600160a01b039092169450919250620008729062000d71565b80601f0160208091040260200160405190810160405280929190818152602001828054620008a09062000d71565b8015620008f15780601f10620008c557610100808354040283529160200191620008f1565b820191906000526020600020905b815481529060010190602001808311620008d357829003601f168201915b5050505050905082565b6109278062000e1e83390190565b828054620009179062000d71565b90600052602060002090601f0160209004810192826200093b576000855562000986565b82601f106200095657805160ff191683800117855562000986565b8280016001018555821562000986579182015b828111156200098657825182559160200191906001019062000969565b506200099492915062000998565b5090565b5b8082111562000994576000815560010162000999565b600082601f830112620009c157600080fd5b813567ffffffffffffffff80821115620009df57620009df62000dee565b604051601f8301601f19908116603f0116810190828211818310171562000a0a5762000a0a62000dee565b8160405283815286602085880101111562000a2457600080fd5b836020870160208301376000602085830101528094505050505092915050565b60006020828403121562000a5757600080fd5b813562000a648162000e04565b9392505050565b60006020828403121562000a7e57600080fd5b815162000a648162000e04565b6000806040838503121562000a9f57600080fd5b823562000aac8162000e04565b9150602083013567ffffffffffffffff81111562000ac957600080fd5b62000ad785828601620009af565b9150509250929050565b6000806040838503121562000af557600080fd5b823562000b028162000e04565b946020939093013593505050565b6000806040838503121562000b2457600080fd5b823567ffffffffffffffff81111562000b3c57600080fd5b62000b4a85828601620009af565b925050602083013562000b5d8162000e04565b809150509250929050565b6000815180845262000b8281602086016020860162000d3e565b601f01601f19169290920160200192915050565b6000825162000baa81846020870162000d3e565b9190910192915050565b600080835481600182811c91508083168062000bd157607f831692505b602080841082141562000bf257634e487b7160e01b86526022600452602486fd5b81801562000c09576001811462000c1b5762000c4a565b60ff1986168952848901965062000c4a565b60008a81526020902060005b8681101562000c425781548b82015290850190830162000c27565b505084890196505b509498975050505050505050565b6001600160a01b038316815260406020820181905260009062000c7e9083018462000b68565b949350505050565b600060018060a01b0380861683526060602084015262000caa606084018662000b68565b9150808416604084015250949350505050565b60006020808301818452808551808352604092508286019150828160051b87010184880160005b8381101562000d3057888303603f19018552815180516001600160a01b0316845287015187840187905262000d1c8785018262000b68565b958801959350509086019060010162000ce4565b509098975050505050505050565b60005b8381101562000d5b57818101518382015260200162000d41565b8381111562000d6b576000848401525b50505050565b600181811c9082168062000d8657607f821691505b6020821081141562000da857634e487b7160e01b600052602260045260246000fd5b50919050565b600060001982141562000dd157634e487b7160e01b600052601160045260246000fd5b5060010190565b634e487b7160e01b600052603260045260246000fd5b634e487b7160e01b600052604160045260246000fd5b6001600160a01b038116811462000e1a57600080fd5b5056fe60806040526040516109273803806109278339810160408190526100229161044d565b61002e82826000610035565b505061059e565b61003e8361010f565b6040516001600160a01b038416907f1cf3b03a6cf19fa2baba4df148e9dcabedea7f8a5c07840e207e5c089be95d3e90600090a260008251118061007f5750805b1561010a57610108836001600160a01b0316635c60da1b6040518163ffffffff1660e01b815260040160206040518083038186803b1580156100c057600080fd5b505afa1580156100d4573d6000803e3d6000fd5b505050506040513d601f19601f820116820180604052508101906100f89190610432565b836102c160201b6100291760201c565b505b505050565b610122816102ed60201b6100551760201c565b6101815760405162461bcd60e51b815260206004820152602560248201527f455243313936373a206e657720626561636f6e206973206e6f74206120636f6e6044820152641d1c9858dd60da1b60648201526084015b60405180910390fd5b610204816001600160a01b0316635c60da1b6040518163ffffffff1660e01b815260040160206040518083038186803b1580156101bd57600080fd5b505afa1580156101d1573d6000803e3d6000fd5b505050506040513d601f19601f820116820180604052508101906101f59190610432565b6102ed60201b6100551760201c565b6102695760405162461bcd60e51b815260206004820152603060248201527f455243313936373a20626561636f6e20696d706c656d656e746174696f6e206960448201526f1cc81b9bdd08184818dbdb9d1c9858dd60821b6064820152608401610178565b806102a07fa3f0ad74e5423aebfd80d3ef4346578335a9a72aeaee59ff6cb3582b35133d5060001b6102fc60201b6100641760201c565b80546001600160a01b0319166001600160a01b039290921691909117905550565b60606102e68383604051806060016040528060278152602001610900602791396102ff565b9392505050565b6001600160a01b03163b151590565b90565b60606001600160a01b0384163b6103675760405162461bcd60e51b815260206004820152602660248201527f416464726573733a2064656c65676174652063616c6c20746f206e6f6e2d636f6044820152651b9d1c9858dd60d21b6064820152608401610178565b600080856001600160a01b031685604051610382919061050d565b600060405180830381855af49150503d80600081146103bd576040519150601f19603f3d011682016040523d82523d6000602084013e6103c2565b606091505b5090925090506103d38282866103dd565b9695505050505050565b606083156103ec5750816102e6565b8251156103fc5782518084602001fd5b8160405162461bcd60e51b81526004016101789190610529565b80516001600160a01b038116811461042d57600080fd5b919050565b60006020828403121561044457600080fd5b6102e682610416565b6000806040838503121561046057600080fd5b61046983610416565b60208401519092506001600160401b038082111561048657600080fd5b818501915085601f83011261049a57600080fd5b8151818111156104ac576104ac610588565b604051601f8201601f19908116603f011681019083821181831017156104d4576104d4610588565b816040528281528860208487010111156104ed57600080fd5b6104fe83602083016020880161055c565b80955050505050509250929050565b6000825161051f81846020870161055c565b9190910192915050565b602081526000825180602084015261054881604085016020870161055c565b601f01601f19169190910160400192915050565b60005b8381101561057757818101518382015260200161055f565b838111156101085750506000910152565b634e487b7160e01b600052604160045260246000fd5b610353806105ad6000396000f3fe60806040523661001357610011610017565b005b6100115b610027610022610067565b61010f565b565b606061004e83836040518060600160405280602781526020016102f760279139610133565b9392505050565b6001600160a01b03163b151590565b90565b600061009a7fa3f0ad74e5423aebfd80d3ef4346578335a9a72aeaee59ff6cb3582b35133d50546001600160a01b031690565b6001600160a01b0316635c60da1b6040518163ffffffff1660e01b815260040160206040518083038186803b1580156100d257600080fd5b505afa1580156100e6573d6000803e3d6000fd5b505050506040513d601f19601f8201168201806040525081019061010a919061024e565b905090565b3660008037600080366000845af43d6000803e80801561012e573d6000f35b3d6000fd5b60606001600160a01b0384163b6101a05760405162461bcd60e51b815260206004820152602660248201527f416464726573733a2064656c65676174652063616c6c20746f206e6f6e2d636f6044820152651b9d1c9858dd60d21b60648201526084015b60405180910390fd5b600080856001600160a01b0316856040516101bb9190610277565b600060405180830381855af49150503d80600081146101f6576040519150601f19603f3d011682016040523d82523d6000602084013e6101fb565b606091505b509150915061020b828286610215565b9695505050505050565b6060831561022457508161004e565b8251156102345782518084602001fd5b8160405162461bcd60e51b81526004016101979190610293565b60006020828403121561026057600080fd5b81516001600160a01b038116811461004e57600080fd5b600082516102898184602087016102c6565b9190910192915050565b60208152600082518060208401526102b28160408501602087016102c6565b601f01601f19169190910160400192915050565b60005b838110156102e15781810151838201526020016102c9565b838111156102f0576000848401525b5050505056fe416464726573733a206c6f772d6c6576656c2064656c65676174652063616c6c206661696c6564a264697066735822122061a2a114a835db0db66ed966e61663232bd9bf890ebc2744f6016b4cce14bbda64736f6c63430008070033416464726573733a206c6f772d6c6576656c2064656c65676174652063616c6c206661696c6564a26469706673582212206274cee22750b50890e1054d23a8e848b546eeda651fe6329757bf24421cbb5164736f6c6343000807003360a060405234801561001057600080fd5b50604051610afd380380610afd83398101604081905261002f916101e3565b610038336100ac565b80604051610045906101d6565b6001600160a01b039091168152602001604051809103906000f080158015610071573d6000803e3d6000fd5b5060601b6001600160601b031916608052600180546001600160a01b0319166001600160a01b0383161790556100a6326100fc565b50610213565b600080546001600160a01b038381166001600160a01b0319831681178455604051919092169283917f8be0079c531659141344cd1fd0a4f28419497f9722a3daafe3b4186f6b6457e09190a35050565b61010461017a565b6001600160a01b03811661016e5760405162461bcd60e51b815260206004820152602660248201527f4f776e61626c653a206e6577206f776e657220697320746865207a65726f206160448201526564647265737360d01b60648201526084015b60405180910390fd5b610177816100ac565b50565b6000546001600160a01b031633146101d45760405162461bcd60e51b815260206004820181905260248201527f4f776e61626c653a2063616c6c6572206973206e6f7420746865206f776e65726044820152606401610165565b565b6104e48061061983390190565b6000602082840312156101f557600080fd5b81516001600160a01b038116811461020c57600080fd5b9392505050565b60805160601c6103e161023860003960008181610106015261018901526103e16000f3fe608060405234801561001057600080fd5b50600436106100625760003560e01c80631c1b8772146100675780635c60da1b1461007c578063715018a6146100a05780638da5cb5b146100a8578063c05efa15146100b9578063f2fde38b146100cc575b600080fd5b61007a610075366004610359565b6100df565b005b610084610185565b6040516001600160a01b03909116815260200160405180910390f35b61007a61021d565b6000546001600160a01b0316610084565b600154610084906001600160a01b031681565b61007a6100da366004610359565b610231565b6100e76102af565b604051631b2ce7f360e11b81526001600160a01b0382811660048301527f00000000000000000000000000000000000000000000000000000000000000001690633659cfe690602401600060405180830381600087803b15801561014a57600080fd5b505af115801561015e573d6000803e3d6000fd5b5050600180546001600160a01b0319166001600160a01b0394909416939093179092555050565b60007f00000000000000000000000000000000000000000000000000000000000000006001600160a01b0316635c60da1b6040518163ffffffff1660e01b815260040160206040518083038186803b1580156101e057600080fd5b505afa1580156101f4573d6000803e3d6000fd5b505050506040513d601f19601f82011682018060405250810190610218919061037d565b905090565b6102256102af565b61022f6000610309565b565b6102396102af565b6001600160a01b0381166102a35760405162461bcd60e51b815260206004820152602660248201527f4f776e61626c653a206e6577206f776e657220697320746865207a65726f206160448201526564647265737360d01b60648201526084015b60405180910390fd5b6102ac81610309565b50565b6000546001600160a01b0316331461022f5760405162461bcd60e51b815260206004820181905260248201527f4f776e61626c653a2063616c6c6572206973206e6f7420746865206f776e6572604482015260640161029a565b600080546001600160a01b038381166001600160a01b0319831681178455604051919092169283917f8be0079c531659141344cd1fd0a4f28419497f9722a3daafe3b4186f6b6457e09190a35050565b60006020828403121561036b57600080fd5b813561037681610396565b9392505050565b60006020828403121561038f57600080fd5b8151610376815b6001600160a01b03811681146102ac57600080fdfea264697066735822122028c2d6bde5b7103dcc5af3b0916722fb7beeffffbee3f7f957dda508c0b7378a64736f6c63430008070033608060405234801561001057600080fd5b506040516104e43803806104e483398101604081905261002f91610151565b61003833610047565b61004181610097565b50610181565b600080546001600160a01b038381166001600160a01b0319831681178455604051919092169283917f8be0079c531659141344cd1fd0a4f28419497f9722a3daafe3b4186f6b6457e09190a35050565b6100aa8161014260201b6101a01760201c565b6101205760405162461bcd60e51b815260206004820152603360248201527f5570677261646561626c65426561636f6e3a20696d706c656d656e746174696f60448201527f6e206973206e6f74206120636f6e747261637400000000000000000000000000606482015260840160405180910390fd5b600180546001600160a01b0319166001600160a01b0392909216919091179055565b6001600160a01b03163b151590565b60006020828403121561016357600080fd5b81516001600160a01b038116811461017a57600080fd5b9392505050565b610354806101906000396000f3fe608060405234801561001057600080fd5b50600436106100575760003560e01c80633659cfe61461005c5780635c60da1b14610071578063715018a61461009a5780638da5cb5b146100a2578063f2fde38b146100b3575b600080fd5b61006f61006a3660046102ee565b6100c6565b005b6001546001600160a01b03165b6040516001600160a01b03909116815260200160405180910390f35b61006f61010e565b6000546001600160a01b031661007e565b61006f6100c13660046102ee565b610122565b6100ce6101af565b6100d781610209565b6040516001600160a01b038216907fbc7cd75a20ee27fd9adebab32041f755214dbc6bffa90cc0225b39da2e5c2d3b90600090a250565b6101166101af565b610120600061029e565b565b61012a6101af565b6001600160a01b0381166101945760405162461bcd60e51b815260206004820152602660248201527f4f776e61626c653a206e6577206f776e657220697320746865207a65726f206160448201526564647265737360d01b60648201526084015b60405180910390fd5b61019d8161029e565b50565b6001600160a01b03163b151590565b6000546001600160a01b031633146101205760405162461bcd60e51b815260206004820181905260248201527f4f776e61626c653a2063616c6c6572206973206e6f7420746865206f776e6572604482015260640161018b565b6001600160a01b0381163b61027c5760405162461bcd60e51b815260206004820152603360248201527f5570677261646561626c65426561636f6e3a20696d706c656d656e746174696f6044820152721b881a5cc81b9bdd08184818dbdb9d1c9858dd606a1b606482015260840161018b565b600180546001600160a01b0319166001600160a01b0392909216919091179055565b600080546001600160a01b038381166001600160a01b0319831681178455604051919092169283917f8be0079c531659141344cd1fd0a4f28419497f9722a3daafe3b4186f6b6457e09190a35050565b60006020828403121561030057600080fd5b81356001600160a01b038116811461031757600080fd5b939250505056fea2646970667358221220280eea2c27ff525ffde790cb5b45a15cfb92c2e0c13fea26f116f0c8846e416064736f6c63430008070033",
  "linkReferences": {},
  "deployedLinkReferences": {}
}