{
  "_format": "hh-sol-artifact-1",
  "contractName": "ChefToken",
  "sourceName": "contracts/ChefToken.sol",
  "abi": [
    {
      "inputs": [],
      "stateMutability": "nonpayable",
      "type": "constructor"
    },
    {
      "anonymous": false,
      "inputs": [
        {
          "indexed": true,
          "internalType": "address",
          "name": "owner",
          "type": "address"
        },
        {
          "indexed": true,
          "internalType": "address",
          "name": "spender",
          "type": "address"
        },
        {
          "indexed": false,
          "internalType": "uint256",
          "name": "value",
          "type": "uint256"
        }
      ],
      "name": "Approval",
      "type": "event"
    },
    {
      "anonymous": false,
      "inputs": [
        {
          "indexed": true,
          "internalType": "address",
          "name": "previousOwner",
          "type": "address"
        },
        {
          "indexed": true,
          "internalType": "address",
          "name": "newOwner",
          "type": "address"
        }
      ],
      "name": "OwnershipTransferred",
      "type": "event"
    },
    {
      "anonymous": false,
      "inputs": [
        {
          "indexed": true,
          "internalType": "address",
          "name": "from",
          "type": "address"
        },
        {
          "indexed": true,
          "internalType": "address",
          "name": "to",
          "type": "address"
        },
        {
          "indexed": false,
          "internalType": "uint256",
          "name": "value",
          "type": "uint256"
        }
      ],
      "name": "Transfer",
      "type": "event"
    },
    {
      "inputs": [
        {
          "internalType": "address",
          "name": "_account",
          "type": "address"
        }
      ],
      "name": "addToBlackList",
      "outputs": [],
      "stateMutability": "nonpayable",
      "type": "function"
    },
    {
      "inputs": [
        {
          "internalType": "address",
          "name": "_account",
          "type": "address"
        }
      ],
      "name": "addToTax",
      "outputs": [],
      "stateMutability": "nonpayable",
      "type": "function"
    },
    {
      "inputs": [
        {
          "internalType": "address",
          "name": "owner",
          "type": "address"
        },
        {
          "internalType": "address",
          "name": "spender",
          "type": "address"
        }
      ],
      "name": "allowance",
      "outputs": [
        {
          "internalType": "uint256",
          "name": "",
          "type": "uint256"
        }
      ],
      "stateMutability": "view",
      "type": "function"
    },
    {
      "inputs": [
        {
          "internalType": "address",
          "name": "spender",
          "type": "address"
        },
        {
          "internalType": "uint256",
          "name": "amount",
          "type": "uint256"
        }
      ],
      "name": "approve",
      "outputs": [
        {
          "internalType": "bool",
          "name": "",
          "type": "bool"
        }
      ],
      "stateMutability": "nonpayable",
      "type": "function"
    },
    {
      "inputs": [
        {
          "internalType": "address",
          "name": "account",
          "type": "address"
        }
      ],
      "name": "balanceOf",
      "outputs": [
        {
          "internalType": "uint256",
          "name": "",
          "type": "uint256"
        }
      ],
      "stateMutability": "view",
      "type": "function"
    },
    {
      "inputs": [
        {
          "internalType": "uint256",
          "name": "_target",
          "type": "uint256"
        },
        {
          "internalType": "address",
          "name": "_newTarget",
          "type": "address"
        }
      ],
      "name": "changeTarget",
      "outputs": [],
      "stateMutability": "nonpayable",
      "type": "function"
    },
    {
      "inputs": [
        {
          "internalType": "uint256",
          "name": "_newTax",
          "type": "uint256"
        }
      ],
      "name": "changeTax",
      "outputs": [],
      "stateMutability": "nonpayable",
      "type": "function"
    },
    {
      "inputs": [],
      "name": "decimals",
      "outputs": [
        {
          "internalType": "uint8",
          "name": "",
          "type": "uint8"
        }
      ],
      "stateMutability": "view",
      "type": "function"
    },
    {
      "inputs": [
        {
          "internalType": "address",
          "name": "spender",
          "type": "address"
        },
        {
          "internalType": "uint256",
          "name": "subtractedValue",
          "type": "uint256"
        }
      ],
      "name": "decreaseAllowance",
      "outputs": [
        {
          "internalType": "bool",
          "name": "",
          "type": "bool"
        }
      ],
      "stateMutability": "nonpayable",
      "type": "function"
    },
    {
      "inputs": [
        {
          "internalType": "address",
          "name": "_account",
          "type": "address"
        }
      ],
      "name": "excludeFromTax",
      "outputs": [],
      "stateMutability": "nonpayable",
      "type": "function"
    },
    {
      "inputs": [
        {
          "internalType": "address",
          "name": "spender",
          "type": "address"
        },
        {
          "internalType": "uint256",
          "name": "addedValue",
          "type": "uint256"
        }
      ],
      "name": "increaseAllowance",
      "outputs": [
        {
          "internalType": "bool",
          "name": "",
          "type": "bool"
        }
      ],
      "stateMutability": "nonpayable",
      "type": "function"
    },
    {
      "inputs": [
        {
          "internalType": "address",
          "name": "",
          "type": "address"
        }
      ],
      "name": "isBlacklisted",
      "outputs": [
        {
          "internalType": "bool",
          "name": "",
          "type": "bool"
        }
      ],
      "stateMutability": "view",
      "type": "function"
    },
    {
      "inputs": [],
      "name": "name",
      "outputs": [
        {
          "internalType": "string",
          "name": "",
          "type": "string"
        }
      ],
      "stateMutability": "view",
      "type": "function"
    },
    {
      "inputs": [],
      "name": "owner",
      "outputs": [
        {
          "internalType": "address",
          "name": "",
          "type": "address"
        }
      ],
      "stateMutability": "view",
      "type": "function"
    },
    {
      "inputs": [
        {
          "internalType": "address",
          "name": "_account",
          "type": "address"
        }
      ],
      "name": "removeFromBlackList",
      "outputs": [],
      "stateMutability": "nonpayable",
      "type": "function"
    },
    {
      "inputs": [],
      "name": "renounceOwnership",
      "outputs": [],
      "stateMutability": "nonpayable",
      "type": "function"
    },
    {
      "inputs": [],
      "name": "symbol",
      "outputs": [
        {
          "internalType": "string",
          "name": "",
          "type": "string"
        }
      ],
      "stateMutability": "view",
      "type": "function"
    },
    {
      "inputs": [
        {
          "internalType": "address",
          "name": "",
          "type": "address"
        }
      ],
      "name": "taxExcluded",
      "outputs": [
        {
          "internalType": "bool",
          "name": "",
          "type": "bool"
        }
      ],
      "stateMutability": "view",
      "type": "function"
    },
    {
      "inputs": [],
      "name": "taxRate",
      "outputs": [
        {
          "internalType": "uint256",
          "name": "",
          "type": "uint256"
        }
      ],
      "stateMutability": "view",
      "type": "function"
    },
    {
      "inputs": [],
      "name": "totalSupply",
      "outputs": [
        {
          "internalType": "uint256",
          "name": "",
          "type": "uint256"
        }
      ],
      "stateMutability": "view",
      "type": "function"
    },
    {
      "inputs": [
        {
          "internalType": "address",
          "name": "to",
          "type": "address"
        },
        {
          "internalType": "uint256",
          "name": "amount",
          "type": "uint256"
        }
      ],
      "name": "transfer",
      "outputs": [
        {
          "internalType": "bool",
          "name": "",
          "type": "bool"
        }
      ],
      "stateMutability": "nonpayable",
      "type": "function"
    },
    {
      "inputs": [
        {
          "internalType": "address",
          "name": "from",
          "type": "address"
        },
        {
          "internalType": "address",
          "name": "to",
          "type": "address"
        },
        {
          "internalType": "uint256",
          "name": "amount",
          "type": "uint256"
        }
      ],
      "name": "transferFrom",
      "outputs": [
        {
          "internalType": "bool",
          "name": "",
          "type": "bool"
        }
      ],
      "stateMutability": "nonpayable",
      "type": "function"
    },
    {
      "inputs": [
        {
          "internalType": "address",
          "name": "newOwner",
          "type": "address"
        }
      ],
      "name": "transferOwnership",
      "outputs": [],
      "stateMutability": "nonpayable",
      "type": "function"
    }
  ],
  "bytecode": "0x6080604052600680546001600160a01b03191673eb46756a26f58837df192f378859aabf4ce2063917905560086007553480156200003c57600080fd5b506040805180820182526009815268436865666f72616d6160b81b60208083019182528351808501909452600484526321a422a360e11b9084015281519192916200008a916003916200022b565b508051620000a09060049060208401906200022b565b505050620000bd620000b7620000ed60201b60201c565b620000f1565b620000e733620000d06012600a62000335565b620000e19064012a05f20062000403565b62000143565b62000478565b3390565b600580546001600160a01b038381166001600160a01b0319831681179093556040519116919082907f8be0079c531659141344cd1fd0a4f28419497f9722a3daafe3b4186f6b6457e090600090a35050565b6001600160a01b0382166200019e5760405162461bcd60e51b815260206004820152601f60248201527f45524332303a206d696e7420746f20746865207a65726f206164647265737300604482015260640160405180910390fd5b8060026000828254620001b29190620002d1565b90915550506001600160a01b03821660009081526020819052604081208054839290620001e1908490620002d1565b90915550506040518181526001600160a01b038316906000907fddf252ad1be2c89b69c2b068fc378daa952ba7f163c4a11628f55a4df523b3ef9060200160405180910390a35050565b828054620002399062000425565b90600052602060002090601f0160209004810192826200025d5760008555620002a8565b82601f106200027857805160ff1916838001178555620002a8565b82800160010185558215620002a8579182015b82811115620002a85782518255916020019190600101906200028b565b50620002b6929150620002ba565b5090565b5b80821115620002b65760008155600101620002bb565b60008219821115620002e757620002e762000462565b500190565b600181815b808511156200032d57816000190482111562000311576200031162000462565b808516156200031f57918102915b93841c9390800290620002f1565b509250929050565b60006200034660ff8416836200034d565b9392505050565b6000826200035e57506001620003fd565b816200036d57506000620003fd565b81600181146200038657600281146200039157620003b1565b6001915050620003fd565b60ff841115620003a557620003a562000462565b50506001821b620003fd565b5060208310610133831016604e8410600b8410161715620003d6575081810a620003fd565b620003e28383620002ec565b8060001904821115620003f957620003f962000462565b0290505b92915050565b600081600019048311821515161562000420576200042062000462565b500290565b600181811c908216806200043a57607f821691505b602082108114156200045c57634e487b7160e01b600052602260045260246000fd5b50919050565b634e487b7160e01b600052601160045260246000fd5b61102780620004886000396000f3fe608060405234801561001057600080fd5b506004361061014d5760003560e01c806360d1259e116100c3578063a457c2d71161007c578063a457c2d7146102bb578063a9059cbb146102ce578063dd62ed3e146102e1578063f2fde38b1461031a578063fbd213751461032d578063fe575a871461034057600080fd5b806360d1259e1461024b57806370a082311461025e578063715018a614610287578063771a3a1d1461028f5780638da5cb5b1461029857806395d89b41146102b357600080fd5b8063395093511161011557806339509351146101c757806339b622d3146101da5780633e45c8af146101fd578063417c73a7146102125780634a49ac4c1461022557806358082a1c1461023857600080fd5b806306fdde0314610152578063095ea7b31461017057806318160ddd1461019357806323b872dd146101a5578063313ce567146101b8575b600080fd5b61015a610363565b6040516101679190610eaa565b60405180910390f35b61018361017e366004610e47565b6103f5565b6040519015158152602001610167565b6002545b604051908152602001610167565b6101836101b3366004610e0c565b61040d565b60405160128152602001610167565b6101836101d5366004610e47565b610431565b6101836101e8366004610db9565b60096020526000908152604090205460ff1681565b61021061020b366004610e70565b610470565b005b610210610220366004610db9565b610507565b610210610233366004610db9565b610555565b610210610246366004610db9565b6105a0565b610210610259366004610db9565b6105eb565b61019761026c366004610db9565b6001600160a01b031660009081526020819052604090205490565b610210610639565b61019760075481565b6005546040516001600160a01b039091168152602001610167565b61015a61066f565b6101836102c9366004610e47565b61067e565b6101836102dc366004610e47565b610710565b6101976102ef366004610dda565b6001600160a01b03918216600090815260016020908152604080832093909416825291909152205490565b610210610328366004610db9565b61071e565b61021061033b366004610e88565b6107b9565b61018361034e366004610db9565b60086020526000908152604090205460ff1681565b60606003805461037290610fa0565b80601f016020809104026020016040519081016040528092919081815260200182805461039e90610fa0565b80156103eb5780601f106103c0576101008083540402835291602001916103eb565b820191906000526020600020905b8154815290600101906020018083116103ce57829003601f168201915b5050505050905090565b60003361040381858561080c565b5060019392505050565b60003361041b858285610930565b6104268585856109c2565b506001949350505050565b3360008181526001602090815260408083206001600160a01b0387168452909152812054909190610403908290869061046b908790610f32565b61080c565b6005546001600160a01b031633146104a35760405162461bcd60e51b815260040161049a90610efd565b60405180910390fd5b600a8111156105025760405162461bcd60e51b815260206004820152602560248201527f4e657720726174652065786365656473206d617820746178206c696d6974206f604482015264662031302560d81b606482015260840161049a565b600755565b6005546001600160a01b031633146105315760405162461bcd60e51b815260040161049a90610efd565b6001600160a01b03166000908152600860205260409020805460ff19166001179055565b6005546001600160a01b0316331461057f5760405162461bcd60e51b815260040161049a90610efd565b6001600160a01b03166000908152600860205260409020805460ff19169055565b6005546001600160a01b031633146105ca5760405162461bcd60e51b815260040161049a90610efd565b6001600160a01b03166000908152600960205260409020805460ff19169055565b6005546001600160a01b031633146106155760405162461bcd60e51b815260040161049a90610efd565b6001600160a01b03166000908152600960205260409020805460ff19166001179055565b6005546001600160a01b031633146106635760405162461bcd60e51b815260040161049a90610efd565b61066d6000610b7d565b565b60606004805461037290610fa0565b3360008181526001602090815260408083206001600160a01b0387168452909152812054909190838110156107035760405162461bcd60e51b815260206004820152602560248201527f45524332303a2064656372656173656420616c6c6f77616e63652062656c6f77604482015264207a65726f60d81b606482015260840161049a565b610426828686840361080c565b6000336104038185856109c2565b6005546001600160a01b031633146107485760405162461bcd60e51b815260040161049a90610efd565b6001600160a01b0381166107ad5760405162461bcd60e51b815260206004820152602660248201527f4f776e61626c653a206e6577206f776e657220697320746865207a65726f206160448201526564647265737360d01b606482015260840161049a565b6107b681610b7d565b50565b6005546001600160a01b031633146107e35760405162461bcd60e51b815260040161049a90610efd565b816001141561080857600680546001600160a01b0319166001600160a01b0383161790555b5050565b6001600160a01b03831661086e5760405162461bcd60e51b8152602060048201526024808201527f45524332303a20617070726f76652066726f6d20746865207a65726f206164646044820152637265737360e01b606482015260840161049a565b6001600160a01b0382166108cf5760405162461bcd60e51b815260206004820152602260248201527f45524332303a20617070726f766520746f20746865207a65726f206164647265604482015261737360f01b606482015260840161049a565b6001600160a01b0383811660008181526001602090815260408083209487168084529482529182902085905590518481527f8c5be1e5ebec7d5bd14f71427d1e84f3dd0314c0f7b2291e5b200ac8c7c3b925910160405180910390a3505050565b6001600160a01b0383811660009081526001602090815260408083209386168352929052205460001981146109bc57818110156109af5760405162461bcd60e51b815260206004820152601d60248201527f45524332303a20696e73756666696369656e7420616c6c6f77616e6365000000604482015260640161049a565b6109bc848484840361080c565b50505050565b6001600160a01b038216610a185760405162461bcd60e51b815260206004820152601c60248201527f7472616e7366657220746f20746865207a65726f206164647265737300000000604482015260640161049a565b6001600160a01b038316610a6e5760405162461bcd60e51b815260206004820152601e60248201527f7472616e736665722066726f6d20746865207a65726f20616464726573730000604482015260640161049a565b6001600160a01b03831660009081526008602052604090205460ff16158015610ab057506001600160a01b03821660009081526008602052604090205460ff16155b610afc5760405162461bcd60e51b815260206004820152601b60248201527f54686973206164647265737320697320626c61636b6c69737465640000000000604482015260640161049a565b6001600160a01b03831660009081526009602052604090205460ff16151560011415610b3257610b2d838383610bcf565b505050565b6000606460075483610b449190610f6a565b610b4e9190610f4a565b600654909150610b699085906001600160a01b031683610bcf565b6109bc8484610b788486610f89565b610bcf565b600580546001600160a01b038381166001600160a01b0319831681179093556040519116919082907f8be0079c531659141344cd1fd0a4f28419497f9722a3daafe3b4186f6b6457e090600090a35050565b6001600160a01b038316610c335760405162461bcd60e51b815260206004820152602560248201527f45524332303a207472616e736665722066726f6d20746865207a65726f206164604482015264647265737360d81b606482015260840161049a565b6001600160a01b038216610c955760405162461bcd60e51b815260206004820152602360248201527f45524332303a207472616e7366657220746f20746865207a65726f206164647260448201526265737360e81b606482015260840161049a565b6001600160a01b03831660009081526020819052604090205481811015610d0d5760405162461bcd60e51b815260206004820152602660248201527f45524332303a207472616e7366657220616d6f756e7420657863656564732062604482015265616c616e636560d01b606482015260840161049a565b6001600160a01b03808516600090815260208190526040808220858503905591851681529081208054849290610d44908490610f32565b92505081905550826001600160a01b0316846001600160a01b03167fddf252ad1be2c89b69c2b068fc378daa952ba7f163c4a11628f55a4df523b3ef84604051610d9091815260200190565b60405180910390a36109bc565b80356001600160a01b0381168114610db457600080fd5b919050565b600060208284031215610dca578081fd5b610dd382610d9d565b9392505050565b60008060408385031215610dec578081fd5b610df583610d9d565b9150610e0360208401610d9d565b90509250929050565b600080600060608486031215610e20578081fd5b610e2984610d9d565b9250610e3760208501610d9d565b9150604084013590509250925092565b60008060408385031215610e59578182fd5b610e6283610d9d565b946020939093013593505050565b600060208284031215610e81578081fd5b5035919050565b60008060408385031215610e9a578182fd5b82359150610e0360208401610d9d565b6000602080835283518082850152825b81811015610ed657858101830151858201604001528201610eba565b81811115610ee75783604083870101525b50601f01601f1916929092016040019392505050565b6020808252818101527f4f776e61626c653a2063616c6c6572206973206e6f7420746865206f776e6572604082015260600190565b60008219821115610f4557610f45610fdb565b500190565b600082610f6557634e487b7160e01b81526012600452602481fd5b500490565b6000816000190483118215151615610f8457610f84610fdb565b500290565b600082821015610f9b57610f9b610fdb565b500390565b600181811c90821680610fb457607f821691505b60208210811415610fd557634e487b7160e01b600052602260045260246000fd5b50919050565b634e487b7160e01b600052601160045260246000fdfea26469706673582212207b30df041a761afd5c22861c23488390bfc878c89cc268e317bac7cd072aa16664736f6c63430008040033",
  "linkReferences": {},
  "deployedLinkReferences": {}
}