{
  "_format": "hh-sol-artifact-1",
  "contractName": "ProfileFactory",
  "sourceName": "contracts/ProfileFactory.sol",
  "abi": [
    {
      "inputs": [
        {
          "internalType": "address",
          "name": "_initBlueprint",
          "type": "address"
        }
      ],
      "stateMutability": "nonpayable",
      "type": "constructor"
    },
    {
      "inputs": [
        {
          "internalType": "address",
          "name": "_usdcAddress",
          "type": "address"
        },
        {
          "internalType": "string",
          "name": "_profileName",
          "type": "string"
        },
        {
          "internalType": "string",
          "name": "_profileTitle",
          "type": "string"
        }
      ],
      "name": "createProfile",
      "outputs": [],
      "stateMutability": "nonpayable",
      "type": "function"
    },
    {
      "inputs": [],
      "name": "getBeacon",
      "outputs": [
        {
          "internalType": "address",
          "name": "",
          "type": "address"
        }
      ],
      "stateMutability": "view",
      "type": "function"
    },
    {
      "inputs": [],
      "name": "getImplementation",
      "outputs": [
        {
          "internalType": "address",
          "name": "",
          "type": "address"
        }
      ],
      "stateMutability": "view",
      "type": "function"
    },
    {
      "inputs": [
        {
          "internalType": "address",
          "name": "",
          "type": "address"
        }
      ],
      "name": "ownerToProfileAddress",
      "outputs": [
        {
          "internalType": "address",
          "name": "",
          "type": "address"
        }
      ],
      "stateMutability": "view",
      "type": "function"
    },
    {
      "inputs": [],
      "name": "totalProfileCount",
      "outputs": [
        {
          "internalType": "uint256",
          "name": "_value",
          "type": "uint256"
        }
      ],
      "stateMutability": "view",
      "type": "function"
    }
  ],
  "bytecode": "0x60a060405234801561001057600080fd5b50604051611aea380380611aea83398101604081905261002f91610088565b8060405161003c9061007b565b6001600160a01b039091168152602001604051809103906000f080158015610068573d6000803e3d6000fd5b506001600160a01b0316608052506100b8565b610af880610ff283390190565b60006020828403121561009a57600080fd5b81516001600160a01b03811681146100b157600080fd5b9392505050565b608051610f126100e06000396000818160c8015281816101d901526102ba0152610f126000f3fe60806040523480156200001157600080fd5b50600436106200005e5760003560e01c806303ba778b14620000635780632737a05b14620000815780632d6b3a6b14620000c657806360dd681214620000ed578063aaf10f421462000106575b600080fd5b6000546200006e9081565b6040519081526020015b60405180910390f35b620000ad6200009236600462000379565b6001602052600090815260409020546001600160a01b031681565b6040516001600160a01b03909116815260200162000078565b7f0000000000000000000000000000000000000000000000000000000000000000620000ad565b62000104620000fe3660046200044b565b62000110565b005b620000ad620002b6565b6001600160a01b0383166200015e5760405162461bcd60e51b815260206004820152600f60248201526e496e76616c6964206164647265737360881b60448201526064015b60405180910390fd5b336000908152600160205260409020546001600160a01b031615620001c65760405162461bcd60e51b815260206004820152601c60248201527f596f75722070726f66696c6520616c7265616479206372656174656400000000604482015260640162000155565b620001d5600080546001019055565b60007f000000000000000000000000000000000000000000000000000000000000000063613d25bb60e01b858585336040516024016200021994939291906200051a565b60408051601f198184030181529181526020820180516001600160e01b03166001600160e01b0319909416939093179092529051620002589062000352565b6200026592919062000567565b604051809103906000f08015801562000282573d6000803e3d6000fd5b5033600090815260016020526040902080546001600160a01b0319166001600160a01b039290921691909117905550505050565b60007f00000000000000000000000000000000000000000000000000000000000000006001600160a01b0316635c60da1b6040518163ffffffff1660e01b815260040160206040518083038186803b1580156200031257600080fd5b505afa15801562000327573d6000803e3d6000fd5b505050506040513d601f19601f820116820180604052508101906200034d919062000595565b905090565b61092780620005b683390190565b6001600160a01b03811681146200037657600080fd5b50565b6000602082840312156200038c57600080fd5b8135620003998162000360565b9392505050565b634e487b7160e01b600052604160045260246000fd5b600082601f830112620003c857600080fd5b813567ffffffffffffffff80821115620003e657620003e6620003a0565b604051601f8301601f19908116603f01168101908282118183101715620004115762000411620003a0565b816040528381528660208588010111156200042b57600080fd5b836020870160208301376000602085830101528094505050505092915050565b6000806000606084860312156200046157600080fd5b83356200046e8162000360565b9250602084013567ffffffffffffffff808211156200048c57600080fd5b6200049a87838801620003b6565b93506040860135915080821115620004b157600080fd5b50620004c086828701620003b6565b9150509250925092565b6000815180845260005b81811015620004f257602081850181015186830182015201620004d4565b8181111562000505576000602083870101525b50601f01601f19169290920160200192915050565b600060018060a01b038087168352608060208401526200053e6080840187620004ca565b8381036040850152620005528187620004ca565b92505080841660608401525095945050505050565b6001600160a01b03831681526040602082018190526000906200058d90830184620004ca565b949350505050565b600060208284031215620005a857600080fd5b815162000399816200036056fe608060405260405161092738038061092783398101604081905261002291610474565b61002e82826000610035565b505061059e565b61003e8361010f565b6040516001600160a01b038416907f1cf3b03a6cf19fa2baba4df148e9dcabedea7f8a5c07840e207e5c089be95d3e90600090a260008251118061007f5750805b1561010a57610108836001600160a01b0316635c60da1b6040518163ffffffff1660e01b815260040160206040518083038186803b1580156100c057600080fd5b505afa1580156100d4573d6000803e3d6000fd5b505050506040513d601f19601f820116820180604052508101906100f89190610534565b836102c160201b6100291760201c565b505b505050565b610122816102ed60201b6100551760201c565b6101815760405162461bcd60e51b815260206004820152602560248201527f455243313936373a206e657720626561636f6e206973206e6f74206120636f6e6044820152641d1c9858dd60da1b60648201526084015b60405180910390fd5b610204816001600160a01b0316635c60da1b6040518163ffffffff1660e01b815260040160206040518083038186803b1580156101bd57600080fd5b505afa1580156101d1573d6000803e3d6000fd5b505050506040513d601f19601f820116820180604052508101906101f59190610534565b6102ed60201b6100551760201c565b6102695760405162461bcd60e51b815260206004820152603060248201527f455243313936373a20626561636f6e20696d706c656d656e746174696f6e206960448201526f1cc81b9bdd08184818dbdb9d1c9858dd60821b6064820152608401610178565b806102a07fa3f0ad74e5423aebfd80d3ef4346578335a9a72aeaee59ff6cb3582b35133d5060001b6102fc60201b6100641760201c565b80546001600160a01b0319166001600160a01b039290921691909117905550565b60606102e68383604051806060016040528060278152602001610900602791396102ff565b9392505050565b6001600160a01b03163b151590565b90565b60606001600160a01b0384163b6103675760405162461bcd60e51b815260206004820152602660248201527f416464726573733a2064656c65676174652063616c6c20746f206e6f6e2d636f6044820152651b9d1c9858dd60d21b6064820152608401610178565b600080856001600160a01b031685604051610382919061054f565b600060405180830381855af49150503d80600081146103bd576040519150601f19603f3d011682016040523d82523d6000602084013e6103c2565b606091505b5090925090506103d38282866103dd565b9695505050505050565b606083156103ec5750816102e6565b8251156103fc5782518084602001fd5b8160405162461bcd60e51b8152600401610178919061056b565b80516001600160a01b038116811461042d57600080fd5b919050565b634e487b7160e01b600052604160045260246000fd5b60005b8381101561046357818101518382015260200161044b565b838111156101085750506000910152565b6000806040838503121561048757600080fd5b61049083610416565b60208401519092506001600160401b03808211156104ad57600080fd5b818501915085601f8301126104c157600080fd5b8151818111156104d3576104d3610432565b604051601f8201601f19908116603f011681019083821181831017156104fb576104fb610432565b8160405282815288602084870101111561051457600080fd5b610525836020830160208801610448565b80955050505050509250929050565b60006020828403121561054657600080fd5b6102e682610416565b60008251610561818460208701610448565b9190910192915050565b602081526000825180602084015261058a816040850160208701610448565b601f01601f19169190910160400192915050565b610353806105ad6000396000f3fe60806040523661001357610011610017565b005b6100115b610027610022610067565b61010f565b565b606061004e83836040518060600160405280602781526020016102f760279139610133565b9392505050565b6001600160a01b03163b151590565b90565b600061009a7fa3f0ad74e5423aebfd80d3ef4346578335a9a72aeaee59ff6cb3582b35133d50546001600160a01b031690565b6001600160a01b0316635c60da1b6040518163ffffffff1660e01b815260040160206040518083038186803b1580156100d257600080fd5b505afa1580156100e6573d6000803e3d6000fd5b505050506040513d601f19601f8201168201806040525081019061010a919061024e565b905090565b3660008037600080366000845af43d6000803e80801561012e573d6000f35b3d6000fd5b60606001600160a01b0384163b6101a05760405162461bcd60e51b815260206004820152602660248201527f416464726573733a2064656c65676174652063616c6c20746f206e6f6e2d636f6044820152651b9d1c9858dd60d21b60648201526084015b60405180910390fd5b600080856001600160a01b0316856040516101bb91906102a7565b600060405180830381855af49150503d80600081146101f6576040519150601f19603f3d011682016040523d82523d6000602084013e6101fb565b606091505b509150915061020b828286610215565b9695505050505050565b6060831561022457508161004e565b8251156102345782518084602001fd5b8160405162461bcd60e51b815260040161019791906102c3565b60006020828403121561026057600080fd5b81516001600160a01b038116811461004e57600080fd5b60005b8381101561029257818101518382015260200161027a565b838111156102a1576000848401525b50505050565b600082516102b9818460208701610277565b9190910192915050565b60208152600082518060208401526102e2816040850160208701610277565b601f01601f1916919091016040019291505056fe416464726573733a206c6f772d6c6576656c2064656c65676174652063616c6c206661696c6564a264697066735822122018acc2d30d6f04b2a602a8ded4017b070d77505a98128a7f82b62b494c75675b64736f6c63430008090033416464726573733a206c6f772d6c6576656c2064656c65676174652063616c6c206661696c6564a264697066735822122029000c6ae8aad24b2950b1a761fafea2e8b9ff28d3d46a16498a1a37a1f6bbbb64736f6c6343000809003360a060405234801561001057600080fd5b50604051610af8380380610af883398101604081905261002f916101dd565b610038336100a6565b80604051610045906101d0565b6001600160a01b039091168152602001604051809103906000f080158015610071573d6000803e3d6000fd5b506001600160a01b03908116608052600180546001600160a01b0319169183169190911790556100a0326100f6565b5061020d565b600080546001600160a01b038381166001600160a01b0319831681178455604051919092169283917f8be0079c531659141344cd1fd0a4f28419497f9722a3daafe3b4186f6b6457e09190a35050565b6100fe610174565b6001600160a01b0381166101685760405162461bcd60e51b815260206004820152602660248201527f4f776e61626c653a206e6577206f776e657220697320746865207a65726f206160448201526564647265737360d01b60648201526084015b60405180910390fd5b610171816100a6565b50565b6000546001600160a01b031633146101ce5760405162461bcd60e51b815260206004820181905260248201527f4f776e61626c653a2063616c6c6572206973206e6f7420746865206f776e6572604482015260640161015f565b565b6104e48061061483390190565b6000602082840312156101ef57600080fd5b81516001600160a01b038116811461020657600080fd5b9392505050565b6080516103e561022f60003960008181610106015261018901526103e56000f3fe608060405234801561001057600080fd5b50600436106100625760003560e01c80631c1b8772146100675780635c60da1b1461007c578063715018a6146100a05780638da5cb5b146100a8578063c05efa15146100b9578063f2fde38b146100cc575b600080fd5b61007a61007536600461036e565b6100df565b005b610084610185565b6040516001600160a01b03909116815260200160405180910390f35b61007a61021d565b6000546001600160a01b0316610084565b600154610084906001600160a01b031681565b61007a6100da36600461036e565b610231565b6100e76102af565b604051631b2ce7f360e11b81526001600160a01b0382811660048301527f00000000000000000000000000000000000000000000000000000000000000001690633659cfe690602401600060405180830381600087803b15801561014a57600080fd5b505af115801561015e573d6000803e3d6000fd5b5050600180546001600160a01b0319166001600160a01b0394909416939093179092555050565b60007f00000000000000000000000000000000000000000000000000000000000000006001600160a01b0316635c60da1b6040518163ffffffff1660e01b815260040160206040518083038186803b1580156101e057600080fd5b505afa1580156101f4573d6000803e3d6000fd5b505050506040513d601f19601f820116820180604052508101906102189190610392565b905090565b6102256102af565b61022f6000610309565b565b6102396102af565b6001600160a01b0381166102a35760405162461bcd60e51b815260206004820152602660248201527f4f776e61626c653a206e6577206f776e657220697320746865207a65726f206160448201526564647265737360d01b60648201526084015b60405180910390fd5b6102ac81610309565b50565b6000546001600160a01b0316331461022f5760405162461bcd60e51b815260206004820181905260248201527f4f776e61626c653a2063616c6c6572206973206e6f7420746865206f776e6572604482015260640161029a565b600080546001600160a01b038381166001600160a01b0319831681178455604051919092169283917f8be0079c531659141344cd1fd0a4f28419497f9722a3daafe3b4186f6b6457e09190a35050565b6001600160a01b03811681146102ac57600080fd5b60006020828403121561038057600080fd5b813561038b81610359565b9392505050565b6000602082840312156103a457600080fd5b815161038b8161035956fea2646970667358221220cc8c6dd1a708d8d30707258424dae92d33566f7f515fa7705deaca1d1fc06e2864736f6c63430008090033608060405234801561001057600080fd5b506040516104e43803806104e483398101604081905261002f91610151565b61003833610047565b61004181610097565b50610181565b600080546001600160a01b038381166001600160a01b0319831681178455604051919092169283917f8be0079c531659141344cd1fd0a4f28419497f9722a3daafe3b4186f6b6457e09190a35050565b6100aa8161014260201b6101a01760201c565b6101205760405162461bcd60e51b815260206004820152603360248201527f5570677261646561626c65426561636f6e3a20696d706c656d656e746174696f60448201527f6e206973206e6f74206120636f6e747261637400000000000000000000000000606482015260840160405180910390fd5b600180546001600160a01b0319166001600160a01b0392909216919091179055565b6001600160a01b03163b151590565b60006020828403121561016357600080fd5b81516001600160a01b038116811461017a57600080fd5b9392505050565b610354806101906000396000f3fe608060405234801561001057600080fd5b50600436106100575760003560e01c80633659cfe61461005c5780635c60da1b14610071578063715018a61461009a5780638da5cb5b146100a2578063f2fde38b146100b3575b600080fd5b61006f61006a3660046102ee565b6100c6565b005b6001546001600160a01b03165b6040516001600160a01b03909116815260200160405180910390f35b61006f61010e565b6000546001600160a01b031661007e565b61006f6100c13660046102ee565b610122565b6100ce6101af565b6100d781610209565b6040516001600160a01b038216907fbc7cd75a20ee27fd9adebab32041f755214dbc6bffa90cc0225b39da2e5c2d3b90600090a250565b6101166101af565b610120600061029e565b565b61012a6101af565b6001600160a01b0381166101945760405162461bcd60e51b815260206004820152602660248201527f4f776e61626c653a206e6577206f776e657220697320746865207a65726f206160448201526564647265737360d01b60648201526084015b60405180910390fd5b61019d8161029e565b50565b6001600160a01b03163b151590565b6000546001600160a01b031633146101205760405162461bcd60e51b815260206004820181905260248201527f4f776e61626c653a2063616c6c6572206973206e6f7420746865206f776e6572604482015260640161018b565b6001600160a01b0381163b61027c5760405162461bcd60e51b815260206004820152603360248201527f5570677261646561626c65426561636f6e3a20696d706c656d656e746174696f6044820152721b881a5cc81b9bdd08184818dbdb9d1c9858dd606a1b606482015260840161018b565b600180546001600160a01b0319166001600160a01b0392909216919091179055565b600080546001600160a01b038381166001600160a01b0319831681178455604051919092169283917f8be0079c531659141344cd1fd0a4f28419497f9722a3daafe3b4186f6b6457e09190a35050565b60006020828403121561030057600080fd5b81356001600160a01b038116811461031757600080fd5b939250505056fea2646970667358221220118d3e3fc2f2d7950a67aadab0307540bf6fe6c3757a600f6b6ef81ab406041764736f6c63430008090033",
  "linkReferences": {},
  "deployedLinkReferences": {}
}