{
  "_format": "hh-sol-artifact-1",
  "contractName": "TaskFactory",
  "sourceName": "contracts/TaskFactory.sol",
  "abi": [
    {
      "inputs": [
        {
          "internalType": "address",
          "name": "_initBlueprint",
          "type": "address"
        }
      ],
      "stateMutability": "nonpayable",
      "type": "constructor"
    },
    {
      "anonymous": false,
      "inputs": [
        {
          "indexed": false,
          "internalType": "address",
          "name": "projectAddress",
          "type": "address"
        },
        {
          "indexed": false,
          "internalType": "address",
          "name": "projectTaskAddress",
          "type": "address"
        }
      ],
      "name": "DeployedNewProjectTask",
      "type": "event"
    },
    {
      "inputs": [
        {
          "internalType": "address",
          "name": "_usdcAddress",
          "type": "address"
        },
        {
          "internalType": "address",
          "name": "_fndrAddress",
          "type": "address"
        },
        {
          "internalType": "address",
          "name": "_profileFactoryAddress",
          "type": "address"
        },
        {
          "internalType": "address",
          "name": "_projectFactoryAddress",
          "type": "address"
        },
        {
          "internalType": "address",
          "name": "_projectAddress",
          "type": "address"
        }
      ],
      "name": "createProjectTask",
      "outputs": [
        {
          "internalType": "address",
          "name": "",
          "type": "address"
        }
      ],
      "stateMutability": "nonpayable",
      "type": "function"
    },
    {
      "inputs": [],
      "name": "getBeacon",
      "outputs": [
        {
          "internalType": "address",
          "name": "",
          "type": "address"
        }
      ],
      "stateMutability": "view",
      "type": "function"
    },
    {
      "inputs": [],
      "name": "getImplementation",
      "outputs": [
        {
          "internalType": "address",
          "name": "",
          "type": "address"
        }
      ],
      "stateMutability": "view",
      "type": "function"
    },
    {
      "inputs": [
        {
          "internalType": "address",
          "name": "_projectAddress",
          "type": "address"
        }
      ],
      "name": "getProjectTask",
      "outputs": [
        {
          "internalType": "address",
          "name": "",
          "type": "address"
        }
      ],
      "stateMutability": "view",
      "type": "function"
    },
    {
      "inputs": [
        {
          "internalType": "address",
          "name": "",
          "type": "address"
        }
      ],
      "name": "projectToTaskAddress",
      "outputs": [
        {
          "internalType": "address",
          "name": "",
          "type": "address"
        }
      ],
      "stateMutability": "view",
      "type": "function"
    }
  ],
  "bytecode": "0x60a060405234801561001057600080fd5b50604051611b59380380611b5983398101604081905261002f9161008c565b8060405161003c9061007f565b6001600160a01b039091168152602001604051809103906000f080158015610068573d6000803e3d6000fd5b5060601b6001600160601b031916608052506100bc565b610afd8061105c83390190565b60006020828403121561009e57600080fd5b81516001600160a01b03811681146100b557600080fd5b9392505050565b60805160601c610f756100e760003960008181609801528181610360015261042e0152610f756000f3fe60806040523480156200001157600080fd5b50600436106200005e5760003560e01c80631aa9042c14620000635780632d6b3a6b14620000965780636c35d6ce14620000bd578063aaf10f4214620000e9578063b3a7a6ec14620000f3575b600080fd5b6200007a620000743660046200051b565b62000122565b6040516001600160a01b03909116815260200160405180910390f35b7f00000000000000000000000000000000000000000000000000000000000000006200007a565b6200007a620000ce366004620004d4565b6001602052600090815260409020546001600160a01b031681565b6200007a6200042a565b6200007a62000104366004620004d4565b6001600160a01b039081166000908152600160205260409020541690565b60006001600160a01b038616620001775760405162461bcd60e51b8152602060048201526014602482015273496e76616c69642075736463206164647265737360601b60448201526064015b60405180910390fd5b6001600160a01b038516620001c65760405162461bcd60e51b8152602060048201526014602482015273496e76616c696420666e6472206164647265737360601b60448201526064016200016e565b6001600160a01b0384166200021e5760405162461bcd60e51b815260206004820152601f60248201527f496e76616c69642070726f66696c6520666163746f727920616464726573730060448201526064016200016e565b6001600160a01b038316620002765760405162461bcd60e51b815260206004820152601f60248201527f496e76616c69642070726f6a65637420666163746f727920616464726573730060448201526064016200016e565b6001600160a01b038281166000908152600160205260409020541615620002ea5760405162461bcd60e51b815260206004820152602160248201527f596f75722070726f6a656374207461736b20616c7265616479206372656174656044820152601960fa1b60648201526084016200016e565b620002f9600080546001019055565b604080516001600160a01b03888116602483015287811660448301528681166064830152851660848201523360a4808301919091528251808303909101815260c490910182526020810180516001600160e01b0316630a2ca2bd60e11b17905290516000917f0000000000000000000000000000000000000000000000000000000000000000916200038b90620004c6565b6200039892919062000597565b604051809103906000f080158015620003b5573d6000803e3d6000fd5b506001600160a01b0384811660008181526001602090815260409182902080546001600160a01b031916948616948517905581519283528201929092529192507f6ff2fef8e3eed66934a39170ddcc48a91818e6b7e996959198e89efbb9da2766910160405180910390a19695505050505050565b60007f00000000000000000000000000000000000000000000000000000000000000006001600160a01b0316635c60da1b6040518163ffffffff1660e01b815260040160206040518083038186803b1580156200048657600080fd5b505afa1580156200049b573d6000803e3d6000fd5b505050506040513d601f19601f82011682018060405250810190620004c19190620004fb565b905090565b610927806200061983390190565b600060208284031215620004e757600080fd5b8135620004f481620005ff565b9392505050565b6000602082840312156200050e57600080fd5b8151620004f481620005ff565b600080600080600060a086880312156200053457600080fd5b85356200054181620005ff565b945060208601356200055381620005ff565b935060408601356200056581620005ff565b925060608601356200057781620005ff565b915060808601356200058981620005ff565b809150509295509295909350565b60018060a01b038316815260006020604081840152835180604085015260005b81811015620005d557858101830151858201606001528201620005b7565b81811115620005e8576000606083870101525b50601f01601f191692909201606001949350505050565b6001600160a01b03811681146200061557600080fd5b5056fe60806040526040516109273803806109278339810160408190526100229161044d565b61002e82826000610035565b505061059e565b61003e8361010f565b6040516001600160a01b038416907f1cf3b03a6cf19fa2baba4df148e9dcabedea7f8a5c07840e207e5c089be95d3e90600090a260008251118061007f5750805b1561010a57610108836001600160a01b0316635c60da1b6040518163ffffffff1660e01b815260040160206040518083038186803b1580156100c057600080fd5b505afa1580156100d4573d6000803e3d6000fd5b505050506040513d601f19601f820116820180604052508101906100f89190610432565b836102c160201b6100291760201c565b505b505050565b610122816102ed60201b6100551760201c565b6101815760405162461bcd60e51b815260206004820152602560248201527f455243313936373a206e657720626561636f6e206973206e6f74206120636f6e6044820152641d1c9858dd60da1b60648201526084015b60405180910390fd5b610204816001600160a01b0316635c60da1b6040518163ffffffff1660e01b815260040160206040518083038186803b1580156101bd57600080fd5b505afa1580156101d1573d6000803e3d6000fd5b505050506040513d601f19601f820116820180604052508101906101f59190610432565b6102ed60201b6100551760201c565b6102695760405162461bcd60e51b815260206004820152603060248201527f455243313936373a20626561636f6e20696d706c656d656e746174696f6e206960448201526f1cc81b9bdd08184818dbdb9d1c9858dd60821b6064820152608401610178565b806102a07fa3f0ad74e5423aebfd80d3ef4346578335a9a72aeaee59ff6cb3582b35133d5060001b6102fc60201b6100641760201c565b80546001600160a01b0319166001600160a01b039290921691909117905550565b60606102e68383604051806060016040528060278152602001610900602791396102ff565b9392505050565b6001600160a01b03163b151590565b90565b60606001600160a01b0384163b6103675760405162461bcd60e51b815260206004820152602660248201527f416464726573733a2064656c65676174652063616c6c20746f206e6f6e2d636f6044820152651b9d1c9858dd60d21b6064820152608401610178565b600080856001600160a01b031685604051610382919061050d565b600060405180830381855af49150503d80600081146103bd576040519150601f19603f3d011682016040523d82523d6000602084013e6103c2565b606091505b5090925090506103d38282866103dd565b9695505050505050565b606083156103ec5750816102e6565b8251156103fc5782518084602001fd5b8160405162461bcd60e51b81526004016101789190610529565b80516001600160a01b038116811461042d57600080fd5b919050565b60006020828403121561044457600080fd5b6102e682610416565b6000806040838503121561046057600080fd5b61046983610416565b60208401519092506001600160401b038082111561048657600080fd5b818501915085601f83011261049a57600080fd5b8151818111156104ac576104ac610588565b604051601f8201601f19908116603f011681019083821181831017156104d4576104d4610588565b816040528281528860208487010111156104ed57600080fd5b6104fe83602083016020880161055c565b80955050505050509250929050565b6000825161051f81846020870161055c565b9190910192915050565b602081526000825180602084015261054881604085016020870161055c565b601f01601f19169190910160400192915050565b60005b8381101561057757818101518382015260200161055f565b838111156101085750506000910152565b634e487b7160e01b600052604160045260246000fd5b610353806105ad6000396000f3fe60806040523661001357610011610017565b005b6100115b610027610022610067565b61010f565b565b606061004e83836040518060600160405280602781526020016102f760279139610133565b9392505050565b6001600160a01b03163b151590565b90565b600061009a7fa3f0ad74e5423aebfd80d3ef4346578335a9a72aeaee59ff6cb3582b35133d50546001600160a01b031690565b6001600160a01b0316635c60da1b6040518163ffffffff1660e01b815260040160206040518083038186803b1580156100d257600080fd5b505afa1580156100e6573d6000803e3d6000fd5b505050506040513d601f19601f8201168201806040525081019061010a919061024e565b905090565b3660008037600080366000845af43d6000803e80801561012e573d6000f35b3d6000fd5b60606001600160a01b0384163b6101a05760405162461bcd60e51b815260206004820152602660248201527f416464726573733a2064656c65676174652063616c6c20746f206e6f6e2d636f6044820152651b9d1c9858dd60d21b60648201526084015b60405180910390fd5b600080856001600160a01b0316856040516101bb9190610277565b600060405180830381855af49150503d80600081146101f6576040519150601f19603f3d011682016040523d82523d6000602084013e6101fb565b606091505b509150915061020b828286610215565b9695505050505050565b6060831561022457508161004e565b8251156102345782518084602001fd5b8160405162461bcd60e51b81526004016101979190610293565b60006020828403121561026057600080fd5b81516001600160a01b038116811461004e57600080fd5b600082516102898184602087016102c6565b9190910192915050565b60208152600082518060208401526102b28160408501602087016102c6565b601f01601f19169190910160400192915050565b60005b838110156102e15781810151838201526020016102c9565b838111156102f0576000848401525b5050505056fe416464726573733a206c6f772d6c6576656c2064656c65676174652063616c6c206661696c6564a264697066735822122061a2a114a835db0db66ed966e61663232bd9bf890ebc2744f6016b4cce14bbda64736f6c63430008070033416464726573733a206c6f772d6c6576656c2064656c65676174652063616c6c206661696c6564a26469706673582212205102ec132c1457161c30ebc556a250915b9bb728eae9e61d4d3eb1c6ea1b7fdb64736f6c6343000807003360a060405234801561001057600080fd5b50604051610afd380380610afd83398101604081905261002f916101e3565b610038336100ac565b80604051610045906101d6565b6001600160a01b039091168152602001604051809103906000f080158015610071573d6000803e3d6000fd5b5060601b6001600160601b031916608052600180546001600160a01b0319166001600160a01b0383161790556100a6326100fc565b50610213565b600080546001600160a01b038381166001600160a01b0319831681178455604051919092169283917f8be0079c531659141344cd1fd0a4f28419497f9722a3daafe3b4186f6b6457e09190a35050565b61010461017a565b6001600160a01b03811661016e5760405162461bcd60e51b815260206004820152602660248201527f4f776e61626c653a206e6577206f776e657220697320746865207a65726f206160448201526564647265737360d01b60648201526084015b60405180910390fd5b610177816100ac565b50565b6000546001600160a01b031633146101d45760405162461bcd60e51b815260206004820181905260248201527f4f776e61626c653a2063616c6c6572206973206e6f7420746865206f776e65726044820152606401610165565b565b6104e48061061983390190565b6000602082840312156101f557600080fd5b81516001600160a01b038116811461020c57600080fd5b9392505050565b60805160601c6103e161023860003960008181610106015261018901526103e16000f3fe608060405234801561001057600080fd5b50600436106100625760003560e01c80631c1b8772146100675780635c60da1b1461007c578063715018a6146100a05780638da5cb5b146100a8578063c05efa15146100b9578063f2fde38b146100cc575b600080fd5b61007a610075366004610359565b6100df565b005b610084610185565b6040516001600160a01b03909116815260200160405180910390f35b61007a61021d565b6000546001600160a01b0316610084565b600154610084906001600160a01b031681565b61007a6100da366004610359565b610231565b6100e76102af565b604051631b2ce7f360e11b81526001600160a01b0382811660048301527f00000000000000000000000000000000000000000000000000000000000000001690633659cfe690602401600060405180830381600087803b15801561014a57600080fd5b505af115801561015e573d6000803e3d6000fd5b5050600180546001600160a01b0319166001600160a01b0394909416939093179092555050565b60007f00000000000000000000000000000000000000000000000000000000000000006001600160a01b0316635c60da1b6040518163ffffffff1660e01b815260040160206040518083038186803b1580156101e057600080fd5b505afa1580156101f4573d6000803e3d6000fd5b505050506040513d601f19601f82011682018060405250810190610218919061037d565b905090565b6102256102af565b61022f6000610309565b565b6102396102af565b6001600160a01b0381166102a35760405162461bcd60e51b815260206004820152602660248201527f4f776e61626c653a206e6577206f776e657220697320746865207a65726f206160448201526564647265737360d01b60648201526084015b60405180910390fd5b6102ac81610309565b50565b6000546001600160a01b0316331461022f5760405162461bcd60e51b815260206004820181905260248201527f4f776e61626c653a2063616c6c6572206973206e6f7420746865206f776e6572604482015260640161029a565b600080546001600160a01b038381166001600160a01b0319831681178455604051919092169283917f8be0079c531659141344cd1fd0a4f28419497f9722a3daafe3b4186f6b6457e09190a35050565b60006020828403121561036b57600080fd5b813561037681610396565b9392505050565b60006020828403121561038f57600080fd5b8151610376815b6001600160a01b03811681146102ac57600080fdfea264697066735822122088f9909306dbf1c9c53ac202e98597e2207d725c173ba3dc9d222d3cb7eba3ff64736f6c63430008070033608060405234801561001057600080fd5b506040516104e43803806104e483398101604081905261002f91610151565b61003833610047565b61004181610097565b50610181565b600080546001600160a01b038381166001600160a01b0319831681178455604051919092169283917f8be0079c531659141344cd1fd0a4f28419497f9722a3daafe3b4186f6b6457e09190a35050565b6100aa8161014260201b6101a01760201c565b6101205760405162461bcd60e51b815260206004820152603360248201527f5570677261646561626c65426561636f6e3a20696d706c656d656e746174696f60448201527f6e206973206e6f74206120636f6e747261637400000000000000000000000000606482015260840160405180910390fd5b600180546001600160a01b0319166001600160a01b0392909216919091179055565b6001600160a01b03163b151590565b60006020828403121561016357600080fd5b81516001600160a01b038116811461017a57600080fd5b9392505050565b610354806101906000396000f3fe608060405234801561001057600080fd5b50600436106100575760003560e01c80633659cfe61461005c5780635c60da1b14610071578063715018a61461009a5780638da5cb5b146100a2578063f2fde38b146100b3575b600080fd5b61006f61006a3660046102ee565b6100c6565b005b6001546001600160a01b03165b6040516001600160a01b03909116815260200160405180910390f35b61006f61010e565b6000546001600160a01b031661007e565b61006f6100c13660046102ee565b610122565b6100ce6101af565b6100d781610209565b6040516001600160a01b038216907fbc7cd75a20ee27fd9adebab32041f755214dbc6bffa90cc0225b39da2e5c2d3b90600090a250565b6101166101af565b610120600061029e565b565b61012a6101af565b6001600160a01b0381166101945760405162461bcd60e51b815260206004820152602660248201527f4f776e61626c653a206e6577206f776e657220697320746865207a65726f206160448201526564647265737360d01b60648201526084015b60405180910390fd5b61019d8161029e565b50565b6001600160a01b03163b151590565b6000546001600160a01b031633146101205760405162461bcd60e51b815260206004820181905260248201527f4f776e61626c653a2063616c6c6572206973206e6f7420746865206f776e6572604482015260640161018b565b6001600160a01b0381163b61027c5760405162461bcd60e51b815260206004820152603360248201527f5570677261646561626c65426561636f6e3a20696d706c656d656e746174696f6044820152721b881a5cc81b9bdd08184818dbdb9d1c9858dd606a1b606482015260840161018b565b600180546001600160a01b0319166001600160a01b0392909216919091179055565b600080546001600160a01b038381166001600160a01b0319831681178455604051919092169283917f8be0079c531659141344cd1fd0a4f28419497f9722a3daafe3b4186f6b6457e09190a35050565b60006020828403121561030057600080fd5b81356001600160a01b038116811461031757600080fd5b939250505056fea2646970667358221220280eea2c27ff525ffde790cb5b45a15cfb92c2e0c13fea26f116f0c8846e416064736f6c63430008070033",
  "linkReferences": {},
  "deployedLinkReferences": {}
}