{
  "_format": "hh-sol-artifact-1",
  "contractName": "ProjectBeacon",
  "sourceName": "contracts/ProjectBeacon.sol",
  "abi": [
    {
      "inputs": [
        {
          "internalType": "address",
          "name": "_initBlueprint",
          "type": "address"
        }
      ],
      "stateMutability": "nonpayable",
      "type": "constructor"
    },
    {
      "anonymous": false,
      "inputs": [
        {
          "indexed": true,
          "internalType": "address",
          "name": "previousOwner",
          "type": "address"
        },
        {
          "indexed": true,
          "internalType": "address",
          "name": "newOwner",
          "type": "address"
        }
      ],
      "name": "OwnershipTransferred",
      "type": "event"
    },
    {
      "inputs": [],
      "name": "blueprint",
      "outputs": [
        {
          "internalType": "address",
          "name": "",
          "type": "address"
        }
      ],
      "stateMutability": "view",
      "type": "function"
    },
    {
      "inputs": [],
      "name": "implementation",
      "outputs": [
        {
          "internalType": "address",
          "name": "",
          "type": "address"
        }
      ],
      "stateMutability": "view",
      "type": "function"
    },
    {
      "inputs": [],
      "name": "owner",
      "outputs": [
        {
          "internalType": "address",
          "name": "",
          "type": "address"
        }
      ],
      "stateMutability": "view",
      "type": "function"
    },
    {
      "inputs": [],
      "name": "renounceOwnership",
      "outputs": [],
      "stateMutability": "nonpayable",
      "type": "function"
    },
    {
      "inputs": [
        {
          "internalType": "address",
          "name": "newOwner",
          "type": "address"
        }
      ],
      "name": "transferOwnership",
      "outputs": [],
      "stateMutability": "nonpayable",
      "type": "function"
    },
    {
      "inputs": [
        {
          "internalType": "address",
          "name": "_newBlueprint",
          "type": "address"
        }
      ],
      "name": "update",
      "outputs": [],
      "stateMutability": "nonpayable",
      "type": "function"
    }
  ],
  "bytecode": "0x60a060405234801561001057600080fd5b50604051610af8380380610af883398101604081905261002f916101dd565b610038336100a6565b80604051610045906101d0565b6001600160a01b039091168152602001604051809103906000f080158015610071573d6000803e3d6000fd5b506001600160a01b03908116608052600180546001600160a01b0319169183169190911790556100a0326100f6565b5061020d565b600080546001600160a01b038381166001600160a01b0319831681178455604051919092169283917f8be0079c531659141344cd1fd0a4f28419497f9722a3daafe3b4186f6b6457e09190a35050565b6100fe610174565b6001600160a01b0381166101685760405162461bcd60e51b815260206004820152602660248201527f4f776e61626c653a206e6577206f776e657220697320746865207a65726f206160448201526564647265737360d01b60648201526084015b60405180910390fd5b610171816100a6565b50565b6000546001600160a01b031633146101ce5760405162461bcd60e51b815260206004820181905260248201527f4f776e61626c653a2063616c6c6572206973206e6f7420746865206f776e6572604482015260640161015f565b565b6104e48061061483390190565b6000602082840312156101ef57600080fd5b81516001600160a01b038116811461020657600080fd5b9392505050565b6080516103e561022f60003960008181610106015261018901526103e56000f3fe608060405234801561001057600080fd5b50600436106100625760003560e01c80631c1b8772146100675780635c60da1b1461007c578063715018a6146100a05780638da5cb5b146100a8578063c05efa15146100b9578063f2fde38b146100cc575b600080fd5b61007a61007536600461036e565b6100df565b005b610084610185565b6040516001600160a01b03909116815260200160405180910390f35b61007a61021d565b6000546001600160a01b0316610084565b600154610084906001600160a01b031681565b61007a6100da36600461036e565b610231565b6100e76102af565b604051631b2ce7f360e11b81526001600160a01b0382811660048301527f00000000000000000000000000000000000000000000000000000000000000001690633659cfe690602401600060405180830381600087803b15801561014a57600080fd5b505af115801561015e573d6000803e3d6000fd5b5050600180546001600160a01b0319166001600160a01b0394909416939093179092555050565b60007f00000000000000000000000000000000000000000000000000000000000000006001600160a01b0316635c60da1b6040518163ffffffff1660e01b815260040160206040518083038186803b1580156101e057600080fd5b505afa1580156101f4573d6000803e3d6000fd5b505050506040513d601f19601f820116820180604052508101906102189190610392565b905090565b6102256102af565b61022f6000610309565b565b6102396102af565b6001600160a01b0381166102a35760405162461bcd60e51b815260206004820152602660248201527f4f776e61626c653a206e6577206f776e657220697320746865207a65726f206160448201526564647265737360d01b60648201526084015b60405180910390fd5b6102ac81610309565b50565b6000546001600160a01b0316331461022f5760405162461bcd60e51b815260206004820181905260248201527f4f776e61626c653a2063616c6c6572206973206e6f7420746865206f776e6572604482015260640161029a565b600080546001600160a01b038381166001600160a01b0319831681178455604051919092169283917f8be0079c531659141344cd1fd0a4f28419497f9722a3daafe3b4186f6b6457e09190a35050565b6001600160a01b03811681146102ac57600080fd5b60006020828403121561038057600080fd5b813561038b81610359565b9392505050565b6000602082840312156103a457600080fd5b815161038b8161035956fea26469706673582212204388bf2032aafd44b7ceaecb49e49c1592cd36c07dacc2b68da6ca7841187e6664736f6c63430008090033608060405234801561001057600080fd5b506040516104e43803806104e483398101604081905261002f91610151565b61003833610047565b61004181610097565b50610181565b600080546001600160a01b038381166001600160a01b0319831681178455604051919092169283917f8be0079c531659141344cd1fd0a4f28419497f9722a3daafe3b4186f6b6457e09190a35050565b6100aa8161014260201b6101a01760201c565b6101205760405162461bcd60e51b815260206004820152603360248201527f5570677261646561626c65426561636f6e3a20696d706c656d656e746174696f60448201527f6e206973206e6f74206120636f6e747261637400000000000000000000000000606482015260840160405180910390fd5b600180546001600160a01b0319166001600160a01b0392909216919091179055565b6001600160a01b03163b151590565b60006020828403121561016357600080fd5b81516001600160a01b038116811461017a57600080fd5b9392505050565b610354806101906000396000f3fe608060405234801561001057600080fd5b50600436106100575760003560e01c80633659cfe61461005c5780635c60da1b14610071578063715018a61461009a5780638da5cb5b146100a2578063f2fde38b146100b3575b600080fd5b61006f61006a3660046102ee565b6100c6565b005b6001546001600160a01b03165b6040516001600160a01b03909116815260200160405180910390f35b61006f61010e565b6000546001600160a01b031661007e565b61006f6100c13660046102ee565b610122565b6100ce6101af565b6100d781610209565b6040516001600160a01b038216907fbc7cd75a20ee27fd9adebab32041f755214dbc6bffa90cc0225b39da2e5c2d3b90600090a250565b6101166101af565b610120600061029e565b565b61012a6101af565b6001600160a01b0381166101945760405162461bcd60e51b815260206004820152602660248201527f4f776e61626c653a206e6577206f776e657220697320746865207a65726f206160448201526564647265737360d01b60648201526084015b60405180910390fd5b61019d8161029e565b50565b6001600160a01b03163b151590565b6000546001600160a01b031633146101205760405162461bcd60e51b815260206004820181905260248201527f4f776e61626c653a2063616c6c6572206973206e6f7420746865206f776e6572604482015260640161018b565b6001600160a01b0381163b61027c5760405162461bcd60e51b815260206004820152603360248201527f5570677261646561626c65426561636f6e3a20696d706c656d656e746174696f6044820152721b881a5cc81b9bdd08184818dbdb9d1c9858dd606a1b606482015260840161018b565b600180546001600160a01b0319166001600160a01b0392909216919091179055565b600080546001600160a01b038381166001600160a01b0319831681178455604051919092169283917f8be0079c531659141344cd1fd0a4f28419497f9722a3daafe3b4186f6b6457e09190a35050565b60006020828403121561030057600080fd5b81356001600160a01b038116811461031757600080fd5b939250505056fea2646970667358221220118d3e3fc2f2d7950a67aadab0307540bf6fe6c3757a600f6b6ef81ab406041764736f6c63430008090033",
  "linkReferences": {},
  "deployedLinkReferences": {}
}