{
  "_format": "hh-sol-artifact-1",
  "contractName": "ProfileManage",
  "sourceName": "contracts/ProfileManage.sol",
  "abi": [
    {
      "inputs": [],
      "stateMutability": "nonpayable",
      "type": "constructor"
    },
    {
      "inputs": [
        {
          "internalType": "address",
          "name": "_usdcaddress",
          "type": "address"
        },
        {
          "internalType": "string",
          "name": "name",
          "type": "string"
        },
        {
          "internalType": "string",
          "name": "title",
          "type": "string"
        }
      ],
      "name": "createProfile",
      "outputs": [
        {
          "internalType": "address",
          "name": "",
          "type": "address"
        }
      ],
      "stateMutability": "nonpayable",
      "type": "function"
    },
    {
      "inputs": [],
      "name": "deleteProfile",
      "outputs": [],
      "stateMutability": "nonpayable",
      "type": "function"
    },
    {
      "inputs": [
        {
          "internalType": "address",
          "name": "_owner",
          "type": "address"
        }
      ],
      "name": "getProfileContractAddress",
      "outputs": [
        {
          "internalType": "address",
          "name": "",
          "type": "address"
        }
      ],
      "stateMutability": "view",
      "type": "function"
    },
    {
      "inputs": [
        {
          "internalType": "address",
          "name": "",
          "type": "address"
        }
      ],
      "name": "ownerToProfileAddress",
      "outputs": [
        {
          "internalType": "address",
          "name": "",
          "type": "address"
        }
      ],
      "stateMutability": "view",
      "type": "function"
    }
  ],
  "bytecode": "0x608060405234801561001057600080fd5b50610f73806100206000396000f3fe608060405234801561001057600080fd5b506004361061004c5760003560e01c80632737a05b14610051578063593c6e0d1461009657806360dd6812146100c25780636d4540eb146100d5575b600080fd5b61007a61005f3660046102df565b6001602052600090815260409020546001600160a01b031681565b6040516001600160a01b03909116815260200160405180910390f35b61007a6100a43660046102df565b6001600160a01b039081166000908152600160205260409020541690565b61007a6100d0366004610301565b6100f9565b6100f733600090815260016020526040902080546001600160a01b0319169055565b005b60006001600160a01b0384166101485760405162461bcd60e51b815260206004820152600f60248201526e496e76616c6964206164647265737360881b60448201526064015b60405180910390fd5b336000908152600160205260409020546001600160a01b0316156101ae5760405162461bcd60e51b815260206004820152601c60248201527f596f75722070726f66696c6520616c7265616479206372656174656400000000604482015260640161013f565b6101bc600080546001019055565b6000843385856040516101ce90610229565b6101db94939291906103c2565b604051809103906000f0801580156101f7573d6000803e3d6000fd5b5033600090815260016020526040902080546001600160a01b0319166001600160a01b03831617905595945050505050565b610b1c8061042283390190565b80356001600160a01b038116811461024d57600080fd5b919050565b600082601f83011261026357600080fd5b813567ffffffffffffffff8082111561027e5761027e61040b565b604051601f8301601f19908116603f011681019082821181831017156102a6576102a661040b565b816040528381528660208588010111156102bf57600080fd5b836020870160208301376000602085830101528094505050505092915050565b6000602082840312156102f157600080fd5b6102fa82610236565b9392505050565b60008060006060848603121561031657600080fd5b61031f84610236565b9250602084013567ffffffffffffffff8082111561033c57600080fd5b61034887838801610252565b9350604086013591508082111561035e57600080fd5b5061036b86828701610252565b9150509250925092565b6000815180845260005b8181101561039b5760208185018101518683018201520161037f565b818111156103ad576000602083870101525b50601f01601f19169290920160200192915050565b6001600160a01b038581168252841660208201526080604082018190526000906103ee90830185610375565b82810360608401526104008185610375565b979650505050505050565b634e487b7160e01b600052604160045260246000fdfe60806040526000600255600060035560006004553480156200002057600080fd5b5060405162000b1c38038062000b1c833981016040819052620000439162000223565b600680546001600160a01b038087166001600160a01b0319928316179092556005805492861692909116919091179055815162000088906000906020850190620000a9565b5080516200009e906001906020840190620000a9565b505050505062000306565b828054620000b790620002b3565b90600052602060002090601f016020900481019282620000db576000855562000126565b82601f10620000f657805160ff191683800117855562000126565b8280016001018555821562000126579182015b828111156200012657825182559160200191906001019062000109565b506200013492915062000138565b5090565b5b8082111562000134576000815560010162000139565b80516001600160a01b03811681146200016757600080fd5b919050565b600082601f8301126200017e57600080fd5b81516001600160401b03808211156200019b576200019b620002f0565b604051601f8301601f19908116603f01168101908282118183101715620001c657620001c6620002f0565b81604052838152602092508683858801011115620001e357600080fd5b600091505b83821015620002075785820183015181830184015290820190620001e8565b83821115620002195760008385830101525b9695505050505050565b600080600080608085870312156200023a57600080fd5b62000245856200014f565b935062000255602086016200014f565b60408601519093506001600160401b03808211156200027357600080fd5b62000281888389016200016c565b935060608701519150808211156200029857600080fd5b50620002a7878288016200016c565b91505092959194509250565b600181811c90821680620002c857607f821691505b60208210811415620002ea57634e487b7160e01b600052602260045260246000fd5b50919050565b634e487b7160e01b600052604160045260246000fd5b61080680620003166000396000f3fe608060405234801561001057600080fd5b50600436106100ea5760003560e01c80636fd5ae151161008c5780639baf05eb116100665780639baf05eb146101a1578063ce8ccad0146101b4578063ecd0c0c3146101bc578063ee8b7cd9146101cf57600080fd5b80636fd5ae151461015a57806381f32edd146101635780638da5cb5b1461017657600080fd5b80633ccfd60b116100c85780633ccfd60b146101395780633e413bee146101415780634a79d50c1461014a57806369e294161461015257600080fd5b806306fdde03146100ef57806310d4f96d1461010d57806327909ee914610124575b600080fd5b6100f76101e2565b60405161010491906106bd565b60405180910390f35b61011660025481565b604051908152602001610104565b61013761013236600461068b565b610270565b005b6101376102ee565b61011660035481565b6100f761044e565b600254610116565b61011660045481565b61013761017136600461068b565b61045b565b600554610189906001600160a01b031681565b6040516001600160a01b039091168152602001610104565b6101376101af3660046105da565b6104c8565b600354610116565b600654610189906001600160a01b031681565b6101376101dd3660046105da565b6104f2565b600080546101ef9061077f565b80601f016020809104026020016040519081016040528092919081815260200182805461021b9061077f565b80156102685780601f1061023d57610100808354040283529160200191610268565b820191906000526020600020905b81548152906001019060200180831161024b57829003601f168201915b505050505081565b600081116102b65760405162461bcd60e51b815260206004820152600e60248201526d125b9d985b1a5908185b5bdd5b9d60921b60448201526064015b60405180910390fd5b333b6102d45760405162461bcd60e51b81526004016102ad90610712565b80600360008282546102e69190610759565b909155505050565b6005546001600160a01b0316331461030557600080fd5b6006546040516370a0823160e01b81523060048201526000916001600160a01b0316906370a082319060240160206040518083038186803b15801561034957600080fd5b505afa15801561035d573d6000803e3d6000fd5b505050506040513d601f19601f8201168201806040525081019061038191906106a4565b9050600081116103c25760405162461bcd60e51b815260206004820152600c60248201526b5a65726f2062616c616e636560a01b60448201526064016102ad565b60065460055460405163a9059cbb60e01b81526001600160a01b0391821660048201526024810184905291169063a9059cbb90604401602060405180830381600087803b15801561041257600080fd5b505af1158015610426573d6000803e3d6000fd5b505050506040513d601f19601f8201168201806040525081019061044a91906105b1565b5050565b600180546101ef9061077f565b600081116104985760405162461bcd60e51b815260206004820152600a6024820152690496e76616c69642058560b41b60448201526064016102ad565b333b6104b65760405162461bcd60e51b81526004016102ad90610712565b80600260008282546102e69190610759565b6005546001600160a01b031633146104df57600080fd5b805161044a906001906020840190610518565b6005546001600160a01b0316331461050957600080fd5b805161044a9060009060208401905b8280546105249061077f565b90600052602060002090601f016020900481019282610546576000855561058c565b82601f1061055f57805160ff191683800117855561058c565b8280016001018555821561058c579182015b8281111561058c578251825591602001919060010190610571565b5061059892915061059c565b5090565b5b80821115610598576000815560010161059d565b6000602082840312156105c357600080fd5b815180151581146105d357600080fd5b9392505050565b6000602082840312156105ec57600080fd5b813567ffffffffffffffff8082111561060457600080fd5b818401915084601f83011261061857600080fd5b81358181111561062a5761062a6107ba565b604051601f8201601f19908116603f01168101908382118183101715610652576106526107ba565b8160405282815287602084870101111561066b57600080fd5b826020860160208301376000928101602001929092525095945050505050565b60006020828403121561069d57600080fd5b5035919050565b6000602082840312156106b657600080fd5b5051919050565b600060208083528351808285015260005b818110156106ea578581018301518582016040015282016106ce565b818111156106fc576000604083870101525b50601f01601f1916929092016040019392505050565b60208082526027908201527f58502063616e2062652075706461746564206279206f6e6c79207461736b20636040820152661bdb9d1c9858dd60ca1b606082015260800190565b6000821982111561077a57634e487b7160e01b600052601160045260246000fd5b500190565b600181811c9082168061079357607f821691505b602082108114156107b457634e487b7160e01b600052602260045260246000fd5b50919050565b634e487b7160e01b600052604160045260246000fdfea26469706673582212200a5d089e69037969cfd57ebaa4e418c3b46ee4a2b6c83f4f9ba383b47f2cd40964736f6c63430008070033a26469706673582212205e421ac1655cc2dacf22980d65410e4bb864d1135e0ae8b5664166ef14ce9bc764736f6c63430008070033",
  "linkReferences": {},
  "deployedLinkReferences": {}
}