{
  "_format": "hh-sol-artifact-1",
  "contractName": "ProfileManage",
  "sourceName": "contracts/ProfileManage.sol",
  "abi": [
    {
      "inputs": [],
      "stateMutability": "nonpayable",
      "type": "constructor"
    },
    {
      "inputs": [
        {
          "internalType": "address",
          "name": "_usdcaddress",
          "type": "address"
        },
        {
          "internalType": "string",
          "name": "name",
          "type": "string"
        },
        {
          "internalType": "string",
          "name": "title",
          "type": "string"
        }
      ],
      "name": "createProfile",
      "outputs": [
        {
          "internalType": "address",
          "name": "",
          "type": "address"
        }
      ],
      "stateMutability": "nonpayable",
      "type": "function"
    },
    {
      "inputs": [],
      "name": "deleteProfile",
      "outputs": [],
      "stateMutability": "nonpayable",
      "type": "function"
    },
    {
      "inputs": [
        {
          "internalType": "address",
          "name": "_owner",
          "type": "address"
        }
      ],
      "name": "getProfileContractAddress",
      "outputs": [
        {
          "internalType": "address",
          "name": "",
          "type": "address"
        }
      ],
      "stateMutability": "view",
      "type": "function"
    },
    {
      "inputs": [
        {
          "internalType": "address",
          "name": "",
          "type": "address"
        }
      ],
      "name": "ownerToProfileAddress",
      "outputs": [
        {
          "internalType": "address",
          "name": "",
          "type": "address"
        }
      ],
      "stateMutability": "view",
      "type": "function"
    }
  ],
  "bytecode": "0x608060405234801561001057600080fd5b50610fdc806100206000396000f3fe608060405234801561001057600080fd5b506004361061004c5760003560e01c80632737a05b14610051578063593c6e0d1461009657806360dd6812146100c25780636d4540eb146100d5575b600080fd5b61007a61005f3660046102df565b6001602052600090815260409020546001600160a01b031681565b6040516001600160a01b03909116815260200160405180910390f35b61007a6100a43660046102df565b6001600160a01b039081166000908152600160205260409020541690565b61007a6100d0366004610301565b6100f9565b6100f733600090815260016020526040902080546001600160a01b0319169055565b005b60006001600160a01b0384166101485760405162461bcd60e51b815260206004820152600f60248201526e496e76616c6964206164647265737360881b60448201526064015b60405180910390fd5b336000908152600160205260409020546001600160a01b0316156101ae5760405162461bcd60e51b815260206004820152601c60248201527f596f75722070726f66696c6520616c7265616479206372656174656400000000604482015260640161013f565b6101bc600080546001019055565b6000843385856040516101ce90610229565b6101db94939291906103c2565b604051809103906000f0801580156101f7573d6000803e3d6000fd5b5033600090815260016020526040902080546001600160a01b0319166001600160a01b03831617905595945050505050565b610b858061042283390190565b80356001600160a01b038116811461024d57600080fd5b919050565b600082601f83011261026357600080fd5b813567ffffffffffffffff8082111561027e5761027e61040b565b604051601f8301601f19908116603f011681019082821181831017156102a6576102a661040b565b816040528381528660208588010111156102bf57600080fd5b836020870160208301376000602085830101528094505050505092915050565b6000602082840312156102f157600080fd5b6102fa82610236565b9392505050565b60008060006060848603121561031657600080fd5b61031f84610236565b9250602084013567ffffffffffffffff8082111561033c57600080fd5b61034887838801610252565b9350604086013591508082111561035e57600080fd5b5061036b86828701610252565b9150509250925092565b6000815180845260005b8181101561039b5760208185018101518683018201520161037f565b818111156103ad576000602083870101525b50601f01601f19169290920160200192915050565b6001600160a01b038581168252841660208201526080604082018190526000906103ee90830185610375565b82810360608401526104008185610375565b979650505050505050565b634e487b7160e01b600052604160045260246000fdfe60806040526000600255600060035560006004553480156200002057600080fd5b5060405162000b8538038062000b85833981016040819052620000439162000223565b600680546001600160a01b038087166001600160a01b0319928316179092556005805492861692909116919091179055815162000088906000906020850190620000a9565b5080516200009e906001906020840190620000a9565b505050505062000306565b828054620000b790620002b3565b90600052602060002090601f016020900481019282620000db576000855562000126565b82601f10620000f657805160ff191683800117855562000126565b8280016001018555821562000126579182015b828111156200012657825182559160200191906001019062000109565b506200013492915062000138565b5090565b5b8082111562000134576000815560010162000139565b80516001600160a01b03811681146200016757600080fd5b919050565b600082601f8301126200017e57600080fd5b81516001600160401b03808211156200019b576200019b620002f0565b604051601f8301601f19908116603f01168101908282118183101715620001c657620001c6620002f0565b81604052838152602092508683858801011115620001e357600080fd5b600091505b83821015620002075785820183015181830184015290820190620001e8565b83821115620002195760008385830101525b9695505050505050565b600080600080608085870312156200023a57600080fd5b62000245856200014f565b935062000255602086016200014f565b60408601519093506001600160401b03808211156200027357600080fd5b62000281888389016200016c565b935060608701519150808211156200029857600080fd5b50620002a7878288016200016c565b91505092959194509250565b600181811c90821680620002c857607f821691505b60208210811415620002ea57634e487b7160e01b600052602260045260246000fd5b50919050565b634e487b7160e01b600052604160045260246000fd5b61086f80620003166000396000f3fe608060405234801561001057600080fd5b50600436106100ea5760003560e01c80636fd5ae151161008c5780639baf05eb116100665780639baf05eb146101ac578063ce8ccad0146101bf578063ecd0c0c3146101c7578063ee8b7cd9146101da57600080fd5b80636fd5ae151461016557806381f32edd1461016e5780638da5cb5b1461018157600080fd5b80632e1a7d4d116100c85780632e1a7d4d146101395780633e413bee1461014c5780634a79d50c1461015557806369e294161461015d57600080fd5b806306fdde03146100ef57806310d4f96d1461010d57806327909ee914610124575b600080fd5b6100f76101ed565b6040516101049190610726565b60405180910390f35b61011660025481565b604051908152602001610104565b6101376101323660046106f4565b61027b565b005b6101376101473660046106f4565b6102f9565b61011660035481565b6100f76104b3565b600254610116565b61011660045481565b61013761017c3660046106f4565b6104c0565b600554610194906001600160a01b031681565b6040516001600160a01b039091168152602001610104565b6101376101ba366004610643565b61052d565b600354610116565b600654610194906001600160a01b031681565b6101376101e8366004610643565b61055b565b600080546101fa906107e8565b80601f0160208091040260200160405190810160405280929190818152602001828054610226906107e8565b80156102735780601f1061024857610100808354040283529160200191610273565b820191906000526020600020905b81548152906001019060200180831161025657829003601f168201915b505050505081565b600081116102c15760405162461bcd60e51b815260206004820152600e60248201526d125b9d985b1a5908185b5bdd5b9d60921b60448201526064015b60405180910390fd5b333b6102df5760405162461bcd60e51b81526004016102b89061077b565b80600360008282546102f191906107c2565b909155505050565b6005546001600160a01b0316331461031057600080fd5b6006546040516370a0823160e01b81523060048201526000916001600160a01b0316906370a082319060240160206040518083038186803b15801561035457600080fd5b505afa158015610368573d6000803e3d6000fd5b505050506040513d601f19601f8201168201806040525081019061038c919061070d565b9050600081116103da5760405162461bcd60e51b8152602060048201526019602482015278496e73756666696369656e7420555344432062616c616e636560381b60448201526064016102b8565b818110156104265760405162461bcd60e51b8152602060048201526019602482015278496e73756666696369656e7420555344432062616c616e636560381b60448201526064016102b8565b60065460055460405163a9059cbb60e01b81526001600160a01b0391821660048201526024810185905291169063a9059cbb90604401602060405180830381600087803b15801561047657600080fd5b505af115801561048a573d6000803e3d6000fd5b505050506040513d601f19601f820116820180604052508101906104ae919061061a565b505050565b600180546101fa906107e8565b600081116104fd5760405162461bcd60e51b815260206004820152600a6024820152690496e76616c69642058560b41b60448201526064016102b8565b333b61051b5760405162461bcd60e51b81526004016102b89061077b565b80600260008282546102f191906107c2565b6005546001600160a01b0316331461054457600080fd5b8051610557906001906020840190610581565b5050565b6005546001600160a01b0316331461057257600080fd5b80516105579060009060208401905b82805461058d906107e8565b90600052602060002090601f0160209004810192826105af57600085556105f5565b82601f106105c857805160ff19168380011785556105f5565b828001600101855582156105f5579182015b828111156105f55782518255916020019190600101906105da565b50610601929150610605565b5090565b5b808211156106015760008155600101610606565b60006020828403121561062c57600080fd5b8151801515811461063c57600080fd5b9392505050565b60006020828403121561065557600080fd5b813567ffffffffffffffff8082111561066d57600080fd5b818401915084601f83011261068157600080fd5b81358181111561069357610693610823565b604051601f8201601f19908116603f011681019083821181831017156106bb576106bb610823565b816040528281528760208487010111156106d457600080fd5b826020860160208301376000928101602001929092525095945050505050565b60006020828403121561070657600080fd5b5035919050565b60006020828403121561071f57600080fd5b5051919050565b600060208083528351808285015260005b8181101561075357858101830151858201604001528201610737565b81811115610765576000604083870101525b50601f01601f1916929092016040019392505050565b60208082526027908201527f58502063616e2062652075706461746564206279206f6e6c79207461736b20636040820152661bdb9d1c9858dd60ca1b606082015260800190565b600082198211156107e357634e487b7160e01b600052601160045260246000fd5b500190565b600181811c908216806107fc57607f821691505b6020821081141561081d57634e487b7160e01b600052602260045260246000fd5b50919050565b634e487b7160e01b600052604160045260246000fdfea2646970667358221220acd587cca79cc3a9e5a20164d1b70705c9885397cb20750ee2d52873d029ec9764736f6c63430008070033a2646970667358221220bc70dfcd48ad8346c1876b791a0d361591f858531290feb1efb378bba84db02164736f6c63430008070033",
  "linkReferences": {},
  "deployedLinkReferences": {}
}