{
  "_format": "hh-sol-artifact-1",
  "contractName": "Profile",
  "sourceName": "contracts/Profile.sol",
  "abi": [
    {
      "anonymous": false,
      "inputs": [
        {
          "indexed": false,
          "internalType": "uint8",
          "name": "version",
          "type": "uint8"
        }
      ],
      "name": "Initialized",
      "type": "event"
    },
    {
      "inputs": [],
      "name": "_token",
      "outputs": [
        {
          "internalType": "contract IERC20",
          "name": "",
          "type": "address"
        }
      ],
      "stateMutability": "view",
      "type": "function"
    },
    {
      "inputs": [
        {
          "internalType": "address",
          "name": "_tokenAddress",
          "type": "address"
        },
        {
          "internalType": "string",
          "name": "_name",
          "type": "string"
        },
        {
          "internalType": "string",
          "name": "_title",
          "type": "string"
        },
        {
          "internalType": "address",
          "name": "_owner",
          "type": "address"
        }
      ],
      "name": "initialize",
      "outputs": [],
      "stateMutability": "nonpayable",
      "type": "function"
    },
    {
      "inputs": [],
      "name": "name",
      "outputs": [
        {
          "internalType": "string",
          "name": "",
          "type": "string"
        }
      ],
      "stateMutability": "view",
      "type": "function"
    },
    {
      "inputs": [],
      "name": "owner",
      "outputs": [
        {
          "internalType": "address",
          "name": "",
          "type": "address"
        }
      ],
      "stateMutability": "view",
      "type": "function"
    },
    {
      "inputs": [],
      "name": "title",
      "outputs": [
        {
          "internalType": "string",
          "name": "",
          "type": "string"
        }
      ],
      "stateMutability": "view",
      "type": "function"
    },
    {
      "inputs": [],
      "name": "totalXp",
      "outputs": [
        {
          "internalType": "uint256",
          "name": "",
          "type": "uint256"
        }
      ],
      "stateMutability": "view",
      "type": "function"
    },
    {
      "inputs": [
        {
          "internalType": "string",
          "name": "_name",
          "type": "string"
        }
      ],
      "name": "updateProfileName",
      "outputs": [],
      "stateMutability": "nonpayable",
      "type": "function"
    },
    {
      "inputs": [
        {
          "internalType": "string",
          "name": "_title",
          "type": "string"
        }
      ],
      "name": "updateProfileTitle",
      "outputs": [],
      "stateMutability": "nonpayable",
      "type": "function"
    },
    {
      "inputs": [
        {
          "internalType": "address",
          "name": "_projectTaskAddress",
          "type": "address"
        }
      ],
      "name": "updateProjectTaskContract",
      "outputs": [],
      "stateMutability": "nonpayable",
      "type": "function"
    },
    {
      "inputs": [
        {
          "internalType": "uint256",
          "name": "_amount",
          "type": "uint256"
        },
        {
          "internalType": "address",
          "name": "_projectTaskAddress",
          "type": "address"
        }
      ],
      "name": "updateUSDCAmount",
      "outputs": [],
      "stateMutability": "nonpayable",
      "type": "function"
    },
    {
      "inputs": [
        {
          "internalType": "uint256",
          "name": "_xp",
          "type": "uint256"
        },
        {
          "internalType": "address",
          "name": "_projectTaskAddress",
          "type": "address"
        }
      ],
      "name": "updateXP",
      "outputs": [],
      "stateMutability": "nonpayable",
      "type": "function"
    },
    {
      "inputs": [],
      "name": "usdc",
      "outputs": [
        {
          "internalType": "uint256",
          "name": "",
          "type": "uint256"
        }
      ],
      "stateMutability": "view",
      "type": "function"
    },
    {
      "inputs": [
        {
          "internalType": "uint256",
          "name": "_amount",
          "type": "uint256"
        }
      ],
      "name": "withdraw",
      "outputs": [],
      "stateMutability": "nonpayable",
      "type": "function"
    }
  ],
  "bytecode": "0x60806040526000600355600060045534801561001a57600080fd5b50610bef8061002a6000396000f3fe608060405234801561001057600080fd5b50600436106100cf5760003560e01c80634a79d50c1161008c5780639baf05eb116100665780639baf05eb14610199578063ecd0c0c3146101ac578063ee8b7cd9146101bf578063f8bd4a7f146101d257600080fd5b80634a79d50c1461014d578063613d25bb146101555780638da5cb5b1461016857600080fd5b806306fdde03146100d457806310d4f96d146100f25780631223f5fc1461010957806321466c5a1461011e5780632e1a7d4d146101315780633e413bee14610144575b600080fd5b6100dc6101e5565b6040516100e99190610a6f565b60405180910390f35b6100fb60035481565b6040519081526020016100e9565b61011c610117366004610a43565b610273565b005b61011c61012c366004610a43565b61030c565b61011c61013f366004610a11565b610393565b6100fb60045481565b6100dc61056c565b61011c61016336600461092d565b610579565b600054610181906201000090046001600160a01b031681565b6040516001600160a01b0390911681526020016100e9565b61011c6101a73660046109d4565b6106eb565b600554610181906001600160a01b031681565b61011c6101cd3660046109d4565b610732565b61011c6101e036600461090b565b610775565b600180546101f290610b68565b80601f016020809104026020016040519081016040528092919081815260200182805461021e90610b68565b801561026b5780601f106102405761010080835404028352916020019161026b565b820191906000526020600020905b81548152906001019060200180831161024e57829003601f168201915b505050505081565b600082116102b95760405162461bcd60e51b815260206004820152600e60248201526d125b9d985b1a5908185b5bdd5b9d60921b60448201526064015b60405180910390fd5b6001600160a01b03811660009081526006602052604090205460ff166102f15760405162461bcd60e51b81526004016102b090610afb565b81600460008282546103039190610b42565b90915550505050565b600082116103495760405162461bcd60e51b815260206004820152600a6024820152690496e76616c69642058560b41b60448201526064016102b0565b6001600160a01b03811660009081526006602052604090205460ff166103815760405162461bcd60e51b81526004016102b090610afb565b81600360008282546103039190610b42565b6000546201000090046001600160a01b031633146103c35760405162461bcd60e51b81526004016102b090610ac4565b6005546040516370a0823160e01b81523060048201526000916001600160a01b0316906370a082319060240160206040518083038186803b15801561040757600080fd5b505afa15801561041b573d6000803e3d6000fd5b505050506040513d601f19601f8201168201806040525081019061043f9190610a2a565b90506000811161048d5760405162461bcd60e51b8152602060048201526019602482015278496e73756666696369656e7420555344432062616c616e636560381b60448201526064016102b0565b818110156104d95760405162461bcd60e51b8152602060048201526019602482015278496e73756666696369656e7420555344432062616c616e636560381b60448201526064016102b0565b60055460005460405163a9059cbb60e01b81526001600160a01b0362010000909204821660048201526024810185905291169063a9059cbb90604401602060405180830381600087803b15801561052f57600080fd5b505af1158015610543573d6000803e3d6000fd5b505050506040513d601f19601f8201168201806040525081019061056791906109b2565b505050565b600280546101f290610b68565b600054610100900460ff16158080156105995750600054600160ff909116105b806105b35750303b1580156105b3575060005460ff166001145b6106165760405162461bcd60e51b815260206004820152602e60248201527f496e697469616c697a61626c653a20636f6e747261637420697320616c72656160448201526d191e481a5b9a5d1a585b1a5e995960921b60648201526084016102b0565b6000805460ff191660011790558015610639576000805461ff0019166101001790555b600580546001600160a01b0319166001600160a01b03871617905583516106679060019060208701906107c9565b50825161067b9060029060208601906107c9565b506000805462010000600160b01b031916620100006001600160a01b0385160217905580156106e4576000805461ff0019169055604051600181527f7f26b83ff96e1f2b6a682f133852f6798a09c465da95921460cefb38474024989060200160405180910390a15b5050505050565b6000546201000090046001600160a01b0316331461071b5760405162461bcd60e51b81526004016102b090610ac4565b805161072e9060029060208401906107c9565b5050565b6000546201000090046001600160a01b031633146107625760405162461bcd60e51b81526004016102b090610ac4565b805161072e9060019060208401906107c9565b6000546201000090046001600160a01b031633146107a55760405162461bcd60e51b81526004016102b090610ac4565b6001600160a01b03166000908152600660205260409020805460ff19166001179055565b8280546107d590610b68565b90600052602060002090601f0160209004810192826107f7576000855561083d565b82601f1061081057805160ff191683800117855561083d565b8280016001018555821561083d579182015b8281111561083d578251825591602001919060010190610822565b5061084992915061084d565b5090565b5b80821115610849576000815560010161084e565b80356001600160a01b038116811461087957600080fd5b919050565b600082601f83011261088f57600080fd5b813567ffffffffffffffff808211156108aa576108aa610ba3565b604051601f8301601f19908116603f011681019082821181831017156108d2576108d2610ba3565b816040528381528660208588010111156108eb57600080fd5b836020870160208301376000602085830101528094505050505092915050565b60006020828403121561091d57600080fd5b61092682610862565b9392505050565b6000806000806080858703121561094357600080fd5b61094c85610862565b9350602085013567ffffffffffffffff8082111561096957600080fd5b6109758883890161087e565b9450604087013591508082111561098b57600080fd5b506109988782880161087e565b9250506109a760608601610862565b905092959194509250565b6000602082840312156109c457600080fd5b8151801515811461092657600080fd5b6000602082840312156109e657600080fd5b813567ffffffffffffffff8111156109fd57600080fd5b610a098482850161087e565b949350505050565b600060208284031215610a2357600080fd5b5035919050565b600060208284031215610a3c57600080fd5b5051919050565b60008060408385031215610a5657600080fd5b82359150610a6660208401610862565b90509250929050565b600060208083528351808285015260005b81811015610a9c57858101830151858201604001528201610a80565b81811115610aae576000604083870101525b50601f01601f1916929092016040019392505050565b60208082526017908201527f63616c6c6572206973206e6f7420746865206f776e6572000000000000000000604082015260600190565b60208082526027908201527f58502063616e2062652075706461746564206279206f6e6c79207461736b20636040820152661bdb9d1c9858dd60ca1b606082015260800190565b60008219821115610b6357634e487b7160e01b600052601160045260246000fd5b500190565b600181811c90821680610b7c57607f821691505b60208210811415610b9d57634e487b7160e01b600052602260045260246000fd5b50919050565b634e487b7160e01b600052604160045260246000fdfea26469706673582212209f7d546fe7f29bc738540d96aea2095805a3ee2e75fa02bf086ac6296e575c0f64736f6c63430008070033",
  "linkReferences": {},
  "deployedLinkReferences": {}
}