{
  "_format": "hh-sol-artifact-1",
  "contractName": "Profile",
  "sourceName": "contracts/Profile.sol",
  "abi": [
    {
      "anonymous": false,
      "inputs": [
        {
          "indexed": false,
          "internalType": "uint8",
          "name": "version",
          "type": "uint8"
        }
      ],
      "name": "Initialized",
      "type": "event"
    },
    {
      "inputs": [],
      "name": "_token",
      "outputs": [
        {
          "internalType": "contract IERC20",
          "name": "",
          "type": "address"
        }
      ],
      "stateMutability": "view",
      "type": "function"
    },
    {
      "inputs": [
        {
          "internalType": "address",
          "name": "_tokenAddress",
          "type": "address"
        },
        {
          "internalType": "string",
          "name": "_name",
          "type": "string"
        },
        {
          "internalType": "string",
          "name": "_title",
          "type": "string"
        },
        {
          "internalType": "address",
          "name": "_owner",
          "type": "address"
        }
      ],
      "name": "initialize",
      "outputs": [],
      "stateMutability": "nonpayable",
      "type": "function"
    },
    {
      "inputs": [],
      "name": "name",
      "outputs": [
        {
          "internalType": "string",
          "name": "",
          "type": "string"
        }
      ],
      "stateMutability": "view",
      "type": "function"
    },
    {
      "inputs": [],
      "name": "owner",
      "outputs": [
        {
          "internalType": "address",
          "name": "",
          "type": "address"
        }
      ],
      "stateMutability": "view",
      "type": "function"
    },
    {
      "inputs": [],
      "name": "title",
      "outputs": [
        {
          "internalType": "string",
          "name": "",
          "type": "string"
        }
      ],
      "stateMutability": "view",
      "type": "function"
    },
    {
      "inputs": [],
      "name": "totalXp",
      "outputs": [
        {
          "internalType": "uint256",
          "name": "",
          "type": "uint256"
        }
      ],
      "stateMutability": "view",
      "type": "function"
    },
    {
      "inputs": [
        {
          "internalType": "string",
          "name": "_name",
          "type": "string"
        }
      ],
      "name": "updateProfileName",
      "outputs": [],
      "stateMutability": "nonpayable",
      "type": "function"
    },
    {
      "inputs": [
        {
          "internalType": "string",
          "name": "_title",
          "type": "string"
        }
      ],
      "name": "updateProfileTitle",
      "outputs": [],
      "stateMutability": "nonpayable",
      "type": "function"
    },
    {
      "inputs": [
        {
          "internalType": "uint256",
          "name": "_amount",
          "type": "uint256"
        }
      ],
      "name": "updateUSDCAmount",
      "outputs": [],
      "stateMutability": "nonpayable",
      "type": "function"
    },
    {
      "inputs": [
        {
          "internalType": "uint256",
          "name": "_xp",
          "type": "uint256"
        }
      ],
      "name": "updateXP",
      "outputs": [],
      "stateMutability": "nonpayable",
      "type": "function"
    },
    {
      "inputs": [],
      "name": "usdc",
      "outputs": [
        {
          "internalType": "uint256",
          "name": "",
          "type": "uint256"
        }
      ],
      "stateMutability": "view",
      "type": "function"
    },
    {
      "inputs": [
        {
          "internalType": "uint256",
          "name": "_amount",
          "type": "uint256"
        }
      ],
      "name": "withdraw",
      "outputs": [],
      "stateMutability": "nonpayable",
      "type": "function"
    }
  ],
  "bytecode": "0x60806040526000600355600060045534801561001a57600080fd5b50610ba28061002a6000396000f3fe608060405234801561001057600080fd5b50600436106100b45760003560e01c8063613d25bb11610071578063613d25bb1461012757806381f32edd1461013a5780638da5cb5b1461014d5780639baf05eb1461017e578063ecd0c0c314610191578063ee8b7cd9146101a457600080fd5b806306fdde03146100b957806310d4f96d146100d757806327909ee9146100ee5780632e1a7d4d146101035780633e413bee146101165780634a79d50c1461011f575b600080fd5b6100c16101b7565b6040516100ce9190610886565b60405180910390f35b6100e060035481565b6040519081526020016100ce565b6101016100fc3660046108db565b610245565b005b6101016101113660046108db565b610333565b6100e060045481565b6100c161050c565b6101016101353660046109af565b610519565b6101016101483660046108db565b61068b565b600054610166906201000090046001600160a01b031681565b6040516001600160a01b0390911681526020016100ce565b61010161018c366004610a38565b610767565b600554610166906001600160a01b031681565b6101016101b2366004610a38565b6107ae565b600180546101c490610a75565b80601f01602080910402602001604051908101604052809291908181526020018280546101f090610a75565b801561023d5780601f106102125761010080835404028352916020019161023d565b820191906000526020600020905b81548152906001019060200180831161022057829003601f168201915b505050505081565b60405163135e2aff60e11b8152306004820152339081906326bc55fe9060240160206040518083038186803b15801561027d57600080fd5b505afa158015610291573d6000803e3d6000fd5b505050506040513d601f19601f820116820180604052508101906102b59190610ab0565b6001600160a01b0316336001600160a01b0316146102d257600080fd5b600082116103185760405162461bcd60e51b815260206004820152600e60248201526d125b9d985b1a5908185b5bdd5b9d60921b60448201526064015b60405180910390fd5b816004600082825461032a9190610ad4565b90915550505050565b6000546201000090046001600160a01b031633146103635760405162461bcd60e51b815260040161030f90610afa565b6005546040516370a0823160e01b81523060048201526000916001600160a01b0316906370a082319060240160206040518083038186803b1580156103a757600080fd5b505afa1580156103bb573d6000803e3d6000fd5b505050506040513d601f19601f820116820180604052508101906103df9190610b31565b90506000811161042d5760405162461bcd60e51b8152602060048201526019602482015278496e73756666696369656e7420555344432062616c616e636560381b604482015260640161030f565b818110156104795760405162461bcd60e51b8152602060048201526019602482015278496e73756666696369656e7420555344432062616c616e636560381b604482015260640161030f565b60055460005460405163a9059cbb60e01b81526001600160a01b0362010000909204821660048201526024810185905291169063a9059cbb90604401602060405180830381600087803b1580156104cf57600080fd5b505af11580156104e3573d6000803e3d6000fd5b505050506040513d601f19601f820116820180604052508101906105079190610b4a565b505050565b600280546101c490610a75565b600054610100900460ff16158080156105395750600054600160ff909116105b806105535750303b158015610553575060005460ff166001145b6105b65760405162461bcd60e51b815260206004820152602e60248201527f496e697469616c697a61626c653a20636f6e747261637420697320616c72656160448201526d191e481a5b9a5d1a585b1a5e995960921b606482015260840161030f565b6000805460ff1916600117905580156105d9576000805461ff0019166101001790555b600580546001600160a01b0319166001600160a01b03871617905583516106079060019060208701906107ed565b50825161061b9060029060208601906107ed565b506000805462010000600160b01b031916620100006001600160a01b038516021790558015610684576000805461ff0019169055604051600181527f7f26b83ff96e1f2b6a682f133852f6798a09c465da95921460cefb38474024989060200160405180910390a15b5050505050565b60405163135e2aff60e11b8152306004820152339081906326bc55fe9060240160206040518083038186803b1580156106c357600080fd5b505afa1580156106d7573d6000803e3d6000fd5b505050506040513d601f19601f820116820180604052508101906106fb9190610ab0565b6001600160a01b0316336001600160a01b03161461071857600080fd5b600082116107555760405162461bcd60e51b815260206004820152600a6024820152690496e76616c69642058560b41b604482015260640161030f565b816003600082825461032a9190610ad4565b6000546201000090046001600160a01b031633146107975760405162461bcd60e51b815260040161030f90610afa565b80516107aa9060029060208401906107ed565b5050565b6000546201000090046001600160a01b031633146107de5760405162461bcd60e51b815260040161030f90610afa565b80516107aa9060019060208401905b8280546107f990610a75565b90600052602060002090601f01602090048101928261081b5760008555610861565b82601f1061083457805160ff1916838001178555610861565b82800160010185558215610861579182015b82811115610861578251825591602001919060010190610846565b5061086d929150610871565b5090565b5b8082111561086d5760008155600101610872565b600060208083528351808285015260005b818110156108b357858101830151858201604001528201610897565b818111156108c5576000604083870101525b50601f01601f1916929092016040019392505050565b6000602082840312156108ed57600080fd5b5035919050565b6001600160a01b038116811461090957600080fd5b50565b634e487b7160e01b600052604160045260246000fd5b600082601f83011261093357600080fd5b813567ffffffffffffffff8082111561094e5761094e61090c565b604051601f8301601f19908116603f011681019082821181831017156109765761097661090c565b8160405283815286602085880101111561098f57600080fd5b836020870160208301376000602085830101528094505050505092915050565b600080600080608085870312156109c557600080fd5b84356109d0816108f4565b9350602085013567ffffffffffffffff808211156109ed57600080fd5b6109f988838901610922565b94506040870135915080821115610a0f57600080fd5b50610a1c87828801610922565b9250506060850135610a2d816108f4565b939692955090935050565b600060208284031215610a4a57600080fd5b813567ffffffffffffffff811115610a6157600080fd5b610a6d84828501610922565b949350505050565b600181811c90821680610a8957607f821691505b60208210811415610aaa57634e487b7160e01b600052602260045260246000fd5b50919050565b600060208284031215610ac257600080fd5b8151610acd816108f4565b9392505050565b60008219821115610af557634e487b7160e01b600052601160045260246000fd5b500190565b60208082526017908201527f63616c6c6572206973206e6f7420746865206f776e6572000000000000000000604082015260600190565b600060208284031215610b4357600080fd5b5051919050565b600060208284031215610b5c57600080fd5b81518015158114610acd57600080fdfea264697066735822122097e53245054b49b7bc94ad14e4beed3d6eb91e20053d34338946be1bae4781f564736f6c63430008090033",
  "linkReferences": {},
  "deployedLinkReferences": {}
}