{
  "_format": "hh-sol-artifact-1",
  "contractName": "Profile",
  "sourceName": "contracts/Profile.sol",
  "abi": [
    {
      "inputs": [
        {
          "internalType": "address",
          "name": "_tokenAddress",
          "type": "address"
        },
        {
          "internalType": "address",
          "name": "_owner",
          "type": "address"
        },
        {
          "internalType": "string",
          "name": "_name",
          "type": "string"
        },
        {
          "internalType": "string",
          "name": "_title",
          "type": "string"
        }
      ],
      "stateMutability": "nonpayable",
      "type": "constructor"
    },
    {
      "inputs": [],
      "name": "_token",
      "outputs": [
        {
          "internalType": "contract IERC20",
          "name": "",
          "type": "address"
        }
      ],
      "stateMutability": "view",
      "type": "function"
    },
    {
      "inputs": [],
      "name": "name",
      "outputs": [
        {
          "internalType": "string",
          "name": "",
          "type": "string"
        }
      ],
      "stateMutability": "view",
      "type": "function"
    },
    {
      "inputs": [],
      "name": "owner",
      "outputs": [
        {
          "internalType": "address",
          "name": "",
          "type": "address"
        }
      ],
      "stateMutability": "view",
      "type": "function"
    },
    {
      "inputs": [],
      "name": "title",
      "outputs": [
        {
          "internalType": "string",
          "name": "",
          "type": "string"
        }
      ],
      "stateMutability": "view",
      "type": "function"
    },
    {
      "inputs": [],
      "name": "totalXp",
      "outputs": [
        {
          "internalType": "uint256",
          "name": "",
          "type": "uint256"
        }
      ],
      "stateMutability": "view",
      "type": "function"
    },
    {
      "inputs": [
        {
          "internalType": "string",
          "name": "_name",
          "type": "string"
        }
      ],
      "name": "updateProfileName",
      "outputs": [],
      "stateMutability": "nonpayable",
      "type": "function"
    },
    {
      "inputs": [
        {
          "internalType": "string",
          "name": "_title",
          "type": "string"
        }
      ],
      "name": "updateProfileTitle",
      "outputs": [],
      "stateMutability": "nonpayable",
      "type": "function"
    },
    {
      "inputs": [
        {
          "internalType": "uint256",
          "name": "_amount",
          "type": "uint256"
        }
      ],
      "name": "updateUSDCAmount",
      "outputs": [],
      "stateMutability": "nonpayable",
      "type": "function"
    },
    {
      "inputs": [
        {
          "internalType": "uint256",
          "name": "_xp",
          "type": "uint256"
        }
      ],
      "name": "updateXP",
      "outputs": [],
      "stateMutability": "nonpayable",
      "type": "function"
    },
    {
      "inputs": [],
      "name": "usdc",
      "outputs": [
        {
          "internalType": "uint256",
          "name": "",
          "type": "uint256"
        }
      ],
      "stateMutability": "view",
      "type": "function"
    },
    {
      "inputs": [],
      "name": "withdraw",
      "outputs": [],
      "stateMutability": "nonpayable",
      "type": "function"
    }
  ],
  "bytecode": "0x6080604052600060025560006003553480156200001b57600080fd5b506040516200149c3803806200149c833981810160405281019062000041919062000244565b83600560006101000a81548173ffffffffffffffffffffffffffffffffffffffff021916908373ffffffffffffffffffffffffffffffffffffffff16021790555082600460006101000a81548173ffffffffffffffffffffffffffffffffffffffff021916908373ffffffffffffffffffffffffffffffffffffffff1602179055508160009080519060200190620000db929190620000ff565b508060019080519060200190620000f4929190620000ff565b5050505050620004c6565b8280546200010d90620003bd565b90600052602060002090601f0160209004810192826200013157600085556200017d565b82601f106200014c57805160ff19168380011785556200017d565b828001600101855582156200017d579182015b828111156200017c5782518255916020019190600101906200015f565b5b5090506200018c919062000190565b5090565b5b80821115620001ab57600081600090555060010162000191565b5090565b6000620001c6620001c0846200031d565b620002f4565b905082815260208101848484011115620001e557620001e46200048c565b5b620001f284828562000387565b509392505050565b6000815190506200020b81620004ac565b92915050565b600082601f83011262000229576200022862000487565b5b81516200023b848260208601620001af565b91505092915050565b6000806000806080858703121562000261576200026062000496565b5b60006200027187828801620001fa565b94505060206200028487828801620001fa565b935050604085015167ffffffffffffffff811115620002a857620002a762000491565b5b620002b68782880162000211565b925050606085015167ffffffffffffffff811115620002da57620002d962000491565b5b620002e88782880162000211565b91505092959194509250565b60006200030062000313565b90506200030e8282620003f3565b919050565b6000604051905090565b600067ffffffffffffffff8211156200033b576200033a62000458565b5b62000346826200049b565b9050602081019050919050565b6000620003608262000367565b9050919050565b600073ffffffffffffffffffffffffffffffffffffffff82169050919050565b60005b83811015620003a75780820151818401526020810190506200038a565b83811115620003b7576000848401525b50505050565b60006002820490506001821680620003d657607f821691505b60208210811415620003ed57620003ec62000429565b5b50919050565b620003fe826200049b565b810181811067ffffffffffffffff8211171562000420576200041f62000458565b5b80604052505050565b7f4e487b7100000000000000000000000000000000000000000000000000000000600052602260045260246000fd5b7f4e487b7100000000000000000000000000000000000000000000000000000000600052604160045260246000fd5b600080fd5b600080fd5b600080fd5b600080fd5b6000601f19601f8301169050919050565b620004b78162000353565b8114620004c357600080fd5b50565b610fc680620004d66000396000f3fe608060405234801561001057600080fd5b50600436106100a95760003560e01c80634a79d50c116100715780634a79d50c1461012e57806381f32edd1461014c5780638da5cb5b146101685780639baf05eb14610186578063ecd0c0c3146101a2578063ee8b7cd9146101c0576100a9565b806306fdde03146100ae57806310d4f96d146100cc57806327909ee9146100ea5780633ccfd60b146101065780633e413bee14610110575b600080fd5b6100b66101dc565b6040516100c39190610b3e565b60405180910390f35b6100d461026a565b6040516100e19190610be0565b60405180910390f35b61010460048036038101906100ff9190610993565b610270565b005b61010e610329565b005b61011861054a565b6040516101259190610be0565b60405180910390f35b610136610550565b6040516101439190610b3e565b60405180910390f35b61016660048036038101906101619190610993565b6105de565b005b610170610697565b60405161017d9190610adf565b60405180910390f35b6101a0600480360381019061019b919061094a565b6106bd565b005b6101aa610731565b6040516101b79190610b23565b60405180910390f35b6101da60048036038101906101d5919061094a565b610757565b005b600080546101e990610d83565b80601f016020809104026020016040519081016040528092919081815260200182805461021590610d83565b80156102625780601f1061023757610100808354040283529160200191610262565b820191906000526020600020905b81548152906001019060200180831161024557829003601f168201915b505050505081565b60025481565b600081116102b3576040517f08c379a00000000000000000000000000000000000000000000000000000000081526004016102aa90610b60565b60405180910390fd5b60003373ffffffffffffffffffffffffffffffffffffffff163b1161030d576040517f08c379a000000000000000000000000000000000000000000000000000000000815260040161030490610ba0565b60405180910390fd5b806003600082825461031f9190610c6d565b9250508190555050565b600460009054906101000a900473ffffffffffffffffffffffffffffffffffffffff1673ffffffffffffffffffffffffffffffffffffffff163373ffffffffffffffffffffffffffffffffffffffff161461038357600080fd5b6000600560009054906101000a900473ffffffffffffffffffffffffffffffffffffffff1673ffffffffffffffffffffffffffffffffffffffff166370a08231306040518263ffffffff1660e01b81526004016103e09190610adf565b60206040518083038186803b1580156103f857600080fd5b505afa15801561040c573d6000803e3d6000fd5b505050506040513d601f19601f8201168201806040525081019061043091906109c0565b905060008111610475576040517f08c379a000000000000000000000000000000000000000000000000000000000815260040161046c90610bc0565b60405180910390fd5b600560009054906101000a900473ffffffffffffffffffffffffffffffffffffffff1673ffffffffffffffffffffffffffffffffffffffff1663a9059cbb600460009054906101000a900473ffffffffffffffffffffffffffffffffffffffff16836040518363ffffffff1660e01b81526004016104f4929190610afa565b602060405180830381600087803b15801561050e57600080fd5b505af1158015610522573d6000803e3d6000fd5b505050506040513d601f19601f82011682018060405250810190610546919061091d565b5050565b60035481565b6001805461055d90610d83565b80601f016020809104026020016040519081016040528092919081815260200182805461058990610d83565b80156105d65780601f106105ab576101008083540402835291602001916105d6565b820191906000526020600020905b8154815290600101906020018083116105b957829003601f168201915b505050505081565b60008111610621576040517f08c379a000000000000000000000000000000000000000000000000000000000815260040161061890610b80565b60405180910390fd5b60003373ffffffffffffffffffffffffffffffffffffffff163b1161067b576040517f08c379a000000000000000000000000000000000000000000000000000000000815260040161067290610ba0565b60405180910390fd5b806002600082825461068d9190610c6d565b9250508190555050565b600460009054906101000a900473ffffffffffffffffffffffffffffffffffffffff1681565b600460009054906101000a900473ffffffffffffffffffffffffffffffffffffffff1673ffffffffffffffffffffffffffffffffffffffff163373ffffffffffffffffffffffffffffffffffffffff161461071757600080fd5b806001908051906020019061072d9291906107cb565b5050565b600560009054906101000a900473ffffffffffffffffffffffffffffffffffffffff1681565b600460009054906101000a900473ffffffffffffffffffffffffffffffffffffffff1673ffffffffffffffffffffffffffffffffffffffff163373ffffffffffffffffffffffffffffffffffffffff16146107b157600080fd5b80600090805190602001906107c79291906107cb565b5050565b8280546107d790610d83565b90600052602060002090601f0160209004810192826107f95760008555610840565b82601f1061081257805160ff1916838001178555610840565b82800160010185558215610840579182015b8281111561083f578251825591602001919060010190610824565b5b50905061084d9190610851565b5090565b5b8082111561086a576000816000905550600101610852565b5090565b600061088161087c84610c20565b610bfb565b90508281526020810184848401111561089d5761089c610e78565b5b6108a8848285610d41565b509392505050565b6000815190506108bf81610f62565b92915050565b600082601f8301126108da576108d9610e73565b5b81356108ea84826020860161086e565b91505092915050565b60008135905061090281610f79565b92915050565b60008151905061091781610f79565b92915050565b60006020828403121561093357610932610e82565b5b6000610941848285016108b0565b91505092915050565b6000602082840312156109605761095f610e82565b5b600082013567ffffffffffffffff81111561097e5761097d610e7d565b5b61098a848285016108c5565b91505092915050565b6000602082840312156109a9576109a8610e82565b5b60006109b7848285016108f3565b91505092915050565b6000602082840312156109d6576109d5610e82565b5b60006109e484828501610908565b91505092915050565b6109f681610cc3565b82525050565b610a0581610d0b565b82525050565b6000610a1682610c51565b610a208185610c5c565b9350610a30818560208601610d50565b610a3981610e87565b840191505092915050565b6000610a51600e83610c5c565b9150610a5c82610e98565b602082019050919050565b6000610a74600a83610c5c565b9150610a7f82610ec1565b602082019050919050565b6000610a97602783610c5c565b9150610aa282610eea565b604082019050919050565b6000610aba600c83610c5c565b9150610ac582610f39565b602082019050919050565b610ad981610d01565b82525050565b6000602082019050610af460008301846109ed565b92915050565b6000604082019050610b0f60008301856109ed565b610b1c6020830184610ad0565b9392505050565b6000602082019050610b3860008301846109fc565b92915050565b60006020820190508181036000830152610b588184610a0b565b905092915050565b60006020820190508181036000830152610b7981610a44565b9050919050565b60006020820190508181036000830152610b9981610a67565b9050919050565b60006020820190508181036000830152610bb981610a8a565b9050919050565b60006020820190508181036000830152610bd981610aad565b9050919050565b6000602082019050610bf56000830184610ad0565b92915050565b6000610c05610c16565b9050610c118282610db5565b919050565b6000604051905090565b600067ffffffffffffffff821115610c3b57610c3a610e44565b5b610c4482610e87565b9050602081019050919050565b600081519050919050565b600082825260208201905092915050565b6000610c7882610d01565b9150610c8383610d01565b9250827fffffffffffffffffffffffffffffffffffffffffffffffffffffffffffffffff03821115610cb857610cb7610de6565b5b828201905092915050565b6000610cce82610ce1565b9050919050565b60008115159050919050565b600073ffffffffffffffffffffffffffffffffffffffff82169050919050565b6000819050919050565b6000610d1682610d1d565b9050919050565b6000610d2882610d2f565b9050919050565b6000610d3a82610ce1565b9050919050565b82818337600083830152505050565b60005b83811015610d6e578082015181840152602081019050610d53565b83811115610d7d576000848401525b50505050565b60006002820490506001821680610d9b57607f821691505b60208210811415610daf57610dae610e15565b5b50919050565b610dbe82610e87565b810181811067ffffffffffffffff82111715610ddd57610ddc610e44565b5b80604052505050565b7f4e487b7100000000000000000000000000000000000000000000000000000000600052601160045260246000fd5b7f4e487b7100000000000000000000000000000000000000000000000000000000600052602260045260246000fd5b7f4e487b7100000000000000000000000000000000000000000000000000000000600052604160045260246000fd5b600080fd5b600080fd5b600080fd5b600080fd5b6000601f19601f8301169050919050565b7f496e76616c696420616d6f756e74000000000000000000000000000000000000600082015250565b7f496e76616c696420585000000000000000000000000000000000000000000000600082015250565b7f58502063616e2062652075706461746564206279206f6e6c79207461736b206360008201527f6f6e747261637400000000000000000000000000000000000000000000000000602082015250565b7f5a65726f2062616c616e63650000000000000000000000000000000000000000600082015250565b610f6b81610cd5565b8114610f7657600080fd5b50565b610f8281610d01565b8114610f8d57600080fd5b5056fea2646970667358221220a9c6885b95c0241634286dfebe7e042df440dfaae4459c06f9cf1cfb7187f4e564736f6c63430008070033",
  "linkReferences": {},
  "deployedLinkReferences": {}
}