{
  "_format": "hh-sol-artifact-1",
  "contractName": "ProjectManage",
  "sourceName": "contracts/ProjectManage.sol",
  "abi": [
    {
      "inputs": [],
      "stateMutability": "nonpayable",
      "type": "constructor"
    },
    {
      "anonymous": false,
      "inputs": [
        {
          "indexed": false,
          "internalType": "address",
          "name": "founderAddress",
          "type": "address"
        },
        {
          "indexed": false,
          "internalType": "address",
          "name": "contractAddress",
          "type": "address"
        }
      ],
      "name": "DeployedNewProject",
      "type": "event"
    },
    {
      "inputs": [
        {
          "internalType": "address",
          "name": "founder",
          "type": "address"
        },
        {
          "internalType": "string",
          "name": "id",
          "type": "string"
        }
      ],
      "name": "checkProjectExist",
      "outputs": [
        {
          "internalType": "bool",
          "name": "",
          "type": "bool"
        }
      ],
      "stateMutability": "view",
      "type": "function"
    },
    {
      "inputs": [
        {
          "internalType": "string",
          "name": "_pid",
          "type": "string"
        },
        {
          "internalType": "address",
          "name": "_usdc_address",
          "type": "address"
        },
        {
          "internalType": "string",
          "name": "name",
          "type": "string"
        },
        {
          "internalType": "string",
          "name": "description",
          "type": "string"
        },
        {
          "internalType": "uint256",
          "name": "budget",
          "type": "uint256"
        }
      ],
      "name": "createProject",
      "outputs": [
        {
          "internalType": "address",
          "name": "",
          "type": "address"
        }
      ],
      "stateMutability": "nonpayable",
      "type": "function"
    },
    {
      "inputs": [
        {
          "internalType": "address",
          "name": "_projectAddress",
          "type": "address"
        }
      ],
      "name": "deleteProject",
      "outputs": [],
      "stateMutability": "nonpayable",
      "type": "function"
    },
    {
      "inputs": [
        {
          "internalType": "address",
          "name": "_projectAddress",
          "type": "address"
        }
      ],
      "name": "getFounderFromProjectAddress",
      "outputs": [
        {
          "internalType": "address",
          "name": "",
          "type": "address"
        }
      ],
      "stateMutability": "view",
      "type": "function"
    },
    {
      "inputs": [
        {
          "internalType": "address",
          "name": "_owner",
          "type": "address"
        }
      ],
      "name": "getProjectContractAddresses",
      "outputs": [
        {
          "components": [
            {
              "internalType": "address",
              "name": "contractAddress",
              "type": "address"
            },
            {
              "internalType": "string",
              "name": "projectId",
              "type": "string"
            }
          ],
          "internalType": "struct ProjectManage.ProjectInfo[]",
          "name": "",
          "type": "tuple[]"
        }
      ],
      "stateMutability": "view",
      "type": "function"
    },
    {
      "inputs": [
        {
          "internalType": "address",
          "name": "",
          "type": "address"
        },
        {
          "internalType": "uint256",
          "name": "",
          "type": "uint256"
        }
      ],
      "name": "ownerToProjects",
      "outputs": [
        {
          "internalType": "address",
          "name": "contractAddress",
          "type": "address"
        },
        {
          "internalType": "string",
          "name": "projectId",
          "type": "string"
        }
      ],
      "stateMutability": "view",
      "type": "function"
    }
  ],
  "bytecode": "0x608060405234801561001057600080fd5b50612c17806100206000396000f3fe60806040523480156200001157600080fd5b50600436106200006a5760003560e01c80631a8a2b38146200006f5780632200e21e14620000a357806323a30b2314620000bc57806367eab44d14620000d3578063740a593914620000f9578063d92ff4941462000121575b600080fd5b620000866200008036600462000f82565b62000148565b6040516001600160a01b0390911681526020015b60405180910390f35b620000ba620000b436600462000edc565b620003a5565b005b62000086620000cd36600462000edc565b6200080f565b620000ea620000e436600462000edc565b620009a5565b6040516200009a9190620011a2565b620001106200010a36600462000f01565b62000acb565b60405190151581526020016200009a565b620001386200013236600462000f55565b62000bae565b6040516200009a92919062001174565b6000338660006200015a838362000acb565b90508015620001a85760405162461bcd60e51b8152602060048201526015602482015274141c9bda9958dd08185b1c9958591e481b1a5d9959605a1b60448201526064015b60405180910390fd5b6001600160a01b038816620001f25760405162461bcd60e51b815260206004820152600f60248201526e496e76616c6964206164647265737360881b60448201526064016200019f565b3360009081526002602052604090205462000249576001805480820182556000919091527fb10e2d527612073b26eecdfd717e6a320cf44b4afac2b0732d9fcbe2b7fa0cf60180546001600160a01b031916331790555b62000258600080546001019055565b600088338989896040516200026d9062000c87565b6200027d9594939291906200111f565b604051809103906000f0801580156200029a573d6000803e3d6000fd5b50905060026000336001600160a01b03166001600160a01b031681526020019081526020016000206040518060400160405280836001600160a01b031681526020018c815250908060018154018082558091505060019003906000526020600020906002020160009091909190915060008201518160000160006101000a8154816001600160a01b0302191690836001600160a01b0316021790555060208201518160010190805190602001906200035492919062000c95565b5050604080513381526001600160a01b03841660208201527f02695cc8954e338f8a21303c3d81cac3464fe3bb4b2e0fe6cf96e658bc14aeb492500160405180910390a19998505050505050505050565b6001600160a01b038116620003ef5760405162461bcd60e51b815260206004820152600f60248201526e496e76616c6964206164647265737360881b60448201526064016200019f565b33600090815260026020908152604080832080548251818502810185019093528083529192909190849084015b82821015620004ff576000848152602090819020604080518082019091526002850290910180546001600160a01b03168252600181018054929391929184019162000467906200126c565b80601f016020809104026020016040519081016040528092919081815260200182805462000495906200126c565b8015620004e65780601f10620004ba57610100808354040283529160200191620004e6565b820191906000526020600020905b815481529060010190602001808311620004c857829003601f168201915b505050505081525050815260200190600101906200041c565b5050505090506000805b82518110156200056857836001600160a01b0316838281518110620005325762000532620012dd565b6020026020010151600001516001600160a01b031614156200055357600191505b806200055f81620012a9565b91505062000509565b5080620005ac5760405162461bcd60e51b8152602060048201526011602482015270141c9bda9958dd081b9bdd08199bdd5b99607a1b60448201526064016200019f565b336000908152600260205260408120620005c69162000d24565b6000805b8351811015620006bc57846001600160a01b0316848281518110620005f357620005f3620012dd565b6020026020010151600001516001600160a01b031614620006a7573360009081526002602052604090208451859083908110620006345762000634620012dd565b602090810291909101810151825460018082018555600094855293839020825160029092020180546001600160a01b0319166001600160a01b039092169190911781558183015180519294919362000693939285019291019062000c95565b5050508180620006a390620012a9565b9250505b80620006b381620012a9565b915050620005ca565b5080620008095760018054600091620006d59162001223565b67ffffffffffffffff811115620006f057620006f0620012f3565b6040519080825280602002602001820160405280156200071a578160200160208202803683370190505b5090506000915060005b600154811015620007f057336001600160a01b0316600182815481106200074f576200074f620012dd565b6000918252602090912001546001600160a01b031614620007db5760018181548110620007805762000780620012dd565b9060005260206000200160009054906101000a90046001600160a01b0316828481518110620007b357620007b3620012dd565b6001600160a01b039092166020928302919091019091015282620007d781620012a9565b9350505b80620007e781620012a9565b91505062000724565b5080516200080690600190602084019062000d4a565b50505b50505050565b60006001600160a01b038216620008695760405162461bcd60e51b815260206004820152601760248201527f496e76616c69642070726f6a656374206164647265737300000000000000000060448201526064016200019f565b6000805b6001548110156200099e5760005b6002600060018481548110620008955762000895620012dd565b60009182526020808320909101546001600160a01b031683528201929092526040019020548110156200098857846001600160a01b03166002600060018581548110620008e657620008e6620012dd565b60009182526020808320909101546001600160a01b0316835282019290925260400190208054839081106200091f576200091f620012dd565b60009182526020909120600290910201546001600160a01b03161415620009735760018281548110620009565762000956620012dd565b6000918252602090912001546001600160a01b0316925062000988565b806200097f81620012a9565b9150506200087b565b50806200099581620012a9565b9150506200086d565b5092915050565b6001600160a01b03811660009081526002602090815260408083208054825181850281018501909352808352606094919384929084015b8282101562000abf576000848152602090819020604080518082019091526002850290910180546001600160a01b03168252600181018054929391929184019162000a27906200126c565b80601f016020809104026020016040519081016040528092919081815260200182805462000a55906200126c565b801562000aa65780601f1062000a7a5761010080835404028352916020019162000aa6565b820191906000526020600020905b81548152906001019060200180831162000a8857829003601f168201915b50505050508152505081526020019060010190620009dc565b50505050915050919050565b600080805b6001600160a01b03851660009081526002602052604090205481101562000ba6578360405160200162000b0491906200105d565b60408051601f1981840301815291815281516020928301206001600160a01b03881660009081526002909352912080548390811062000b475762000b47620012dd565b906000526020600020906002020160010160405160200162000b6a91906200107b565b60405160208183030381529060405280519060200120141562000b91576001915062000ba6565b8062000b9d81620012a9565b91505062000ad0565b509392505050565b6002602052816000526040600020818154811062000bcb57600080fd5b6000918252602090912060029091020180546001820180546001600160a01b03909216945091925062000bfe906200126c565b80601f016020809104026020016040519081016040528092919081815260200182805462000c2c906200126c565b801562000c7d5780601f1062000c515761010080835404028352916020019162000c7d565b820191906000526020600020905b81548152906001019060200180831162000c5f57829003601f168201915b5050505050905082565b6118d8806200130a83390190565b82805462000ca3906200126c565b90600052602060002090601f01602090048101928262000cc7576000855562000d12565b82601f1062000ce257805160ff191683800117855562000d12565b8280016001018555821562000d12579182015b8281111562000d1257825182559160200191906001019062000cf5565b5062000d2092915062000da2565b5090565b508054600082556002029060005260206000209081019062000d47919062000db9565b50565b82805482825590600052602060002090810192821562000d12579160200282015b8281111562000d1257825182546001600160a01b0319166001600160a01b0390911617825560209092019160019091019062000d6b565b5b8082111562000d20576000815560010162000da3565b8082111562000d205780546001600160a01b0319168155600062000de1600183018262000deb565b5060020162000db9565b50805462000df9906200126c565b6000825580601f1062000e0a575050565b601f01602090049060005260206000209081019062000d47919062000da2565b80356001600160a01b038116811462000e4257600080fd5b919050565b600082601f83011262000e5957600080fd5b813567ffffffffffffffff8082111562000e775762000e77620012f3565b604051601f8301601f19908116603f0116810190828211818310171562000ea25762000ea2620012f3565b8160405283815286602085880101111562000ebc57600080fd5b836020870160208301376000602085830101528094505050505092915050565b60006020828403121562000eef57600080fd5b62000efa8262000e2a565b9392505050565b6000806040838503121562000f1557600080fd5b62000f208362000e2a565b9150602083013567ffffffffffffffff81111562000f3d57600080fd5b62000f4b8582860162000e47565b9150509250929050565b6000806040838503121562000f6957600080fd5b62000f748362000e2a565b946020939093013593505050565b600080600080600060a0868803121562000f9b57600080fd5b853567ffffffffffffffff8082111562000fb457600080fd5b62000fc289838a0162000e47565b965062000fd26020890162000e2a565b9550604088013591508082111562000fe957600080fd5b62000ff789838a0162000e47565b945060608801359150808211156200100e57600080fd5b506200101d8882890162000e47565b95989497509295608001359392505050565b60008151808452620010498160208601602086016200123d565b601f01601f19169290920160200192915050565b60008251620010718184602087016200123d565b9190910192915050565b600080835481600182811c9150808316806200109857607f831692505b6020808410821415620010b957634e487b7160e01b86526022600452602486fd5b818015620010d05760018114620010e25762001111565b60ff1986168952848901965062001111565b60008a81526020902060005b86811015620011095781548b820152908501908301620010ee565b505084890196505b509498975050505050505050565b6001600160a01b0386811682528516602082015260a0604082018190526000906200114d908301866200102f565b82810360608401526200116181866200102f565b9150508260808301529695505050505050565b6001600160a01b03831681526040602082018190526000906200119a908301846200102f565b949350505050565b60006020808301818452808551808352604092508286019150828160051b87010184880160005b838110156200121557888303603f19018552815180516001600160a01b0316845287015187840187905262001201878501826200102f565b9588019593505090860190600101620011c9565b509098975050505050505050565b600082821015620012385762001238620012c7565b500390565b60005b838110156200125a57818101518382015260200162001240565b83811115620008095750506000910152565b600181811c908216806200128157607f821691505b60208210811415620012a357634e487b7160e01b600052602260045260246000fd5b50919050565b6000600019821415620012c057620012c0620012c7565b5060010190565b634e487b7160e01b600052601160045260246000fd5b634e487b7160e01b600052603260045260246000fd5b634e487b7160e01b600052604160045260246000fdfe6080604052600a600755600880546001600160a01b031916735ee8d1b65942116da65700849d65cc839e38cc5e1790553480156200003c57600080fd5b50604051620018d8380380620018d88339810160408190526200005f916200024e565b600080546001600160a01b038088166001600160a01b03199283161790925560018054928716929091169190911790558251620000a4906002906020860190620000d4565b508151620000ba906003906020850190620000d4565b5060045550506006805461ffff19169055506200033b9050565b828054620000e290620002e8565b90600052602060002090601f01602090048101928262000106576000855562000151565b82601f106200012157805160ff191683800117855562000151565b8280016001018555821562000151579182015b828111156200015157825182559160200191906001019062000134565b506200015f92915062000163565b5090565b5b808211156200015f576000815560010162000164565b80516001600160a01b03811681146200019257600080fd5b919050565b600082601f830112620001a957600080fd5b81516001600160401b0380821115620001c657620001c662000325565b604051601f8301601f19908116603f01168101908282118183101715620001f157620001f162000325565b816040528381526020925086838588010111156200020e57600080fd5b600091505b8382101562000232578582018301518183018401529082019062000213565b83821115620002445760008385830101525b9695505050505050565b600080600080600060a086880312156200026757600080fd5b62000272866200017a565b945062000282602087016200017a565b60408701519094506001600160401b0380821115620002a057600080fd5b620002ae89838a0162000197565b94506060880151915080821115620002c557600080fd5b50620002d48882890162000197565b925050608086015190509295509295909350565b600181811c90821680620002fd57607f821691505b602082108114156200031f57634e487b7160e01b600052602260045260246000fd5b50919050565b634e487b7160e01b600052604160045260246000fd5b61158d806200034b6000396000f3fe608060405234801561001057600080fd5b50600436106101215760003560e01c80637284e416116100ad578063c308411711610071578063c308411714610256578063c6da612814610269578063c7656f6e1461027c578063ed01bf2914610284578063fc0e97391461028d57600080fd5b80637284e416146101f15780637bc3b5ff146101f9578063a019e5351461021b578063b6bd3ae41461022e578063bcd148051461024157600080fd5b806339118d25116100f457806339118d25146101855780633b76594d146101985780633ccfd60b146101ab5780634185e507146101b357806346bb2833146101de57600080fd5b806306fdde03146101265780630c3f6acf14610144578063235eee1d1461015e57806323a22bcb14610170575b600080fd5b61012e610295565b60405161013b91906112f7565b60405180910390f35b6006546101519060ff1681565b60405161013b91906112cf565b6004545b60405190815260200161013b565b61018361017e3660046110c8565b610323565b005b610162610193366004611229565b61036d565b6101836101a6366004611229565b61038e565b6101836103c4565b6000546101c6906001600160a01b031681565b6040516001600160a01b03909116815260200161013b565b6001546101c6906001600160a01b031681565b61012e6105ab565b60065461020b90610100900460ff1681565b604051901515815260200161013b565b610183610229366004611229565b6105b8565b61018361023c36600461125b565b6107de565b610249610aae565b60405161013b919061128b565b610183610264366004611229565b610b06565b6101836102773660046110c8565b610cb3565b610183610cf0565b61016260045481565b610183610d88565b600280546102a290611494565b80601f01602080910402602001604051908101604052809291908181526020018280546102ce90611494565b801561031b5780601f106102f05761010080835404028352916020019161031b565b820191906000526020600020905b8154815290600101906020018083116102fe57829003601f168201915b505050505081565b6001546001600160a01b031633146103565760405162461bcd60e51b815260040161034d90611352565b60405180910390fd5b8051610369906003906020840190610f52565b5050565b6005818154811061037d57600080fd5b600091825260209091200154905081565b6001546001600160a01b031633146103b85760405162461bcd60e51b815260040161034d90611352565b6103c181610e2c565b50565b6001546001600160a01b031633146103ee5760405162461bcd60e51b815260040161034d90611352565b600080546040516370a0823160e01b81523060048201526001600160a01b03909116906370a082319060240160206040518083038186803b15801561043257600080fd5b505afa158015610446573d6000803e3d6000fd5b505050506040513d601f19601f8201168201806040525081019061046a9190611242565b9050600081116104bc5760405162461bcd60e51b815260206004820152601960248201527f496e73756666696369656e7420555344432062616c616e636500000000000000604482015260640161034d565b600060065460ff1660028111156104d5576104d5611500565b146105225760405162461bcd60e51b815260206004820152601760248201527f50726f6a65637420616c72656164792073746172746564000000000000000000604482015260640161034d565b60005460015460405163a9059cbb60e01b81526001600160a01b0391821660048201526024810184905291169063a9059cbb906044015b602060405180830381600087803b15801561057357600080fd5b505af1158015610587573d6000803e3d6000fd5b505050506040513d601f19601f8201168201806040525081019061036991906110a6565b600380546102a290611494565b6001546001600160a01b031633146105e25760405162461bcd60e51b815260040161034d90611352565b600654610100900460ff16156107d9576064600454606e610603919061142e565b61060d919061140c565b6000546040516370a0823160e01b81523060048201526001600160a01b03909116906370a082319060240160206040518083038186803b15801561065057600080fd5b505afa158015610664573d6000803e3d6000fd5b505050506040513d601f19601f820116820180604052508101906106889190611242565b10156107145760405162461bcd60e51b815260206004820152604f60248201527f596f752063616e277420757064617465207468652062756467657420666f722060448201527f70726f6a6563742062656361757365206e6f7420656e6f75676820746865206360648201526e3ab93932b73a103130b630b731b29760891b608482015260a40161034d565b6000546004546001600160a01b039091169063a9059cbb90339060649061073c90606e61142e565b610746919061140c565b6040516001600160e01b031960e085901b1681526001600160a01b0390921660048301526024820152604401602060405180830381600087803b15801561078c57600080fd5b505af11580156107a0573d6000803e3d6000fd5b505050506040513d601f19601f820116820180604052508101906107c491906110a6565b506006805461ff00191690556103c181610e2c565b600455565b6001546001600160a01b031633146108085760405162461bcd60e51b815260040161034d90611352565b604051638c02263b60e01b8152600481018390526000906001600160a01b03831690638c02263b9060240160206040518083038186803b15801561084b57600080fd5b505afa15801561085f573d6000803e3d6000fd5b505050506040513d601f19601f8201168201806040525081019061088391906110a6565b9050806108a25760405162461bcd60e51b815260040161034d9061132a565b6000805b6005548110156108f05784600582815481106108c4576108c4611516565b906000526020600020015414156108de57600191506108f0565b806108e8816114cf565b9150506108a6565b50801561093f5760405162461bcd60e51b815260206004820152601860248201527f416c726561647920616464656420696e2070726f6a6563740000000000000000604482015260640161034d565b60405163976217cd60e01b8152600481018590526000906001600160a01b0385169063976217cd9060240160006040518083038186803b15801561098257600080fd5b505afa158015610996573d6000803e3d6000fd5b505050506040513d6000823e601f3d908101601f191682016040526109be9190810190611143565b60005460a08201519192506001600160a01b03169063a9059cbb9086906064906109e990606e61142e565b6109f3919061140c565b6040516001600160e01b031960e085901b1681526001600160a01b0390921660048301526024820152604401602060405180830381600087803b158015610a3957600080fd5b505af1158015610a4d573d6000803e3d6000fd5b505050506040513d601f19601f82011682018060405250810190610a7191906110a6565b5050600580546001810182556000919091527f036b6384b5eca791c62761152d0c79bb0604c104a5fb6f4eb0703f3154bb3db00193909355505050565b60606005805480602002602001604051908101604052809291908181526020018280548015610afc57602002820191906000526020600020905b815481526020019060010190808311610ae8575b5050505050905090565b6001546001600160a01b03163314610b305760405162461bcd60e51b815260040161034d90611352565b80610b4d5760405162461bcd60e51b815260040161034d9061132a565b6000805b600554811015610b97578260058281548110610b6f57610b6f611516565b90600052602060002001541415610b8557600191505b80610b8f816114cf565b915050610b51565b5080610bb55760405162461bcd60e51b815260040161034d9061132a565b600554600090610bc79060019061144d565b67ffffffffffffffff811115610bdf57610bdf61152c565b604051908082528060200260200182016040528015610c08578160200160208202803683370190505b5090506000805b600554811015610c98578460058281548110610c2d57610c2d611516565b906000526020600020015414610c865760058181548110610c5057610c50611516565b9060005260206000200154838381518110610c6d57610c6d611516565b602090810291909101015281610c82816114cf565b9250505b80610c90816114cf565b915050610c0f565b508151610cac906005906020850190610fd6565b5050505050565b6001546001600160a01b03163314610cdd5760405162461bcd60e51b815260040161034d90611352565b8051610369906002906020840190610f52565b6001546001600160a01b03163314610d1a5760405162461bcd60e51b815260040161034d90611352565b600060065460ff166002811115610d3357610d33611500565b14610d725760405162461bcd60e51b815260206004820152600f60248201526e105b1c9958591e481cdd185c9d1959608a1b604482015260640161034d565b600680546001919060ff191682805b0217905550565b6001546001600160a01b03163314610db25760405162461bcd60e51b815260040161034d90611352565b600160065460ff166002811115610dcb57610dcb611500565b14610e185760405162461bcd60e51b815260206004820152601a60248201527f546869732070726f6a656374206973206f6e6c79206f70656e2e000000000000604482015260640161034d565b600680546002919060ff1916600183610d81565b6001546001600160a01b03163314610e565760405162461bcd60e51b815260040161034d90611352565b60008111610e9d5760405162461bcd60e51b81526020600482015260146024820152732d32b9379030b6b7bab73a1037b3103a37b5b2b760611b604482015260640161034d565b6064600454606e610eae919061142e565b610eb8919061140c565b8114610f065760405162461bcd60e51b815260206004820152601860248201527f496e636f7272656374206465706f736974652066756e64730000000000000000604482015260640161034d565b6006805461ff0019166101001790556000546040516323b872dd60e01b8152336004820152306024820152604481018390526001600160a01b03909116906323b872dd90606401610559565b828054610f5e90611494565b90600052602060002090601f016020900481019282610f805760008555610fc6565b82601f10610f9957805160ff1916838001178555610fc6565b82800160010185558215610fc6579182015b82811115610fc6578251825591602001919060010190610fab565b50610fd2929150611010565b5090565b828054828255906000526020600020908101928215610fc65791602002820182811115610fc6578251825591602001919060010190610fab565b5b80821115610fd25760008155600101611011565b805161103081611542565b919050565b8051801515811461103057600080fd5b80516003811061103057600080fd5b600082601f83011261106557600080fd5b8151611078611073826113e4565b6113b3565b81815284602083860101111561108d57600080fd5b61109e826020830160208701611464565b949350505050565b6000602082840312156110b857600080fd5b6110c182611035565b9392505050565b6000602082840312156110da57600080fd5b813567ffffffffffffffff8111156110f157600080fd5b8201601f8101841361110257600080fd5b8035611110611073826113e4565b81815285602083850101111561112557600080fd5b81602084016020830137600091810160200191909152949350505050565b60006020828403121561115557600080fd5b815167ffffffffffffffff8082111561116d57600080fd5b90830190610120828603121561118257600080fd5b61118a611389565b82518281111561119957600080fd5b6111a587828601611054565b8252506111b460208401611045565b60208201526111c560408401611025565b60408201526111d660608401611025565b60608201526111e760808401611025565b608082015260a083015160a082015260c083015160c082015260e083015160e0820152610100915061121a828401611035565b91810191909152949350505050565b60006020828403121561123b57600080fd5b5035919050565b60006020828403121561125457600080fd5b5051919050565b6000806040838503121561126e57600080fd5b82359150602083013561128081611542565b809150509250929050565b6020808252825182820181905260009190848201906040850190845b818110156112c3578351835292840192918401916001016112a7565b50909695505050505050565b60208101600383106112f157634e487b7160e01b600052602160045260246000fd5b91905290565b6020815260008251806020840152611316816040850160208701611464565b601f01601f19169190910160400192915050565b6020808252600e908201526d15185cdac81b9bdd08199bdd5b9960921b604082015260600190565b6020808252601c908201527f596f75277265206e6f7420612070726f6a65637420666f756e64657200000000604082015260600190565b604051610120810167ffffffffffffffff811182821017156113ad576113ad61152c565b60405290565b604051601f8201601f1916810167ffffffffffffffff811182821017156113dc576113dc61152c565b604052919050565b600067ffffffffffffffff8211156113fe576113fe61152c565b50601f01601f191660200190565b60008261142957634e487b7160e01b600052601260045260246000fd5b500490565b6000816000190483118215151615611448576114486114ea565b500290565b60008282101561145f5761145f6114ea565b500390565b60005b8381101561147f578181015183820152602001611467565b8381111561148e576000848401525b50505050565b600181811c908216806114a857607f821691505b602082108114156114c957634e487b7160e01b600052602260045260246000fd5b50919050565b60006000198214156114e3576114e36114ea565b5060010190565b634e487b7160e01b600052601160045260246000fd5b634e487b7160e01b600052602160045260246000fd5b634e487b7160e01b600052603260045260246000fd5b634e487b7160e01b600052604160045260246000fd5b6001600160a01b03811681146103c157600080fdfea2646970667358221220029435eb04c00c0edea7f8fb4bb49d806dda828e1f5b5cc0ddf29df1e342e33964736f6c63430008070033a264697066735822122086f44e44551b333a1354e46c934e2090b0a352e0e858ae7cb7793b10c38d0b2864736f6c63430008070033",
  "linkReferences": {},
  "deployedLinkReferences": {}
}