{
  "_format": "hh-sol-artifact-1",
  "contractName": "ProjectManage",
  "sourceName": "contracts/ProjectManage.sol",
  "abi": [
    {
      "inputs": [],
      "stateMutability": "nonpayable",
      "type": "constructor"
    },
    {
      "anonymous": false,
      "inputs": [
        {
          "indexed": false,
          "internalType": "address",
          "name": "founderAddress",
          "type": "address"
        },
        {
          "indexed": false,
          "internalType": "address",
          "name": "contractAddress",
          "type": "address"
        }
      ],
      "name": "DeployedNewProject",
      "type": "event"
    },
    {
      "inputs": [
        {
          "internalType": "address",
          "name": "founder",
          "type": "address"
        },
        {
          "internalType": "uint256",
          "name": "id",
          "type": "uint256"
        }
      ],
      "name": "checkProjectExist",
      "outputs": [
        {
          "internalType": "bool",
          "name": "",
          "type": "bool"
        }
      ],
      "stateMutability": "view",
      "type": "function"
    },
    {
      "inputs": [
        {
          "internalType": "uint256",
          "name": "_pid",
          "type": "uint256"
        },
        {
          "internalType": "address",
          "name": "_usdc_address",
          "type": "address"
        },
        {
          "internalType": "string",
          "name": "name",
          "type": "string"
        },
        {
          "internalType": "string",
          "name": "description",
          "type": "string"
        },
        {
          "internalType": "uint256",
          "name": "budget",
          "type": "uint256"
        }
      ],
      "name": "createProject",
      "outputs": [
        {
          "internalType": "address",
          "name": "",
          "type": "address"
        }
      ],
      "stateMutability": "nonpayable",
      "type": "function"
    },
    {
      "inputs": [
        {
          "internalType": "address",
          "name": "_projectAddress",
          "type": "address"
        }
      ],
      "name": "deleteProject",
      "outputs": [],
      "stateMutability": "nonpayable",
      "type": "function"
    },
    {
      "inputs": [
        {
          "internalType": "address",
          "name": "_projectAddress",
          "type": "address"
        }
      ],
      "name": "getFounderFromProjectAddress",
      "outputs": [
        {
          "internalType": "address",
          "name": "",
          "type": "address"
        }
      ],
      "stateMutability": "view",
      "type": "function"
    },
    {
      "inputs": [
        {
          "internalType": "address",
          "name": "_owner",
          "type": "address"
        }
      ],
      "name": "getProjectContractAddresses",
      "outputs": [
        {
          "components": [
            {
              "internalType": "address",
              "name": "contractAddress",
              "type": "address"
            },
            {
              "internalType": "uint256",
              "name": "projectId",
              "type": "uint256"
            }
          ],
          "internalType": "struct ProjectManage.ProjectInfo[]",
          "name": "",
          "type": "tuple[]"
        }
      ],
      "stateMutability": "view",
      "type": "function"
    },
    {
      "inputs": [
        {
          "internalType": "address",
          "name": "",
          "type": "address"
        },
        {
          "internalType": "uint256",
          "name": "",
          "type": "uint256"
        }
      ],
      "name": "ownerToProjects",
      "outputs": [
        {
          "internalType": "address",
          "name": "contractAddress",
          "type": "address"
        },
        {
          "internalType": "uint256",
          "name": "projectId",
          "type": "uint256"
        }
      ],
      "stateMutability": "view",
      "type": "function"
    }
  ],
  "bytecode": "0x608060405234801561001057600080fd5b50612643806100206000396000f3fe60806040523480156200001157600080fd5b50600436106200006a5760003560e01c80632200e21e146200006f57806323a30b23146200008857806367eab44d14620000bc578063d92ff49414620000e2578063dbefafb61462000119578063ff8f00d71462000130575b600080fd5b620000866200008036600462000cce565b62000158565b005b6200009f6200009936600462000cce565b62000541565b6040516001600160a01b0390911681526020015b60405180910390f35b620000d3620000cd36600462000cce565b620006d7565b604051620000b3919062000e54565b620000f9620000f336600462000cf3565b62000764565b604080516001600160a01b039093168352602083019190915201620000b3565b6200009f6200012a36600462000d20565b620007ab565b620001476200014136600462000cf3565b62000a50565b6040519015158152602001620000b3565b6001600160a01b038116620001a65760405162461bcd60e51b815260206004820152600f60248201526e496e76616c6964206164647265737360881b60448201526064015b60405180910390fd5b33600090815260026020908152604080832080548251818502810185019093528083529192909190849084015b828210156200021d576000848152602090819020604080518082019091526002850290910180546001600160a01b03168252600190810154828401529083529092019101620001d3565b5050505090506000805b82518110156200028657836001600160a01b031683828151811062000250576200025062000efc565b6020026020010151600001516001600160a01b031614156200027157600191505b806200027d8162000ec8565b91505062000227565b5080620002f05760405162461bcd60e51b815260206004820152603160248201527f50726f6a656374206e6f7420666f756e64206f7220796f75277265206e6f74206044820152703090383937b532b1ba103337bab73232b960791b60648201526084016200019d565b620002fc600062000ae6565b336000908152600260205260408120620003169162000b3f565b6000805b8351811015620003f257846001600160a01b031684828151811062000343576200034362000efc565b6020026020010151600001516001600160a01b031614620003dd57336000908152600260205260409020845185908390811062000384576200038462000efc565b602090810291909101810151825460018082018555600094855293839020825160029092020180546001600160a01b0319166001600160a01b0390921691909117815591015191015581620003d98162000ec8565b9250505b80620003e98162000ec8565b9150506200031a565b50806200053b57600180546000916200040b9162000eae565b67ffffffffffffffff81111562000426576200042662000f12565b60405190808252806020026020018201604052801562000450578160200160208202803683370190505b50905060005b6001548110156200052257336001600160a01b03166001828154811062000481576200048162000efc565b6000918252602090912001546001600160a01b0316146200050d5760018181548110620004b257620004b262000efc565b9060005260206000200160009054906101000a90046001600160a01b0316828481518110620004e557620004e562000efc565b6001600160a01b039092166020928302919091019091015282620005098162000ec8565b9350505b80620005198162000ec8565b91505062000456565b5080516200053890600190602084019062000b65565b50505b50505050565b60006001600160a01b0382166200059b5760405162461bcd60e51b815260206004820152601760248201527f496e76616c69642070726f6a656374206164647265737300000000000000000060448201526064016200019d565b6000805b600154811015620006d05760005b6002600060018481548110620005c757620005c762000efc565b60009182526020808320909101546001600160a01b03168352820192909252604001902054811015620006ba57846001600160a01b0316600260006001858154811062000618576200061862000efc565b60009182526020808320909101546001600160a01b03168352820192909252604001902080548390811062000651576200065162000efc565b60009182526020909120600290910201546001600160a01b03161415620006a5576001828154811062000688576200068862000efc565b6000918252602090912001546001600160a01b03169250620006ba565b80620006b18162000ec8565b915050620005ad565b5080620006c78162000ec8565b9150506200059f565b5092915050565b6001600160a01b03811660009081526002602090815260408083208054825181850281018501909352808352606094919384929084015b8282101562000758576000848152602090819020604080518082019091526002850290910180546001600160a01b031682526001908101548284015290835290920191016200070e565b50505050915050919050565b600260205281600052604060002081815481106200078157600080fd5b6000918252602090912060029091020180546001909101546001600160a01b039091169250905082565b600033866000620007bd838362000a50565b90508015620008075760405162461bcd60e51b8152602060048201526015602482015274141c9bda9958dd08185b1c9958591e481b1a5d9959605a1b60448201526064016200019d565b6001600160a01b038816620008515760405162461bcd60e51b815260206004820152600f60248201526e496e76616c6964206164647265737360881b60448201526064016200019d565b84620008b25760405162461bcd60e51b815260206004820152602960248201527f50726f6a656374206275646765742073686f756c6420626520626967676572206044820152687468616e207a65726f60b81b60648201526084016200019d565b3360009081526002602052604090205462000909576001805480820182556000919091527fb10e2d527612073b26eecdfd717e6a320cf44b4afac2b0732d9fcbe2b7fa0cf60180546001600160a01b031916331790555b600088338989896040516200091e9062000bcf565b6200092e95949392919062000dff565b604051809103906000f0801580156200094b573d6000803e3d6000fd5b50905060026000336001600160a01b03166001600160a01b031681526020019081526020016000206040518060400160405280836001600160a01b031681526020018c815250908060018154018082558091505060019003906000526020600020906002020160009091909190915060008201518160000160006101000a8154816001600160a01b0302191690836001600160a01b0316021790555060208201518160010155505062000a02600080546001019055565b604080513381526001600160a01b03831660208201527f02695cc8954e338f8a21303c3d81cac3464fe3bb4b2e0fe6cf96e658bc14aeb4910160405180910390a19998505050505050505050565b600080805b6001600160a01b03851660009081526002602052604090205481101562000ade576001600160a01b038516600090815260026020526040902080548591908390811062000aa65762000aa662000efc565b906000526020600020906002020160010154141562000ac9576001915062000ade565b8062000ad58162000ec8565b91505062000a55565b509392505050565b80548062000b375760405162461bcd60e51b815260206004820152601b60248201527f436f756e7465723a2064656372656d656e74206f766572666c6f77000000000060448201526064016200019d565b600019019055565b508054600082556002029060005260206000209081019062000b62919062000bdd565b50565b82805482825590600052602060002090810192821562000bbd579160200282015b8281111562000bbd57825182546001600160a01b0319166001600160a01b0390911617825560209092019160019091019062000b86565b5062000bcb92915062000c05565b5090565b6116e58062000f2983390190565b5b8082111562000bcb5780546001600160a01b03191681556000600182015560020162000bde565b5b8082111562000bcb576000815560010162000c06565b80356001600160a01b038116811462000c3457600080fd5b919050565b600082601f83011262000c4b57600080fd5b813567ffffffffffffffff8082111562000c695762000c6962000f12565b604051601f8301601f19908116603f0116810190828211818310171562000c945762000c9462000f12565b8160405283815286602085880101111562000cae57600080fd5b836020870160208301376000602085830101528094505050505092915050565b60006020828403121562000ce157600080fd5b62000cec8262000c1c565b9392505050565b6000806040838503121562000d0757600080fd5b62000d128362000c1c565b946020939093013593505050565b600080600080600060a0868803121562000d3957600080fd5b8535945062000d4b6020870162000c1c565b9350604086013567ffffffffffffffff8082111562000d6957600080fd5b62000d7789838a0162000c39565b9450606088013591508082111562000d8e57600080fd5b5062000d9d8882890162000c39565b95989497509295608001359392505050565b6000815180845260005b8181101562000dd75760208185018101518683018201520162000db9565b8181111562000dea576000602083870101525b50601f01601f19169290920160200192915050565b6001600160a01b0386811682528516602082015260a06040820181905260009062000e2d9083018662000daf565b828103606084015262000e41818662000daf565b9150508260808301529695505050505050565b602080825282518282018190526000919060409081850190868401855b8281101562000ea157815180516001600160a01b0316855286015186850152928401929085019060010162000e71565b5091979650505050505050565b60008282101562000ec35762000ec362000ee6565b500390565b600060001982141562000edf5762000edf62000ee6565b5060010190565b634e487b7160e01b600052601160045260246000fd5b634e487b7160e01b600052603260045260246000fd5b634e487b7160e01b600052604160045260246000fdfe6080604052600a600755600880546001600160a01b031916735ee8d1b65942116da65700849d65cc839e38cc5e1790553480156200003c57600080fd5b50604051620016e5380380620016e58339810160408190526200005f916200024e565b600080546001600160a01b038088166001600160a01b03199283161790925560018054928716929091169190911790558251620000a4906002906020860190620000d4565b508151620000ba906003906020850190620000d4565b5060045550506006805461ffff19169055506200033b9050565b828054620000e290620002e8565b90600052602060002090601f01602090048101928262000106576000855562000151565b82601f106200012157805160ff191683800117855562000151565b8280016001018555821562000151579182015b828111156200015157825182559160200191906001019062000134565b506200015f92915062000163565b5090565b5b808211156200015f576000815560010162000164565b80516001600160a01b03811681146200019257600080fd5b919050565b600082601f830112620001a957600080fd5b81516001600160401b0380821115620001c657620001c662000325565b604051601f8301601f19908116603f01168101908282118183101715620001f157620001f162000325565b816040528381526020925086838588010111156200020e57600080fd5b600091505b8382101562000232578582018301518183018401529082019062000213565b83821115620002445760008385830101525b9695505050505050565b600080600080600060a086880312156200026757600080fd5b62000272866200017a565b945062000282602087016200017a565b60408701519094506001600160401b0380821115620002a057600080fd5b620002ae89838a0162000197565b94506060880151915080821115620002c557600080fd5b50620002d48882890162000197565b925050608086015190509295509295909350565b600181811c90821680620002fd57607f821691505b602082108114156200031f57634e487b7160e01b600052602260045260246000fd5b50919050565b634e487b7160e01b600052604160045260246000fd5b61139a806200034b6000396000f3fe608060405234801561001057600080fd5b50600436106101165760003560e01c80637284e416116100a2578063c308411711610071578063c308411714610238578063c6da61281461024b578063c7656f6e1461025e578063ed01bf2914610266578063fc0e97391461026f57600080fd5b80637284e416146101e65780637bc3b5ff146101ee578063b6bd3ae414610210578063bcd148051461022357600080fd5b806339118d25116100e957806339118d251461017a5780633b76594d1461018d5780633ccfd60b146101a05780634185e507146101a857806346bb2833146101d357600080fd5b806306fdde031461011b5780630c3f6acf14610139578063235eee1d1461015357806323a22bcb14610165575b600080fd5b610123610277565b6040516101309190611101565b60405180910390f35b6006546101469060ff1681565b60405161013091906110d9565b6004545b604051908152602001610130565b610178610173366004610ed2565b610305565b005b610157610188366004611033565b61034f565b61017861019b366004611033565b610370565b6101786104e4565b6000546101bb906001600160a01b031681565b6040516001600160a01b039091168152602001610130565b6001546101bb906001600160a01b031681565b61012361067d565b60065461020090610100900460ff1681565b6040519015158152602001610130565b61017861021e366004611065565b61068a565b61022b6109de565b6040516101309190611095565b610178610246366004611033565b610a36565b610178610259366004610ed2565b610be3565b610178610c20565b61015760045481565b610178610cb8565b600280546102849061129e565b80601f01602080910402602001604051908101604052809291908181526020018280546102b09061129e565b80156102fd5780601f106102d2576101008083540402835291602001916102fd565b820191906000526020600020905b8154815290600101906020018083116102e057829003601f168201915b505050505081565b6001546001600160a01b031633146103385760405162461bcd60e51b815260040161032f9061115c565b60405180910390fd5b805161034b906003906020840190610d5c565b5050565b6005818154811061035f57600080fd5b600091825260209091200154905081565b6001546001600160a01b0316331461039a5760405162461bcd60e51b815260040161032f9061115c565b600081116103e15760405162461bcd60e51b81526020600482015260146024820152732d32b9379030b6b7bab73a1037b3103a37b5b2b760611b604482015260640161032f565b6064600454606e6103f29190611238565b6103fc9190611216565b811461044a5760405162461bcd60e51b815260206004820152601860248201527f496e636f7272656374206465706f736974652066756e64730000000000000000604482015260640161032f565b6006805461ff0019166101001790556000546040516323b872dd60e01b8152336004820152306024820152604481018390526001600160a01b03909116906323b872dd906064015b602060405180830381600087803b1580156104ac57600080fd5b505af11580156104c0573d6000803e3d6000fd5b505050506040513d601f19601f8201168201806040525081019061034b9190610eb0565b6001546001600160a01b0316331461050e5760405162461bcd60e51b815260040161032f9061115c565b600080546040516370a0823160e01b81523060048201526001600160a01b03909116906370a082319060240160206040518083038186803b15801561055257600080fd5b505afa158015610566573d6000803e3d6000fd5b505050506040513d601f19601f8201168201806040525081019061058a919061104c565b9050600081116105dc5760405162461bcd60e51b815260206004820152601960248201527f496e73756666696369656e7420555344432062616c616e636500000000000000604482015260640161032f565b600060065460ff1660028111156105f5576105f561130a565b146106425760405162461bcd60e51b815260206004820152601760248201527f50726f6a65637420616c72656164792073746172746564000000000000000000604482015260640161032f565b60005460015460405163a9059cbb60e01b81526001600160a01b0391821660048201526024810184905291169063a9059cbb90604401610492565b600380546102849061129e565b6001546001600160a01b031633146106b45760405162461bcd60e51b815260040161032f9061115c565b604051638c02263b60e01b8152600481018390526000906001600160a01b03831690638c02263b9060240160206040518083038186803b1580156106f757600080fd5b505afa15801561070b573d6000803e3d6000fd5b505050506040513d601f19601f8201168201806040525081019061072f9190610eb0565b90508061074e5760405162461bcd60e51b815260040161032f90611134565b6000805b60055481101561079c57846005828154811061077057610770611320565b9060005260206000200154141561078a576001915061079c565b80610794816112d9565b915050610752565b5080156107eb5760405162461bcd60e51b815260206004820152601860248201527f416c726561647920616464656420696e2070726f6a6563740000000000000000604482015260640161032f565b60405163976217cd60e01b8152600481018590526000906001600160a01b0385169063976217cd9060240160006040518083038186803b15801561082e57600080fd5b505afa158015610842573d6000803e3d6000fd5b505050506040513d6000823e601f3d908101601f1916820160405261086a9190810190610f4d565b60005460a082015160405163a9059cbb60e01b81526001600160a01b0388811660048301526024820192909252929350169063a9059cbb90604401602060405180830381600087803b1580156108bf57600080fd5b505af11580156108d3573d6000803e3d6000fd5b505050506040513d601f19601f820116820180604052508101906108f79190610eb0565b5060005460085460a08301516001600160a01b039283169263a9059cbb92169061092390600a90611216565b6040516001600160e01b031960e085901b1681526001600160a01b0390921660048301526024820152604401602060405180830381600087803b15801561096957600080fd5b505af115801561097d573d6000803e3d6000fd5b505050506040513d601f19601f820116820180604052508101906109a19190610eb0565b5050600580546001810182556000919091527f036b6384b5eca791c62761152d0c79bb0604c104a5fb6f4eb0703f3154bb3db00193909355505050565b60606005805480602002602001604051908101604052809291908181526020018280548015610a2c57602002820191906000526020600020905b815481526020019060010190808311610a18575b5050505050905090565b6001546001600160a01b03163314610a605760405162461bcd60e51b815260040161032f9061115c565b80610a7d5760405162461bcd60e51b815260040161032f90611134565b6000805b600554811015610ac7578260058281548110610a9f57610a9f611320565b90600052602060002001541415610ab557600191505b80610abf816112d9565b915050610a81565b5080610ae55760405162461bcd60e51b815260040161032f90611134565b600554600090610af790600190611257565b67ffffffffffffffff811115610b0f57610b0f611336565b604051908082528060200260200182016040528015610b38578160200160208202803683370190505b5090506000805b600554811015610bc8578460058281548110610b5d57610b5d611320565b906000526020600020015414610bb65760058181548110610b8057610b80611320565b9060005260206000200154838381518110610b9d57610b9d611320565b602090810291909101015281610bb2816112d9565b9250505b80610bc0816112d9565b915050610b3f565b508151610bdc906005906020850190610de0565b5050505050565b6001546001600160a01b03163314610c0d5760405162461bcd60e51b815260040161032f9061115c565b805161034b906002906020840190610d5c565b6001546001600160a01b03163314610c4a5760405162461bcd60e51b815260040161032f9061115c565b600060065460ff166002811115610c6357610c6361130a565b14610ca25760405162461bcd60e51b815260206004820152600f60248201526e105b1c9958591e481cdd185c9d1959608a1b604482015260640161032f565b600680546001919060ff191682805b0217905550565b6001546001600160a01b03163314610ce25760405162461bcd60e51b815260040161032f9061115c565b600160065460ff166002811115610cfb57610cfb61130a565b14610d485760405162461bcd60e51b815260206004820152601a60248201527f546869732070726f6a656374206973206f6e6c79206f70656e2e000000000000604482015260640161032f565b600680546002919060ff1916600183610cb1565b828054610d689061129e565b90600052602060002090601f016020900481019282610d8a5760008555610dd0565b82601f10610da357805160ff1916838001178555610dd0565b82800160010185558215610dd0579182015b82811115610dd0578251825591602001919060010190610db5565b50610ddc929150610e1a565b5090565b828054828255906000526020600020908101928215610dd05791602002820182811115610dd0578251825591602001919060010190610db5565b5b80821115610ddc5760008155600101610e1b565b8051610e3a8161134c565b919050565b80518015158114610e3a57600080fd5b805160058110610e3a57600080fd5b600082601f830112610e6f57600080fd5b8151610e82610e7d826111ee565b6111bd565b818152846020838601011115610e9757600080fd5b610ea882602083016020870161126e565b949350505050565b600060208284031215610ec257600080fd5b610ecb82610e3f565b9392505050565b600060208284031215610ee457600080fd5b813567ffffffffffffffff811115610efb57600080fd5b8201601f81018413610f0c57600080fd5b8035610f1a610e7d826111ee565b818152856020838501011115610f2f57600080fd5b81602084016020830137600091810160200191909152949350505050565b600060208284031215610f5f57600080fd5b815167ffffffffffffffff80821115610f7757600080fd5b908301906101208286031215610f8c57600080fd5b610f94611193565b825182811115610fa357600080fd5b610faf87828601610e5e565b825250610fbe60208401610e4f565b6020820152610fcf60408401610e2f565b6040820152610fe060608401610e2f565b6060820152610ff160808401610e2f565b608082015260a083015160a082015260c083015160c082015260e083015160e08201526101009150611024828401610e3f565b91810191909152949350505050565b60006020828403121561104557600080fd5b5035919050565b60006020828403121561105e57600080fd5b5051919050565b6000806040838503121561107857600080fd5b82359150602083013561108a8161134c565b809150509250929050565b6020808252825182820181905260009190848201906040850190845b818110156110cd578351835292840192918401916001016110b1565b50909695505050505050565b60208101600383106110fb57634e487b7160e01b600052602160045260246000fd5b91905290565b602081526000825180602084015261112081604085016020870161126e565b601f01601f19169190910160400192915050565b6020808252600e908201526d15185cdac81b9bdd08199bdd5b9960921b604082015260600190565b6020808252601c908201527f596f75277265206e6f7420612070726f6a65637420666f756e64657200000000604082015260600190565b604051610120810167ffffffffffffffff811182821017156111b7576111b7611336565b60405290565b604051601f8201601f1916810167ffffffffffffffff811182821017156111e6576111e6611336565b604052919050565b600067ffffffffffffffff82111561120857611208611336565b50601f01601f191660200190565b60008261123357634e487b7160e01b600052601260045260246000fd5b500490565b6000816000190483118215151615611252576112526112f4565b500290565b600082821015611269576112696112f4565b500390565b60005b83811015611289578181015183820152602001611271565b83811115611298576000848401525b50505050565b600181811c908216806112b257607f821691505b602082108114156112d357634e487b7160e01b600052602260045260246000fd5b50919050565b60006000198214156112ed576112ed6112f4565b5060010190565b634e487b7160e01b600052601160045260246000fd5b634e487b7160e01b600052602160045260246000fd5b634e487b7160e01b600052603260045260246000fd5b634e487b7160e01b600052604160045260246000fd5b6001600160a01b038116811461136157600080fd5b5056fea2646970667358221220f7e15375b9a770c5dde23b05ea96ad04ae2b217f932712dc12d2ad5a0e1d907464736f6c63430008070033a2646970667358221220ced74b87124f234648b7a0ef73ea35b4e472a49ae18549e1c4de206ff37f928464736f6c63430008070033",
  "linkReferences": {},
  "deployedLinkReferences": {}
}