{
  "_format": "hh-sol-artifact-1",
  "contractName": "ProjectManage",
  "sourceName": "contracts/ProjectManage.sol",
  "abi": [
    {
      "inputs": [],
      "stateMutability": "nonpayable",
      "type": "constructor"
    },
    {
      "inputs": [
        {
          "internalType": "address",
          "name": "_usdc_address",
          "type": "address"
        },
        {
          "internalType": "string",
          "name": "name",
          "type": "string"
        },
        {
          "internalType": "string",
          "name": "description",
          "type": "string"
        },
        {
          "internalType": "uint256",
          "name": "budget",
          "type": "uint256"
        }
      ],
      "name": "createProject",
      "outputs": [
        {
          "internalType": "address",
          "name": "",
          "type": "address"
        }
      ],
      "stateMutability": "nonpayable",
      "type": "function"
    },
    {
      "inputs": [
        {
          "internalType": "address",
          "name": "_projectAddress",
          "type": "address"
        }
      ],
      "name": "deleteProject",
      "outputs": [],
      "stateMutability": "nonpayable",
      "type": "function"
    },
    {
      "inputs": [
        {
          "internalType": "address",
          "name": "_owner",
          "type": "address"
        }
      ],
      "name": "getProjectContractAddresses",
      "outputs": [
        {
          "internalType": "address[]",
          "name": "",
          "type": "address[]"
        }
      ],
      "stateMutability": "view",
      "type": "function"
    },
    {
      "inputs": [
        {
          "internalType": "address",
          "name": "",
          "type": "address"
        },
        {
          "internalType": "uint256",
          "name": "",
          "type": "uint256"
        }
      ],
      "name": "ownerToProjects",
      "outputs": [
        {
          "internalType": "address",
          "name": "",
          "type": "address"
        }
      ],
      "stateMutability": "view",
      "type": "function"
    }
  ],
  "bytecode": "0x608060405234801561001057600080fd5b50612a85806100206000396000f3fe60806040523480156200001157600080fd5b5060043610620000525760003560e01c80631a2f36c914620000575780632200e21e146200008d57806367eab44d14620000ad578063d92ff49414620000e3575b600080fd5b6200007560048036038101906200006f919062000946565b62000119565b60405162000084919062000b83565b60405180910390f35b620000ab6004803603810190620000a5919062000914565b6200028a565b005b620000cb6004803603810190620000c5919062000914565b62000678565b604051620000da919062000c0b565b60405180910390f35b620001016004803603810190620000fb9190620009f6565b62000747565b60405162000110919062000b83565b60405180910390f35b60008073ffffffffffffffffffffffffffffffffffffffff168573ffffffffffffffffffffffffffffffffffffffff1614156200018d576040517f08c379a0000000000000000000000000000000000000000000000000000000008152600401620001849062000c2f565b60405180910390fd5b62000199600062000796565b60008533868686604051620001ae90620007ac565b620001be95949392919062000ba0565b604051809103906000f080158015620001db573d6000803e3d6000fd5b509050600160003373ffffffffffffffffffffffffffffffffffffffff1673ffffffffffffffffffffffffffffffffffffffff168152602001908152602001600020819080600181540180825580915050600190039060005260206000200160009091909190916101000a81548173ffffffffffffffffffffffffffffffffffffffff021916908373ffffffffffffffffffffffffffffffffffffffff16021790555080915050949350505050565b600073ffffffffffffffffffffffffffffffffffffffff168173ffffffffffffffffffffffffffffffffffffffff161415620002fd576040517f08c379a0000000000000000000000000000000000000000000000000000000008152600401620002f49062000c2f565b60405180910390fd5b6000600160003373ffffffffffffffffffffffffffffffffffffffff1673ffffffffffffffffffffffffffffffffffffffff168152602001908152602001600020805480602002602001604051908101604052809291908181526020018280548015620003c057602002820191906000526020600020905b8160009054906101000a900473ffffffffffffffffffffffffffffffffffffffff1673ffffffffffffffffffffffffffffffffffffffff168152602001906001019080831162000375575b505050505090506000805b825181101562000442578373ffffffffffffffffffffffffffffffffffffffff1683828151811062000402576200040162000e98565b5b602002602001015173ffffffffffffffffffffffffffffffffffffffff1614156200042c57600191505b8080620004399062000e1b565b915050620003cb565b508062000486576040517f08c379a00000000000000000000000000000000000000000000000000000000081526004016200047d9062000c51565b60405180910390fd5b600060018060003373ffffffffffffffffffffffffffffffffffffffff1673ffffffffffffffffffffffffffffffffffffffff16815260200190815260200160002080549050620004d8919062000d27565b67ffffffffffffffff811115620004f457620004f362000ec7565b5b604051908082528060200260200182016040528015620005235781602001602082028036833780820191505090505b5090506000805b84518110156200061a578573ffffffffffffffffffffffffffffffffffffffff1685828151811062000561576200056062000e98565b5b602002602001015173ffffffffffffffffffffffffffffffffffffffff161462000604578481815181106200059b576200059a62000e98565b5b6020026020010151838381518110620005b957620005b862000e98565b5b602002602001019073ffffffffffffffffffffffffffffffffffffffff16908173ffffffffffffffffffffffffffffffffffffffff16815250508180620006009062000e1b565b9250505b8080620006119062000e1b565b9150506200052a565b5081600160003373ffffffffffffffffffffffffffffffffffffffff1673ffffffffffffffffffffffffffffffffffffffff168152602001908152602001600020908051906020019062000670929190620007ba565b505050505050565b6060600160008373ffffffffffffffffffffffffffffffffffffffff1673ffffffffffffffffffffffffffffffffffffffff1681526020019081526020016000208054806020026020016040519081016040528092919081815260200182805480156200073b57602002820191906000526020600020905b8160009054906101000a900473ffffffffffffffffffffffffffffffffffffffff1673ffffffffffffffffffffffffffffffffffffffff1681526020019060010190808311620006f0575b50505050509050919050565b600160205281600052604060002081815481106200076457600080fd5b906000526020600020016000915091509054906101000a900473ffffffffffffffffffffffffffffffffffffffff1681565b6001816000016000828254019250508190555050565b611aae8062000fa283390190565b82805482825590600052602060002090810192821562000836579160200282015b82811115620008355782518260006101000a81548173ffffffffffffffffffffffffffffffffffffffff021916908373ffffffffffffffffffffffffffffffffffffffff16021790555091602001919060010190620007db565b5b50905062000845919062000849565b5090565b5b80821115620008645760008160009055506001016200084a565b5090565b60006200087f620008798462000c9c565b62000c73565b9050828152602081018484840111156200089e576200089d62000efb565b5b620008ab84828562000da0565b509392505050565b600081359050620008c48162000f6d565b92915050565b600082601f830112620008e257620008e162000ef6565b5b8135620008f484826020860162000868565b91505092915050565b6000813590506200090e8162000f87565b92915050565b6000602082840312156200092d576200092c62000f05565b5b60006200093d84828501620008b3565b91505092915050565b6000806000806080858703121562000963576200096262000f05565b5b60006200097387828801620008b3565b945050602085013567ffffffffffffffff81111562000997576200099662000f00565b5b620009a587828801620008ca565b935050604085013567ffffffffffffffff811115620009c957620009c862000f00565b5b620009d787828801620008ca565b9250506060620009ea87828801620008fd565b91505092959194509250565b6000806040838503121562000a105762000a0f62000f05565b5b600062000a2085828601620008b3565b925050602062000a3385828601620008fd565b9150509250929050565b600062000a4b838362000a57565b60208301905092915050565b62000a628162000d62565b82525050565b62000a738162000d62565b82525050565b600062000a868262000ce2565b62000a92818562000d05565b935062000a9f8362000cd2565b8060005b8381101562000ad657815162000aba888262000a3d565b975062000ac78362000cf8565b92505060018101905062000aa3565b5085935050505092915050565b600062000af08262000ced565b62000afc818562000d16565b935062000b0e81856020860162000daf565b62000b198162000f0a565b840191505092915050565b600062000b33600f8362000d16565b915062000b408262000f1b565b602082019050919050565b600062000b5a60118362000d16565b915062000b678262000f44565b602082019050919050565b62000b7d8162000d96565b82525050565b600060208201905062000b9a600083018462000a68565b92915050565b600060a08201905062000bb7600083018862000a68565b62000bc6602083018762000a68565b818103604083015262000bda818662000ae3565b9050818103606083015262000bf0818562000ae3565b905062000c01608083018462000b72565b9695505050505050565b6000602082019050818103600083015262000c27818462000a79565b905092915050565b6000602082019050818103600083015262000c4a8162000b24565b9050919050565b6000602082019050818103600083015262000c6c8162000b4b565b9050919050565b600062000c7f62000c92565b905062000c8d828262000de5565b919050565b6000604051905090565b600067ffffffffffffffff82111562000cba5762000cb962000ec7565b5b62000cc58262000f0a565b9050602081019050919050565b6000819050602082019050919050565b600081519050919050565b600081519050919050565b6000602082019050919050565b600082825260208201905092915050565b600082825260208201905092915050565b600062000d348262000d96565b915062000d418362000d96565b92508282101562000d575762000d5662000e69565b5b828203905092915050565b600062000d6f8262000d76565b9050919050565b600073ffffffffffffffffffffffffffffffffffffffff82169050919050565b6000819050919050565b82818337600083830152505050565b60005b8381101562000dcf57808201518184015260208101905062000db2565b8381111562000ddf576000848401525b50505050565b62000df08262000f0a565b810181811067ffffffffffffffff8211171562000e125762000e1162000ec7565b5b80604052505050565b600062000e288262000d96565b91507fffffffffffffffffffffffffffffffffffffffffffffffffffffffffffffffff82141562000e5e5762000e5d62000e69565b5b600182019050919050565b7f4e487b7100000000000000000000000000000000000000000000000000000000600052601160045260246000fd5b7f4e487b7100000000000000000000000000000000000000000000000000000000600052603260045260246000fd5b7f4e487b7100000000000000000000000000000000000000000000000000000000600052604160045260246000fd5b600080fd5b600080fd5b600080fd5b600080fd5b6000601f19601f8301169050919050565b7f496e76616c696420616464726573730000000000000000000000000000000000600082015250565b7f50726f6a656374206e6f7420666f756e64000000000000000000000000000000600082015250565b62000f788162000d62565b811462000f8457600080fd5b50565b62000f928162000d96565b811462000f9e57600080fd5b5056fe608060405273bcddf66c85ce1856bd9066bbb128663e2745849a600660016101000a81548173ffffffffffffffffffffffffffffffffffffffff021916908373ffffffffffffffffffffffffffffffffffffffff1602179055503480156200006657600080fd5b5060405162001aae38038062001aae83398181016040528101906200008c9190620002db565b846000806101000a81548173ffffffffffffffffffffffffffffffffffffffff021916908373ffffffffffffffffffffffffffffffffffffffff16021790555083600160006101000a81548173ffffffffffffffffffffffffffffffffffffffff021916908373ffffffffffffffffffffffffffffffffffffffff1602179055508260029080519060200190620001259291906200017f565b5081600390805190602001906200013e9291906200017f565b50806004819055506000600660006101000a81548160ff021916908360028111156200016f576200016e620004e0565b5b02179055505050505050620005c6565b8280546200018d9062000474565b90600052602060002090601f016020900481019282620001b15760008555620001fd565b82601f10620001cc57805160ff1916838001178555620001fd565b82800160010185558215620001fd579182015b82811115620001fc578251825591602001919060010190620001df565b5b5090506200020c919062000210565b5090565b5b808211156200022b57600081600090555060010162000211565b5090565b6000620002466200024084620003ca565b620003a1565b90508281526020810184848401111562000265576200026462000572565b5b620002728482856200043e565b509392505050565b6000815190506200028b8162000592565b92915050565b600082601f830112620002a957620002a86200056d565b5b8151620002bb8482602086016200022f565b91505092915050565b600081519050620002d581620005ac565b92915050565b600080600080600060a08688031215620002fa57620002f96200057c565b5b60006200030a888289016200027a565b95505060206200031d888289016200027a565b945050604086015167ffffffffffffffff81111562000341576200034062000577565b5b6200034f8882890162000291565b935050606086015167ffffffffffffffff81111562000373576200037262000577565b5b620003818882890162000291565b92505060806200039488828901620002c4565b9150509295509295909350565b6000620003ad620003c0565b9050620003bb8282620004aa565b919050565b6000604051905090565b600067ffffffffffffffff821115620003e857620003e76200053e565b5b620003f38262000581565b9050602081019050919050565b60006200040d8262000414565b9050919050565b600073ffffffffffffffffffffffffffffffffffffffff82169050919050565b6000819050919050565b60005b838110156200045e57808201518184015260208101905062000441565b838111156200046e576000848401525b50505050565b600060028204905060018216806200048d57607f821691505b60208210811415620004a457620004a36200050f565b5b50919050565b620004b58262000581565b810181811067ffffffffffffffff82111715620004d757620004d66200053e565b5b80604052505050565b7f4e487b7100000000000000000000000000000000000000000000000000000000600052602160045260246000fd5b7f4e487b7100000000000000000000000000000000000000000000000000000000600052602260045260246000fd5b7f4e487b7100000000000000000000000000000000000000000000000000000000600052604160045260246000fd5b600080fd5b600080fd5b600080fd5b600080fd5b6000601f19601f8301169050919050565b6200059d8162000400565b8114620005a957600080fd5b50565b620005b78162000434565b8114620005c357600080fd5b50565b6114d880620005d66000396000f3fe608060405234801561001057600080fd5b50600436106100ea5760003560e01c80637284e4161161008c578063c6da612811610066578063c6da612814610225578063c7656f6e14610241578063ed01bf291461024b578063fc0e973914610269576100ea565b80637284e416146101cf578063ba73cfc5146101ed578063c308411714610209576100ea565b806339118d25116100c857806339118d25146101475780633ff047a6146101775780634185e5071461019357806346bb2833146101b1576100ea565b806306fdde03146100ef5780630c3f6acf1461010d57806323a22bcb1461012b575b600080fd5b6100f7610273565b6040516101049190610f6f565b60405180910390f35b610115610301565b6040516101229190610f54565b60405180910390f35b61014560048036038101906101409190610d4d565b610314565b005b610161600480360381019061015c9190610d96565b610388565b60405161016e9190611031565b60405180910390f35b610191600480360381019061018c9190610d96565b6103ac565b005b61019b610540565b6040516101a89190610f39565b60405180910390f35b6101b9610564565b6040516101c69190610ee7565b60405180910390f35b6101d761058a565b6040516101e49190610f6f565b60405180910390f35b61020760048036038101906102029190610d96565b610618565b005b610223600480360381019061021e9190610d96565b6106e2565b005b61023f600480360381019061023a9190610d4d565b610922565b005b610249610996565b005b610253610a93565b6040516102609190611031565b60405180910390f35b610271610a99565b005b60028054610280906111d7565b80601f01602080910402602001604051908101604052809291908181526020018280546102ac906111d7565b80156102f95780601f106102ce576101008083540402835291602001916102f9565b820191906000526020600020905b8154815290600101906020018083116102dc57829003601f168201915b505050505081565b600660009054906101000a900460ff1681565b600160009054906101000a900473ffffffffffffffffffffffffffffffffffffffff1673ffffffffffffffffffffffffffffffffffffffff163373ffffffffffffffffffffffffffffffffffffffff161461036e57600080fd5b8060039080519060200190610384929190610b96565b5050565b6005818154811061039857600080fd5b906000526020600020016000915090505481565b600160009054906101000a900473ffffffffffffffffffffffffffffffffffffffff1673ffffffffffffffffffffffffffffffffffffffff163373ffffffffffffffffffffffffffffffffffffffff161461040657600080fd5b60008111610449576040517f08c379a000000000000000000000000000000000000000000000000000000000815260040161044090611011565b60405180910390fd5b600454811461048d576040517f08c379a000000000000000000000000000000000000000000000000000000000815260040161048490610fd1565b60405180910390fd5b60008054906101000a900473ffffffffffffffffffffffffffffffffffffffff1673ffffffffffffffffffffffffffffffffffffffff166323b872dd3330846040518463ffffffff1660e01b81526004016104ea93929190610f02565b602060405180830381600087803b15801561050457600080fd5b505af1158015610518573d6000803e3d6000fd5b505050506040513d601f19601f8201168201806040525081019061053c9190610d20565b5050565b60008054906101000a900473ffffffffffffffffffffffffffffffffffffffff1681565b600160009054906101000a900473ffffffffffffffffffffffffffffffffffffffff1681565b60038054610597906111d7565b80601f01602080910402602001604051908101604052809291908181526020018280546105c3906111d7565b80156106105780601f106105e557610100808354040283529160200191610610565b820191906000526020600020905b8154815290600101906020018083116105f357829003601f168201915b505050505081565b600160009054906101000a900473ffffffffffffffffffffffffffffffffffffffff1673ffffffffffffffffffffffffffffffffffffffff163373ffffffffffffffffffffffffffffffffffffffff161461067257600080fd5b60008114156106b6576040517f08c379a00000000000000000000000000000000000000000000000000000000081526004016106ad90610ff1565b60405180910390fd5b600581908060018154018082558091505060019003906000526020600020016000909190919091505550565b600160009054906101000a900473ffffffffffffffffffffffffffffffffffffffff1673ffffffffffffffffffffffffffffffffffffffff163373ffffffffffffffffffffffffffffffffffffffff161461073c57600080fd5b6000811415610780576040517f08c379a000000000000000000000000000000000000000000000000000000000815260040161077790610ff1565b60405180910390fd5b6000805b6005805490508110156107cf5782600582815481106107a6576107a5611310565b5b906000526020600020015414156107bc57600191505b80806107c79061123a565b915050610784565b5080610810576040517f08c379a000000000000000000000000000000000000000000000000000000000815260040161080790610ff1565b60405180910390fd5b6000600160058054905061082491906110be565b67ffffffffffffffff81111561083d5761083c61133f565b5b60405190808252806020026020018201604052801561086b5781602001602082028036833780820191505090505b5090506000805b60058054905081101561090457846005828154811061089457610893611310565b5b9060005260206000200154146108f157600581815481106108b8576108b7611310565b5b90600052602060002001548383815181106108d6576108d5611310565b5b60200260200101818152505081806108ed9061123a565b9250505b80806108fc9061123a565b915050610872565b50816005908051906020019061091b929190610c1c565b5050505050565b600160009054906101000a900473ffffffffffffffffffffffffffffffffffffffff1673ffffffffffffffffffffffffffffffffffffffff163373ffffffffffffffffffffffffffffffffffffffff161461097c57600080fd5b8060029080519060200190610992929190610b96565b5050565b600160009054906101000a900473ffffffffffffffffffffffffffffffffffffffff1673ffffffffffffffffffffffffffffffffffffffff163373ffffffffffffffffffffffffffffffffffffffff16146109f057600080fd5b60006002811115610a0457610a036112b2565b5b600660009054906101000a900460ff166002811115610a2657610a256112b2565b5b14610a66576040517f08c379a0000000000000000000000000000000000000000000000000000000008152600401610a5d90610fb1565b60405180910390fd5b6001600660006101000a81548160ff02191690836002811115610a8c57610a8b6112b2565b5b0217905550565b60045481565b600160009054906101000a900473ffffffffffffffffffffffffffffffffffffffff1673ffffffffffffffffffffffffffffffffffffffff163373ffffffffffffffffffffffffffffffffffffffff1614610af357600080fd5b60016002811115610b0757610b066112b2565b5b600660009054906101000a900460ff166002811115610b2957610b286112b2565b5b14610b69576040517f08c379a0000000000000000000000000000000000000000000000000000000008152600401610b6090610f91565b60405180910390fd5b6002600660006101000a81548160ff02191690836002811115610b8f57610b8e6112b2565b5b0217905550565b828054610ba2906111d7565b90600052602060002090601f016020900481019282610bc45760008555610c0b565b82601f10610bdd57805160ff1916838001178555610c0b565b82800160010185558215610c0b579182015b82811115610c0a578251825591602001919060010190610bef565b5b509050610c189190610c69565b5090565b828054828255906000526020600020908101928215610c58579160200282015b82811115610c57578251825591602001919060010190610c3c565b5b509050610c659190610c69565b5090565b5b80821115610c82576000816000905550600101610c6a565b5090565b6000610c99610c9484611071565b61104c565b905082815260208101848484011115610cb557610cb4611373565b5b610cc0848285611195565b509392505050565b600081519050610cd781611474565b92915050565b600082601f830112610cf257610cf161136e565b5b8135610d02848260208601610c86565b91505092915050565b600081359050610d1a8161148b565b92915050565b600060208284031215610d3657610d3561137d565b5b6000610d4484828501610cc8565b91505092915050565b600060208284031215610d6357610d6261137d565b5b600082013567ffffffffffffffff811115610d8157610d80611378565b5b610d8d84828501610cdd565b91505092915050565b600060208284031215610dac57610dab61137d565b5b6000610dba84828501610d0b565b91505092915050565b610dcc816110f2565b82525050565b610ddb8161114d565b82525050565b610dea8161115f565b82525050565b6000610dfb826110a2565b610e0581856110ad565b9350610e158185602086016111a4565b610e1e81611382565b840191505092915050565b6000610e36601a836110ad565b9150610e4182611393565b602082019050919050565b6000610e59600f836110ad565b9150610e64826113bc565b602082019050919050565b6000610e7c6018836110ad565b9150610e87826113e5565b602082019050919050565b6000610e9f600e836110ad565b9150610eaa8261140e565b602082019050919050565b6000610ec26017836110ad565b9150610ecd82611437565b602082019050919050565b610ee181611143565b82525050565b6000602082019050610efc6000830184610dc3565b92915050565b6000606082019050610f176000830186610dc3565b610f246020830185610dc3565b610f316040830184610ed8565b949350505050565b6000602082019050610f4e6000830184610dd2565b92915050565b6000602082019050610f696000830184610de1565b92915050565b60006020820190508181036000830152610f898184610df0565b905092915050565b60006020820190508181036000830152610faa81610e29565b9050919050565b60006020820190508181036000830152610fca81610e4c565b9050919050565b60006020820190508181036000830152610fea81610e6f565b9050919050565b6000602082019050818103600083015261100a81610e92565b9050919050565b6000602082019050818103600083015261102a81610eb5565b9050919050565b60006020820190506110466000830184610ed8565b92915050565b6000611056611067565b90506110628282611209565b919050565b6000604051905090565b600067ffffffffffffffff82111561108c5761108b61133f565b5b61109582611382565b9050602081019050919050565b600081519050919050565b600082825260208201905092915050565b60006110c982611143565b91506110d483611143565b9250828210156110e7576110e6611283565b5b828203905092915050565b60006110fd82611123565b9050919050565b60008115159050919050565b600081905061111e82611460565b919050565b600073ffffffffffffffffffffffffffffffffffffffff82169050919050565b6000819050919050565b600061115882611171565b9050919050565b600061116a82611110565b9050919050565b600061117c82611183565b9050919050565b600061118e82611123565b9050919050565b82818337600083830152505050565b60005b838110156111c25780820151818401526020810190506111a7565b838111156111d1576000848401525b50505050565b600060028204905060018216806111ef57607f821691505b60208210811415611203576112026112e1565b5b50919050565b61121282611382565b810181811067ffffffffffffffff821117156112315761123061133f565b5b80604052505050565b600061124582611143565b91507fffffffffffffffffffffffffffffffffffffffffffffffffffffffffffffffff82141561127857611277611283565b5b600182019050919050565b7f4e487b7100000000000000000000000000000000000000000000000000000000600052601160045260246000fd5b7f4e487b7100000000000000000000000000000000000000000000000000000000600052602160045260246000fd5b7f4e487b7100000000000000000000000000000000000000000000000000000000600052602260045260246000fd5b7f4e487b7100000000000000000000000000000000000000000000000000000000600052603260045260246000fd5b7f4e487b7100000000000000000000000000000000000000000000000000000000600052604160045260246000fd5b600080fd5b600080fd5b600080fd5b600080fd5b6000601f19601f8301169050919050565b7f546869732070726f6a656374206973206f6e6c79206f70656e2e000000000000600082015250565b7f416c726561647920737461727465640000000000000000000000000000000000600082015250565b7f496e636f7272656374206465706f736974652066756e64730000000000000000600082015250565b7f5461736b206e6f7420666f756e64000000000000000000000000000000000000600082015250565b7f496e76616c696420616d6f756e74206f6620746f6b656e000000000000000000600082015250565b60038110611471576114706112b2565b5b50565b61147d81611104565b811461148857600080fd5b50565b61149481611143565b811461149f57600080fd5b5056fea264697066735822122013d7703bb8ff99bf5a9459774ff339193fe02106908a55420c6bf7ec8287660a64736f6c63430008070033a26469706673582212203ade06324106df320990d9ca87709dc206fc7c4b1395b0b143cf773036db31cc64736f6c63430008070033",
  "linkReferences": {},
  "deployedLinkReferences": {}
}