{
  "_format": "hh-sol-artifact-1",
  "contractName": "ProjectManage",
  "sourceName": "contracts/ProjectManage.sol",
  "abi": [
    {
      "inputs": [],
      "stateMutability": "nonpayable",
      "type": "constructor"
    },
    {
      "anonymous": false,
      "inputs": [
        {
          "indexed": false,
          "internalType": "address",
          "name": "founderAddress",
          "type": "address"
        },
        {
          "indexed": false,
          "internalType": "address",
          "name": "contractAddress",
          "type": "address"
        }
      ],
      "name": "DeployedNewProject",
      "type": "event"
    },
    {
      "inputs": [
        {
          "internalType": "address",
          "name": "founder",
          "type": "address"
        },
        {
          "internalType": "string",
          "name": "id",
          "type": "string"
        }
      ],
      "name": "checkProjectExist",
      "outputs": [
        {
          "internalType": "bool",
          "name": "",
          "type": "bool"
        }
      ],
      "stateMutability": "view",
      "type": "function"
    },
    {
      "inputs": [
        {
          "internalType": "string",
          "name": "_pid",
          "type": "string"
        },
        {
          "internalType": "address",
          "name": "_usdc_address",
          "type": "address"
        }
      ],
      "name": "createProject",
      "outputs": [
        {
          "internalType": "address",
          "name": "",
          "type": "address"
        }
      ],
      "stateMutability": "nonpayable",
      "type": "function"
    },
    {
      "inputs": [
        {
          "internalType": "address",
          "name": "_projectAddress",
          "type": "address"
        }
      ],
      "name": "deleteProject",
      "outputs": [],
      "stateMutability": "nonpayable",
      "type": "function"
    },
    {
      "inputs": [
        {
          "internalType": "address",
          "name": "_projectAddress",
          "type": "address"
        }
      ],
      "name": "getFounderFromProjectAddress",
      "outputs": [
        {
          "internalType": "address",
          "name": "",
          "type": "address"
        }
      ],
      "stateMutability": "view",
      "type": "function"
    },
    {
      "inputs": [
        {
          "internalType": "address",
          "name": "_owner",
          "type": "address"
        }
      ],
      "name": "getProjectContractAddresses",
      "outputs": [
        {
          "components": [
            {
              "internalType": "address",
              "name": "contractAddress",
              "type": "address"
            },
            {
              "internalType": "string",
              "name": "projectId",
              "type": "string"
            }
          ],
          "internalType": "struct ProjectManage.ProjectInfo[]",
          "name": "",
          "type": "tuple[]"
        }
      ],
      "stateMutability": "view",
      "type": "function"
    },
    {
      "inputs": [
        {
          "internalType": "address",
          "name": "",
          "type": "address"
        },
        {
          "internalType": "uint256",
          "name": "",
          "type": "uint256"
        }
      ],
      "name": "ownerToProjects",
      "outputs": [
        {
          "internalType": "address",
          "name": "contractAddress",
          "type": "address"
        },
        {
          "internalType": "string",
          "name": "projectId",
          "type": "string"
        }
      ],
      "stateMutability": "view",
      "type": "function"
    }
  ],
  "bytecode": "0x608060405234801561001057600080fd5b506123e5806100206000396000f3fe60806040523480156200001157600080fd5b50600436106200006a5760003560e01c80632200e21e146200006f57806323a30b23146200008857806367eab44d14620000bc578063740a593914620000e2578063c65579ad146200010a578063d92ff4941462000121575b600080fd5b620000866200008036600462000e94565b62000148565b005b6200009f6200009936600462000e94565b620005b6565b6040516001600160a01b0390911681526020015b60405180910390f35b620000d3620000cd36600462000e94565b6200074c565b604051620000b39190620010e3565b620000f9620000f336600462000eb9565b62000872565b6040519015158152602001620000b3565b6200009f6200011b36600462000f3a565b62000955565b620001386200013236600462000f0d565b62000b66565b604051620000b3929190620010b5565b6001600160a01b038116620001965760405162461bcd60e51b815260206004820152600f60248201526e496e76616c6964206164647265737360881b60448201526064015b60405180910390fd5b33600090815260026020908152604080832080548251818502810185019093528083529192909190849084015b82821015620002a6576000848152602090819020604080518082019091526002850290910180546001600160a01b0316825260018101805492939192918401916200020e90620011ad565b80601f01602080910402602001604051908101604052809291908181526020018280546200023c90620011ad565b80156200028d5780601f1062000261576101008083540402835291602001916200028d565b820191906000526020600020905b8154815290600101906020018083116200026f57829003601f168201915b50505050508152505081526020019060010190620001c3565b5050505090506000805b82518110156200030f57836001600160a01b0316838281518110620002d957620002d96200121e565b6020026020010151600001516001600160a01b03161415620002fa57600191505b806200030681620011ea565b915050620002b0565b5080620003535760405162461bcd60e51b8152602060048201526011602482015270141c9bda9958dd081b9bdd08199bdd5b99607a1b60448201526064016200018d565b3360009081526002602052604081206200036d9162000c3f565b6000805b83518110156200046357846001600160a01b03168482815181106200039a576200039a6200121e565b6020026020010151600001516001600160a01b0316146200044e573360009081526002602052604090208451859083908110620003db57620003db6200121e565b602090810291909101810151825460018082018555600094855293839020825160029092020180546001600160a01b0319166001600160a01b03909216919091178155818301518051929491936200043a939285019291019062000c65565b50505081806200044a90620011ea565b9250505b806200045a81620011ea565b91505062000371565b5080620005b057600180546000916200047c9162001164565b67ffffffffffffffff81111562000497576200049762001234565b604051908082528060200260200182016040528015620004c1578160200160208202803683370190505b5090506000915060005b6001548110156200059757336001600160a01b031660018281548110620004f657620004f66200121e565b6000918252602090912001546001600160a01b0316146200058257600181815481106200052757620005276200121e565b9060005260206000200160009054906101000a90046001600160a01b03168284815181106200055a576200055a6200121e565b6001600160a01b0390921660209283029190910190910152826200057e81620011ea565b9350505b806200058e81620011ea565b915050620004cb565b508051620005ad90600190602084019062000cf4565b50505b50505050565b60006001600160a01b038216620006105760405162461bcd60e51b815260206004820152601760248201527f496e76616c69642070726f6a656374206164647265737300000000000000000060448201526064016200018d565b6000805b600154811015620007455760005b60026000600184815481106200063c576200063c6200121e565b60009182526020808320909101546001600160a01b031683528201929092526040019020548110156200072f57846001600160a01b031660026000600185815481106200068d576200068d6200121e565b60009182526020808320909101546001600160a01b031683528201929092526040019020805483908110620006c657620006c66200121e565b60009182526020909120600290910201546001600160a01b031614156200071a5760018281548110620006fd57620006fd6200121e565b6000918252602090912001546001600160a01b031692506200072f565b806200072681620011ea565b91505062000622565b50806200073c81620011ea565b91505062000614565b5092915050565b6001600160a01b03811660009081526002602090815260408083208054825181850281018501909352808352606094919384929084015b8282101562000866576000848152602090819020604080518082019091526002850290910180546001600160a01b031682526001810180549293919291840191620007ce90620011ad565b80601f0160208091040260200160405190810160405280929190818152602001828054620007fc90620011ad565b80156200084d5780601f1062000821576101008083540402835291602001916200084d565b820191906000526020600020905b8154815290600101906020018083116200082f57829003601f168201915b5050505050815250508152602001906001019062000783565b50505050915050919050565b600080805b6001600160a01b0385166000908152600260205260409020548110156200094d5783604051602001620008ab919062000fbc565b60408051601f1981840301815291815281516020928301206001600160a01b038816600090815260029093529120805483908110620008ee57620008ee6200121e565b906000526020600020906002020160010160405160200162000911919062000fda565b6040516020818303038152906040528051906020012014156200093857600191506200094d565b806200094481620011ea565b91505062000877565b509392505050565b60003383600062000967838362000872565b90508015620009b15760405162461bcd60e51b8152602060048201526015602482015274141c9bda9958dd08185b1c9958591e481b1a5d9959605a1b60448201526064016200018d565b6001600160a01b038516620009fb5760405162461bcd60e51b815260206004820152600f60248201526e496e76616c6964206164647265737360881b60448201526064016200018d565b3360009081526002602052604090205462000a52576001805480820182556000919091527fb10e2d527612073b26eecdfd717e6a320cf44b4afac2b0732d9fcbe2b7fa0cf60180546001600160a01b031916331790555b62000a61600080546001019055565b600085338860405162000a749062000d4c565b62000a82939291906200107e565b604051809103906000f08015801562000a9f573d6000803e3d6000fd5b5033600090815260026020818152604080842081518083019092526001600160a01b0386811683528284018e81528254600180820185559388529685902084519790960290950180546001600160a01b0319169690911695909517855592518051959650909462000b1893850192919091019062000c65565b5050604080513381526001600160a01b03841660208201527f02695cc8954e338f8a21303c3d81cac3464fe3bb4b2e0fe6cf96e658bc14aeb492500160405180910390a19695505050505050565b6002602052816000526040600020818154811062000b8357600080fd5b6000918252602090912060029091020180546001820180546001600160a01b03909216945091925062000bb690620011ad565b80601f016020809104026020016040519081016040528092919081815260200182805462000be490620011ad565b801562000c355780601f1062000c095761010080835404028352916020019162000c35565b820191906000526020600020905b81548152906001019060200180831162000c1757829003601f168201915b5050505050905082565b508054600082556002029060005260206000209081019062000c62919062000d5a565b50565b82805462000c7390620011ad565b90600052602060002090601f01602090048101928262000c97576000855562000ce2565b82601f1062000cb257805160ff191683800117855562000ce2565b8280016001018555821562000ce2579182015b8281111562000ce257825182559160200191906001019062000cc5565b5062000cf092915062000d8c565b5090565b82805482825590600052602060002090810192821562000ce2579160200282015b8281111562000ce257825182546001600160a01b0319166001600160a01b0390911617825560209092019160019091019062000d15565b611165806200124b83390190565b8082111562000cf05780546001600160a01b0319168155600062000d82600183018262000da3565b5060020162000d5a565b5b8082111562000cf0576000815560010162000d8d565b50805462000db190620011ad565b6000825580601f1062000dc2575050565b601f01602090049060005260206000209081019062000c62919062000d8c565b80356001600160a01b038116811462000dfa57600080fd5b919050565b600082601f83011262000e1157600080fd5b813567ffffffffffffffff8082111562000e2f5762000e2f62001234565b604051601f8301601f19908116603f0116810190828211818310171562000e5a5762000e5a62001234565b8160405283815286602085880101111562000e7457600080fd5b836020870160208301376000602085830101528094505050505092915050565b60006020828403121562000ea757600080fd5b62000eb28262000de2565b9392505050565b6000806040838503121562000ecd57600080fd5b62000ed88362000de2565b9150602083013567ffffffffffffffff81111562000ef557600080fd5b62000f038582860162000dff565b9150509250929050565b6000806040838503121562000f2157600080fd5b62000f2c8362000de2565b946020939093013593505050565b6000806040838503121562000f4e57600080fd5b823567ffffffffffffffff81111562000f6657600080fd5b62000f748582860162000dff565b92505062000f856020840162000de2565b90509250929050565b6000815180845262000fa88160208601602086016200117e565b601f01601f19169290920160200192915050565b6000825162000fd08184602087016200117e565b9190910192915050565b600080835481600182811c91508083168062000ff757607f831692505b60208084108214156200101857634e487b7160e01b86526022600452602486fd5b8180156200102f5760018114620010415762001070565b60ff1986168952848901965062001070565b60008a81526020902060005b86811015620010685781548b8201529085019083016200104d565b505084890196505b509498975050505050505050565b6001600160a01b03848116825283166020820152606060408201819052600090620010ac9083018462000f8e565b95945050505050565b6001600160a01b0383168152604060208201819052600090620010db9083018462000f8e565b949350505050565b60006020808301818452808551808352604092508286019150828160051b87010184880160005b838110156200115657888303603f19018552815180516001600160a01b03168452870151878401879052620011428785018262000f8e565b95880195935050908601906001016200110a565b509098975050505050505050565b60008282101562001179576200117962001208565b500390565b60005b838110156200119b57818101518382015260200162001181565b83811115620005b05750506000910152565b600181811c90821680620011c257607f821691505b60208210811415620011e457634e487b7160e01b600052602260045260246000fd5b50919050565b600060001982141562001201576200120162001208565b5060010190565b634e487b7160e01b600052601160045260246000fd5b634e487b7160e01b600052603260045260246000fd5b634e487b7160e01b600052604160045260246000fdfe6080604052600480546001600160a01b031916735ee8d1b65942116da65700849d65cc839e38cc5e1790553480156200003757600080fd5b5060405162001165380380620011658339810160408190526200005a916200016c565b600080546001600160a01b038086166001600160a01b031992831617909255600180549285169290911691909117905580516200009f906002906020840190620000a9565b50505050620002c3565b828054620000b79062000270565b90600052602060002090601f016020900481019282620000db576000855562000126565b82601f10620000f657805160ff191683800117855562000126565b8280016001018555821562000126579182015b828111156200012657825182559160200191906001019062000109565b506200013492915062000138565b5090565b5b8082111562000134576000815560010162000139565b80516001600160a01b03811681146200016757600080fd5b919050565b6000806000606084860312156200018257600080fd5b6200018d846200014f565b925060206200019e8186016200014f565b60408601519093506001600160401b0380821115620001bc57600080fd5b818701915087601f830112620001d157600080fd5b815181811115620001e657620001e6620002ad565b604051601f8201601f19908116603f01168101908382118183101715620002115762000211620002ad565b816040528281528a868487010111156200022a57600080fd5b600093505b828410156200024e57848401860151818501870152928501926200022f565b82841115620002605760008684830101525b8096505050505050509250925092565b600181811c908216806200028557607f821691505b60208210811415620002a757634e487b7160e01b600052602260045260246000fd5b50919050565b634e487b7160e01b600052604160045260246000fd5b610e9280620002d36000396000f3fe608060405234801561001057600080fd5b50600436106100935760003560e01c80634185e507116100665780634185e507146100fb57806346bb283314610126578063b6bd3ae414610139578063bcd148051461014c578063c30841171461016157600080fd5b80632e1a7d4d1461009857806339118d25146100ad5780633b76594d146100d35780633fafa127146100e6575b600080fd5b6100ab6100a6366004610bc2565b610174565b005b6100c06100bb366004610bc2565b61034a565b6040519081526020015b60405180910390f35b6100ab6100e1366004610bc2565b61036b565b6100ee610440565b6040516100ca9190610c68565b60005461010e906001600160a01b031681565b6040516001600160a01b0390911681526020016100ca565b60015461010e906001600160a01b031681565b6100ab610147366004610bf4565b6104ce565b61015461079e565b6040516100ca9190610c24565b6100ab61016f366004610bc2565b6107f6565b6001546001600160a01b031633146101a75760405162461bcd60e51b815260040161019e90610cc3565b60405180910390fd5b600080546040516370a0823160e01b81523060048201526001600160a01b03909116906370a082319060240160206040518083038186803b1580156101eb57600080fd5b505afa1580156101ff573d6000803e3d6000fd5b505050506040513d601f19601f820116820180604052508101906102239190610bdb565b9050600081116102715760405162461bcd60e51b8152602060048201526019602482015278496e73756666696369656e7420555344432062616c616e636560381b604482015260640161019e565b818110156102bd5760405162461bcd60e51b8152602060048201526019602482015278496e73756666696369656e7420555344432062616c616e636560381b604482015260640161019e565b60005460015460405163a9059cbb60e01b81526001600160a01b0391821660048201526024810185905291169063a9059cbb90604401602060405180830381600087803b15801561030d57600080fd5b505af1158015610321573d6000803e3d6000fd5b505050506040513d601f19601f820116820180604052508101906103459190610aba565b505050565b6003818154811061035a57600080fd5b600091825260209091200154905081565b600081116103b25760405162461bcd60e51b81526020600482015260146024820152732d32b9379030b6b7bab73a1037b3103a37b5b2b760611b604482015260640161019e565b6000546040516323b872dd60e01b8152336004820152306024820152604481018390526001600160a01b03909116906323b872dd90606401602060405180830381600087803b15801561040457600080fd5b505af1158015610418573d6000803e3d6000fd5b505050506040513d601f19601f8201168201806040525081019061043c9190610aba565b5050565b6002805461044d90610dac565b80601f016020809104026020016040519081016040528092919081815260200182805461047990610dac565b80156104c65780601f1061049b576101008083540402835291602001916104c6565b820191906000526020600020905b8154815290600101906020018083116104a957829003601f168201915b505050505081565b6001546001600160a01b031633146104f85760405162461bcd60e51b815260040161019e90610cc3565b604051638c02263b60e01b8152600481018390526000906001600160a01b03831690638c02263b9060240160206040518083038186803b15801561053b57600080fd5b505afa15801561054f573d6000803e3d6000fd5b505050506040513d601f19601f820116820180604052508101906105739190610aba565b9050806105925760405162461bcd60e51b815260040161019e90610c9b565b6000805b6003548110156105e05784600382815481106105b4576105b4610e18565b906000526020600020015414156105ce57600191506105e0565b806105d881610de7565b915050610596565b50801561062f5760405162461bcd60e51b815260206004820152601860248201527f416c726561647920616464656420696e2070726f6a6563740000000000000000604482015260640161019e565b60405163976217cd60e01b8152600481018590526000906001600160a01b0385169063976217cd9060240160006040518083038186803b15801561067257600080fd5b505afa158015610686573d6000803e3d6000fd5b505050506040513d6000823e601f3d908101601f191682016040526106ae9190810190610adc565b60005460a08201519192506001600160a01b03169063a9059cbb9086906064906106d990606e610d46565b6106e39190610d24565b6040516001600160e01b031960e085901b1681526001600160a01b0390921660048301526024820152604401602060405180830381600087803b15801561072957600080fd5b505af115801561073d573d6000803e3d6000fd5b505050506040513d601f19601f820116820180604052508101906107619190610aba565b5050600380546001810182556000919091527fc2575a0e9e593c00f959f8c92f12db2869c3395a3b0502d05e2516446f71f85b0193909355505050565b606060038054806020026020016040519081016040528092919081815260200182805480156107ec57602002820191906000526020600020905b8154815260200190600101908083116107d8575b5050505050905090565b6001546001600160a01b031633146108205760405162461bcd60e51b815260040161019e90610cc3565b8061083d5760405162461bcd60e51b815260040161019e90610c9b565b6000805b60035481101561088757826003828154811061085f5761085f610e18565b9060005260206000200154141561087557600191505b8061087f81610de7565b915050610841565b50806108a55760405162461bcd60e51b815260040161019e90610c9b565b6003546000906108b790600190610d65565b67ffffffffffffffff8111156108cf576108cf610e2e565b6040519080825280602002602001820160405280156108f8578160200160208202803683370190505b5090506000805b60035481101561098857846003828154811061091d5761091d610e18565b906000526020600020015414610976576003818154811061094057610940610e18565b906000526020600020015483838151811061095d5761095d610e18565b60209081029190910101528161097281610de7565b9250505b8061098081610de7565b9150506108ff565b50815161099c9060039060208501906109a3565b5050505050565b8280548282559060005260206000209081019282156109de579160200282015b828111156109de5782518255916020019190600101906109c3565b506109ea9291506109ee565b5090565b5b808211156109ea57600081556001016109ef565b8051610a0e81610e44565b919050565b80518015158114610a0e57600080fd5b805160038110610a0e57600080fd5b600082601f830112610a4357600080fd5b815167ffffffffffffffff80821115610a5e57610a5e610e2e565b604051601f8301601f19908116603f01168101908282118183101715610a8657610a86610e2e565b81604052838152866020858801011115610a9f57600080fd5b610ab0846020830160208901610d7c565b9695505050505050565b600060208284031215610acc57600080fd5b610ad582610a13565b9392505050565b600060208284031215610aee57600080fd5b815167ffffffffffffffff80821115610b0657600080fd5b908301906101208286031215610b1b57600080fd5b610b23610cfa565b825182811115610b3257600080fd5b610b3e87828601610a32565b825250610b4d60208401610a23565b6020820152610b5e60408401610a03565b6040820152610b6f60608401610a03565b6060820152610b8060808401610a03565b608082015260a083015160a082015260c083015160c082015260e083015160e08201526101009150610bb3828401610a13565b91810191909152949350505050565b600060208284031215610bd457600080fd5b5035919050565b600060208284031215610bed57600080fd5b5051919050565b60008060408385031215610c0757600080fd5b823591506020830135610c1981610e44565b809150509250929050565b6020808252825182820181905260009190848201906040850190845b81811015610c5c57835183529284019291840191600101610c40565b50909695505050505050565b6020815260008251806020840152610c87816040850160208701610d7c565b601f01601f19169190910160400192915050565b6020808252600e908201526d15185cdac81b9bdd08199bdd5b9960921b604082015260600190565b6020808252601c908201527f596f75277265206e6f7420612070726f6a65637420666f756e64657200000000604082015260600190565b604051610120810167ffffffffffffffff81118282101715610d1e57610d1e610e2e565b60405290565b600082610d4157634e487b7160e01b600052601260045260246000fd5b500490565b6000816000190483118215151615610d6057610d60610e02565b500290565b600082821015610d7757610d77610e02565b500390565b60005b83811015610d97578181015183820152602001610d7f565b83811115610da6576000848401525b50505050565b600181811c90821680610dc057607f821691505b60208210811415610de157634e487b7160e01b600052602260045260246000fd5b50919050565b6000600019821415610dfb57610dfb610e02565b5060010190565b634e487b7160e01b600052601160045260246000fd5b634e487b7160e01b600052603260045260246000fd5b634e487b7160e01b600052604160045260246000fd5b6001600160a01b0381168114610e5957600080fd5b5056fea264697066735822122003cc9e7d248e75925cdc3dc6cfdb9dae3f544c5b9bf234fe0a9a460f4b9f71dc64736f6c63430008070033a2646970667358221220d6acd6116f634cee113676093840e70a528f5b0676cdc8c47cba599d62c8e67e64736f6c63430008070033",
  "linkReferences": {},
  "deployedLinkReferences": {}
}