{
  "_format": "hh-sol-artifact-1",
  "contractName": "Task",
  "sourceName": "contracts/Task.sol",
  "abi": [
    {
      "inputs": [
        {
          "internalType": "address",
          "name": "_usdc_address",
          "type": "address"
        },
        {
          "internalType": "address",
          "name": "_profileManageAddress",
          "type": "address"
        },
        {
          "internalType": "address",
          "name": "_projectManageAddress",
          "type": "address"
        }
      ],
      "stateMutability": "nonpayable",
      "type": "constructor"
    },
    {
      "anonymous": false,
      "inputs": [
        {
          "indexed": true,
          "internalType": "address",
          "name": "owner",
          "type": "address"
        },
        {
          "indexed": true,
          "internalType": "address",
          "name": "approved",
          "type": "address"
        },
        {
          "indexed": true,
          "internalType": "uint256",
          "name": "tokenId",
          "type": "uint256"
        }
      ],
      "name": "Approval",
      "type": "event"
    },
    {
      "anonymous": false,
      "inputs": [
        {
          "indexed": true,
          "internalType": "address",
          "name": "owner",
          "type": "address"
        },
        {
          "indexed": true,
          "internalType": "address",
          "name": "operator",
          "type": "address"
        },
        {
          "indexed": false,
          "internalType": "bool",
          "name": "approved",
          "type": "bool"
        }
      ],
      "name": "ApprovalForAll",
      "type": "event"
    },
    {
      "anonymous": false,
      "inputs": [
        {
          "indexed": true,
          "internalType": "address",
          "name": "from",
          "type": "address"
        },
        {
          "indexed": true,
          "internalType": "address",
          "name": "to",
          "type": "address"
        },
        {
          "indexed": true,
          "internalType": "uint256",
          "name": "tokenId",
          "type": "uint256"
        }
      ],
      "name": "Transfer",
      "type": "event"
    },
    {
      "inputs": [],
      "name": "USDCtoken",
      "outputs": [
        {
          "internalType": "contract IERC20",
          "name": "",
          "type": "address"
        }
      ],
      "stateMutability": "view",
      "type": "function"
    },
    {
      "inputs": [
        {
          "internalType": "uint256",
          "name": "_taskId",
          "type": "uint256"
        }
      ],
      "name": "agreeCancellationByBuilder",
      "outputs": [],
      "stateMutability": "nonpayable",
      "type": "function"
    },
    {
      "inputs": [
        {
          "internalType": "address",
          "name": "to",
          "type": "address"
        },
        {
          "internalType": "uint256",
          "name": "tokenId",
          "type": "uint256"
        }
      ],
      "name": "approve",
      "outputs": [],
      "stateMutability": "nonpayable",
      "type": "function"
    },
    {
      "inputs": [
        {
          "internalType": "uint256",
          "name": "_tokenId",
          "type": "uint256"
        },
        {
          "internalType": "address",
          "name": "_builderAddress",
          "type": "address"
        }
      ],
      "name": "assignTaskToBuilder",
      "outputs": [],
      "stateMutability": "nonpayable",
      "type": "function"
    },
    {
      "inputs": [
        {
          "internalType": "address",
          "name": "owner",
          "type": "address"
        }
      ],
      "name": "balanceOf",
      "outputs": [
        {
          "internalType": "uint256",
          "name": "",
          "type": "uint256"
        }
      ],
      "stateMutability": "view",
      "type": "function"
    },
    {
      "inputs": [
        {
          "internalType": "uint256",
          "name": "_taskId",
          "type": "uint256"
        }
      ],
      "name": "cancelTask",
      "outputs": [],
      "stateMutability": "nonpayable",
      "type": "function"
    },
    {
      "inputs": [
        {
          "internalType": "uint256",
          "name": "_taskId",
          "type": "uint256"
        }
      ],
      "name": "checkTaskId",
      "outputs": [
        {
          "internalType": "bool",
          "name": "",
          "type": "bool"
        }
      ],
      "stateMutability": "view",
      "type": "function"
    },
    {
      "inputs": [
        {
          "internalType": "uint256",
          "name": "_taskId",
          "type": "uint256"
        }
      ],
      "name": "completeTask",
      "outputs": [],
      "stateMutability": "nonpayable",
      "type": "function"
    },
    {
      "inputs": [
        {
          "internalType": "address",
          "name": "_projectAddress",
          "type": "address"
        },
        {
          "internalType": "string",
          "name": "_name",
          "type": "string"
        },
        {
          "internalType": "uint256",
          "name": "_usdc",
          "type": "uint256"
        },
        {
          "internalType": "uint256",
          "name": "_xp",
          "type": "uint256"
        }
      ],
      "name": "createTask",
      "outputs": [
        {
          "internalType": "uint256",
          "name": "",
          "type": "uint256"
        }
      ],
      "stateMutability": "nonpayable",
      "type": "function"
    },
    {
      "inputs": [
        {
          "internalType": "uint256",
          "name": "tokenId",
          "type": "uint256"
        }
      ],
      "name": "getApproved",
      "outputs": [
        {
          "internalType": "address",
          "name": "",
          "type": "address"
        }
      ],
      "stateMutability": "view",
      "type": "function"
    },
    {
      "inputs": [
        {
          "internalType": "address",
          "name": "_builderAddress",
          "type": "address"
        }
      ],
      "name": "getBuilderTasks",
      "outputs": [
        {
          "components": [
            {
              "internalType": "string",
              "name": "name",
              "type": "string"
            },
            {
              "internalType": "enum Task.State",
              "name": "currentState",
              "type": "uint8"
            },
            {
              "internalType": "address",
              "name": "projectAddress",
              "type": "address"
            },
            {
              "internalType": "address",
              "name": "founderAddress",
              "type": "address"
            },
            {
              "internalType": "address",
              "name": "builderAddress",
              "type": "address"
            },
            {
              "internalType": "uint256",
              "name": "usdc_amount",
              "type": "uint256"
            },
            {
              "internalType": "uint256",
              "name": "fndr_amount",
              "type": "uint256"
            },
            {
              "internalType": "uint256",
              "name": "xp",
              "type": "uint256"
            },
            {
              "internalType": "bool",
              "name": "isBuilderAgreed",
              "type": "bool"
            }
          ],
          "internalType": "struct Task.TaskInfo[]",
          "name": "",
          "type": "tuple[]"
        }
      ],
      "stateMutability": "view",
      "type": "function"
    },
    {
      "inputs": [
        {
          "internalType": "uint256",
          "name": "_tokenId",
          "type": "uint256"
        }
      ],
      "name": "getTaskById",
      "outputs": [
        {
          "components": [
            {
              "internalType": "string",
              "name": "name",
              "type": "string"
            },
            {
              "internalType": "enum Task.State",
              "name": "currentState",
              "type": "uint8"
            },
            {
              "internalType": "address",
              "name": "projectAddress",
              "type": "address"
            },
            {
              "internalType": "address",
              "name": "founderAddress",
              "type": "address"
            },
            {
              "internalType": "address",
              "name": "builderAddress",
              "type": "address"
            },
            {
              "internalType": "uint256",
              "name": "usdc_amount",
              "type": "uint256"
            },
            {
              "internalType": "uint256",
              "name": "fndr_amount",
              "type": "uint256"
            },
            {
              "internalType": "uint256",
              "name": "xp",
              "type": "uint256"
            },
            {
              "internalType": "bool",
              "name": "isBuilderAgreed",
              "type": "bool"
            }
          ],
          "internalType": "struct Task.TaskInfo",
          "name": "",
          "type": "tuple"
        }
      ],
      "stateMutability": "view",
      "type": "function"
    },
    {
      "inputs": [
        {
          "internalType": "uint256",
          "name": "",
          "type": "uint256"
        }
      ],
      "name": "idToTask",
      "outputs": [
        {
          "internalType": "string",
          "name": "name",
          "type": "string"
        },
        {
          "internalType": "enum Task.State",
          "name": "currentState",
          "type": "uint8"
        },
        {
          "internalType": "address",
          "name": "projectAddress",
          "type": "address"
        },
        {
          "internalType": "address",
          "name": "founderAddress",
          "type": "address"
        },
        {
          "internalType": "address",
          "name": "builderAddress",
          "type": "address"
        },
        {
          "internalType": "uint256",
          "name": "usdc_amount",
          "type": "uint256"
        },
        {
          "internalType": "uint256",
          "name": "fndr_amount",
          "type": "uint256"
        },
        {
          "internalType": "uint256",
          "name": "xp",
          "type": "uint256"
        },
        {
          "internalType": "bool",
          "name": "isBuilderAgreed",
          "type": "bool"
        }
      ],
      "stateMutability": "view",
      "type": "function"
    },
    {
      "inputs": [
        {
          "internalType": "address",
          "name": "owner",
          "type": "address"
        },
        {
          "internalType": "address",
          "name": "operator",
          "type": "address"
        }
      ],
      "name": "isApprovedForAll",
      "outputs": [
        {
          "internalType": "bool",
          "name": "",
          "type": "bool"
        }
      ],
      "stateMutability": "view",
      "type": "function"
    },
    {
      "inputs": [],
      "name": "name",
      "outputs": [
        {
          "internalType": "string",
          "name": "",
          "type": "string"
        }
      ],
      "stateMutability": "view",
      "type": "function"
    },
    {
      "inputs": [
        {
          "internalType": "uint256",
          "name": "tokenId",
          "type": "uint256"
        }
      ],
      "name": "ownerOf",
      "outputs": [
        {
          "internalType": "address",
          "name": "",
          "type": "address"
        }
      ],
      "stateMutability": "view",
      "type": "function"
    },
    {
      "inputs": [
        {
          "internalType": "address",
          "name": "from",
          "type": "address"
        },
        {
          "internalType": "address",
          "name": "to",
          "type": "address"
        },
        {
          "internalType": "uint256",
          "name": "tokenId",
          "type": "uint256"
        }
      ],
      "name": "safeTransferFrom",
      "outputs": [],
      "stateMutability": "nonpayable",
      "type": "function"
    },
    {
      "inputs": [
        {
          "internalType": "address",
          "name": "from",
          "type": "address"
        },
        {
          "internalType": "address",
          "name": "to",
          "type": "address"
        },
        {
          "internalType": "uint256",
          "name": "tokenId",
          "type": "uint256"
        },
        {
          "internalType": "bytes",
          "name": "data",
          "type": "bytes"
        }
      ],
      "name": "safeTransferFrom",
      "outputs": [],
      "stateMutability": "nonpayable",
      "type": "function"
    },
    {
      "inputs": [
        {
          "internalType": "address",
          "name": "operator",
          "type": "address"
        },
        {
          "internalType": "bool",
          "name": "approved",
          "type": "bool"
        }
      ],
      "name": "setApprovalForAll",
      "outputs": [],
      "stateMutability": "nonpayable",
      "type": "function"
    },
    {
      "inputs": [
        {
          "internalType": "uint256",
          "name": "_taskId",
          "type": "uint256"
        }
      ],
      "name": "startTask",
      "outputs": [],
      "stateMutability": "nonpayable",
      "type": "function"
    },
    {
      "inputs": [
        {
          "internalType": "bytes4",
          "name": "interfaceId",
          "type": "bytes4"
        }
      ],
      "name": "supportsInterface",
      "outputs": [
        {
          "internalType": "bool",
          "name": "",
          "type": "bool"
        }
      ],
      "stateMutability": "view",
      "type": "function"
    },
    {
      "inputs": [],
      "name": "symbol",
      "outputs": [
        {
          "internalType": "string",
          "name": "",
          "type": "string"
        }
      ],
      "stateMutability": "view",
      "type": "function"
    },
    {
      "inputs": [
        {
          "internalType": "uint256",
          "name": "index",
          "type": "uint256"
        }
      ],
      "name": "tokenByIndex",
      "outputs": [
        {
          "internalType": "uint256",
          "name": "",
          "type": "uint256"
        }
      ],
      "stateMutability": "view",
      "type": "function"
    },
    {
      "inputs": [
        {
          "internalType": "address",
          "name": "owner",
          "type": "address"
        },
        {
          "internalType": "uint256",
          "name": "index",
          "type": "uint256"
        }
      ],
      "name": "tokenOfOwnerByIndex",
      "outputs": [
        {
          "internalType": "uint256",
          "name": "",
          "type": "uint256"
        }
      ],
      "stateMutability": "view",
      "type": "function"
    },
    {
      "inputs": [
        {
          "internalType": "uint256",
          "name": "tokenId",
          "type": "uint256"
        }
      ],
      "name": "tokenURI",
      "outputs": [
        {
          "internalType": "string",
          "name": "",
          "type": "string"
        }
      ],
      "stateMutability": "view",
      "type": "function"
    },
    {
      "inputs": [],
      "name": "totalSupply",
      "outputs": [
        {
          "internalType": "uint256",
          "name": "",
          "type": "uint256"
        }
      ],
      "stateMutability": "view",
      "type": "function"
    },
    {
      "inputs": [
        {
          "internalType": "address",
          "name": "from",
          "type": "address"
        },
        {
          "internalType": "address",
          "name": "to",
          "type": "address"
        },
        {
          "internalType": "uint256",
          "name": "tokenId",
          "type": "uint256"
        }
      ],
      "name": "transferFrom",
      "outputs": [],
      "stateMutability": "nonpayable",
      "type": "function"
    }
  ],
  "bytecode": "0x6080604052735ee8d1b65942116da65700849d65cc839e38cc5e600b60006101000a81548173ffffffffffffffffffffffffffffffffffffffff021916908373ffffffffffffffffffffffffffffffffffffffff16021790555073b5c051088e47d8d69824bac79499f90042341d02600c60006101000a81548173ffffffffffffffffffffffffffffffffffffffff021916908373ffffffffffffffffffffffffffffffffffffffff1602179055507364e92a7b43f4395f8c731b8932c9677a829f642b600d60006101000a81548173ffffffffffffffffffffffffffffffffffffffff021916908373ffffffffffffffffffffffffffffffffffffffff1602179055506001600d60146101000a81548160ff0219169083151502179055503480156200012b57600080fd5b506040516200591e3803806200591e833981810160405281019062000151919062000384565b6040518060400160405280600c81526020017f4275696c646572205461736b00000000000000000000000000000000000000008152506040518060400160405280600481526020017f5461736b000000000000000000000000000000000000000000000000000000008152508160009080519060200190620001d5929190620002bd565b508060019080519060200190620001ee929190620002bd565b50505082600a60006101000a81548173ffffffffffffffffffffffffffffffffffffffff021916908373ffffffffffffffffffffffffffffffffffffffff16021790555081600c60006101000a81548173ffffffffffffffffffffffffffffffffffffffff021916908373ffffffffffffffffffffffffffffffffffffffff16021790555080600d60006101000a81548173ffffffffffffffffffffffffffffffffffffffff021916908373ffffffffffffffffffffffffffffffffffffffff16021790555050505062000498565b828054620002cb9062000414565b90600052602060002090601f016020900481019282620002ef57600085556200033b565b82601f106200030a57805160ff19168380011785556200033b565b828001600101855582156200033b579182015b828111156200033a5782518255916020019190600101906200031d565b5b5090506200034a91906200034e565b5090565b5b80821115620003695760008160009055506001016200034f565b5090565b6000815190506200037e816200047e565b92915050565b600080600060608486031215620003a0576200039f62000479565b5b6000620003b0868287016200036d565b9350506020620003c3868287016200036d565b9250506040620003d6868287016200036d565b9150509250925092565b6000620003ed82620003f4565b9050919050565b600073ffffffffffffffffffffffffffffffffffffffff82169050919050565b600060028204905060018216806200042d57607f821691505b602082108114156200044457620004436200044a565b5b50919050565b7f4e487b7100000000000000000000000000000000000000000000000000000000600052602260045260246000fd5b600080fd5b6200048981620003e0565b81146200049557600080fd5b50565b61547680620004a86000396000f3fe608060405234801561001057600080fd5b50600436106101a95760003560e01c80634f6ccce7116100f9578063976217cd11610097578063c87b56dd11610071578063c87b56dd1461051e578063e1e295581461054e578063e52ed6791461056a578063e985e9c514610586576101a9565b8063976217cd146104b6578063a22cb465146104e6578063b88d4fde14610502576101a9565b806370a08231116100d357806370a082311461041c5780637eec20a81461044c5780638c02263b1461046857806395d89b4114610498576101a9565b80634f6ccce7146103a05780635f944326146103d05780636352211e146103ec576101a9565b806323b872dd116101665780633c7777fb116101405780633c7777fb146103065780634185e5071461033657806342842e0e146103545780634338eb8714610370576101a9565b806323b872dd1461029e5780632eafc530146102ba5780632f745c59146102d6576101a9565b806301ffc9a7146101ae57806306fdde03146101de578063081812fc146101fc578063095ea7b31461022c57806318160ddd146102485780631c8187a614610266575b600080fd5b6101c860048036038101906101c39190613cff565b6105b6565b6040516101d59190614514565b60405180910390f35b6101e6610630565b6040516101f3919061454a565b60405180910390f35b61021660048036038101906102119190613d59565b6106c2565b6040516102239190614462565b60405180910390f35b61024660048036038101906102419190613c92565b610708565b005b610250610820565b60405161025d91906148e2565b60405180910390f35b610280600480360381019061027b9190613d59565b61082d565b6040516102959998979695949392919061456c565b60405180910390f35b6102b860048036038101906102b39190613af9565b61097d565b005b6102d460048036038101906102cf9190613d59565b6109dd565b005b6102f060048036038101906102eb9190613c92565b610b87565b6040516102fd91906148e2565b60405180910390f35b610320600480360381019061031b9190613c0f565b610c2c565b60405161032d91906148e2565b60405180910390f35b61033e610fd3565b60405161034b919061452f565b60405180910390f35b61036e60048036038101906103699190613af9565b610ff9565b005b61038a60048036038101906103859190613a5f565b611019565b60405161039791906144f2565b60405180910390f35b6103ba60048036038101906103b59190613d59565b611521565b6040516103c791906148e2565b60405180910390f35b6103ea60048036038101906103e59190613d59565b611592565b005b61040660048036038101906104019190613d59565b6116c2565b6040516104139190614462565b60405180910390f35b61043660048036038101906104319190613a5f565b611774565b60405161044391906148e2565b60405180910390f35b61046660048036038101906104619190613d59565b61182c565b005b610482600480360381019061047d9190613d59565b611b0b565b60405161048f9190614514565b60405180910390f35b6104a0611b1d565b6040516104ad919061454a565b60405180910390f35b6104d060048036038101906104cb9190613d59565b611baf565b6040516104dd91906148c0565b60405180910390f35b61050060048036038101906104fb9190613bcf565b611e2f565b005b61051c60048036038101906105179190613b4c565b611e45565b005b61053860048036038101906105339190613d59565b611ea7565b604051610545919061454a565b60405180910390f35b61056860048036038101906105639190613d59565b611f0f565b005b610584600480360381019061057f9190613d86565b612301565b005b6105a0600480360381019061059b9190613ab9565b612581565b6040516105ad9190614514565b60405180910390f35b60007f780e9d63000000000000000000000000000000000000000000000000000000007bffffffffffffffffffffffffffffffffffffffffffffffffffffffff1916827bffffffffffffffffffffffffffffffffffffffffffffffffffffffff19161480610629575061062882612615565b5b9050919050565b60606000805461063f90614c37565b80601f016020809104026020016040519081016040528092919081815260200182805461066b90614c37565b80156106b85780601f1061068d576101008083540402835291602001916106b8565b820191906000526020600020905b81548152906001019060200180831161069b57829003601f168201915b5050505050905090565b60006106cd826126f7565b6004600083815260200190815260200160002060009054906101000a900473ffffffffffffffffffffffffffffffffffffffff169050919050565b6000610713826116c2565b90508073ffffffffffffffffffffffffffffffffffffffff168373ffffffffffffffffffffffffffffffffffffffff161415610784576040517f08c379a000000000000000000000000000000000000000000000000000000000815260040161077b90614800565b60405180910390fd5b8073ffffffffffffffffffffffffffffffffffffffff166107a3612742565b73ffffffffffffffffffffffffffffffffffffffff1614806107d257506107d1816107cc612742565b612581565b5b610811576040517f08c379a000000000000000000000000000000000000000000000000000000000815260040161080890614760565b60405180910390fd5b61081b838361274a565b505050565b6000600880549050905090565b600e60205280600052604060002060009150905080600001805461085090614c37565b80601f016020809104026020016040519081016040528092919081815260200182805461087c90614c37565b80156108c95780601f1061089e576101008083540402835291602001916108c9565b820191906000526020600020905b8154815290600101906020018083116108ac57829003601f168201915b5050505050908060010160009054906101000a900460ff16908060010160019054906101000a900473ffffffffffffffffffffffffffffffffffffffff16908060020160009054906101000a900473ffffffffffffffffffffffffffffffffffffffff16908060030160009054906101000a900473ffffffffffffffffffffffffffffffffffffffff16908060040154908060050154908060060154908060070160009054906101000a900460ff16905089565b61098e610988612742565b82612803565b6109cd576040517f08c379a00000000000000000000000000000000000000000000000000000000081526004016109c490614880565b60405180910390fd5b6109d8838383612898565b505050565b806109e781612aff565b610a26576040517f08c379a0000000000000000000000000000000000000000000000000000000008152600401610a1d906147a0565b60405180910390fd5b3373ffffffffffffffffffffffffffffffffffffffff16600e600084815260200190815260200160002060030160009054906101000a900473ffffffffffffffffffffffffffffffffffffffff1673ffffffffffffffffffffffffffffffffffffffff1614610aca576040517f08c379a0000000000000000000000000000000000000000000000000000000008152600401610ac1906147c0565b60405180910390fd5b60016005811115610ade57610add614d72565b5b600e600084815260200190815260200160002060010160009054906101000a900460ff166005811115610b1457610b13614d72565b5b14610b54576040517f08c379a0000000000000000000000000000000000000000000000000000000008152600401610b4b90614620565b60405180910390fd5b6001600e600084815260200190815260200160002060070160006101000a81548160ff0219169083151502179055505050565b6000610b9283611774565b8210610bd3576040517f08c379a0000000000000000000000000000000000000000000000000000000008152600401610bca90614640565b60405180910390fd5b600660008473ffffffffffffffffffffffffffffffffffffffff1673ffffffffffffffffffffffffffffffffffffffff168152602001908152602001600020600083815260200190815260200160002054905092915050565b600080600d60009054906101000a900473ffffffffffffffffffffffffffffffffffffffff1673ffffffffffffffffffffffffffffffffffffffff166323a30b23876040518263ffffffff1660e01b8152600401610c8a9190614462565b60206040518083038186803b158015610ca257600080fd5b505afa158015610cb6573d6000803e3d6000fd5b505050506040513d601f19601f82011682018060405250810190610cda9190613a8c565b90503373ffffffffffffffffffffffffffffffffffffffff168173ffffffffffffffffffffffffffffffffffffffff1614610d4a576040517f08c379a0000000000000000000000000000000000000000000000000000000008152600401610d4190614860565b60405180910390fd5b6000600d60146101000a81548160ff0219169083151502179055506000610d6f610820565b9050610d8733600183610d829190614a11565b612b6b565b60405180610120016040528087815260200160006005811115610dad57610dac614d72565b5b81526020018873ffffffffffffffffffffffffffffffffffffffff1681526020013373ffffffffffffffffffffffffffffffffffffffff168152602001600073ffffffffffffffffffffffffffffffffffffffff1681526020018681526020016000815260200185815260200160001515815250600e6000610e2d610820565b81526020019081526020016000206000820151816000019080519060200190610e579291906137a7565b5060208201518160010160006101000a81548160ff02191690836005811115610e8357610e82614d72565b5b021790555060408201518160010160016101000a81548173ffffffffffffffffffffffffffffffffffffffff021916908373ffffffffffffffffffffffffffffffffffffffff16021790555060608201518160020160006101000a81548173ffffffffffffffffffffffffffffffffffffffff021916908373ffffffffffffffffffffffffffffffffffffffff16021790555060808201518160030160006101000a81548173ffffffffffffffffffffffffffffffffffffffff021916908373ffffffffffffffffffffffffffffffffffffffff16021790555060a0820151816004015560c0820151816005015560e082015181600601556101008201518160070160006101000a81548160ff0219169083151502179055509050506001600d60146101000a81548160ff021916908315150217905550600181610fc79190614a11565b92505050949350505050565b600a60009054906101000a900473ffffffffffffffffffffffffffffffffffffffff1681565b61101483838360405180602001604052806000815250611e45565b505050565b6060600073ffffffffffffffffffffffffffffffffffffffff168273ffffffffffffffffffffffffffffffffffffffff16141561108b576040517f08c379a000000000000000000000000000000000000000000000000000000000815260040161108290614600565b60405180910390fd5b600080600190505b61109b610820565b8111611181573373ffffffffffffffffffffffffffffffffffffffff16600e600083815260200190815260200160002060030160009054906101000a900473ffffffffffffffffffffffffffffffffffffffff1673ffffffffffffffffffffffffffffffffffffffff1614801561115a57506000600581111561112157611120614d72565b5b600e600083815260200190815260200160002060010160009054906101000a900460ff16600581111561115757611156614d72565b5b14155b1561116e57818061116a90614c9a565b9250505b808061117990614c9a565b915050611093565b5060008167ffffffffffffffff81111561119e5761119d614e2e565b5b6040519080825280602002602001820160405280156111d757816020015b6111c461382d565b8152602001906001900390816111bc5790505b509050600080600190505b6111ea610820565b8111611515573373ffffffffffffffffffffffffffffffffffffffff16600e600083815260200190815260200160002060030160009054906101000a900473ffffffffffffffffffffffffffffffffffffffff1673ffffffffffffffffffffffffffffffffffffffff161480156112a95750600060058111156112705761126f614d72565b5b600e600083815260200190815260200160002060010160009054906101000a900460ff1660058111156112a6576112a5614d72565b5b14155b1561150257600e6000828152602001908152602001600020604051806101200160405290816000820180546112dd90614c37565b80601f016020809104026020016040519081016040528092919081815260200182805461130990614c37565b80156113565780601f1061132b57610100808354040283529160200191611356565b820191906000526020600020905b81548152906001019060200180831161133957829003601f168201915b505050505081526020016001820160009054906101000a900460ff16600581111561138457611383614d72565b5b600581111561139657611395614d72565b5b81526020016001820160019054906101000a900473ffffffffffffffffffffffffffffffffffffffff1673ffffffffffffffffffffffffffffffffffffffff1673ffffffffffffffffffffffffffffffffffffffff1681526020016002820160009054906101000a900473ffffffffffffffffffffffffffffffffffffffff1673ffffffffffffffffffffffffffffffffffffffff1673ffffffffffffffffffffffffffffffffffffffff1681526020016003820160009054906101000a900473ffffffffffffffffffffffffffffffffffffffff1673ffffffffffffffffffffffffffffffffffffffff1673ffffffffffffffffffffffffffffffffffffffff1681526020016004820154815260200160058201548152602001600682015481526020016007820160009054906101000a900460ff1615151515815250508383815181106114e8576114e7614dff565b5b602002602001018190525081806114fe90614c9a565b9250505b808061150d90614c9a565b9150506111e2565b50819350505050919050565b600061152b610820565b821061156c576040517f08c379a000000000000000000000000000000000000000000000000000000000815260040161156390614840565b60405180910390fd5b600882815481106115805761157f614dff565b5b90600052602060002001549050919050565b8061159c81612aff565b6115db576040517f08c379a00000000000000000000000000000000000000000000000000000000081526004016115d2906147a0565b60405180910390fd5b3373ffffffffffffffffffffffffffffffffffffffff16600e600084815260200190815260200160002060030160009054906101000a900473ffffffffffffffffffffffffffffffffffffffff1673ffffffffffffffffffffffffffffffffffffffff161461167f576040517f08c379a000000000000000000000000000000000000000000000000000000000815260040161167690614820565b60405180910390fd5b6003600e600084815260200190815260200160002060010160006101000a81548160ff021916908360058111156116b9576116b8614d72565b5b02179055505050565b6000806002600084815260200190815260200160002060009054906101000a900473ffffffffffffffffffffffffffffffffffffffff169050600073ffffffffffffffffffffffffffffffffffffffff168173ffffffffffffffffffffffffffffffffffffffff16141561176b576040517f08c379a0000000000000000000000000000000000000000000000000000000008152600401611762906147e0565b60405180910390fd5b80915050919050565b60008073ffffffffffffffffffffffffffffffffffffffff168273ffffffffffffffffffffffffffffffffffffffff1614156117e5576040517f08c379a00000000000000000000000000000000000000000000000000000000081526004016117dc90614740565b60405180910390fd5b600360008373ffffffffffffffffffffffffffffffffffffffff1673ffffffffffffffffffffffffffffffffffffffff168152602001908152602001600020549050919050565b8061183681612aff565b611875576040517f08c379a000000000000000000000000000000000000000000000000000000000815260040161186c906147a0565b60405180910390fd5b3373ffffffffffffffffffffffffffffffffffffffff16600e600084815260200190815260200160002060020160009054906101000a900473ffffffffffffffffffffffffffffffffffffffff1673ffffffffffffffffffffffffffffffffffffffff1614611919576040517f08c379a000000000000000000000000000000000000000000000000000000000815260040161191090614860565b60405180910390fd5b6000600581111561192d5761192c614d72565b5b600e600084815260200190815260200160002060010160009054906101000a900460ff16600581111561196357611962614d72565b5b146119cc57600e600083815260200190815260200160002060070160009054906101000a900460ff166119cb576040517f08c379a00000000000000000000000000000000000000000000000000000000081526004016119c2906148a0565b60405180910390fd5b5b600a60009054906101000a900473ffffffffffffffffffffffffffffffffffffffff1673ffffffffffffffffffffffffffffffffffffffff1663a9059cbb600e600085815260200190815260200160002060010160019054906101000a900473ffffffffffffffffffffffffffffffffffffffff16600e6000868152602001908152602001600020600401546040518363ffffffff1660e01b8152600401611a759291906144c9565b602060405180830381600087803b158015611a8f57600080fd5b505af1158015611aa3573d6000803e3d6000fd5b505050506040513d601f19601f82011682018060405250810190611ac79190613cd2565b506005600e600084815260200190815260200160002060010160006101000a81548160ff02191690836005811115611b0257611b01614d72565b5b02179055505050565b6000611b1682612aff565b9050919050565b606060018054611b2c90614c37565b80601f0160208091040260200160405190810160405280929190818152602001828054611b5890614c37565b8015611ba55780601f10611b7a57610100808354040283529160200191611ba5565b820191906000526020600020905b815481529060010190602001808311611b8857829003601f168201915b5050505050905090565b611bb761382d565b81611bc181612aff565b611c00576040517f08c379a0000000000000000000000000000000000000000000000000000000008152600401611bf7906147a0565b60405180910390fd5b600e600084815260200190815260200160002060405180610120016040529081600082018054611c2f90614c37565b80601f0160208091040260200160405190810160405280929190818152602001828054611c5b90614c37565b8015611ca85780601f10611c7d57610100808354040283529160200191611ca8565b820191906000526020600020905b815481529060010190602001808311611c8b57829003601f168201915b505050505081526020016001820160009054906101000a900460ff166005811115611cd657611cd5614d72565b5b6005811115611ce857611ce7614d72565b5b81526020016001820160019054906101000a900473ffffffffffffffffffffffffffffffffffffffff1673ffffffffffffffffffffffffffffffffffffffff1673ffffffffffffffffffffffffffffffffffffffff1681526020016002820160009054906101000a900473ffffffffffffffffffffffffffffffffffffffff1673ffffffffffffffffffffffffffffffffffffffff1673ffffffffffffffffffffffffffffffffffffffff1681526020016003820160009054906101000a900473ffffffffffffffffffffffffffffffffffffffff1673ffffffffffffffffffffffffffffffffffffffff1673ffffffffffffffffffffffffffffffffffffffff1681526020016004820154815260200160058201548152602001600682015481526020016007820160009054906101000a900460ff161515151581525050915050919050565b611e41611e3a612742565b8383612b89565b5050565b611e56611e50612742565b83612803565b611e95576040517f08c379a0000000000000000000000000000000000000000000000000000000008152600401611e8c90614880565b60405180910390fd5b611ea184848484612cf6565b50505050565b6060611eb2826126f7565b6000611ebc612d52565b90506000815111611edc5760405180602001604052806000815250611f07565b80611ee684612d69565b604051602001611ef792919061443e565b6040516020818303038152906040525b915050919050565b611f1881612aff565b611f57576040517f08c379a0000000000000000000000000000000000000000000000000000000008152600401611f4e906147a0565b60405180910390fd5b3373ffffffffffffffffffffffffffffffffffffffff16600e600083815260200190815260200160002060020160009054906101000a900473ffffffffffffffffffffffffffffffffffffffff1673ffffffffffffffffffffffffffffffffffffffff1614611ffb576040517f08c379a0000000000000000000000000000000000000000000000000000000008152600401611ff290614860565b60405180910390fd5b6000600c60009054906101000a900473ffffffffffffffffffffffffffffffffffffffff1673ffffffffffffffffffffffffffffffffffffffff1663593c6e0d600e600085815260200190815260200160002060030160009054906101000a900473ffffffffffffffffffffffffffffffffffffffff166040518263ffffffff1660e01b815260040161208e9190614462565b60206040518083038186803b1580156120a657600080fd5b505afa1580156120ba573d6000803e3d6000fd5b505050506040513d601f19601f820116820180604052508101906120de9190613a8c565b9050600a60009054906101000a900473ffffffffffffffffffffffffffffffffffffffff1673ffffffffffffffffffffffffffffffffffffffff1663a9059cbb826064605f600e6000888152602001908152602001600020600401546121449190614a98565b61214e9190614a67565b6040518363ffffffff1660e01b815260040161216b9291906144c9565b602060405180830381600087803b15801561218557600080fd5b505af1158015612199573d6000803e3d6000fd5b505050506040513d601f19601f820116820180604052508101906121bd9190613cd2565b50600a60009054906101000a900473ffffffffffffffffffffffffffffffffffffffff1673ffffffffffffffffffffffffffffffffffffffff1663a9059cbb600b60009054906101000a900473ffffffffffffffffffffffffffffffffffffffff1660646005600e6000888152602001908152602001600020600401546122449190614a98565b61224e9190614a67565b6040518363ffffffff1660e01b815260040161226b9291906144c9565b602060405180830381600087803b15801561228557600080fd5b505af1158015612299573d6000803e3d6000fd5b505050506040513d601f19601f820116820180604052508101906122bd9190613cd2565b506004600e600084815260200190815260200160002060010160006101000a81548160ff021916908360058111156122f8576122f7614d72565b5b02179055505050565b8161230b81612aff565b61234a576040517f08c379a0000000000000000000000000000000000000000000000000000000008152600401612341906147a0565b60405180910390fd5b600073ffffffffffffffffffffffffffffffffffffffff168273ffffffffffffffffffffffffffffffffffffffff1614156123ba576040517f08c379a00000000000000000000000000000000000000000000000000000000081526004016123b190614600565b60405180910390fd5b600060058111156123ce576123cd614d72565b5b600e600085815260200190815260200160002060010160009054906101000a900460ff16600581111561240457612403614d72565b5b14612444576040517f08c379a000000000000000000000000000000000000000000000000000000000815260040161243b90614680565b60405180910390fd5b3373ffffffffffffffffffffffffffffffffffffffff16600e600085815260200190815260200160002060020160009054906101000a900473ffffffffffffffffffffffffffffffffffffffff1673ffffffffffffffffffffffffffffffffffffffff16146124e8576040517f08c379a00000000000000000000000000000000000000000000000000000000081526004016124df90614860565b60405180910390fd5b6001600e600085815260200190815260200160002060010160006101000a81548160ff0219169083600581111561252257612521614d72565b5b021790555081600e600085815260200190815260200160002060030160006101000a81548173ffffffffffffffffffffffffffffffffffffffff021916908373ffffffffffffffffffffffffffffffffffffffff160217905550505050565b6000600560008473ffffffffffffffffffffffffffffffffffffffff1673ffffffffffffffffffffffffffffffffffffffff16815260200190815260200160002060008373ffffffffffffffffffffffffffffffffffffffff1673ffffffffffffffffffffffffffffffffffffffff16815260200190815260200160002060009054906101000a900460ff16905092915050565b60007f80ac58cd000000000000000000000000000000000000000000000000000000007bffffffffffffffffffffffffffffffffffffffffffffffffffffffff1916827bffffffffffffffffffffffffffffffffffffffffffffffffffffffff191614806126e057507f5b5e139f000000000000000000000000000000000000000000000000000000007bffffffffffffffffffffffffffffffffffffffffffffffffffffffff1916827bffffffffffffffffffffffffffffffffffffffffffffffffffffffff1916145b806126f057506126ef82612eca565b5b9050919050565b61270081612aff565b61273f576040517f08c379a0000000000000000000000000000000000000000000000000000000008152600401612736906147e0565b60405180910390fd5b50565b600033905090565b816004600083815260200190815260200160002060006101000a81548173ffffffffffffffffffffffffffffffffffffffff021916908373ffffffffffffffffffffffffffffffffffffffff160217905550808273ffffffffffffffffffffffffffffffffffffffff166127bd836116c2565b73ffffffffffffffffffffffffffffffffffffffff167f8c5be1e5ebec7d5bd14f71427d1e84f3dd0314c0f7b2291e5b200ac8c7c3b92560405160405180910390a45050565b60008061280f836116c2565b90508073ffffffffffffffffffffffffffffffffffffffff168473ffffffffffffffffffffffffffffffffffffffff16148061285157506128508185612581565b5b8061288f57508373ffffffffffffffffffffffffffffffffffffffff16612877846106c2565b73ffffffffffffffffffffffffffffffffffffffff16145b91505092915050565b8273ffffffffffffffffffffffffffffffffffffffff166128b8826116c2565b73ffffffffffffffffffffffffffffffffffffffff161461290e576040517f08c379a0000000000000000000000000000000000000000000000000000000008152600401612905906146a0565b60405180910390fd5b600073ffffffffffffffffffffffffffffffffffffffff168273ffffffffffffffffffffffffffffffffffffffff16141561297e576040517f08c379a0000000000000000000000000000000000000000000000000000000008152600401612975906146e0565b60405180910390fd5b612989838383612f34565b61299460008261274a565b6001600360008573ffffffffffffffffffffffffffffffffffffffff1673ffffffffffffffffffffffffffffffffffffffff16815260200190815260200160002060008282546129e49190614af2565b925050819055506001600360008473ffffffffffffffffffffffffffffffffffffffff1673ffffffffffffffffffffffffffffffffffffffff1681526020019081526020016000206000828254612a3b9190614a11565b92505081905550816002600083815260200190815260200160002060006101000a81548173ffffffffffffffffffffffffffffffffffffffff021916908373ffffffffffffffffffffffffffffffffffffffff160217905550808273ffffffffffffffffffffffffffffffffffffffff168473ffffffffffffffffffffffffffffffffffffffff167fddf252ad1be2c89b69c2b068fc378daa952ba7f163c4a11628f55a4df523b3ef60405160405180910390a4612afa838383612f94565b505050565b60008073ffffffffffffffffffffffffffffffffffffffff166002600084815260200190815260200160002060009054906101000a900473ffffffffffffffffffffffffffffffffffffffff1673ffffffffffffffffffffffffffffffffffffffff1614159050919050565b612b85828260405180602001604052806000815250612f99565b5050565b8173ffffffffffffffffffffffffffffffffffffffff168373ffffffffffffffffffffffffffffffffffffffff161415612bf8576040517f08c379a0000000000000000000000000000000000000000000000000000000008152600401612bef90614700565b60405180910390fd5b80600560008573ffffffffffffffffffffffffffffffffffffffff1673ffffffffffffffffffffffffffffffffffffffff16815260200190815260200160002060008473ffffffffffffffffffffffffffffffffffffffff1673ffffffffffffffffffffffffffffffffffffffff16815260200190815260200160002060006101000a81548160ff0219169083151502179055508173ffffffffffffffffffffffffffffffffffffffff168373ffffffffffffffffffffffffffffffffffffffff167f17307eab39ab6107e8899845ad3d59bd9653f200f220920489ca2b5937696c3183604051612ce99190614514565b60405180910390a3505050565b612d01848484612898565b612d0d84848484612ff4565b612d4c576040517f08c379a0000000000000000000000000000000000000000000000000000000008152600401612d4390614660565b60405180910390fd5b50505050565b606060405180602001604052806000815250905090565b60606000821415612db1576040518060400160405280600181526020017f30000000000000000000000000000000000000000000000000000000000000008152509050612ec5565b600082905060005b60008214612de3578080612dcc90614c9a565b915050600a82612ddc9190614a67565b9150612db9565b60008167ffffffffffffffff811115612dff57612dfe614e2e565b5b6040519080825280601f01601f191660200182016040528015612e315781602001600182028036833780820191505090505b5090505b60008514612ebe57600182612e4a9190614af2565b9150600a85612e599190614ce3565b6030612e659190614a11565b60f81b818381518110612e7b57612e7a614dff565b5b60200101907effffffffffffffffffffffffffffffffffffffffffffffffffffffffffffff1916908160001a905350600a85612eb79190614a67565b9450612e35565b8093505050505b919050565b60007f01ffc9a7000000000000000000000000000000000000000000000000000000007bffffffffffffffffffffffffffffffffffffffffffffffffffffffff1916827bffffffffffffffffffffffffffffffffffffffffffffffffffffffff1916149050919050565b600d60149054906101000a900460ff1615612f84576040517f08c379a0000000000000000000000000000000000000000000000000000000008152600401612f7b90614720565b60405180910390fd5b612f8f83838361318b565b505050565b505050565b612fa3838361329f565b612fb06000848484612ff4565b612fef576040517f08c379a0000000000000000000000000000000000000000000000000000000008152600401612fe690614660565b60405180910390fd5b505050565b60006130158473ffffffffffffffffffffffffffffffffffffffff16613479565b1561317e578373ffffffffffffffffffffffffffffffffffffffff1663150b7a0261303e612742565b8786866040518563ffffffff1660e01b8152600401613060949392919061447d565b602060405180830381600087803b15801561307a57600080fd5b505af19250505080156130ab57506040513d601f19601f820116820180604052508101906130a89190613d2c565b60015b61312e573d80600081146130db576040519150601f19603f3d011682016040523d82523d6000602084013e6130e0565b606091505b50600081511415613126576040517f08c379a000000000000000000000000000000000000000000000000000000000815260040161311d90614660565b60405180910390fd5b805181602001fd5b63150b7a0260e01b7bffffffffffffffffffffffffffffffffffffffffffffffffffffffff1916817bffffffffffffffffffffffffffffffffffffffffffffffffffffffff191614915050613183565b600190505b949350505050565b61319683838361349c565b600073ffffffffffffffffffffffffffffffffffffffff168373ffffffffffffffffffffffffffffffffffffffff1614156131d9576131d4816134a1565b613218565b8173ffffffffffffffffffffffffffffffffffffffff168373ffffffffffffffffffffffffffffffffffffffff16146132175761321683826134ea565b5b5b600073ffffffffffffffffffffffffffffffffffffffff168273ffffffffffffffffffffffffffffffffffffffff16141561325b5761325681613657565b61329a565b8273ffffffffffffffffffffffffffffffffffffffff168273ffffffffffffffffffffffffffffffffffffffff1614613299576132988282613728565b5b5b505050565b600073ffffffffffffffffffffffffffffffffffffffff168273ffffffffffffffffffffffffffffffffffffffff16141561330f576040517f08c379a000000000000000000000000000000000000000000000000000000000815260040161330690614780565b60405180910390fd5b61331881612aff565b15613358576040517f08c379a000000000000000000000000000000000000000000000000000000000815260040161334f906146c0565b60405180910390fd5b61336460008383612f34565b6001600360008473ffffffffffffffffffffffffffffffffffffffff1673ffffffffffffffffffffffffffffffffffffffff16815260200190815260200160002060008282546133b49190614a11565b92505081905550816002600083815260200190815260200160002060006101000a81548173ffffffffffffffffffffffffffffffffffffffff021916908373ffffffffffffffffffffffffffffffffffffffff160217905550808273ffffffffffffffffffffffffffffffffffffffff16600073ffffffffffffffffffffffffffffffffffffffff167fddf252ad1be2c89b69c2b068fc378daa952ba7f163c4a11628f55a4df523b3ef60405160405180910390a461347560008383612f94565b5050565b6000808273ffffffffffffffffffffffffffffffffffffffff163b119050919050565b505050565b6008805490506009600083815260200190815260200160002081905550600881908060018154018082558091505060019003906000526020600020016000909190919091505550565b600060016134f784611774565b6135019190614af2565b90506000600760008481526020019081526020016000205490508181146135e6576000600660008673ffffffffffffffffffffffffffffffffffffffff1673ffffffffffffffffffffffffffffffffffffffff168152602001908152602001600020600084815260200190815260200160002054905080600660008773ffffffffffffffffffffffffffffffffffffffff1673ffffffffffffffffffffffffffffffffffffffff168152602001908152602001600020600084815260200190815260200160002081905550816007600083815260200190815260200160002081905550505b6007600084815260200190815260200160002060009055600660008573ffffffffffffffffffffffffffffffffffffffff1673ffffffffffffffffffffffffffffffffffffffff16815260200190815260200160002060008381526020019081526020016000206000905550505050565b6000600160088054905061366b9190614af2565b905060006009600084815260200190815260200160002054905060006008838154811061369b5761369a614dff565b5b9060005260206000200154905080600883815481106136bd576136bc614dff565b5b90600052602060002001819055508160096000838152602001908152602001600020819055506009600085815260200190815260200160002060009055600880548061370c5761370b614dd0565b5b6001900381819060005260206000200160009055905550505050565b600061373383611774565b905081600660008573ffffffffffffffffffffffffffffffffffffffff1673ffffffffffffffffffffffffffffffffffffffff168152602001908152602001600020600083815260200190815260200160002081905550806007600084815260200190815260200160002081905550505050565b8280546137b390614c37565b90600052602060002090601f0160209004810192826137d5576000855561381c565b82601f106137ee57805160ff191683800117855561381c565b8280016001018555821561381c579182015b8281111561381b578251825591602001919060010190613800565b5b50905061382991906138cf565b5090565b604051806101200160405280606081526020016000600581111561385457613853614d72565b5b8152602001600073ffffffffffffffffffffffffffffffffffffffff168152602001600073ffffffffffffffffffffffffffffffffffffffff168152602001600073ffffffffffffffffffffffffffffffffffffffff1681526020016000815260200160008152602001600081526020016000151581525090565b5b808211156138e85760008160009055506001016138d0565b5090565b60006138ff6138fa84614922565b6148fd565b90508281526020810184848401111561391b5761391a614e62565b5b613926848285614bf5565b509392505050565b600061394161393c84614953565b6148fd565b90508281526020810184848401111561395d5761395c614e62565b5b613968848285614bf5565b509392505050565b60008135905061397f816153e4565b92915050565b600081519050613994816153e4565b92915050565b6000813590506139a9816153fb565b92915050565b6000815190506139be816153fb565b92915050565b6000813590506139d381615412565b92915050565b6000815190506139e881615412565b92915050565b600082601f830112613a0357613a02614e5d565b5b8135613a138482602086016138ec565b91505092915050565b600082601f830112613a3157613a30614e5d565b5b8135613a4184826020860161392e565b91505092915050565b600081359050613a5981615429565b92915050565b600060208284031215613a7557613a74614e6c565b5b6000613a8384828501613970565b91505092915050565b600060208284031215613aa257613aa1614e6c565b5b6000613ab084828501613985565b91505092915050565b60008060408385031215613ad057613acf614e6c565b5b6000613ade85828601613970565b9250506020613aef85828601613970565b9150509250929050565b600080600060608486031215613b1257613b11614e6c565b5b6000613b2086828701613970565b9350506020613b3186828701613970565b9250506040613b4286828701613a4a565b9150509250925092565b60008060008060808587031215613b6657613b65614e6c565b5b6000613b7487828801613970565b9450506020613b8587828801613970565b9350506040613b9687828801613a4a565b925050606085013567ffffffffffffffff811115613bb757613bb6614e67565b5b613bc3878288016139ee565b91505092959194509250565b60008060408385031215613be657613be5614e6c565b5b6000613bf485828601613970565b9250506020613c058582860161399a565b9150509250929050565b60008060008060808587031215613c2957613c28614e6c565b5b6000613c3787828801613970565b945050602085013567ffffffffffffffff811115613c5857613c57614e67565b5b613c6487828801613a1c565b9350506040613c7587828801613a4a565b9250506060613c8687828801613a4a565b91505092959194509250565b60008060408385031215613ca957613ca8614e6c565b5b6000613cb785828601613970565b9250506020613cc885828601613a4a565b9150509250929050565b600060208284031215613ce857613ce7614e6c565b5b6000613cf6848285016139af565b91505092915050565b600060208284031215613d1557613d14614e6c565b5b6000613d23848285016139c4565b91505092915050565b600060208284031215613d4257613d41614e6c565b5b6000613d50848285016139d9565b91505092915050565b600060208284031215613d6f57613d6e614e6c565b5b6000613d7d84828501613a4a565b91505092915050565b60008060408385031215613d9d57613d9c614e6c565b5b6000613dab85828601613a4a565b9250506020613dbc85828601613970565b9150509250929050565b6000613dd28383614296565b905092915050565b613de381614b26565b82525050565b613df281614b26565b82525050565b6000613e0382614994565b613e0d81856149c2565b935083602082028501613e1f85614984565b8060005b85811015613e5b5784840389528151613e3c8582613dc6565b9450613e47836149b5565b925060208a01995050600181019050613e23565b50829750879550505050505092915050565b613e7681614b38565b82525050565b613e8581614b38565b82525050565b6000613e968261499f565b613ea081856149d3565b9350613eb0818560208601614c04565b613eb981614e71565b840191505092915050565b613ecd81614bad565b82525050565b613edc81614bbf565b82525050565b613eeb81614bbf565b82525050565b6000613efc826149aa565b613f0681856149e4565b9350613f16818560208601614c04565b613f1f81614e71565b840191505092915050565b6000613f35826149aa565b613f3f81856149f5565b9350613f4f818560208601614c04565b613f5881614e71565b840191505092915050565b6000613f6e826149aa565b613f788185614a06565b9350613f88818560208601614c04565b80840191505092915050565b6000613fa1600f836149f5565b9150613fac82614e82565b602082019050919050565b6000613fc46012836149f5565b9150613fcf82614eab565b602082019050919050565b6000613fe7602b836149f5565b9150613ff282614ed4565b604082019050919050565b600061400a6032836149f5565b915061401582614f23565b604082019050919050565b600061402d601e836149f5565b915061403882614f72565b602082019050919050565b60006140506025836149f5565b915061405b82614f9b565b604082019050919050565b6000614073601c836149f5565b915061407e82614fea565b602082019050919050565b60006140966024836149f5565b91506140a182615013565b604082019050919050565b60006140b96019836149f5565b91506140c482615062565b602082019050919050565b60006140dc601b836149f5565b91506140e78261508b565b602082019050919050565b60006140ff6029836149f5565b915061410a826150b4565b604082019050919050565b6000614122603e836149f5565b915061412d82615103565b604082019050919050565b60006141456020836149f5565b915061415082615152565b602082019050919050565b6000614168600e836149f5565b91506141738261517b565b602082019050919050565b600061418b602c836149f5565b9150614196826151a4565b604082019050919050565b60006141ae6018836149f5565b91506141b9826151f3565b602082019050919050565b60006141d16021836149f5565b91506141dc8261521c565b604082019050919050565b60006141f46019836149f5565b91506141ff8261526b565b602082019050919050565b6000614217602c836149f5565b915061422282615294565b604082019050919050565b600061423a6023836149f5565b9150614245826152e3565b604082019050919050565b600061425d602e836149f5565b915061426882615332565b604082019050919050565b60006142806024836149f5565b915061428b82615381565b604082019050919050565b60006101208301600083015184820360008601526142b48282613ef1565b91505060208301516142c96020860182613ed3565b5060408301516142dc6040860182613dda565b5060608301516142ef6060860182613dda565b5060808301516143026080860182613dda565b5060a083015161431560a0860182614420565b5060c083015161432860c0860182614420565b5060e083015161433b60e0860182614420565b50610100830151614350610100860182613e6d565b508091505092915050565b60006101208301600083015184820360008601526143798282613ef1565b915050602083015161438e6020860182613ed3565b5060408301516143a16040860182613dda565b5060608301516143b46060860182613dda565b5060808301516143c76080860182613dda565b5060a08301516143da60a0860182614420565b5060c08301516143ed60c0860182614420565b5060e083015161440060e0860182614420565b50610100830151614415610100860182613e6d565b508091505092915050565b61442981614ba3565b82525050565b61443881614ba3565b82525050565b600061444a8285613f63565b91506144568284613f63565b91508190509392505050565b60006020820190506144776000830184613de9565b92915050565b60006080820190506144926000830187613de9565b61449f6020830186613de9565b6144ac604083018561442f565b81810360608301526144be8184613e8b565b905095945050505050565b60006040820190506144de6000830185613de9565b6144eb602083018461442f565b9392505050565b6000602082019050818103600083015261450c8184613df8565b905092915050565b60006020820190506145296000830184613e7c565b92915050565b60006020820190506145446000830184613ec4565b92915050565b600060208201905081810360008301526145648184613f2a565b905092915050565b6000610120820190508181036000830152614587818c613f2a565b9050614596602083018b613ee2565b6145a3604083018a613de9565b6145b06060830189613de9565b6145bd6080830188613de9565b6145ca60a083018761442f565b6145d760c083018661442f565b6145e460e083018561442f565b6145f2610100830184613e7c565b9a9950505050505050505050565b6000602082019050818103600083015261461981613f94565b9050919050565b6000602082019050818103600083015261463981613fb7565b9050919050565b6000602082019050818103600083015261465981613fda565b9050919050565b6000602082019050818103600083015261467981613ffd565b9050919050565b6000602082019050818103600083015261469981614020565b9050919050565b600060208201905081810360008301526146b981614043565b9050919050565b600060208201905081810360008301526146d981614066565b9050919050565b600060208201905081810360008301526146f981614089565b9050919050565b60006020820190508181036000830152614719816140ac565b9050919050565b60006020820190508181036000830152614739816140cf565b9050919050565b60006020820190508181036000830152614759816140f2565b9050919050565b6000602082019050818103600083015261477981614115565b9050919050565b6000602082019050818103600083015261479981614138565b9050919050565b600060208201905081810360008301526147b98161415b565b9050919050565b600060208201905081810360008301526147d98161417e565b9050919050565b600060208201905081810360008301526147f9816141a1565b9050919050565b60006020820190508181036000830152614819816141c4565b9050919050565b60006020820190508181036000830152614839816141e7565b9050919050565b600060208201905081810360008301526148598161420a565b9050919050565b600060208201905081810360008301526148798161422d565b9050919050565b6000602082019050818103600083015261489981614250565b9050919050565b600060208201905081810360008301526148b981614273565b9050919050565b600060208201905081810360008301526148da818461435b565b905092915050565b60006020820190506148f7600083018461442f565b92915050565b6000614907614918565b90506149138282614c69565b919050565b6000604051905090565b600067ffffffffffffffff82111561493d5761493c614e2e565b5b61494682614e71565b9050602081019050919050565b600067ffffffffffffffff82111561496e5761496d614e2e565b5b61497782614e71565b9050602081019050919050565b6000819050602082019050919050565b600081519050919050565b600081519050919050565b600081519050919050565b6000602082019050919050565b600082825260208201905092915050565b600082825260208201905092915050565b600082825260208201905092915050565b600082825260208201905092915050565b600081905092915050565b6000614a1c82614ba3565b9150614a2783614ba3565b9250827fffffffffffffffffffffffffffffffffffffffffffffffffffffffffffffffff03821115614a5c57614a5b614d14565b5b828201905092915050565b6000614a7282614ba3565b9150614a7d83614ba3565b925082614a8d57614a8c614d43565b5b828204905092915050565b6000614aa382614ba3565b9150614aae83614ba3565b9250817fffffffffffffffffffffffffffffffffffffffffffffffffffffffffffffffff0483118215151615614ae757614ae6614d14565b5b828202905092915050565b6000614afd82614ba3565b9150614b0883614ba3565b925082821015614b1b57614b1a614d14565b5b828203905092915050565b6000614b3182614b83565b9050919050565b60008115159050919050565b60007fffffffff0000000000000000000000000000000000000000000000000000000082169050919050565b6000819050614b7e826153d0565b919050565b600073ffffffffffffffffffffffffffffffffffffffff82169050919050565b6000819050919050565b6000614bb882614bd1565b9050919050565b6000614bca82614b70565b9050919050565b6000614bdc82614be3565b9050919050565b6000614bee82614b83565b9050919050565b82818337600083830152505050565b60005b83811015614c22578082015181840152602081019050614c07565b83811115614c31576000848401525b50505050565b60006002820490506001821680614c4f57607f821691505b60208210811415614c6357614c62614da1565b5b50919050565b614c7282614e71565b810181811067ffffffffffffffff82111715614c9157614c90614e2e565b5b80604052505050565b6000614ca582614ba3565b91507fffffffffffffffffffffffffffffffffffffffffffffffffffffffffffffffff821415614cd857614cd7614d14565b5b600182019050919050565b6000614cee82614ba3565b9150614cf983614ba3565b925082614d0957614d08614d43565b5b828206905092915050565b7f4e487b7100000000000000000000000000000000000000000000000000000000600052601160045260246000fd5b7f4e487b7100000000000000000000000000000000000000000000000000000000600052601260045260246000fd5b7f4e487b7100000000000000000000000000000000000000000000000000000000600052602160045260246000fd5b7f4e487b7100000000000000000000000000000000000000000000000000000000600052602260045260246000fd5b7f4e487b7100000000000000000000000000000000000000000000000000000000600052603160045260246000fd5b7f4e487b7100000000000000000000000000000000000000000000000000000000600052603260045260246000fd5b7f4e487b7100000000000000000000000000000000000000000000000000000000600052604160045260246000fd5b600080fd5b600080fd5b600080fd5b600080fd5b6000601f19601f8301169050919050565b7f496e76616c696420616464726573730000000000000000000000000000000000600082015250565b7f496e76616c6964207461736b2073746174650000000000000000000000000000600082015250565b7f455243373231456e756d657261626c653a206f776e657220696e646578206f7560008201527f74206f6620626f756e6473000000000000000000000000000000000000000000602082015250565b7f4552433732313a207472616e7366657220746f206e6f6e20455243373231526560008201527f63656976657220696d706c656d656e7465720000000000000000000000000000602082015250565b7f43757272656e74207461736b20616c72656164792061737369676e65642e0000600082015250565b7f4552433732313a207472616e736665722066726f6d20696e636f72726563742060008201527f6f776e6572000000000000000000000000000000000000000000000000000000602082015250565b7f4552433732313a20746f6b656e20616c7265616479206d696e74656400000000600082015250565b7f4552433732313a207472616e7366657220746f20746865207a65726f2061646460008201527f7265737300000000000000000000000000000000000000000000000000000000602082015250565b7f4552433732313a20617070726f766520746f2063616c6c657200000000000000600082015250565b7f5461736b20746f6b656e2063616e6e6f74207472616e736665722e0000000000600082015250565b7f4552433732313a2061646472657373207a65726f206973206e6f74206120766160008201527f6c6964206f776e65720000000000000000000000000000000000000000000000602082015250565b7f4552433732313a20617070726f76652063616c6c6572206973206e6f7420746f60008201527f6b656e206f776e6572206e6f7220617070726f76656420666f7220616c6c0000602082015250565b7f4552433732313a206d696e7420746f20746865207a65726f2061646472657373600082015250565b7f5461736b206e6f7420666f756e64000000000000000000000000000000000000600082015250565b7f4f6e6c79206163636570746564206275696c6465722063616e2063616c6c207460008201527f6869732066756e6374696f6e0000000000000000000000000000000000000000602082015250565b7f4552433732313a20696e76616c696420746f6b656e2049440000000000000000600082015250565b7f4552433732313a20617070726f76616c20746f2063757272656e74206f776e6560008201527f7200000000000000000000000000000000000000000000000000000000000000602082015250565b7f496e636f7272656374206275696c646572206164647265737300000000000000600082015250565b7f455243373231456e756d657261626c653a20676c6f62616c20696e646578206f60008201527f7574206f6620626f756e64730000000000000000000000000000000000000000602082015250565b7f4f6e6c7920666f756e6465722063616e2063616c6c20746869732066756e637460008201527f696f6e0000000000000000000000000000000000000000000000000000000000602082015250565b7f4552433732313a2063616c6c6572206973206e6f7420746f6b656e206f776e6560008201527f72206e6f7220617070726f766564000000000000000000000000000000000000602082015250565b7f4275696c646572206e6565647320746f206163636570742063616e63656c6c6160008201527f74696f6e00000000000000000000000000000000000000000000000000000000602082015250565b600681106153e1576153e0614d72565b5b50565b6153ed81614b26565b81146153f857600080fd5b50565b61540481614b38565b811461540f57600080fd5b50565b61541b81614b44565b811461542657600080fd5b50565b61543281614ba3565b811461543d57600080fd5b5056fea2646970667358221220e4ae7314ee45fd76c662aa0a9874cdc27e2ee167019ec7677bfb240861d3a85164736f6c63430008070033",
  "linkReferences": {},
  "deployedLinkReferences": {}
}