{
  "_format": "hh-sol-artifact-1",
  "contractName": "Task",
  "sourceName": "contracts/Task.sol",
  "abi": [
    {
      "inputs": [
        {
          "internalType": "address",
          "name": "_usdc_address",
          "type": "address"
        },
        {
          "internalType": "address",
          "name": "_fndr_address",
          "type": "address"
        },
        {
          "internalType": "address",
          "name": "_profileManageAddress",
          "type": "address"
        },
        {
          "internalType": "address",
          "name": "_projectManageAddress",
          "type": "address"
        }
      ],
      "stateMutability": "nonpayable",
      "type": "constructor"
    },
    {
      "anonymous": false,
      "inputs": [
        {
          "indexed": true,
          "internalType": "address",
          "name": "owner",
          "type": "address"
        },
        {
          "indexed": true,
          "internalType": "address",
          "name": "approved",
          "type": "address"
        },
        {
          "indexed": true,
          "internalType": "uint256",
          "name": "tokenId",
          "type": "uint256"
        }
      ],
      "name": "Approval",
      "type": "event"
    },
    {
      "anonymous": false,
      "inputs": [
        {
          "indexed": true,
          "internalType": "address",
          "name": "owner",
          "type": "address"
        },
        {
          "indexed": true,
          "internalType": "address",
          "name": "operator",
          "type": "address"
        },
        {
          "indexed": false,
          "internalType": "bool",
          "name": "approved",
          "type": "bool"
        }
      ],
      "name": "ApprovalForAll",
      "type": "event"
    },
    {
      "anonymous": false,
      "inputs": [
        {
          "indexed": false,
          "internalType": "address",
          "name": "builderAddress",
          "type": "address"
        },
        {
          "indexed": false,
          "internalType": "uint256",
          "name": "taskId",
          "type": "uint256"
        }
      ],
      "name": "TaskCreated",
      "type": "event"
    },
    {
      "anonymous": false,
      "inputs": [
        {
          "indexed": true,
          "internalType": "address",
          "name": "from",
          "type": "address"
        },
        {
          "indexed": true,
          "internalType": "address",
          "name": "to",
          "type": "address"
        },
        {
          "indexed": true,
          "internalType": "uint256",
          "name": "tokenId",
          "type": "uint256"
        }
      ],
      "name": "Transfer",
      "type": "event"
    },
    {
      "inputs": [],
      "name": "FNDRtoken",
      "outputs": [
        {
          "internalType": "contract IERC20",
          "name": "",
          "type": "address"
        }
      ],
      "stateMutability": "view",
      "type": "function"
    },
    {
      "inputs": [],
      "name": "USDCtoken",
      "outputs": [
        {
          "internalType": "contract IERC20",
          "name": "",
          "type": "address"
        }
      ],
      "stateMutability": "view",
      "type": "function"
    },
    {
      "inputs": [
        {
          "internalType": "uint256",
          "name": "_taskId",
          "type": "uint256"
        }
      ],
      "name": "agreeCancellationByBuilder",
      "outputs": [],
      "stateMutability": "nonpayable",
      "type": "function"
    },
    {
      "inputs": [
        {
          "internalType": "address",
          "name": "to",
          "type": "address"
        },
        {
          "internalType": "uint256",
          "name": "tokenId",
          "type": "uint256"
        }
      ],
      "name": "approve",
      "outputs": [],
      "stateMutability": "nonpayable",
      "type": "function"
    },
    {
      "inputs": [
        {
          "internalType": "address",
          "name": "owner",
          "type": "address"
        }
      ],
      "name": "balanceOf",
      "outputs": [
        {
          "internalType": "uint256",
          "name": "",
          "type": "uint256"
        }
      ],
      "stateMutability": "view",
      "type": "function"
    },
    {
      "inputs": [
        {
          "internalType": "uint256",
          "name": "_taskId",
          "type": "uint256"
        }
      ],
      "name": "cancelTask",
      "outputs": [],
      "stateMutability": "nonpayable",
      "type": "function"
    },
    {
      "inputs": [
        {
          "internalType": "uint256",
          "name": "_taskId",
          "type": "uint256"
        }
      ],
      "name": "checkTaskId",
      "outputs": [
        {
          "internalType": "bool",
          "name": "",
          "type": "bool"
        }
      ],
      "stateMutability": "view",
      "type": "function"
    },
    {
      "inputs": [
        {
          "internalType": "uint256",
          "name": "_taskId",
          "type": "uint256"
        },
        {
          "internalType": "uint256",
          "name": "_amount",
          "type": "uint256"
        }
      ],
      "name": "commitToTask",
      "outputs": [],
      "stateMutability": "nonpayable",
      "type": "function"
    },
    {
      "inputs": [
        {
          "internalType": "uint256",
          "name": "_taskId",
          "type": "uint256"
        }
      ],
      "name": "completeTask",
      "outputs": [],
      "stateMutability": "nonpayable",
      "type": "function"
    },
    {
      "inputs": [
        {
          "internalType": "address",
          "name": "_projectAddress",
          "type": "address"
        },
        {
          "internalType": "address",
          "name": "_builderAddress",
          "type": "address"
        },
        {
          "internalType": "string",
          "name": "_name",
          "type": "string"
        },
        {
          "internalType": "uint256",
          "name": "_usdc",
          "type": "uint256"
        },
        {
          "internalType": "uint256",
          "name": "_xp",
          "type": "uint256"
        }
      ],
      "name": "createTask",
      "outputs": [],
      "stateMutability": "nonpayable",
      "type": "function"
    },
    {
      "inputs": [
        {
          "internalType": "uint256",
          "name": "tokenId",
          "type": "uint256"
        }
      ],
      "name": "getApproved",
      "outputs": [
        {
          "internalType": "address",
          "name": "",
          "type": "address"
        }
      ],
      "stateMutability": "view",
      "type": "function"
    },
    {
      "inputs": [
        {
          "internalType": "address",
          "name": "_builderAddress",
          "type": "address"
        }
      ],
      "name": "getBuilderTasks",
      "outputs": [
        {
          "components": [
            {
              "internalType": "string",
              "name": "name",
              "type": "string"
            },
            {
              "internalType": "enum Task.State",
              "name": "currentState",
              "type": "uint8"
            },
            {
              "internalType": "address",
              "name": "projectAddress",
              "type": "address"
            },
            {
              "internalType": "address",
              "name": "founderAddress",
              "type": "address"
            },
            {
              "internalType": "address",
              "name": "builderAddress",
              "type": "address"
            },
            {
              "internalType": "uint256",
              "name": "usdc_amount",
              "type": "uint256"
            },
            {
              "internalType": "uint256",
              "name": "fndr_amount",
              "type": "uint256"
            },
            {
              "internalType": "uint256",
              "name": "xp",
              "type": "uint256"
            },
            {
              "internalType": "bool",
              "name": "isBuilderAgreed",
              "type": "bool"
            }
          ],
          "internalType": "struct Task.TaskInfo[]",
          "name": "",
          "type": "tuple[]"
        }
      ],
      "stateMutability": "view",
      "type": "function"
    },
    {
      "inputs": [
        {
          "internalType": "uint256",
          "name": "_tokenId",
          "type": "uint256"
        }
      ],
      "name": "getTaskById",
      "outputs": [
        {
          "components": [
            {
              "internalType": "string",
              "name": "name",
              "type": "string"
            },
            {
              "internalType": "enum Task.State",
              "name": "currentState",
              "type": "uint8"
            },
            {
              "internalType": "address",
              "name": "projectAddress",
              "type": "address"
            },
            {
              "internalType": "address",
              "name": "founderAddress",
              "type": "address"
            },
            {
              "internalType": "address",
              "name": "builderAddress",
              "type": "address"
            },
            {
              "internalType": "uint256",
              "name": "usdc_amount",
              "type": "uint256"
            },
            {
              "internalType": "uint256",
              "name": "fndr_amount",
              "type": "uint256"
            },
            {
              "internalType": "uint256",
              "name": "xp",
              "type": "uint256"
            },
            {
              "internalType": "bool",
              "name": "isBuilderAgreed",
              "type": "bool"
            }
          ],
          "internalType": "struct Task.TaskInfo",
          "name": "",
          "type": "tuple"
        }
      ],
      "stateMutability": "view",
      "type": "function"
    },
    {
      "inputs": [
        {
          "internalType": "uint256",
          "name": "",
          "type": "uint256"
        }
      ],
      "name": "idToTask",
      "outputs": [
        {
          "internalType": "string",
          "name": "name",
          "type": "string"
        },
        {
          "internalType": "enum Task.State",
          "name": "currentState",
          "type": "uint8"
        },
        {
          "internalType": "address",
          "name": "projectAddress",
          "type": "address"
        },
        {
          "internalType": "address",
          "name": "founderAddress",
          "type": "address"
        },
        {
          "internalType": "address",
          "name": "builderAddress",
          "type": "address"
        },
        {
          "internalType": "uint256",
          "name": "usdc_amount",
          "type": "uint256"
        },
        {
          "internalType": "uint256",
          "name": "fndr_amount",
          "type": "uint256"
        },
        {
          "internalType": "uint256",
          "name": "xp",
          "type": "uint256"
        },
        {
          "internalType": "bool",
          "name": "isBuilderAgreed",
          "type": "bool"
        }
      ],
      "stateMutability": "view",
      "type": "function"
    },
    {
      "inputs": [
        {
          "internalType": "address",
          "name": "owner",
          "type": "address"
        },
        {
          "internalType": "address",
          "name": "operator",
          "type": "address"
        }
      ],
      "name": "isApprovedForAll",
      "outputs": [
        {
          "internalType": "bool",
          "name": "",
          "type": "bool"
        }
      ],
      "stateMutability": "view",
      "type": "function"
    },
    {
      "inputs": [],
      "name": "name",
      "outputs": [
        {
          "internalType": "string",
          "name": "",
          "type": "string"
        }
      ],
      "stateMutability": "view",
      "type": "function"
    },
    {
      "inputs": [
        {
          "internalType": "uint256",
          "name": "tokenId",
          "type": "uint256"
        }
      ],
      "name": "ownerOf",
      "outputs": [
        {
          "internalType": "address",
          "name": "",
          "type": "address"
        }
      ],
      "stateMutability": "view",
      "type": "function"
    },
    {
      "inputs": [
        {
          "internalType": "address",
          "name": "from",
          "type": "address"
        },
        {
          "internalType": "address",
          "name": "to",
          "type": "address"
        },
        {
          "internalType": "uint256",
          "name": "tokenId",
          "type": "uint256"
        }
      ],
      "name": "safeTransferFrom",
      "outputs": [],
      "stateMutability": "nonpayable",
      "type": "function"
    },
    {
      "inputs": [
        {
          "internalType": "address",
          "name": "from",
          "type": "address"
        },
        {
          "internalType": "address",
          "name": "to",
          "type": "address"
        },
        {
          "internalType": "uint256",
          "name": "tokenId",
          "type": "uint256"
        },
        {
          "internalType": "bytes",
          "name": "data",
          "type": "bytes"
        }
      ],
      "name": "safeTransferFrom",
      "outputs": [],
      "stateMutability": "nonpayable",
      "type": "function"
    },
    {
      "inputs": [
        {
          "internalType": "address",
          "name": "operator",
          "type": "address"
        },
        {
          "internalType": "bool",
          "name": "approved",
          "type": "bool"
        }
      ],
      "name": "setApprovalForAll",
      "outputs": [],
      "stateMutability": "nonpayable",
      "type": "function"
    },
    {
      "inputs": [
        {
          "internalType": "bytes4",
          "name": "interfaceId",
          "type": "bytes4"
        }
      ],
      "name": "supportsInterface",
      "outputs": [
        {
          "internalType": "bool",
          "name": "",
          "type": "bool"
        }
      ],
      "stateMutability": "view",
      "type": "function"
    },
    {
      "inputs": [],
      "name": "symbol",
      "outputs": [
        {
          "internalType": "string",
          "name": "",
          "type": "string"
        }
      ],
      "stateMutability": "view",
      "type": "function"
    },
    {
      "inputs": [
        {
          "internalType": "uint256",
          "name": "index",
          "type": "uint256"
        }
      ],
      "name": "tokenByIndex",
      "outputs": [
        {
          "internalType": "uint256",
          "name": "",
          "type": "uint256"
        }
      ],
      "stateMutability": "view",
      "type": "function"
    },
    {
      "inputs": [
        {
          "internalType": "address",
          "name": "owner",
          "type": "address"
        },
        {
          "internalType": "uint256",
          "name": "index",
          "type": "uint256"
        }
      ],
      "name": "tokenOfOwnerByIndex",
      "outputs": [
        {
          "internalType": "uint256",
          "name": "",
          "type": "uint256"
        }
      ],
      "stateMutability": "view",
      "type": "function"
    },
    {
      "inputs": [
        {
          "internalType": "uint256",
          "name": "tokenId",
          "type": "uint256"
        }
      ],
      "name": "tokenURI",
      "outputs": [
        {
          "internalType": "string",
          "name": "",
          "type": "string"
        }
      ],
      "stateMutability": "view",
      "type": "function"
    },
    {
      "inputs": [],
      "name": "totalSupply",
      "outputs": [
        {
          "internalType": "uint256",
          "name": "",
          "type": "uint256"
        }
      ],
      "stateMutability": "view",
      "type": "function"
    },
    {
      "inputs": [
        {
          "internalType": "address",
          "name": "from",
          "type": "address"
        },
        {
          "internalType": "address",
          "name": "to",
          "type": "address"
        },
        {
          "internalType": "uint256",
          "name": "tokenId",
          "type": "uint256"
        }
      ],
      "name": "transferFrom",
      "outputs": [],
      "stateMutability": "nonpayable",
      "type": "function"
    }
  ],
  "bytecode": "0x6080604052735ee8d1b65942116da65700849d65cc839e38cc5e600c60006101000a81548173ffffffffffffffffffffffffffffffffffffffff021916908373ffffffffffffffffffffffffffffffffffffffff16021790555073b5c051088e47d8d69824bac79499f90042341d02600d60006101000a81548173ffffffffffffffffffffffffffffffffffffffff021916908373ffffffffffffffffffffffffffffffffffffffff1602179055507364e92a7b43f4395f8c731b8932c9677a829f642b600e60006101000a81548173ffffffffffffffffffffffffffffffffffffffff021916908373ffffffffffffffffffffffffffffffffffffffff1602179055506001600e60146101000a81548160ff0219169083151502179055503480156200012b57600080fd5b5060405162005e2638038062005e268339818101604052810190620001519190620003c6565b6040518060400160405280600c81526020017f4275696c646572205461736b00000000000000000000000000000000000000008152506040518060400160405280600481526020017f5461736b000000000000000000000000000000000000000000000000000000008152508160009080519060200190620001d5929190620002ff565b508060019080519060200190620001ee929190620002ff565b50505083600a60006101000a81548173ffffffffffffffffffffffffffffffffffffffff021916908373ffffffffffffffffffffffffffffffffffffffff16021790555082600b60006101000a81548173ffffffffffffffffffffffffffffffffffffffff021916908373ffffffffffffffffffffffffffffffffffffffff16021790555081600d60006101000a81548173ffffffffffffffffffffffffffffffffffffffff021916908373ffffffffffffffffffffffffffffffffffffffff16021790555080600e60006101000a81548173ffffffffffffffffffffffffffffffffffffffff021916908373ffffffffffffffffffffffffffffffffffffffff16021790555050505050620004f0565b8280546200030d906200046c565b90600052602060002090601f0160209004810192826200033157600085556200037d565b82601f106200034c57805160ff19168380011785556200037d565b828001600101855582156200037d579182015b828111156200037c5782518255916020019190600101906200035f565b5b5090506200038c919062000390565b5090565b5b80821115620003ab57600081600090555060010162000391565b5090565b600081519050620003c081620004d6565b92915050565b60008060008060808587031215620003e357620003e2620004d1565b5b6000620003f387828801620003af565b94505060206200040687828801620003af565b93505060406200041987828801620003af565b92505060606200042c87828801620003af565b91505092959194509250565b600062000445826200044c565b9050919050565b600073ffffffffffffffffffffffffffffffffffffffff82169050919050565b600060028204905060018216806200048557607f821691505b602082108114156200049c576200049b620004a2565b5b50919050565b7f4e487b7100000000000000000000000000000000000000000000000000000000600052602260045260246000fd5b600080fd5b620004e18162000438565b8114620004ed57600080fd5b50565b61592680620005006000396000f3fe608060405234801561001057600080fd5b50600436106101a95760003560e01c80636352211e116100f9578063a22cb46511610097578063c87b56dd11610071578063c87b56dd1461050c578063cb339ae61461053c578063e1e2955814610558578063e985e9c514610574576101a9565b8063a22cb465146104b8578063b88d4fde146104d4578063c7945cff146104f0576101a9565b80637eec20a8116100d35780637eec20a81461041e5780638c02263b1461043a57806395d89b411461046a578063976217cd14610488576101a9565b80636352211e146103a057806370a08231146103d057806372d91c8d14610400576101a9565b806323b872dd116101665780634185e507116101405780634185e5071461030657806342842e0e146103245780634338eb87146103405780634f6ccce714610370576101a9565b806323b872dd1461029e5780632eafc530146102ba5780632f745c59146102d6576101a9565b806301ffc9a7146101ae57806306fdde03146101de578063081812fc146101fc578063095ea7b31461022c57806318160ddd146102485780631c8187a614610266575b600080fd5b6101c860048036038101906101c39190613f8a565b6105a4565b6040516101d5919061486c565b60405180910390f35b6101e661061e565b6040516101f391906148a2565b60405180910390f35b61021660048036038101906102119190613fe4565b6106b0565b6040516102239190614783565b60405180910390f35b61024660048036038101906102419190613ed4565b6106f6565b005b61025061080e565b60405161025d9190614c9a565b60405180910390f35b610280600480360381019061027b9190613fe4565b61081b565b604051610295999897969594939291906148c4565b60405180910390f35b6102b860048036038101906102b39190613dbe565b61096b565b005b6102d460048036038101906102cf9190613fe4565b6109cb565b005b6102f060048036038101906102eb9190613ed4565b610b75565b6040516102fd9190614c9a565b60405180910390f35b61030e610c1a565b60405161031b9190614887565b60405180910390f35b61033e60048036038101906103399190613dbe565b610c40565b005b61035a60048036038101906103559190613c8d565b610c60565b604051610367919061484a565b60405180910390f35b61038a60048036038101906103859190613fe4565b6110c0565b6040516103979190614c9a565b60405180910390f35b6103ba60048036038101906103b59190613fe4565b611131565b6040516103c79190614783565b60405180910390f35b6103ea60048036038101906103e59190613c8d565b6111e3565b6040516103f79190614c9a565b60405180910390f35b61040861129b565b6040516104159190614887565b60405180910390f35b61043860048036038101906104339190613fe4565b6112c1565b005b610454600480360381019061044f9190613fe4565b6114ed565b604051610461919061486c565b60405180910390f35b6104726114ff565b60405161047f91906148a2565b60405180910390f35b6104a2600480360381019061049d9190613fe4565b611591565b6040516104af9190614c78565b60405180910390f35b6104d260048036038101906104cd9190613e94565b611811565b005b6104ee60048036038101906104e99190613e11565b611827565b005b61050a6004803603810190610505919061403e565b611889565b005b61052660048036038101906105219190613fe4565b611be3565b60405161053391906148a2565b60405180910390f35b61055660048036038101906105519190613d27565b611c4b565b005b610572600480360381019061056d9190613fe4565b61230a565b005b61058e60048036038101906105899190613ce7565b6126fc565b60405161059b919061486c565b60405180910390f35b60007f780e9d63000000000000000000000000000000000000000000000000000000007bffffffffffffffffffffffffffffffffffffffffffffffffffffffff1916827bffffffffffffffffffffffffffffffffffffffffffffffffffffffff19161480610617575061061682612790565b5b9050919050565b60606000805461062d9061501b565b80601f01602080910402602001604051908101604052809291908181526020018280546106599061501b565b80156106a65780601f1061067b576101008083540402835291602001916106a6565b820191906000526020600020905b81548152906001019060200180831161068957829003601f168201915b5050505050905090565b60006106bb82612872565b6004600083815260200190815260200160002060009054906101000a900473ffffffffffffffffffffffffffffffffffffffff169050919050565b600061070182611131565b90508073ffffffffffffffffffffffffffffffffffffffff168373ffffffffffffffffffffffffffffffffffffffff161415610772576040517f08c379a000000000000000000000000000000000000000000000000000000000815260040161076990614c18565b60405180910390fd5b8073ffffffffffffffffffffffffffffffffffffffff166107916128bd565b73ffffffffffffffffffffffffffffffffffffffff1614806107c057506107bf816107ba6128bd565b6126fc565b5b6107ff576040517f08c379a00000000000000000000000000000000000000000000000000000000081526004016107f690614b18565b60405180910390fd5b61080983836128c5565b505050565b6000600880549050905090565b600f60205280600052604060002060009150905080600001805461083e9061501b565b80601f016020809104026020016040519081016040528092919081815260200182805461086a9061501b565b80156108b75780601f1061088c576101008083540402835291602001916108b7565b820191906000526020600020905b81548152906001019060200180831161089a57829003601f168201915b5050505050908060010160009054906101000a900460ff16908060010160019054906101000a900473ffffffffffffffffffffffffffffffffffffffff16908060020160009054906101000a900473ffffffffffffffffffffffffffffffffffffffff16908060030160009054906101000a900473ffffffffffffffffffffffffffffffffffffffff16908060040154908060050154908060060154908060070160009054906101000a900460ff16905089565b61097c6109766128bd565b8261297e565b6109bb576040517f08c379a00000000000000000000000000000000000000000000000000000000081526004016109b290614c58565b60405180910390fd5b6109c6838383612a13565b505050565b806109d581612c7a565b610a14576040517f08c379a0000000000000000000000000000000000000000000000000000000008152600401610a0b90614b98565b60405180910390fd5b3373ffffffffffffffffffffffffffffffffffffffff16600f600084815260200190815260200160002060030160009054906101000a900473ffffffffffffffffffffffffffffffffffffffff1673ffffffffffffffffffffffffffffffffffffffff1614610ab8576040517f08c379a0000000000000000000000000000000000000000000000000000000008152600401610aaf90614a78565b60405180910390fd5b60006004811115610acc57610acb615156565b5b600f600084815260200190815260200160002060010160009054906101000a900460ff166004811115610b0257610b01615156565b5b14610b42576040517f08c379a0000000000000000000000000000000000000000000000000000000008152600401610b3990614978565b60405180910390fd5b6001600f600084815260200190815260200160002060070160006101000a81548160ff0219169083151502179055505050565b6000610b80836111e3565b8210610bc1576040517f08c379a0000000000000000000000000000000000000000000000000000000008152600401610bb890614998565b60405180910390fd5b600660008473ffffffffffffffffffffffffffffffffffffffff1673ffffffffffffffffffffffffffffffffffffffff168152602001908152602001600020600083815260200190815260200160002054905092915050565b600a60009054906101000a900473ffffffffffffffffffffffffffffffffffffffff1681565b610c5b83838360405180602001604052806000815250611827565b505050565b6060600073ffffffffffffffffffffffffffffffffffffffff168273ffffffffffffffffffffffffffffffffffffffff161415610cd2576040517f08c379a0000000000000000000000000000000000000000000000000000000008152600401610cc990614958565b60405180910390fd5b600080600190505b610ce261080e565b8111610d74578373ffffffffffffffffffffffffffffffffffffffff16600f600083815260200190815260200160002060030160009054906101000a900473ffffffffffffffffffffffffffffffffffffffff1673ffffffffffffffffffffffffffffffffffffffff161415610d61578180610d5d9061507e565b9250505b8080610d6c9061507e565b915050610cda565b5060008167ffffffffffffffff811115610d9157610d90615212565b5b604051908082528060200260200182016040528015610dca57816020015b610db7613922565b815260200190600190039081610daf5790505b509050600080600190505b610ddd61080e565b81116110b4578573ffffffffffffffffffffffffffffffffffffffff16600f600083815260200190815260200160002060030160009054906101000a900473ffffffffffffffffffffffffffffffffffffffff1673ffffffffffffffffffffffffffffffffffffffff1614156110a157600f600082815260200190815260200160002060405180610120016040529081600082018054610e7c9061501b565b80601f0160208091040260200160405190810160405280929190818152602001828054610ea89061501b565b8015610ef55780601f10610eca57610100808354040283529160200191610ef5565b820191906000526020600020905b815481529060010190602001808311610ed857829003601f168201915b505050505081526020016001820160009054906101000a900460ff166004811115610f2357610f22615156565b5b6004811115610f3557610f34615156565b5b81526020016001820160019054906101000a900473ffffffffffffffffffffffffffffffffffffffff1673ffffffffffffffffffffffffffffffffffffffff1673ffffffffffffffffffffffffffffffffffffffff1681526020016002820160009054906101000a900473ffffffffffffffffffffffffffffffffffffffff1673ffffffffffffffffffffffffffffffffffffffff1673ffffffffffffffffffffffffffffffffffffffff1681526020016003820160009054906101000a900473ffffffffffffffffffffffffffffffffffffffff1673ffffffffffffffffffffffffffffffffffffffff1673ffffffffffffffffffffffffffffffffffffffff1681526020016004820154815260200160058201548152602001600682015481526020016007820160009054906101000a900460ff161515151581525050838381518110611087576110866151e3565b5b6020026020010181905250818061109d9061507e565b9250505b80806110ac9061507e565b915050610dd5565b50819350505050919050565b60006110ca61080e565b821061110b576040517f08c379a000000000000000000000000000000000000000000000000000000000815260040161110290614c38565b60405180910390fd5b6008828154811061111f5761111e6151e3565b5b90600052602060002001549050919050565b6000806002600084815260200190815260200160002060009054906101000a900473ffffffffffffffffffffffffffffffffffffffff169050600073ffffffffffffffffffffffffffffffffffffffff168173ffffffffffffffffffffffffffffffffffffffff1614156111da576040517f08c379a00000000000000000000000000000000000000000000000000000000081526004016111d190614bf8565b60405180910390fd5b80915050919050565b60008073ffffffffffffffffffffffffffffffffffffffff168273ffffffffffffffffffffffffffffffffffffffff161415611254576040517f08c379a000000000000000000000000000000000000000000000000000000000815260040161124b90614af8565b60405180910390fd5b600360008373ffffffffffffffffffffffffffffffffffffffff1673ffffffffffffffffffffffffffffffffffffffff168152602001908152602001600020549050919050565b600b60009054906101000a900473ffffffffffffffffffffffffffffffffffffffff1681565b806112cb81612c7a565b61130a576040517f08c379a000000000000000000000000000000000000000000000000000000000815260040161130190614b98565b60405180910390fd5b3373ffffffffffffffffffffffffffffffffffffffff16600f600084815260200190815260200160002060020160009054906101000a900473ffffffffffffffffffffffffffffffffffffffff1673ffffffffffffffffffffffffffffffffffffffff16146113ae576040517f08c379a00000000000000000000000000000000000000000000000000000000081526004016113a590614bd8565b60405180910390fd5b600a60009054906101000a900473ffffffffffffffffffffffffffffffffffffffff1673ffffffffffffffffffffffffffffffffffffffff1663a9059cbb600f600085815260200190815260200160002060010160019054906101000a900473ffffffffffffffffffffffffffffffffffffffff16600f6000868152602001908152602001600020600401546040518363ffffffff1660e01b8152600401611457929190614821565b602060405180830381600087803b15801561147157600080fd5b505af1158015611485573d6000803e3d6000fd5b505050506040513d601f19601f820116820180604052508101906114a99190613f5d565b506004600f600084815260200190815260200160002060010160006101000a81548160ff021916908360048111156114e4576114e3615156565b5b02179055505050565b60006114f882612c7a565b9050919050565b60606001805461150e9061501b565b80601f016020809104026020016040519081016040528092919081815260200182805461153a9061501b565b80156115875780601f1061155c57610100808354040283529160200191611587565b820191906000526020600020905b81548152906001019060200180831161156a57829003601f168201915b5050505050905090565b611599613922565b816115a381612c7a565b6115e2576040517f08c379a00000000000000000000000000000000000000000000000000000000081526004016115d990614b98565b60405180910390fd5b600f6000848152602001908152602001600020604051806101200160405290816000820180546116119061501b565b80601f016020809104026020016040519081016040528092919081815260200182805461163d9061501b565b801561168a5780601f1061165f5761010080835404028352916020019161168a565b820191906000526020600020905b81548152906001019060200180831161166d57829003601f168201915b505050505081526020016001820160009054906101000a900460ff1660048111156116b8576116b7615156565b5b60048111156116ca576116c9615156565b5b81526020016001820160019054906101000a900473ffffffffffffffffffffffffffffffffffffffff1673ffffffffffffffffffffffffffffffffffffffff1673ffffffffffffffffffffffffffffffffffffffff1681526020016002820160009054906101000a900473ffffffffffffffffffffffffffffffffffffffff1673ffffffffffffffffffffffffffffffffffffffff1673ffffffffffffffffffffffffffffffffffffffff1681526020016003820160009054906101000a900473ffffffffffffffffffffffffffffffffffffffff1673ffffffffffffffffffffffffffffffffffffffff1673ffffffffffffffffffffffffffffffffffffffff1681526020016004820154815260200160058201548152602001600682015481526020016007820160009054906101000a900460ff161515151581525050915050919050565b61182361181c6128bd565b8383612ce6565b5050565b6118386118326128bd565b8361297e565b611877576040517f08c379a000000000000000000000000000000000000000000000000000000000815260040161186e90614c58565b60405180910390fd5b61188384848484612e53565b50505050565b8161189381612c7a565b6118d2576040517f08c379a00000000000000000000000000000000000000000000000000000000081526004016118c990614b98565b60405180910390fd5b3373ffffffffffffffffffffffffffffffffffffffff16600f600085815260200190815260200160002060030160009054906101000a900473ffffffffffffffffffffffffffffffffffffffff1673ffffffffffffffffffffffffffffffffffffffff1614611976576040517f08c379a000000000000000000000000000000000000000000000000000000000815260040161196d90614b78565b60405180910390fd5b6000600481111561198a57611989615156565b5b600f600085815260200190815260200160002060010160009054906101000a900460ff1660048111156119c0576119bf615156565b5b14611a00576040517f08c379a00000000000000000000000000000000000000000000000000000000081526004016119f790614978565b60405180910390fd5b81600b60009054906101000a900473ffffffffffffffffffffffffffffffffffffffff1673ffffffffffffffffffffffffffffffffffffffff166370a08231336040518263ffffffff1660e01b8152600401611a5c9190614783565b60206040518083038186803b158015611a7457600080fd5b505afa158015611a88573d6000803e3d6000fd5b505050506040513d601f19601f82011682018060405250810190611aac9190614011565b1015611aed576040517f08c379a0000000000000000000000000000000000000000000000000000000008152600401611ae490614a18565b60405180910390fd5b600b60009054906101000a900473ffffffffffffffffffffffffffffffffffffffff1673ffffffffffffffffffffffffffffffffffffffff166323b872dd3330856040518463ffffffff1660e01b8152600401611b4c9392919061479e565b602060405180830381600087803b158015611b6657600080fd5b505af1158015611b7a573d6000803e3d6000fd5b505050506040513d601f19601f82011682018060405250810190611b9e9190613f5d565b506002600f600085815260200190815260200160002060010160006101000a81548160ff02191690836004811115611bd957611bd8615156565b5b0217905550505050565b6060611bee82612872565b6000611bf8612eaf565b90506000815111611c185760405180602001604052806000815250611c43565b80611c2284612ec6565b604051602001611c3392919061475f565b6040516020818303038152906040525b915050919050565b848260008273ffffffffffffffffffffffffffffffffffffffff1663235eee1d6040518163ffffffff1660e01b815260040160206040518083038186803b158015611c9557600080fd5b505afa158015611ca9573d6000803e3d6000fd5b505050506040513d601f19601f82011682018060405250810190611ccd9190614011565b905060008373ffffffffffffffffffffffffffffffffffffffff1663bcd148056040518163ffffffff1660e01b815260040160006040518083038186803b158015611d1757600080fd5b505afa158015611d2b573d6000803e3d6000fd5b505050506040513d6000823e3d601f19601f82011682018060405250810190611d549190613f14565b90506000805b8251811015611db457600f6000848381518110611d7a57611d796151e3565b5b602002602001015181526020019081526020016000206004015482611d9f9190614df5565b91508080611dac9061507e565b915050611d5a565b50838184611dc29190614ed6565b1015611e03576040517f08c379a0000000000000000000000000000000000000000000000000000000008152600401611dfa90614b58565b60405180910390fd5b896000600e60009054906101000a900473ffffffffffffffffffffffffffffffffffffffff1673ffffffffffffffffffffffffffffffffffffffff166323a30b23836040518263ffffffff1660e01b8152600401611e619190614783565b60206040518083038186803b158015611e7957600080fd5b505afa158015611e8d573d6000803e3d6000fd5b505050506040513d601f19601f82011682018060405250810190611eb19190613cba565b90503373ffffffffffffffffffffffffffffffffffffffff168173ffffffffffffffffffffffffffffffffffffffff1614611f21576040517f08c379a0000000000000000000000000000000000000000000000000000000008152600401611f1890614bb8565b60405180910390fd5b6000600d60009054906101000a900473ffffffffffffffffffffffffffffffffffffffff1673ffffffffffffffffffffffffffffffffffffffff1663593c6e0d8d6040518263ffffffff1660e01b8152600401611f7e9190614783565b60206040518083038186803b158015611f9657600080fd5b505afa158015611faa573d6000803e3d6000fd5b505050506040513d601f19601f82011682018060405250810190611fce9190613cba565b9050600073ffffffffffffffffffffffffffffffffffffffff168173ffffffffffffffffffffffffffffffffffffffff161415612040576040517f08c379a000000000000000000000000000000000000000000000000000000000815260040161203790614a38565b60405180910390fd5b6000600e60146101000a81548160ff021916908315150217905550600061206561080e565b905061207d8d6001836120789190614df5565b613027565b6040518061012001604052808d8152602001600060048111156120a3576120a2615156565b5b81526020018f73ffffffffffffffffffffffffffffffffffffffff1681526020018e73ffffffffffffffffffffffffffffffffffffffff168152602001600073ffffffffffffffffffffffffffffffffffffffff1681526020018c8152602001600081526020018b815260200160001515815250600f60006001846121289190614df5565b815260200190815260200160002060008201518160000190805190602001906121529291906139c4565b5060208201518160010160006101000a81548160ff0219169083600481111561217e5761217d615156565b5b021790555060408201518160010160016101000a81548173ffffffffffffffffffffffffffffffffffffffff021916908373ffffffffffffffffffffffffffffffffffffffff16021790555060608201518160020160006101000a81548173ffffffffffffffffffffffffffffffffffffffff021916908373ffffffffffffffffffffffffffffffffffffffff16021790555060808201518160030160006101000a81548173ffffffffffffffffffffffffffffffffffffffff021916908373ffffffffffffffffffffffffffffffffffffffff16021790555060a0820151816004015560c0820151816005015560e082015181600601556101008201518160070160006101000a81548160ff0219169083151502179055509050506001600e60146101000a81548160ff0219169083151502179055507fb1c0ef93ef5afc0800a5789b004fdaf5931873276c7ccb409e7d1a310906886a8d6001836122e49190614df5565b6040516122f2929190614821565b60405180910390a15050505050505050505050505050565b61231381612c7a565b612352576040517f08c379a000000000000000000000000000000000000000000000000000000000815260040161234990614b98565b60405180910390fd5b3373ffffffffffffffffffffffffffffffffffffffff16600f600083815260200190815260200160002060020160009054906101000a900473ffffffffffffffffffffffffffffffffffffffff1673ffffffffffffffffffffffffffffffffffffffff16146123f6576040517f08c379a00000000000000000000000000000000000000000000000000000000081526004016123ed90614a58565b60405180910390fd5b6000600d60009054906101000a900473ffffffffffffffffffffffffffffffffffffffff1673ffffffffffffffffffffffffffffffffffffffff1663593c6e0d600f600085815260200190815260200160002060030160009054906101000a900473ffffffffffffffffffffffffffffffffffffffff166040518263ffffffff1660e01b81526004016124899190614783565b60206040518083038186803b1580156124a157600080fd5b505afa1580156124b5573d6000803e3d6000fd5b505050506040513d601f19601f820116820180604052508101906124d99190613cba565b9050600a60009054906101000a900473ffffffffffffffffffffffffffffffffffffffff1673ffffffffffffffffffffffffffffffffffffffff1663a9059cbb826064605f600f60008881526020019081526020016000206004015461253f9190614e7c565b6125499190614e4b565b6040518363ffffffff1660e01b8152600401612566929190614821565b602060405180830381600087803b15801561258057600080fd5b505af1158015612594573d6000803e3d6000fd5b505050506040513d601f19601f820116820180604052508101906125b89190613f5d565b50600a60009054906101000a900473ffffffffffffffffffffffffffffffffffffffff1673ffffffffffffffffffffffffffffffffffffffff1663a9059cbb600c60009054906101000a900473ffffffffffffffffffffffffffffffffffffffff1660646005600f60008881526020019081526020016000206004015461263f9190614e7c565b6126499190614e4b565b6040518363ffffffff1660e01b8152600401612666929190614821565b602060405180830381600087803b15801561268057600080fd5b505af1158015612694573d6000803e3d6000fd5b505050506040513d601f19601f820116820180604052508101906126b89190613f5d565b506003600f600084815260200190815260200160002060010160006101000a81548160ff021916908360048111156126f3576126f2615156565b5b02179055505050565b6000600560008473ffffffffffffffffffffffffffffffffffffffff1673ffffffffffffffffffffffffffffffffffffffff16815260200190815260200160002060008373ffffffffffffffffffffffffffffffffffffffff1673ffffffffffffffffffffffffffffffffffffffff16815260200190815260200160002060009054906101000a900460ff16905092915050565b60007f80ac58cd000000000000000000000000000000000000000000000000000000007bffffffffffffffffffffffffffffffffffffffffffffffffffffffff1916827bffffffffffffffffffffffffffffffffffffffffffffffffffffffff1916148061285b57507f5b5e139f000000000000000000000000000000000000000000000000000000007bffffffffffffffffffffffffffffffffffffffffffffffffffffffff1916827bffffffffffffffffffffffffffffffffffffffffffffffffffffffff1916145b8061286b575061286a82613045565b5b9050919050565b61287b81612c7a565b6128ba576040517f08c379a00000000000000000000000000000000000000000000000000000000081526004016128b190614bf8565b60405180910390fd5b50565b600033905090565b816004600083815260200190815260200160002060006101000a81548173ffffffffffffffffffffffffffffffffffffffff021916908373ffffffffffffffffffffffffffffffffffffffff160217905550808273ffffffffffffffffffffffffffffffffffffffff1661293883611131565b73ffffffffffffffffffffffffffffffffffffffff167f8c5be1e5ebec7d5bd14f71427d1e84f3dd0314c0f7b2291e5b200ac8c7c3b92560405160405180910390a45050565b60008061298a83611131565b90508073ffffffffffffffffffffffffffffffffffffffff168473ffffffffffffffffffffffffffffffffffffffff1614806129cc57506129cb81856126fc565b5b80612a0a57508373ffffffffffffffffffffffffffffffffffffffff166129f2846106b0565b73ffffffffffffffffffffffffffffffffffffffff16145b91505092915050565b8273ffffffffffffffffffffffffffffffffffffffff16612a3382611131565b73ffffffffffffffffffffffffffffffffffffffff1614612a89576040517f08c379a0000000000000000000000000000000000000000000000000000000008152600401612a80906149d8565b60405180910390fd5b600073ffffffffffffffffffffffffffffffffffffffff168273ffffffffffffffffffffffffffffffffffffffff161415612af9576040517f08c379a0000000000000000000000000000000000000000000000000000000008152600401612af090614a98565b60405180910390fd5b612b048383836130af565b612b0f6000826128c5565b6001600360008573ffffffffffffffffffffffffffffffffffffffff1673ffffffffffffffffffffffffffffffffffffffff1681526020019081526020016000206000828254612b5f9190614ed6565b925050819055506001600360008473ffffffffffffffffffffffffffffffffffffffff1673ffffffffffffffffffffffffffffffffffffffff1681526020019081526020016000206000828254612bb69190614df5565b92505081905550816002600083815260200190815260200160002060006101000a81548173ffffffffffffffffffffffffffffffffffffffff021916908373ffffffffffffffffffffffffffffffffffffffff160217905550808273ffffffffffffffffffffffffffffffffffffffff168473ffffffffffffffffffffffffffffffffffffffff167fddf252ad1be2c89b69c2b068fc378daa952ba7f163c4a11628f55a4df523b3ef60405160405180910390a4612c7583838361310f565b505050565b60008073ffffffffffffffffffffffffffffffffffffffff166002600084815260200190815260200160002060009054906101000a900473ffffffffffffffffffffffffffffffffffffffff1673ffffffffffffffffffffffffffffffffffffffff1614159050919050565b8173ffffffffffffffffffffffffffffffffffffffff168373ffffffffffffffffffffffffffffffffffffffff161415612d55576040517f08c379a0000000000000000000000000000000000000000000000000000000008152600401612d4c90614ab8565b60405180910390fd5b80600560008573ffffffffffffffffffffffffffffffffffffffff1673ffffffffffffffffffffffffffffffffffffffff16815260200190815260200160002060008473ffffffffffffffffffffffffffffffffffffffff1673ffffffffffffffffffffffffffffffffffffffff16815260200190815260200160002060006101000a81548160ff0219169083151502179055508173ffffffffffffffffffffffffffffffffffffffff168373ffffffffffffffffffffffffffffffffffffffff167f17307eab39ab6107e8899845ad3d59bd9653f200f220920489ca2b5937696c3183604051612e46919061486c565b60405180910390a3505050565b612e5e848484612a13565b612e6a84848484613114565b612ea9576040517f08c379a0000000000000000000000000000000000000000000000000000000008152600401612ea0906149b8565b60405180910390fd5b50505050565b606060405180602001604052806000815250905090565b60606000821415612f0e576040518060400160405280600181526020017f30000000000000000000000000000000000000000000000000000000000000008152509050613022565b600082905060005b60008214612f40578080612f299061507e565b915050600a82612f399190614e4b565b9150612f16565b60008167ffffffffffffffff811115612f5c57612f5b615212565b5b6040519080825280601f01601f191660200182016040528015612f8e5781602001600182028036833780820191505090505b5090505b6000851461301b57600182612fa79190614ed6565b9150600a85612fb691906150c7565b6030612fc29190614df5565b60f81b818381518110612fd857612fd76151e3565b5b60200101907effffffffffffffffffffffffffffffffffffffffffffffffffffffffffffff1916908160001a905350600a856130149190614e4b565b9450612f92565b8093505050505b919050565b6130418282604051806020016040528060008152506132ab565b5050565b60007f01ffc9a7000000000000000000000000000000000000000000000000000000007bffffffffffffffffffffffffffffffffffffffffffffffffffffffff1916827bffffffffffffffffffffffffffffffffffffffffffffffffffffffff1916149050919050565b600e60149054906101000a900460ff16156130ff576040517f08c379a00000000000000000000000000000000000000000000000000000000081526004016130f690614ad8565b60405180910390fd5b61310a838383613306565b505050565b505050565b60006131358473ffffffffffffffffffffffffffffffffffffffff1661341a565b1561329e578373ffffffffffffffffffffffffffffffffffffffff1663150b7a0261315e6128bd565b8786866040518563ffffffff1660e01b815260040161318094939291906147d5565b602060405180830381600087803b15801561319a57600080fd5b505af19250505080156131cb57506040513d601f19601f820116820180604052508101906131c89190613fb7565b60015b61324e573d80600081146131fb576040519150601f19603f3d011682016040523d82523d6000602084013e613200565b606091505b50600081511415613246576040517f08c379a000000000000000000000000000000000000000000000000000000000815260040161323d906149b8565b60405180910390fd5b805181602001fd5b63150b7a0260e01b7bffffffffffffffffffffffffffffffffffffffffffffffffffffffff1916817bffffffffffffffffffffffffffffffffffffffffffffffffffffffff1916149150506132a3565b600190505b949350505050565b6132b5838361343d565b6132c26000848484613114565b613301576040517f08c379a00000000000000000000000000000000000000000000000000000000081526004016132f8906149b8565b60405180910390fd5b505050565b613311838383613617565b600073ffffffffffffffffffffffffffffffffffffffff168373ffffffffffffffffffffffffffffffffffffffff1614156133545761334f8161361c565b613393565b8173ffffffffffffffffffffffffffffffffffffffff168373ffffffffffffffffffffffffffffffffffffffff1614613392576133918382613665565b5b5b600073ffffffffffffffffffffffffffffffffffffffff168273ffffffffffffffffffffffffffffffffffffffff1614156133d6576133d1816137d2565b613415565b8273ffffffffffffffffffffffffffffffffffffffff168273ffffffffffffffffffffffffffffffffffffffff16146134145761341382826138a3565b5b5b505050565b6000808273ffffffffffffffffffffffffffffffffffffffff163b119050919050565b600073ffffffffffffffffffffffffffffffffffffffff168273ffffffffffffffffffffffffffffffffffffffff1614156134ad576040517f08c379a00000000000000000000000000000000000000000000000000000000081526004016134a490614b38565b60405180910390fd5b6134b681612c7a565b156134f6576040517f08c379a00000000000000000000000000000000000000000000000000000000081526004016134ed906149f8565b60405180910390fd5b613502600083836130af565b6001600360008473ffffffffffffffffffffffffffffffffffffffff1673ffffffffffffffffffffffffffffffffffffffff16815260200190815260200160002060008282546135529190614df5565b92505081905550816002600083815260200190815260200160002060006101000a81548173ffffffffffffffffffffffffffffffffffffffff021916908373ffffffffffffffffffffffffffffffffffffffff160217905550808273ffffffffffffffffffffffffffffffffffffffff16600073ffffffffffffffffffffffffffffffffffffffff167fddf252ad1be2c89b69c2b068fc378daa952ba7f163c4a11628f55a4df523b3ef60405160405180910390a46136136000838361310f565b5050565b505050565b6008805490506009600083815260200190815260200160002081905550600881908060018154018082558091505060019003906000526020600020016000909190919091505550565b60006001613672846111e3565b61367c9190614ed6565b9050600060076000848152602001908152602001600020549050818114613761576000600660008673ffffffffffffffffffffffffffffffffffffffff1673ffffffffffffffffffffffffffffffffffffffff168152602001908152602001600020600084815260200190815260200160002054905080600660008773ffffffffffffffffffffffffffffffffffffffff1673ffffffffffffffffffffffffffffffffffffffff168152602001908152602001600020600084815260200190815260200160002081905550816007600083815260200190815260200160002081905550505b6007600084815260200190815260200160002060009055600660008573ffffffffffffffffffffffffffffffffffffffff1673ffffffffffffffffffffffffffffffffffffffff16815260200190815260200160002060008381526020019081526020016000206000905550505050565b600060016008805490506137e69190614ed6565b9050600060096000848152602001908152602001600020549050600060088381548110613816576138156151e3565b5b906000526020600020015490508060088381548110613838576138376151e3565b5b906000526020600020018190555081600960008381526020019081526020016000208190555060096000858152602001908152602001600020600090556008805480613887576138866151b4565b5b6001900381819060005260206000200160009055905550505050565b60006138ae836111e3565b905081600660008573ffffffffffffffffffffffffffffffffffffffff1673ffffffffffffffffffffffffffffffffffffffff168152602001908152602001600020600083815260200190815260200160002081905550806007600084815260200190815260200160002081905550505050565b604051806101200160405280606081526020016000600481111561394957613948615156565b5b8152602001600073ffffffffffffffffffffffffffffffffffffffff168152602001600073ffffffffffffffffffffffffffffffffffffffff168152602001600073ffffffffffffffffffffffffffffffffffffffff1681526020016000815260200160008152602001600081526020016000151581525090565b8280546139d09061501b565b90600052602060002090601f0160209004810192826139f25760008555613a39565b82601f10613a0b57805160ff1916838001178555613a39565b82800160010185558215613a39579182015b82811115613a38578251825591602001919060010190613a1d565b5b509050613a469190613a4a565b5090565b5b80821115613a63576000816000905550600101613a4b565b5090565b6000613a7a613a7584614cda565b614cb5565b90508083825260208201905082856020860282011115613a9d57613a9c615246565b5b60005b85811015613acd5781613ab38882613c78565b845260208401935060208301925050600181019050613aa0565b5050509392505050565b6000613aea613ae584614d06565b614cb5565b905082815260208101848484011115613b0657613b0561524b565b5b613b11848285614fd9565b509392505050565b6000613b2c613b2784614d37565b614cb5565b905082815260208101848484011115613b4857613b4761524b565b5b613b53848285614fd9565b509392505050565b600081359050613b6a81615894565b92915050565b600081519050613b7f81615894565b92915050565b600082601f830112613b9a57613b99615241565b5b8151613baa848260208601613a67565b91505092915050565b600081359050613bc2816158ab565b92915050565b600081519050613bd7816158ab565b92915050565b600081359050613bec816158c2565b92915050565b600081519050613c01816158c2565b92915050565b600082601f830112613c1c57613c1b615241565b5b8135613c2c848260208601613ad7565b91505092915050565b600082601f830112613c4a57613c49615241565b5b8135613c5a848260208601613b19565b91505092915050565b600081359050613c72816158d9565b92915050565b600081519050613c87816158d9565b92915050565b600060208284031215613ca357613ca2615255565b5b6000613cb184828501613b5b565b91505092915050565b600060208284031215613cd057613ccf615255565b5b6000613cde84828501613b70565b91505092915050565b60008060408385031215613cfe57613cfd615255565b5b6000613d0c85828601613b5b565b9250506020613d1d85828601613b5b565b9150509250929050565b600080600080600060a08688031215613d4357613d42615255565b5b6000613d5188828901613b5b565b9550506020613d6288828901613b5b565b945050604086013567ffffffffffffffff811115613d8357613d82615250565b5b613d8f88828901613c35565b9350506060613da088828901613c63565b9250506080613db188828901613c63565b9150509295509295909350565b600080600060608486031215613dd757613dd6615255565b5b6000613de586828701613b5b565b9350506020613df686828701613b5b565b9250506040613e0786828701613c63565b9150509250925092565b60008060008060808587031215613e2b57613e2a615255565b5b6000613e3987828801613b5b565b9450506020613e4a87828801613b5b565b9350506040613e5b87828801613c63565b925050606085013567ffffffffffffffff811115613e7c57613e7b615250565b5b613e8887828801613c07565b91505092959194509250565b60008060408385031215613eab57613eaa615255565b5b6000613eb985828601613b5b565b9250506020613eca85828601613bb3565b9150509250929050565b60008060408385031215613eeb57613eea615255565b5b6000613ef985828601613b5b565b9250506020613f0a85828601613c63565b9150509250929050565b600060208284031215613f2a57613f29615255565b5b600082015167ffffffffffffffff811115613f4857613f47615250565b5b613f5484828501613b85565b91505092915050565b600060208284031215613f7357613f72615255565b5b6000613f8184828501613bc8565b91505092915050565b600060208284031215613fa057613f9f615255565b5b6000613fae84828501613bdd565b91505092915050565b600060208284031215613fcd57613fcc615255565b5b6000613fdb84828501613bf2565b91505092915050565b600060208284031215613ffa57613ff9615255565b5b600061400884828501613c63565b91505092915050565b60006020828403121561402757614026615255565b5b600061403584828501613c78565b91505092915050565b6000806040838503121561405557614054615255565b5b600061406385828601613c63565b925050602061407485828601613c63565b9150509250929050565b600061408a83836145b7565b905092915050565b61409b81614f0a565b82525050565b6140aa81614f0a565b82525050565b60006140bb82614d78565b6140c58185614da6565b9350836020820285016140d785614d68565b8060005b8581101561411357848403895281516140f4858261407e565b94506140ff83614d99565b925060208a019950506001810190506140db565b50829750879550505050505092915050565b61412e81614f1c565b82525050565b61413d81614f1c565b82525050565b600061414e82614d83565b6141588185614db7565b9350614168818560208601614fe8565b6141718161525a565b840191505092915050565b61418581614f91565b82525050565b61419481614fa3565b82525050565b6141a381614fa3565b82525050565b60006141b482614d8e565b6141be8185614dc8565b93506141ce818560208601614fe8565b6141d78161525a565b840191505092915050565b60006141ed82614d8e565b6141f78185614dd9565b9350614207818560208601614fe8565b6142108161525a565b840191505092915050565b600061422682614d8e565b6142308185614dea565b9350614240818560208601614fe8565b80840191505092915050565b6000614259600f83614dd9565b91506142648261526b565b602082019050919050565b600061427c601283614dd9565b915061428782615294565b602082019050919050565b600061429f602b83614dd9565b91506142aa826152bd565b604082019050919050565b60006142c2603283614dd9565b91506142cd8261530c565b604082019050919050565b60006142e5602583614dd9565b91506142f08261535b565b604082019050919050565b6000614308601c83614dd9565b9150614313826153aa565b602082019050919050565b600061432b601883614dd9565b9150614336826153d3565b602082019050919050565b600061434e602783614dd9565b9150614359826153fc565b604082019050919050565b6000614371602283614dd9565b915061437c8261544b565b604082019050919050565b6000614394603183614dd9565b915061439f8261549a565b604082019050919050565b60006143b7602483614dd9565b91506143c2826154e9565b604082019050919050565b60006143da601983614dd9565b91506143e582615538565b602082019050919050565b60006143fd601b83614dd9565b915061440882615561565b602082019050919050565b6000614420602983614dd9565b915061442b8261558a565b604082019050919050565b6000614443603e83614dd9565b915061444e826155d9565b604082019050919050565b6000614466602083614dd9565b915061447182615628565b602082019050919050565b6000614489602283614dd9565b915061449482615651565b604082019050919050565b60006144ac601e83614dd9565b91506144b7826156a0565b602082019050919050565b60006144cf600e83614dd9565b91506144da826156c9565b602082019050919050565b60006144f2603183614dd9565b91506144fd826156f2565b604082019050919050565b6000614515602083614dd9565b915061452082615741565b602082019050919050565b6000614538601883614dd9565b91506145438261576a565b602082019050919050565b600061455b602183614dd9565b915061456682615793565b604082019050919050565b600061457e602c83614dd9565b9150614589826157e2565b604082019050919050565b60006145a1602e83614dd9565b91506145ac82615831565b604082019050919050565b60006101208301600083015184820360008601526145d582826141a9565b91505060208301516145ea602086018261418b565b5060408301516145fd6040860182614092565b5060608301516146106060860182614092565b5060808301516146236080860182614092565b5060a083015161463660a0860182614741565b5060c083015161464960c0860182614741565b5060e083015161465c60e0860182614741565b50610100830151614671610100860182614125565b508091505092915050565b600061012083016000830151848203600086015261469a82826141a9565b91505060208301516146af602086018261418b565b5060408301516146c26040860182614092565b5060608301516146d56060860182614092565b5060808301516146e86080860182614092565b5060a08301516146fb60a0860182614741565b5060c083015161470e60c0860182614741565b5060e083015161472160e0860182614741565b50610100830151614736610100860182614125565b508091505092915050565b61474a81614f87565b82525050565b61475981614f87565b82525050565b600061476b828561421b565b9150614777828461421b565b91508190509392505050565b600060208201905061479860008301846140a1565b92915050565b60006060820190506147b360008301866140a1565b6147c060208301856140a1565b6147cd6040830184614750565b949350505050565b60006080820190506147ea60008301876140a1565b6147f760208301866140a1565b6148046040830185614750565b81810360608301526148168184614143565b905095945050505050565b600060408201905061483660008301856140a1565b6148436020830184614750565b9392505050565b6000602082019050818103600083015261486481846140b0565b905092915050565b60006020820190506148816000830184614134565b92915050565b600060208201905061489c600083018461417c565b92915050565b600060208201905081810360008301526148bc81846141e2565b905092915050565b60006101208201905081810360008301526148df818c6141e2565b90506148ee602083018b61419a565b6148fb604083018a6140a1565b61490860608301896140a1565b61491560808301886140a1565b61492260a0830187614750565b61492f60c0830186614750565b61493c60e0830185614750565b61494a610100830184614134565b9a9950505050505050505050565b600060208201905081810360008301526149718161424c565b9050919050565b600060208201905081810360008301526149918161426f565b9050919050565b600060208201905081810360008301526149b181614292565b9050919050565b600060208201905081810360008301526149d1816142b5565b9050919050565b600060208201905081810360008301526149f1816142d8565b9050919050565b60006020820190508181036000830152614a11816142fb565b9050919050565b60006020820190508181036000830152614a318161431e565b9050919050565b60006020820190508181036000830152614a5181614341565b9050919050565b60006020820190508181036000830152614a7181614364565b9050919050565b60006020820190508181036000830152614a9181614387565b9050919050565b60006020820190508181036000830152614ab1816143aa565b9050919050565b60006020820190508181036000830152614ad1816143cd565b9050919050565b60006020820190508181036000830152614af1816143f0565b9050919050565b60006020820190508181036000830152614b1181614413565b9050919050565b60006020820190508181036000830152614b3181614436565b9050919050565b60006020820190508181036000830152614b5181614459565b9050919050565b60006020820190508181036000830152614b718161447c565b9050919050565b60006020820190508181036000830152614b918161449f565b9050919050565b60006020820190508181036000830152614bb1816144c2565b9050919050565b60006020820190508181036000830152614bd1816144e5565b9050919050565b60006020820190508181036000830152614bf181614508565b9050919050565b60006020820190508181036000830152614c118161452b565b9050919050565b60006020820190508181036000830152614c318161454e565b9050919050565b60006020820190508181036000830152614c5181614571565b9050919050565b60006020820190508181036000830152614c7181614594565b9050919050565b60006020820190508181036000830152614c92818461467c565b905092915050565b6000602082019050614caf6000830184614750565b92915050565b6000614cbf614cd0565b9050614ccb828261504d565b919050565b6000604051905090565b600067ffffffffffffffff821115614cf557614cf4615212565b5b602082029050602081019050919050565b600067ffffffffffffffff821115614d2157614d20615212565b5b614d2a8261525a565b9050602081019050919050565b600067ffffffffffffffff821115614d5257614d51615212565b5b614d5b8261525a565b9050602081019050919050565b6000819050602082019050919050565b600081519050919050565b600081519050919050565b600081519050919050565b6000602082019050919050565b600082825260208201905092915050565b600082825260208201905092915050565b600082825260208201905092915050565b600082825260208201905092915050565b600081905092915050565b6000614e0082614f87565b9150614e0b83614f87565b9250827fffffffffffffffffffffffffffffffffffffffffffffffffffffffffffffffff03821115614e4057614e3f6150f8565b5b828201905092915050565b6000614e5682614f87565b9150614e6183614f87565b925082614e7157614e70615127565b5b828204905092915050565b6000614e8782614f87565b9150614e9283614f87565b9250817fffffffffffffffffffffffffffffffffffffffffffffffffffffffffffffffff0483118215151615614ecb57614eca6150f8565b5b828202905092915050565b6000614ee182614f87565b9150614eec83614f87565b925082821015614eff57614efe6150f8565b5b828203905092915050565b6000614f1582614f67565b9050919050565b60008115159050919050565b60007fffffffff0000000000000000000000000000000000000000000000000000000082169050919050565b6000819050614f6282615880565b919050565b600073ffffffffffffffffffffffffffffffffffffffff82169050919050565b6000819050919050565b6000614f9c82614fb5565b9050919050565b6000614fae82614f54565b9050919050565b6000614fc082614fc7565b9050919050565b6000614fd282614f67565b9050919050565b82818337600083830152505050565b60005b83811015615006578082015181840152602081019050614feb565b83811115615015576000848401525b50505050565b6000600282049050600182168061503357607f821691505b6020821081141561504757615046615185565b5b50919050565b6150568261525a565b810181811067ffffffffffffffff8211171561507557615074615212565b5b80604052505050565b600061508982614f87565b91507fffffffffffffffffffffffffffffffffffffffffffffffffffffffffffffffff8214156150bc576150bb6150f8565b5b600182019050919050565b60006150d282614f87565b91506150dd83614f87565b9250826150ed576150ec615127565b5b828206905092915050565b7f4e487b7100000000000000000000000000000000000000000000000000000000600052601160045260246000fd5b7f4e487b7100000000000000000000000000000000000000000000000000000000600052601260045260246000fd5b7f4e487b7100000000000000000000000000000000000000000000000000000000600052602160045260246000fd5b7f4e487b7100000000000000000000000000000000000000000000000000000000600052602260045260246000fd5b7f4e487b7100000000000000000000000000000000000000000000000000000000600052603160045260246000fd5b7f4e487b7100000000000000000000000000000000000000000000000000000000600052603260045260246000fd5b7f4e487b7100000000000000000000000000000000000000000000000000000000600052604160045260246000fd5b600080fd5b600080fd5b600080fd5b600080fd5b600080fd5b6000601f19601f8301169050919050565b7f496e76616c696420616464726573730000000000000000000000000000000000600082015250565b7f496e76616c6964207461736b2073746174650000000000000000000000000000600082015250565b7f455243373231456e756d657261626c653a206f776e657220696e646578206f7560008201527f74206f6620626f756e6473000000000000000000000000000000000000000000602082015250565b7f4552433732313a207472616e7366657220746f206e6f6e20455243373231526560008201527f63656976657220696d706c656d656e7465720000000000000000000000000000602082015250565b7f4552433732313a207472616e736665722066726f6d20696e636f72726563742060008201527f6f776e6572000000000000000000000000000000000000000000000000000000602082015250565b7f4552433732313a20746f6b656e20616c7265616479206d696e74656400000000600082015250565b7f496e73756666696369656e7420464e445220616d6f756e740000000000000000600082015250565b7f4275696c6465722070726f66696c6520646f6573206e6f74206578697374206f60008201527f6e20636861696e00000000000000000000000000000000000000000000000000602082015250565b7f4f6e6c7920666f756e6465722063616e20636f6d706c6574652074686520746160008201527f736b000000000000000000000000000000000000000000000000000000000000602082015250565b7f4f6e6c79206163636570746564206275696c6465722063616e2061677265652060008201527f7461736b2063616e63656c6c6174696f6e000000000000000000000000000000602082015250565b7f4552433732313a207472616e7366657220746f20746865207a65726f2061646460008201527f7265737300000000000000000000000000000000000000000000000000000000602082015250565b7f4552433732313a20617070726f766520746f2063616c6c657200000000000000600082015250565b7f5461736b20746f6b656e2063616e6e6f74207472616e736665722e0000000000600082015250565b7f4552433732313a2061646472657373207a65726f206973206e6f74206120766160008201527f6c6964206f776e65720000000000000000000000000000000000000000000000602082015250565b7f4552433732313a20617070726f76652063616c6c6572206973206e6f7420746f60008201527f6b656e206f776e6572206e6f7220617070726f76656420666f7220616c6c0000602082015250565b7f4552433732313a206d696e7420746f20746865207a65726f2061646472657373600082015250565b7f5461736b2062756467657420657863656564732070726f6a656374206275646760008201527f6574000000000000000000000000000000000000000000000000000000000000602082015250565b7f596f75277265206e6f742061206163636570746564206275696c6465722e0000600082015250565b7f5461736b206e6f7420666f756e64000000000000000000000000000000000000600082015250565b7f4f6e6c792070726f6a656374277320666f756e6465722063616e20637265617460008201527f652061207461736b206f6e20636861696e000000000000000000000000000000602082015250565b7f4f6e6c7920666f756e6465722063616e2063616e63656c20746865207461736b600082015250565b7f4552433732313a20696e76616c696420746f6b656e2049440000000000000000600082015250565b7f4552433732313a20617070726f76616c20746f2063757272656e74206f776e6560008201527f7200000000000000000000000000000000000000000000000000000000000000602082015250565b7f455243373231456e756d657261626c653a20676c6f62616c20696e646578206f60008201527f7574206f6620626f756e64730000000000000000000000000000000000000000602082015250565b7f4552433732313a2063616c6c6572206973206e6f7420746f6b656e206f776e6560008201527f72206e6f7220617070726f766564000000000000000000000000000000000000602082015250565b6005811061589157615890615156565b5b50565b61589d81614f0a565b81146158a857600080fd5b50565b6158b481614f1c565b81146158bf57600080fd5b50565b6158cb81614f28565b81146158d657600080fd5b50565b6158e281614f87565b81146158ed57600080fd5b5056fea26469706673582212204dafed4dff8fda781bd33cbafcd177729df889837581f79ef788119b9288d5a864736f6c63430008070033",
  "linkReferences": {},
  "deployedLinkReferences": {}
}