{
  "_format": "hh-sol-artifact-1",
  "contractName": "Task",
  "sourceName": "contracts/Task.sol",
  "abi": [
    {
      "inputs": [
        {
          "internalType": "address",
          "name": "_usdc_address",
          "type": "address"
        },
        {
          "internalType": "address",
          "name": "_fndr_address",
          "type": "address"
        },
        {
          "internalType": "address",
          "name": "_profileManageAddress",
          "type": "address"
        },
        {
          "internalType": "address",
          "name": "_projectManageAddress",
          "type": "address"
        }
      ],
      "stateMutability": "nonpayable",
      "type": "constructor"
    },
    {
      "anonymous": false,
      "inputs": [
        {
          "indexed": true,
          "internalType": "address",
          "name": "owner",
          "type": "address"
        },
        {
          "indexed": true,
          "internalType": "address",
          "name": "approved",
          "type": "address"
        },
        {
          "indexed": true,
          "internalType": "uint256",
          "name": "tokenId",
          "type": "uint256"
        }
      ],
      "name": "Approval",
      "type": "event"
    },
    {
      "anonymous": false,
      "inputs": [
        {
          "indexed": true,
          "internalType": "address",
          "name": "owner",
          "type": "address"
        },
        {
          "indexed": true,
          "internalType": "address",
          "name": "operator",
          "type": "address"
        },
        {
          "indexed": false,
          "internalType": "bool",
          "name": "approved",
          "type": "bool"
        }
      ],
      "name": "ApprovalForAll",
      "type": "event"
    },
    {
      "anonymous": false,
      "inputs": [
        {
          "indexed": false,
          "internalType": "address",
          "name": "builderAddress",
          "type": "address"
        },
        {
          "indexed": false,
          "internalType": "uint256",
          "name": "usdc",
          "type": "uint256"
        }
      ],
      "name": "TaskCompleted",
      "type": "event"
    },
    {
      "anonymous": false,
      "inputs": [
        {
          "indexed": false,
          "internalType": "address",
          "name": "builderAddress",
          "type": "address"
        },
        {
          "indexed": false,
          "internalType": "uint256",
          "name": "taskId",
          "type": "uint256"
        }
      ],
      "name": "TaskCreated",
      "type": "event"
    },
    {
      "anonymous": false,
      "inputs": [
        {
          "indexed": true,
          "internalType": "address",
          "name": "from",
          "type": "address"
        },
        {
          "indexed": true,
          "internalType": "address",
          "name": "to",
          "type": "address"
        },
        {
          "indexed": true,
          "internalType": "uint256",
          "name": "tokenId",
          "type": "uint256"
        }
      ],
      "name": "Transfer",
      "type": "event"
    },
    {
      "inputs": [],
      "name": "FNDRtoken",
      "outputs": [
        {
          "internalType": "contract IERC20",
          "name": "",
          "type": "address"
        }
      ],
      "stateMutability": "view",
      "type": "function"
    },
    {
      "inputs": [],
      "name": "USDCtoken",
      "outputs": [
        {
          "internalType": "contract IERC20",
          "name": "",
          "type": "address"
        }
      ],
      "stateMutability": "view",
      "type": "function"
    },
    {
      "inputs": [
        {
          "internalType": "uint256",
          "name": "_taskId",
          "type": "uint256"
        }
      ],
      "name": "agreeCancellationByBuilder",
      "outputs": [],
      "stateMutability": "nonpayable",
      "type": "function"
    },
    {
      "inputs": [
        {
          "internalType": "address",
          "name": "to",
          "type": "address"
        },
        {
          "internalType": "uint256",
          "name": "tokenId",
          "type": "uint256"
        }
      ],
      "name": "approve",
      "outputs": [],
      "stateMutability": "nonpayable",
      "type": "function"
    },
    {
      "inputs": [
        {
          "internalType": "address",
          "name": "owner",
          "type": "address"
        }
      ],
      "name": "balanceOf",
      "outputs": [
        {
          "internalType": "uint256",
          "name": "",
          "type": "uint256"
        }
      ],
      "stateMutability": "view",
      "type": "function"
    },
    {
      "inputs": [
        {
          "internalType": "uint256",
          "name": "_difficulty",
          "type": "uint256"
        },
        {
          "internalType": "address",
          "name": "_builderProfileAddress",
          "type": "address"
        }
      ],
      "name": "calculateXP",
      "outputs": [
        {
          "internalType": "uint256",
          "name": "",
          "type": "uint256"
        }
      ],
      "stateMutability": "view",
      "type": "function"
    },
    {
      "inputs": [
        {
          "internalType": "uint256",
          "name": "_taskId",
          "type": "uint256"
        }
      ],
      "name": "cancelTask",
      "outputs": [],
      "stateMutability": "nonpayable",
      "type": "function"
    },
    {
      "inputs": [
        {
          "internalType": "uint256",
          "name": "_taskId",
          "type": "uint256"
        }
      ],
      "name": "checkTaskId",
      "outputs": [
        {
          "internalType": "bool",
          "name": "",
          "type": "bool"
        }
      ],
      "stateMutability": "view",
      "type": "function"
    },
    {
      "inputs": [
        {
          "internalType": "uint256",
          "name": "_taskId",
          "type": "uint256"
        },
        {
          "internalType": "uint256",
          "name": "_amount",
          "type": "uint256"
        }
      ],
      "name": "commitToTask",
      "outputs": [],
      "stateMutability": "nonpayable",
      "type": "function"
    },
    {
      "inputs": [
        {
          "internalType": "uint256",
          "name": "_taskId",
          "type": "uint256"
        }
      ],
      "name": "completeTask",
      "outputs": [],
      "stateMutability": "nonpayable",
      "type": "function"
    },
    {
      "inputs": [
        {
          "internalType": "address",
          "name": "_projectAddress",
          "type": "address"
        },
        {
          "internalType": "address",
          "name": "_builderAddress",
          "type": "address"
        },
        {
          "internalType": "string",
          "name": "_name",
          "type": "string"
        },
        {
          "internalType": "uint256",
          "name": "_usdc",
          "type": "uint256"
        },
        {
          "internalType": "uint256",
          "name": "_xp",
          "type": "uint256"
        },
        {
          "internalType": "uint256",
          "name": "_difficulty",
          "type": "uint256"
        }
      ],
      "name": "createTask",
      "outputs": [],
      "stateMutability": "nonpayable",
      "type": "function"
    },
    {
      "inputs": [
        {
          "internalType": "uint256",
          "name": "tokenId",
          "type": "uint256"
        }
      ],
      "name": "getApproved",
      "outputs": [
        {
          "internalType": "address",
          "name": "",
          "type": "address"
        }
      ],
      "stateMutability": "view",
      "type": "function"
    },
    {
      "inputs": [
        {
          "internalType": "address",
          "name": "_builderAddress",
          "type": "address"
        }
      ],
      "name": "getBuilderTasks",
      "outputs": [
        {
          "components": [
            {
              "internalType": "string",
              "name": "name",
              "type": "string"
            },
            {
              "internalType": "enum Task.State",
              "name": "currentState",
              "type": "uint8"
            },
            {
              "internalType": "address",
              "name": "projectAddress",
              "type": "address"
            },
            {
              "internalType": "address",
              "name": "founderAddress",
              "type": "address"
            },
            {
              "internalType": "address",
              "name": "builderAddress",
              "type": "address"
            },
            {
              "internalType": "uint256",
              "name": "usdc_amount",
              "type": "uint256"
            },
            {
              "internalType": "uint256",
              "name": "fndr_amount",
              "type": "uint256"
            },
            {
              "internalType": "uint256",
              "name": "xp",
              "type": "uint256"
            },
            {
              "internalType": "bool",
              "name": "isBuilderAgreed",
              "type": "bool"
            }
          ],
          "internalType": "struct Task.TaskInfo[]",
          "name": "",
          "type": "tuple[]"
        }
      ],
      "stateMutability": "view",
      "type": "function"
    },
    {
      "inputs": [
        {
          "internalType": "uint256",
          "name": "_tokenId",
          "type": "uint256"
        }
      ],
      "name": "getTaskById",
      "outputs": [
        {
          "components": [
            {
              "internalType": "string",
              "name": "name",
              "type": "string"
            },
            {
              "internalType": "enum Task.State",
              "name": "currentState",
              "type": "uint8"
            },
            {
              "internalType": "address",
              "name": "projectAddress",
              "type": "address"
            },
            {
              "internalType": "address",
              "name": "founderAddress",
              "type": "address"
            },
            {
              "internalType": "address",
              "name": "builderAddress",
              "type": "address"
            },
            {
              "internalType": "uint256",
              "name": "usdc_amount",
              "type": "uint256"
            },
            {
              "internalType": "uint256",
              "name": "fndr_amount",
              "type": "uint256"
            },
            {
              "internalType": "uint256",
              "name": "xp",
              "type": "uint256"
            },
            {
              "internalType": "bool",
              "name": "isBuilderAgreed",
              "type": "bool"
            }
          ],
          "internalType": "struct Task.TaskInfo",
          "name": "",
          "type": "tuple"
        }
      ],
      "stateMutability": "view",
      "type": "function"
    },
    {
      "inputs": [
        {
          "internalType": "uint256",
          "name": "",
          "type": "uint256"
        }
      ],
      "name": "idToTask",
      "outputs": [
        {
          "internalType": "string",
          "name": "name",
          "type": "string"
        },
        {
          "internalType": "enum Task.State",
          "name": "currentState",
          "type": "uint8"
        },
        {
          "internalType": "address",
          "name": "projectAddress",
          "type": "address"
        },
        {
          "internalType": "address",
          "name": "founderAddress",
          "type": "address"
        },
        {
          "internalType": "address",
          "name": "builderAddress",
          "type": "address"
        },
        {
          "internalType": "uint256",
          "name": "usdc_amount",
          "type": "uint256"
        },
        {
          "internalType": "uint256",
          "name": "fndr_amount",
          "type": "uint256"
        },
        {
          "internalType": "uint256",
          "name": "xp",
          "type": "uint256"
        },
        {
          "internalType": "bool",
          "name": "isBuilderAgreed",
          "type": "bool"
        }
      ],
      "stateMutability": "view",
      "type": "function"
    },
    {
      "inputs": [
        {
          "internalType": "address",
          "name": "owner",
          "type": "address"
        },
        {
          "internalType": "address",
          "name": "operator",
          "type": "address"
        }
      ],
      "name": "isApprovedForAll",
      "outputs": [
        {
          "internalType": "bool",
          "name": "",
          "type": "bool"
        }
      ],
      "stateMutability": "view",
      "type": "function"
    },
    {
      "inputs": [],
      "name": "name",
      "outputs": [
        {
          "internalType": "string",
          "name": "",
          "type": "string"
        }
      ],
      "stateMutability": "view",
      "type": "function"
    },
    {
      "inputs": [
        {
          "internalType": "uint256",
          "name": "tokenId",
          "type": "uint256"
        }
      ],
      "name": "ownerOf",
      "outputs": [
        {
          "internalType": "address",
          "name": "",
          "type": "address"
        }
      ],
      "stateMutability": "view",
      "type": "function"
    },
    {
      "inputs": [
        {
          "internalType": "address",
          "name": "from",
          "type": "address"
        },
        {
          "internalType": "address",
          "name": "to",
          "type": "address"
        },
        {
          "internalType": "uint256",
          "name": "tokenId",
          "type": "uint256"
        }
      ],
      "name": "safeTransferFrom",
      "outputs": [],
      "stateMutability": "nonpayable",
      "type": "function"
    },
    {
      "inputs": [
        {
          "internalType": "address",
          "name": "from",
          "type": "address"
        },
        {
          "internalType": "address",
          "name": "to",
          "type": "address"
        },
        {
          "internalType": "uint256",
          "name": "tokenId",
          "type": "uint256"
        },
        {
          "internalType": "bytes",
          "name": "data",
          "type": "bytes"
        }
      ],
      "name": "safeTransferFrom",
      "outputs": [],
      "stateMutability": "nonpayable",
      "type": "function"
    },
    {
      "inputs": [
        {
          "internalType": "address",
          "name": "operator",
          "type": "address"
        },
        {
          "internalType": "bool",
          "name": "approved",
          "type": "bool"
        }
      ],
      "name": "setApprovalForAll",
      "outputs": [],
      "stateMutability": "nonpayable",
      "type": "function"
    },
    {
      "inputs": [
        {
          "internalType": "bytes4",
          "name": "interfaceId",
          "type": "bytes4"
        }
      ],
      "name": "supportsInterface",
      "outputs": [
        {
          "internalType": "bool",
          "name": "",
          "type": "bool"
        }
      ],
      "stateMutability": "view",
      "type": "function"
    },
    {
      "inputs": [],
      "name": "symbol",
      "outputs": [
        {
          "internalType": "string",
          "name": "",
          "type": "string"
        }
      ],
      "stateMutability": "view",
      "type": "function"
    },
    {
      "inputs": [
        {
          "internalType": "uint256",
          "name": "index",
          "type": "uint256"
        }
      ],
      "name": "tokenByIndex",
      "outputs": [
        {
          "internalType": "uint256",
          "name": "",
          "type": "uint256"
        }
      ],
      "stateMutability": "view",
      "type": "function"
    },
    {
      "inputs": [
        {
          "internalType": "address",
          "name": "owner",
          "type": "address"
        },
        {
          "internalType": "uint256",
          "name": "index",
          "type": "uint256"
        }
      ],
      "name": "tokenOfOwnerByIndex",
      "outputs": [
        {
          "internalType": "uint256",
          "name": "",
          "type": "uint256"
        }
      ],
      "stateMutability": "view",
      "type": "function"
    },
    {
      "inputs": [
        {
          "internalType": "uint256",
          "name": "tokenId",
          "type": "uint256"
        }
      ],
      "name": "tokenURI",
      "outputs": [
        {
          "internalType": "string",
          "name": "",
          "type": "string"
        }
      ],
      "stateMutability": "view",
      "type": "function"
    },
    {
      "inputs": [],
      "name": "totalSupply",
      "outputs": [
        {
          "internalType": "uint256",
          "name": "",
          "type": "uint256"
        }
      ],
      "stateMutability": "view",
      "type": "function"
    },
    {
      "inputs": [
        {
          "internalType": "address",
          "name": "from",
          "type": "address"
        },
        {
          "internalType": "address",
          "name": "to",
          "type": "address"
        },
        {
          "internalType": "uint256",
          "name": "tokenId",
          "type": "uint256"
        }
      ],
      "name": "transferFrom",
      "outputs": [],
      "stateMutability": "nonpayable",
      "type": "function"
    },
    {
      "inputs": [
        {
          "internalType": "uint256",
          "name": "_taskId",
          "type": "uint256"
        }
      ],
      "name": "updateToInProgress",
      "outputs": [],
      "stateMutability": "nonpayable",
      "type": "function"
    },
    {
      "inputs": [
        {
          "internalType": "uint256",
          "name": "_taskId",
          "type": "uint256"
        }
      ],
      "name": "updateToInReview",
      "outputs": [],
      "stateMutability": "nonpayable",
      "type": "function"
    }
  ],
  "bytecode": "0x6080604052600d80546001600160a01b0319908116735ee8d1b65942116da65700849d65cc839e38cc5e17909155600e805490911673b5c051088e47d8d69824bac79499f90042341d02179055600f8054740164e92a7b43f4395f8c731b8932c9677a829f642b6001600160a81b03199091161790553480156200008257600080fd5b5060405162003aec38038062003aec833981016040819052620000a59162000225565b604080518082018252600c81526b4275696c646572205461736b60a01b6020808301918252835180850190945260048452635461736b60e01b908401528151919291620000f59160009162000162565b5080516200010b90600190602084019062000162565b5050600b80546001600160a01b039687166001600160a01b031991821617909155600c80549587169582169590951790945550600e805492851692841692909217909155600f8054919093169116179055620002bf565b828054620001709062000282565b90600052602060002090601f016020900481019282620001945760008555620001df565b82601f10620001af57805160ff1916838001178555620001df565b82800160010185558215620001df579182015b82811115620001df578251825591602001919060010190620001c2565b50620001ed929150620001f1565b5090565b5b80821115620001ed5760008155600101620001f2565b80516001600160a01b03811681146200022057600080fd5b919050565b600080600080608085870312156200023c57600080fd5b620002478562000208565b9350620002576020860162000208565b9250620002676040860162000208565b9150620002776060860162000208565b905092959194509250565b600181811c908216806200029757607f821691505b60208210811415620002b957634e487b7160e01b600052602260045260246000fd5b50919050565b61381d80620002cf6000396000f3fe608060405234801561001057600080fd5b50600436106101da5760003560e01c80636352211e11610104578063a22cb465116100a2578063e1e2955811610071578063e1e2955814610421578063e62b61da14610434578063e985e9c514610447578063ec9abea21461048357600080fd5b8063a22cb465146103d5578063b88d4fde146103e8578063c7945cff146103fb578063c87b56dd1461040e57600080fd5b80637eec20a8116100de5780637eec20a8146103875780638c02263b1461039a57806395d89b41146103ad578063976217cd146103b557600080fd5b80636352211e1461034e57806370a082311461036157806372d91c8d1461037457600080fd5b806323b872dd1161017c5780634185e5071161014b5780634185e507146102f557806342842e0e146103085780634338eb871461031b5780634f6ccce71461033b57600080fd5b806323b872dd146102a95780632b98df27146102bc5780632eafc530146102cf5780632f745c59146102e257600080fd5b8063081812fc116101b8578063081812fc14610231578063095ea7b31461025c57806318160ddd1461026f5780631c8187a61461028157600080fd5b806301ffc9a7146101df57806306fdde0314610207578063072bd7ee1461021c575b600080fd5b6101f26101ed3660046130ed565b610496565b60405190151581526020015b60405180910390f35b61020f6104c1565b6040516101fe9190613364565b61022f61022a366004612e76565b610553565b005b61024461023f366004613127565b610b83565b6040516001600160a01b0390911681526020016101fe565b61022f61026a366004612ff7565b610baa565b6008545b6040519081526020016101fe565b61029461028f366004613127565b610cc0565b6040516101fe99989796959493929190613377565b61022f6102b7366004612f08565b610da7565b61022f6102ca366004613127565b610dd8565b61022f6102dd366004613127565b610ef5565b6102736102f0366004612ff7565b611025565b600b54610244906001600160a01b031681565b61022f610316366004612f08565b6110bb565b61032e610329366004612e03565b6110d6565b6040516101fe9190613302565b610273610349366004613127565b611384565b61024461035c366004613127565b611417565b61027361036f366004612e03565b611477565b600c54610244906001600160a01b031681565b61022f610395366004613127565b6114fd565b6101f26103a8366004613127565b6116f2565b61020f6116fd565b6103c86103c3366004613127565b61170c565b6040516101fe9190613506565b61022f6103e3366004612fc9565b61187f565b61022f6103f6366004612f49565b61188e565b61022f61040936600461317e565b6118c6565b61020f61041c366004613127565b611b36565b61022f61042f366004613127565b611baa565b61022f610442366004613127565b611fca565b6101f2610455366004612e3d565b6001600160a01b03918216600090815260056020908152604080832093909416825291909152205460ff1690565b610273610491366004613159565b6120e2565b60006001600160e01b0319821663780e9d6360e01b14806104bb57506104bb8261222b565b92915050565b6060600080546104d0906136c6565b80601f01602080910402602001604051908101604052809291908181526020018280546104fc906136c6565b80156105495780601f1061051e57610100808354040283529160200191610549565b820191906000526020600020905b81548152906001019060200180831161052c57829003601f168201915b5050505050905090565b85836000826001600160a01b031663235eee1d6040518163ffffffff1660e01b815260040160206040518083038186803b15801561059057600080fd5b505afa1580156105a4573d6000803e3d6000fd5b505050506040513d601f19601f820116820180604052508101906105c89190613140565b90506000836001600160a01b031663bcd148056040518163ffffffff1660e01b815260040160006040518083038186803b15801561060557600080fd5b505afa158015610619573d6000803e3d6000fd5b505050506040513d6000823e601f3d908101601f191682016040526106419190810190613023565b90506000805b825181101561069f576010600084838151811061066657610666613782565b60200260200101518152602001908152602001600020600401548261068b919061354a565b915080610697816136fb565b915050610647565b50836106ab8285613683565b101561070f5760405162461bcd60e51b815260206004820152602860248201527f546f74616c207461736b2062756467657420657863656564732070726f6a65636044820152671d08189d5919d95d60c21b60648201526084015b60405180910390fd5b600f546040516323a30b2360e01b81526001600160a01b03808e1660048301528d926000929116906323a30b239060240160206040518083038186803b15801561075857600080fd5b505afa15801561076c573d6000803e3d6000fd5b505050506040513d601f19601f820116820180604052508101906107909190612e20565b90506001600160a01b03811633146108045760405162461bcd60e51b815260206004820152603160248201527f4f6e6c792070726f6a656374277320666f756e6465722063616e206372656174604482015270329030903a30b9b59037b71031b430b4b760791b6064820152608401610706565b600e5460405163593c6e0d60e01b81526001600160a01b038e81166004830152600092169063593c6e0d9060240160206040518083038186803b15801561084a57600080fd5b505afa15801561085e573d6000803e3d6000fd5b505050506040513d601f19601f820116820180604052508101906108829190612e20565b90506001600160a01b0381166108ea5760405162461bcd60e51b815260206004820152602760248201527f4275696c6465722070726f66696c6520646f6573206e6f74206578697374206f604482015266371031b430b4b760c91b6064820152608401610706565b6000891180156108fa5750600689105b6109465760405162461bcd60e51b815260206004820152601760248201527f496e76616c6964207461736b20646966666963756c74790000000000000000006044820152606401610706565b61095089826120e2565b8a1461098b5760405162461bcd60e51b815260206004820152600a6024820152690496e76616c69642058560b41b6044820152606401610706565b600f805460ff60a01b191690556109a6600a80546001019055565b6109b88d6109b3600a5490565b61227b565b6040805161012081019091528c815260208101600081526020018f6001600160a01b03168152602001336001600160a01b031681526020018e6001600160a01b031681526020018c8152602001600081526020018b81526020016000151581525060106000610a26600a5490565b8152602080820192909252604001600020825180519192610a4c92849290910190612cc5565b50602082015160018083018054909160ff1990911690836004811115610a7457610a74613756565b021790555060408201516001820180546001600160a01b03928316610100908102610100600160a81b03199092169190911790915560608401516002840180549184166001600160a01b031992831617905560808501516003850180549190941691161790915560a0830151600483015560c0830151600583015560e08301516006830155909101516007909101805491151560ff19909216919091179055600f805460ff60a01b1916600160a01b1790557fb1c0ef93ef5afc0800a5789b004fdaf5931873276c7ccb409e7d1a310906886a8d610b51600a5490565b604080516001600160a01b03909316835260208301919091520160405180910390a15050505050505050505050505050565b6000610b8e82612295565b506000908152600460205260409020546001600160a01b031690565b6000610bb582611417565b9050806001600160a01b0316836001600160a01b03161415610c235760405162461bcd60e51b815260206004820152602160248201527f4552433732313a20617070726f76616c20746f2063757272656e74206f776e656044820152603960f91b6064820152608401610706565b336001600160a01b0382161480610c3f5750610c3f8133610455565b610cb15760405162461bcd60e51b815260206004820152603e60248201527f4552433732313a20617070726f76652063616c6c6572206973206e6f7420746f60448201527f6b656e206f776e6572206e6f7220617070726f76656420666f7220616c6c00006064820152608401610706565b610cbb83836122e8565b505050565b601060205260009081526040902080548190610cdb906136c6565b80601f0160208091040260200160405190810160405280929190818152602001828054610d07906136c6565b8015610d545780601f10610d2957610100808354040283529160200191610d54565b820191906000526020600020905b815481529060010190602001808311610d3757829003601f168201915b505050600184015460028501546003860154600487015460058801546006890154600790990154979860ff808716996001600160a01b036101009098048816995095871697509390951694919390921689565b610db13382612356565b610dcd5760405162461bcd60e51b8152600401610706906134b8565b610cbb8383836123d5565b80610de28161257c565b610dfe5760405162461bcd60e51b815260040161070690613490565b6000828152601060205260409020600301546001600160a01b0316331480610e3f57506000828152601060205260409020600201546001600160a01b031633145b610e5b5760405162461bcd60e51b815260040161070690613433565b600160008381526010602052604090206001015460ff166004811115610e8357610e83613756565b14610ecb5760405162461bcd60e51b81526020600482015260186024820152775461736b2073686f756c6420626520696e2072657669657760401b6044820152606401610706565b60008281526010602052604090206001908101805460029260ff1990911690835b02179055505050565b80610eff8161257c565b610f1b5760405162461bcd60e51b815260040161070690613490565b6000828152601060205260409020600301546001600160a01b03163314610f9e5760405162461bcd60e51b815260206004820152603160248201527f4f6e6c79206163636570746564206275696c6465722063616e206167726565206044820152703a30b9b59031b0b731b2b63630ba34b7b760791b6064820152608401610706565b60008281526010602052604081206001015460ff166004811115610fc457610fc4613756565b146110065760405162461bcd60e51b8152602060048201526012602482015271496e76616c6964207461736b20737461746560701b6044820152606401610706565b506000908152601060205260409020600701805460ff19166001179055565b600061103083611477565b82106110925760405162461bcd60e51b815260206004820152602b60248201527f455243373231456e756d657261626c653a206f776e657220696e646578206f7560448201526a74206f6620626f756e647360a81b6064820152608401610706565b506001600160a01b03919091166000908152600660209081526040808320938352929052205490565b610cbb8383836040518060200160405280600081525061188e565b60606001600160a01b0382166111205760405162461bcd60e51b815260206004820152600f60248201526e496e76616c6964206164647265737360881b6044820152606401610706565b600060015b6008548111611173576000818152601060205260409020600301546001600160a01b0385811691161415611161578161115d816136fb565b9250505b8061116b816136fb565b915050611125565b5060008167ffffffffffffffff81111561118f5761118f613798565b6040519080825280602002602001820160405280156111c857816020015b6111b5612d49565b8152602001906001900390816111ad5790505b509050600060015b600854811161137a576000818152601060205260409020600301546001600160a01b0387811691161415611368576000818152601060205260409081902081516101208101909252805482908290611227906136c6565b80601f0160208091040260200160405190810160405280929190818152602001828054611253906136c6565b80156112a05780601f10611275576101008083540402835291602001916112a0565b820191906000526020600020905b81548152906001019060200180831161128357829003601f168201915b5050509183525050600182015460209091019060ff1660048111156112c7576112c7613756565b60048111156112d8576112d8613756565b815260018201546001600160a01b0361010090910481166020830152600283015481166040830152600383015416606082015260048201546080820152600582015460a0820152600682015460c082015260079091015460ff16151560e090910152835184908490811061134e5761134e613782565b60200260200101819052508180611364906136fb565b9250505b80611372816136fb565b9150506111d0565b5090949350505050565b600061138f60085490565b82106113f25760405162461bcd60e51b815260206004820152602c60248201527f455243373231456e756d657261626c653a20676c6f62616c20696e646578206f60448201526b7574206f6620626f756e647360a01b6064820152608401610706565b6008828154811061140557611405613782565b90600052602060002001549050919050565b6000818152600260205260408120546001600160a01b0316806104bb5760405162461bcd60e51b8152602060048201526018602482015277115490cdcc8c4e881a5b9d985b1a59081d1bdad95b88125160421b6044820152606401610706565b60006001600160a01b0382166114e15760405162461bcd60e51b815260206004820152602960248201527f4552433732313a2061646472657373207a65726f206973206e6f7420612076616044820152683634b21037bbb732b960b91b6064820152608401610706565b506001600160a01b031660009081526003602052604090205490565b806115078161257c565b6115235760405162461bcd60e51b815260040161070690613490565b6000828152601060205260409020600201546001600160a01b0316331461158c5760405162461bcd60e51b815260206004820181905260248201527f4f6e6c7920666f756e6465722063616e2063616e63656c20746865207461736b6044820152606401610706565b600b54600083815260106020526040908190206001810154600491820154925163a9059cbb60e01b81526001600160a01b03610100909204821692810192909252602482019290925291169063a9059cbb90604401602060405180830381600087803b1580156115fb57600080fd5b505af115801561160f573d6000803e3d6000fd5b505050506040513d601f19601f8201168201806040525081019061163391906130d0565b50600c546000838152601060205260409081902060050154905163a9059cbb60e01b815233600482015260248101919091526001600160a01b039091169063a9059cbb90604401602060405180830381600087803b15801561169457600080fd5b505af11580156116a8573d6000803e3d6000fd5b505050506040513d601f19601f820116820180604052508101906116cc91906130d0565b5060008281526010602052604090206001908101805460049260ff199091169083610eec565b60006104bb8261257c565b6060600180546104d0906136c6565b611714612d49565b8161171e8161257c565b61173a5760405162461bcd60e51b815260040161070690613490565b6000838152601060205260409081902081516101208101909252805482908290611763906136c6565b80601f016020809104026020016040519081016040528092919081815260200182805461178f906136c6565b80156117dc5780601f106117b1576101008083540402835291602001916117dc565b820191906000526020600020905b8154815290600101906020018083116117bf57829003601f168201915b5050509183525050600182015460209091019060ff16600481111561180357611803613756565b600481111561181457611814613756565b815260018201546001600160a01b0361010090910481166020830152600283015481166040830152600383015416606082015260048201546080820152600582015460a0820152600682015460c082015260079091015460ff16151560e09091015291505b50919050565b61188a338383612599565b5050565b6118983383612356565b6118b45760405162461bcd60e51b8152600401610706906134b8565b6118c084848484612668565b50505050565b816118d08161257c565b6118ec5760405162461bcd60e51b815260040161070690613490565b6000838152601060205260409020600301546001600160a01b031633146119555760405162461bcd60e51b815260206004820152601e60248201527f596f75277265206e6f742061206163636570746564206275696c6465722e00006044820152606401610706565b60008381526010602052604081206001015460ff16600481111561197b5761197b613756565b146119bd5760405162461bcd60e51b8152602060048201526012602482015271496e76616c6964207461736b20737461746560701b6044820152606401610706565b600c546040516370a0823160e01b815233600482015283916001600160a01b0316906370a082319060240160206040518083038186803b158015611a0057600080fd5b505afa158015611a14573d6000803e3d6000fd5b505050506040513d601f19601f82011682018060405250810190611a389190613140565b1015611a865760405162461bcd60e51b815260206004820152601860248201527f496e73756666696369656e7420464e445220616d6f756e7400000000000000006044820152606401610706565b600c546040516323b872dd60e01b8152336004820152306024820152604481018490526001600160a01b03909116906323b872dd90606401602060405180830381600087803b158015611ad857600080fd5b505af1158015611aec573d6000803e3d6000fd5b505050506040513d601f19601f82011682018060405250810190611b1091906130d0565b505060009182526010602052604090912060018101805460ff1916600217905560050155565b6060611b4182612295565b6000611b5860408051602081019091526000815290565b90506000815111611b785760405180602001604052806000815250611ba3565b80611b828461269b565b604051602001611b93929190613296565b6040516020818303038152906040525b9392505050565b80611bb48161257c565b611bd05760405162461bcd60e51b815260040161070690613490565b6000828152601060205260409020600201546001600160a01b03163314611c445760405162461bcd60e51b815260206004820152602260248201527f4f6e6c7920666f756e6465722063616e20636f6d706c65746520746865207461604482015261736b60f01b6064820152608401610706565b600160008381526010602052604090206001015460ff166004811115611c6c57611c6c613756565b14611cb45760405162461bcd60e51b81526020600482015260186024820152775461736b2073686f756c6420626520696e2072657669657760401b6044820152606401610706565b600e5460008381526010602052604080822060030154905163593c6e0d60e01b81526001600160a01b0391821660048201529192169063593c6e0d9060240160206040518083038186803b158015611d0b57600080fd5b505afa158015611d1f573d6000803e3d6000fd5b505050506040513d601f19601f82011682018060405250810190611d439190612e20565b600b546000858152601060205260409020600401549192506001600160a01b03169063a9059cbb908390606490611d7b90605f613664565b611d859190613562565b6040516001600160e01b031960e085901b1681526001600160a01b0390921660048301526024820152604401602060405180830381600087803b158015611dcb57600080fd5b505af1158015611ddf573d6000803e3d6000fd5b505050506040513d601f19601f82011682018060405250810190611e0391906130d0565b50600b54600d546000858152601060205260409020600401546001600160a01b039283169263a9059cbb921690606490611e3e906005613664565b611e489190613562565b6040516001600160e01b031960e085901b1681526001600160a01b0390921660048301526024820152604401602060405180830381600087803b158015611e8e57600080fd5b505af1158015611ea2573d6000803e3d6000fd5b505050506040513d601f19601f82011682018060405250810190611ec691906130d0565b506000838152601060205260409081902060018101805460ff191660031790556006015490516381f32edd60e01b815260048101919091526001600160a01b038216906381f32edd90602401600060405180830381600087803b158015611f2c57600080fd5b505af1158015611f40573d6000803e3d6000fd5b505050600084815260106020526040902060038101546004909101547ff684d89bb0f42287bf32838774e4b7f8a60c11804b3c6d1791fa55f30679264392506001600160a01b0390911690606490611f9990605f613664565b611fa39190613562565b604080516001600160a01b03909316835260208301919091520160405180910390a1505050565b80611fd48161257c565b611ff05760405162461bcd60e51b815260040161070690613490565b6000828152601060205260409020600301546001600160a01b031633148061203157506000828152601060205260409020600201546001600160a01b031633145b61204d5760405162461bcd60e51b815260040161070690613433565b600260008381526010602052604090206001015460ff16600481111561207557612075613756565b146120c25760405162461bcd60e51b815260206004820152601a60248201527f5461736b2073686f756c6420626520696e2070726f67726573730000000000006044820152606401610706565b60008281526010602052604090206001908101805460ff19168280610eec565b6000806103e890506000836001600160a01b03166369e294166040518163ffffffff1660e01b815260040160206040518083038186803b15801561212557600080fd5b505afa158015612139573d6000803e3d6000fd5b505050506040513d601f19601f8201168201806040525081019061215d9190613140565b9050600060028610156121a857612175866002613683565b612180906032613664565b600261218d88600a61354a565b61219791906135b9565b6121a19190613683565b90506121e2565b6121b3600287613683565b6121be906032613664565b60026121cb88600a61354a565b6121d591906135b9565b6121df919061354a565b90505b6121ed836032613664565b821015612202576121ff602d8261354a565b90505b61220d836014613664565b8210156122225761221f602d8261354a565b90505b95945050505050565b60006001600160e01b031982166380ac58cd60e01b148061225c57506001600160e01b03198216635b5e139f60e01b145b806104bb57506301ffc9a760e01b6001600160e01b03198316146104bb565b61188a828260405180602001604052806000815250612799565b61229e8161257c565b6122e55760405162461bcd60e51b8152602060048201526018602482015277115490cdcc8c4e881a5b9d985b1a59081d1bdad95b88125160421b6044820152606401610706565b50565b600081815260046020526040902080546001600160a01b0319166001600160a01b038416908117909155819061231d82611417565b6001600160a01b03167f8c5be1e5ebec7d5bd14f71427d1e84f3dd0314c0f7b2291e5b200ac8c7c3b92560405160405180910390a45050565b60008061236283611417565b9050806001600160a01b0316846001600160a01b031614806123a957506001600160a01b0380821660009081526005602090815260408083209388168352929052205460ff165b806123cd5750836001600160a01b03166123c284610b83565b6001600160a01b0316145b949350505050565b826001600160a01b03166123e882611417565b6001600160a01b03161461244c5760405162461bcd60e51b815260206004820152602560248201527f4552433732313a207472616e736665722066726f6d20696e636f72726563742060448201526437bbb732b960d91b6064820152608401610706565b6001600160a01b0382166124ae5760405162461bcd60e51b8152602060048201526024808201527f4552433732313a207472616e7366657220746f20746865207a65726f206164646044820152637265737360e01b6064820152608401610706565b6124b98383836127cc565b6124c46000826122e8565b6001600160a01b03831660009081526003602052604081208054600192906124ed908490613683565b90915550506001600160a01b038216600090815260036020526040812080546001929061251b90849061354a565b909155505060008181526002602052604080822080546001600160a01b0319166001600160a01b0386811691821790925591518493918716917fddf252ad1be2c89b69c2b068fc378daa952ba7f163c4a11628f55a4df523b3ef91a4505050565b6000908152600260205260409020546001600160a01b0316151590565b816001600160a01b0316836001600160a01b031614156125fb5760405162461bcd60e51b815260206004820152601960248201527f4552433732313a20617070726f766520746f2063616c6c6572000000000000006044820152606401610706565b6001600160a01b03838116600081815260056020908152604080832094871680845294825291829020805460ff191686151590811790915591519182527f17307eab39ab6107e8899845ad3d59bd9653f200f220920489ca2b5937696c31910160405180910390a3505050565b6126738484846123d5565b61267f84848484612831565b6118c05760405162461bcd60e51b8152600401610706906133e1565b6060816126bf5750506040805180820190915260018152600360fc1b602082015290565b8160005b81156126e957806126d3816136fb565b91506126e29050600a83613562565b91506126c3565b60008167ffffffffffffffff81111561270457612704613798565b6040519080825280601f01601f19166020018201604052801561272e576020820181803683370190505b5090505b84156123cd57612743600183613683565b9150612750600a86613716565b61275b90603061354a565b60f81b81838151811061277057612770613782565b60200101906001600160f81b031916908160001a905350612792600a86613562565b9450612732565b6127a3838361293e565b6127b06000848484612831565b610cbb5760405162461bcd60e51b8152600401610706906133e1565b600f54600160a01b900460ff16156128265760405162461bcd60e51b815260206004820152601b60248201527f5461736b20746f6b656e2063616e6e6f74207472616e736665722e00000000006044820152606401610706565b610cbb838383612a7d565b60006001600160a01b0384163b1561293357604051630a85bd0160e11b81526001600160a01b0385169063150b7a02906128759033908990889088906004016132c5565b602060405180830381600087803b15801561288f57600080fd5b505af19250505080156128bf575060408051601f3d908101601f191682019092526128bc9181019061310a565b60015b612919573d8080156128ed576040519150601f19603f3d011682016040523d82523d6000602084013e6128f2565b606091505b5080516129115760405162461bcd60e51b8152600401610706906133e1565b805181602001fd5b6001600160e01b031916630a85bd0160e11b1490506123cd565b506001949350505050565b6001600160a01b0382166129945760405162461bcd60e51b815260206004820181905260248201527f4552433732313a206d696e7420746f20746865207a65726f20616464726573736044820152606401610706565b61299d8161257c565b156129ea5760405162461bcd60e51b815260206004820152601c60248201527f4552433732313a20746f6b656e20616c7265616479206d696e746564000000006044820152606401610706565b6129f6600083836127cc565b6001600160a01b0382166000908152600360205260408120805460019290612a1f90849061354a565b909155505060008181526002602052604080822080546001600160a01b0319166001600160a01b03861690811790915590518392907fddf252ad1be2c89b69c2b068fc378daa952ba7f163c4a11628f55a4df523b3ef908290a45050565b6001600160a01b038316612ad857612ad381600880546000838152600960205260408120829055600182018355919091527ff3f7a9fe364faab93b216da50a3214154f22a0a2b415b23a84c8169e8b636ee30155565b612afb565b816001600160a01b0316836001600160a01b031614612afb57612afb8382612b35565b6001600160a01b038216612b1257610cbb81612bd2565b826001600160a01b0316826001600160a01b031614610cbb57610cbb8282612c81565b60006001612b4284611477565b612b4c9190613683565b600083815260076020526040902054909150808214612b9f576001600160a01b03841660009081526006602090815260408083208584528252808320548484528184208190558352600790915290208190555b5060009182526007602090815260408084208490556001600160a01b039094168352600681528383209183525290812055565b600854600090612be490600190613683565b60008381526009602052604081205460088054939450909284908110612c0c57612c0c613782565b906000526020600020015490508060088381548110612c2d57612c2d613782565b6000918252602080832090910192909255828152600990915260408082208490558582528120556008805480612c6557612c6561376c565b6001900381819060005260206000200160009055905550505050565b6000612c8c83611477565b6001600160a01b039093166000908152600660209081526040808320868452825280832085905593825260079052919091209190915550565b828054612cd1906136c6565b90600052602060002090601f016020900481019282612cf35760008555612d39565b82601f10612d0c57805160ff1916838001178555612d39565b82800160010185558215612d39579182015b82811115612d39578251825591602001919060010190612d1e565b50612d45929150612d96565b5090565b60408051610120810190915260608152602081016000815260006020820181905260408201819052606082018190526080820181905260a0820181905260c0820181905260e09091015290565b5b80821115612d455760008155600101612d97565b600067ffffffffffffffff831115612dc557612dc5613798565b612dd8601f8401601f1916602001613519565b9050828152838383011115612dec57600080fd5b828260208301376000602084830101529392505050565b600060208284031215612e1557600080fd5b8135611ba3816137ae565b600060208284031215612e3257600080fd5b8151611ba3816137ae565b60008060408385031215612e5057600080fd5b8235612e5b816137ae565b91506020830135612e6b816137ae565b809150509250929050565b60008060008060008060c08789031215612e8f57600080fd5b8635612e9a816137ae565b95506020870135612eaa816137ae565b9450604087013567ffffffffffffffff811115612ec657600080fd5b8701601f81018913612ed757600080fd5b612ee689823560208401612dab565b945050606087013592506080870135915060a087013590509295509295509295565b600080600060608486031215612f1d57600080fd5b8335612f28816137ae565b92506020840135612f38816137ae565b929592945050506040919091013590565b60008060008060808587031215612f5f57600080fd5b8435612f6a816137ae565b93506020850135612f7a816137ae565b925060408501359150606085013567ffffffffffffffff811115612f9d57600080fd5b8501601f81018713612fae57600080fd5b612fbd87823560208401612dab565b91505092959194509250565b60008060408385031215612fdc57600080fd5b8235612fe7816137ae565b91506020830135612e6b816137c3565b6000806040838503121561300a57600080fd5b8235613015816137ae565b946020939093013593505050565b6000602080838503121561303657600080fd5b825167ffffffffffffffff8082111561304e57600080fd5b818501915085601f83011261306257600080fd5b81518181111561307457613074613798565b8060051b9150613085848301613519565b8181528481019084860184860187018a10156130a057600080fd5b600095505b838610156130c35780518352600195909501949186019186016130a5565b5098975050505050505050565b6000602082840312156130e257600080fd5b8151611ba3816137c3565b6000602082840312156130ff57600080fd5b8135611ba3816137d1565b60006020828403121561311c57600080fd5b8151611ba3816137d1565b60006020828403121561313957600080fd5b5035919050565b60006020828403121561315257600080fd5b5051919050565b6000806040838503121561316c57600080fd5b823591506020830135612e6b816137ae565b6000806040838503121561319157600080fd5b50508035926020909101359150565b600081518084526131b881602086016020860161369a565b601f01601f19169290920160200192915050565b600581106131ea57634e487b7160e01b600052602160045260246000fd5b9052565b60006101208251818552613204828601826131a0565b915050602083015161321960208601826131cc565b506040838101516001600160a01b03169085015260608084015190613248908601826001600160a01b03169052565b50608083015161326360808601826001600160a01b03169052565b5060a083015160a085015260c083015160c085015260e083015160e08501526101008084015161137a8287018215159052565b600083516132a881846020880161369a565b8351908301906132bc81836020880161369a565b01949350505050565b6001600160a01b03858116825284166020820152604081018390526080606082018190526000906132f8908301846131a0565b9695505050505050565b6000602080830181845280855180835260408601915060408160051b870101925083870160005b8281101561335757603f198886030184526133458583516131ee565b94509285019290850190600101613329565b5092979650505050505050565b602081526000611ba360208301846131a0565b600061012080835261338b8184018d6131a0565b91505061339b602083018b6131cc565b6001600160a01b039889166040830152968816606082015294909616608085015260a084019290925260c083015260e08201529115156101009092019190915292915050565b60208082526032908201527f4552433732313a207472616e7366657220746f206e6f6e20455243373231526560408201527131b2b4bb32b91034b6b83632b6b2b73a32b960711b606082015260800190565b60208082526037908201527f4f6e6c7920666f756e646572206f72206163636570746564206275696c64657260408201527f2063616e20757064617465207461736b20737461747573000000000000000000606082015260800190565b6020808252600e908201526d15185cdac81b9bdd08199bdd5b9960921b604082015260600190565b6020808252602e908201527f4552433732313a2063616c6c6572206973206e6f7420746f6b656e206f776e6560408201526d1c881b9bdc88185c1c1c9bdd995960921b606082015260800190565b602081526000611ba360208301846131ee565b604051601f8201601f1916810167ffffffffffffffff8111828210171561354257613542613798565b604052919050565b6000821982111561355d5761355d61372a565b500190565b60008261357157613571613740565b500490565b600181815b808511156135b15781600019048211156135975761359761372a565b808516156135a457918102915b93841c939080029061357b565b509250929050565b6000611ba360ff8416836000826135d2575060016104bb565b816135df575060006104bb565b81600181146135f557600281146135ff5761361b565b60019150506104bb565b60ff8411156136105761361061372a565b50506001821b6104bb565b5060208310610133831016604e8410600b841016171561363e575081810a6104bb565b6136488383613576565b806000190482111561365c5761365c61372a565b029392505050565b600081600019048311821515161561367e5761367e61372a565b500290565b6000828210156136955761369561372a565b500390565b60005b838110156136b557818101518382015260200161369d565b838111156118c05750506000910152565b600181811c908216806136da57607f821691505b6020821081141561187957634e487b7160e01b600052602260045260246000fd5b600060001982141561370f5761370f61372a565b5060010190565b60008261372557613725613740565b500690565b634e487b7160e01b600052601160045260246000fd5b634e487b7160e01b600052601260045260246000fd5b634e487b7160e01b600052602160045260246000fd5b634e487b7160e01b600052603160045260246000fd5b634e487b7160e01b600052603260045260246000fd5b634e487b7160e01b600052604160045260246000fd5b6001600160a01b03811681146122e557600080fd5b80151581146122e557600080fd5b6001600160e01b0319811681146122e557600080fdfea2646970667358221220bd15dbe86eae243c1eb807e0bb86b009a023551db46dceee38c2b9cbef51ebd264736f6c63430008070033",
  "linkReferences": {},
  "deployedLinkReferences": {}
}