{
  "_format": "hh-sol-artifact-1",
  "contractName": "Task",
  "sourceName": "contracts/Task.sol",
  "abi": [
    {
      "inputs": [
        {
          "internalType": "address",
          "name": "_usdc_address",
          "type": "address"
        },
        {
          "internalType": "address",
          "name": "_fndr_address",
          "type": "address"
        },
        {
          "internalType": "address",
          "name": "_profileManageAddress",
          "type": "address"
        },
        {
          "internalType": "address",
          "name": "_projectManageAddress",
          "type": "address"
        }
      ],
      "stateMutability": "nonpayable",
      "type": "constructor"
    },
    {
      "anonymous": false,
      "inputs": [
        {
          "indexed": true,
          "internalType": "address",
          "name": "owner",
          "type": "address"
        },
        {
          "indexed": true,
          "internalType": "address",
          "name": "approved",
          "type": "address"
        },
        {
          "indexed": true,
          "internalType": "uint256",
          "name": "tokenId",
          "type": "uint256"
        }
      ],
      "name": "Approval",
      "type": "event"
    },
    {
      "anonymous": false,
      "inputs": [
        {
          "indexed": true,
          "internalType": "address",
          "name": "owner",
          "type": "address"
        },
        {
          "indexed": true,
          "internalType": "address",
          "name": "operator",
          "type": "address"
        },
        {
          "indexed": false,
          "internalType": "bool",
          "name": "approved",
          "type": "bool"
        }
      ],
      "name": "ApprovalForAll",
      "type": "event"
    },
    {
      "anonymous": false,
      "inputs": [
        {
          "indexed": false,
          "internalType": "address",
          "name": "founderAddress",
          "type": "address"
        },
        {
          "indexed": false,
          "internalType": "address",
          "name": "builderAddress",
          "type": "address"
        },
        {
          "indexed": false,
          "internalType": "uint256",
          "name": "usdc",
          "type": "uint256"
        }
      ],
      "name": "TaskCompleted",
      "type": "event"
    },
    {
      "anonymous": false,
      "inputs": [
        {
          "indexed": false,
          "internalType": "address",
          "name": "builderAddress",
          "type": "address"
        },
        {
          "indexed": false,
          "internalType": "uint256",
          "name": "taskId",
          "type": "uint256"
        }
      ],
      "name": "TaskCreated",
      "type": "event"
    },
    {
      "anonymous": false,
      "inputs": [
        {
          "indexed": true,
          "internalType": "address",
          "name": "from",
          "type": "address"
        },
        {
          "indexed": true,
          "internalType": "address",
          "name": "to",
          "type": "address"
        },
        {
          "indexed": true,
          "internalType": "uint256",
          "name": "tokenId",
          "type": "uint256"
        }
      ],
      "name": "Transfer",
      "type": "event"
    },
    {
      "inputs": [],
      "name": "USDCtoken",
      "outputs": [
        {
          "internalType": "contract IERC20",
          "name": "",
          "type": "address"
        }
      ],
      "stateMutability": "view",
      "type": "function"
    },
    {
      "inputs": [
        {
          "internalType": "address",
          "name": "to",
          "type": "address"
        },
        {
          "internalType": "uint256",
          "name": "tokenId",
          "type": "uint256"
        }
      ],
      "name": "approve",
      "outputs": [],
      "stateMutability": "nonpayable",
      "type": "function"
    },
    {
      "inputs": [
        {
          "internalType": "address",
          "name": "owner",
          "type": "address"
        }
      ],
      "name": "balanceOf",
      "outputs": [
        {
          "internalType": "uint256",
          "name": "",
          "type": "uint256"
        }
      ],
      "stateMutability": "view",
      "type": "function"
    },
    {
      "inputs": [
        {
          "internalType": "uint256",
          "name": "_difficulty",
          "type": "uint256"
        },
        {
          "internalType": "address",
          "name": "_builderProfileAddress",
          "type": "address"
        }
      ],
      "name": "calculateXP",
      "outputs": [
        {
          "internalType": "uint256",
          "name": "",
          "type": "uint256"
        }
      ],
      "stateMutability": "view",
      "type": "function"
    },
    {
      "inputs": [
        {
          "internalType": "uint256",
          "name": "_taskId",
          "type": "uint256"
        }
      ],
      "name": "cancelTask",
      "outputs": [],
      "stateMutability": "nonpayable",
      "type": "function"
    },
    {
      "inputs": [
        {
          "internalType": "uint256",
          "name": "_taskId",
          "type": "uint256"
        }
      ],
      "name": "checkTaskId",
      "outputs": [
        {
          "internalType": "bool",
          "name": "",
          "type": "bool"
        }
      ],
      "stateMutability": "view",
      "type": "function"
    },
    {
      "inputs": [
        {
          "internalType": "uint256",
          "name": "_taskId",
          "type": "uint256"
        },
        {
          "internalType": "uint256",
          "name": "_amount",
          "type": "uint256"
        }
      ],
      "name": "commitToTask",
      "outputs": [],
      "stateMutability": "nonpayable",
      "type": "function"
    },
    {
      "inputs": [
        {
          "internalType": "uint256",
          "name": "_taskId",
          "type": "uint256"
        }
      ],
      "name": "completeTask",
      "outputs": [],
      "stateMutability": "nonpayable",
      "type": "function"
    },
    {
      "inputs": [
        {
          "internalType": "address",
          "name": "_projectAddress",
          "type": "address"
        },
        {
          "internalType": "address",
          "name": "_builderAddress",
          "type": "address"
        },
        {
          "internalType": "string",
          "name": "_name",
          "type": "string"
        },
        {
          "internalType": "uint256",
          "name": "_usdc",
          "type": "uint256"
        },
        {
          "internalType": "uint256",
          "name": "_xp",
          "type": "uint256"
        },
        {
          "internalType": "uint256",
          "name": "_difficulty",
          "type": "uint256"
        }
      ],
      "name": "createTask",
      "outputs": [],
      "stateMutability": "nonpayable",
      "type": "function"
    },
    {
      "inputs": [
        {
          "internalType": "uint256",
          "name": "tokenId",
          "type": "uint256"
        }
      ],
      "name": "getApproved",
      "outputs": [
        {
          "internalType": "address",
          "name": "",
          "type": "address"
        }
      ],
      "stateMutability": "view",
      "type": "function"
    },
    {
      "inputs": [
        {
          "internalType": "uint256",
          "name": "_tokenId",
          "type": "uint256"
        }
      ],
      "name": "getTaskById",
      "outputs": [
        {
          "components": [
            {
              "internalType": "string",
              "name": "name",
              "type": "string"
            },
            {
              "internalType": "enum Task.State",
              "name": "currentState",
              "type": "uint8"
            },
            {
              "internalType": "address",
              "name": "projectAddress",
              "type": "address"
            },
            {
              "internalType": "address",
              "name": "founderAddress",
              "type": "address"
            },
            {
              "internalType": "address",
              "name": "builderAddress",
              "type": "address"
            },
            {
              "internalType": "uint256",
              "name": "usdc_amount",
              "type": "uint256"
            },
            {
              "internalType": "uint256",
              "name": "fndr_amount",
              "type": "uint256"
            },
            {
              "internalType": "uint256",
              "name": "xp",
              "type": "uint256"
            },
            {
              "internalType": "bool",
              "name": "isBuilderAgreed",
              "type": "bool"
            }
          ],
          "internalType": "struct Task.TaskInfo",
          "name": "",
          "type": "tuple"
        }
      ],
      "stateMutability": "view",
      "type": "function"
    },
    {
      "inputs": [
        {
          "internalType": "uint256",
          "name": "",
          "type": "uint256"
        }
      ],
      "name": "idToTask",
      "outputs": [
        {
          "internalType": "string",
          "name": "name",
          "type": "string"
        },
        {
          "internalType": "enum Task.State",
          "name": "currentState",
          "type": "uint8"
        },
        {
          "internalType": "address",
          "name": "projectAddress",
          "type": "address"
        },
        {
          "internalType": "address",
          "name": "founderAddress",
          "type": "address"
        },
        {
          "internalType": "address",
          "name": "builderAddress",
          "type": "address"
        },
        {
          "internalType": "uint256",
          "name": "usdc_amount",
          "type": "uint256"
        },
        {
          "internalType": "uint256",
          "name": "fndr_amount",
          "type": "uint256"
        },
        {
          "internalType": "uint256",
          "name": "xp",
          "type": "uint256"
        },
        {
          "internalType": "bool",
          "name": "isBuilderAgreed",
          "type": "bool"
        }
      ],
      "stateMutability": "view",
      "type": "function"
    },
    {
      "inputs": [
        {
          "internalType": "address",
          "name": "owner",
          "type": "address"
        },
        {
          "internalType": "address",
          "name": "operator",
          "type": "address"
        }
      ],
      "name": "isApprovedForAll",
      "outputs": [
        {
          "internalType": "bool",
          "name": "",
          "type": "bool"
        }
      ],
      "stateMutability": "view",
      "type": "function"
    },
    {
      "inputs": [],
      "name": "name",
      "outputs": [
        {
          "internalType": "string",
          "name": "",
          "type": "string"
        }
      ],
      "stateMutability": "view",
      "type": "function"
    },
    {
      "inputs": [
        {
          "internalType": "uint256",
          "name": "tokenId",
          "type": "uint256"
        }
      ],
      "name": "ownerOf",
      "outputs": [
        {
          "internalType": "address",
          "name": "",
          "type": "address"
        }
      ],
      "stateMutability": "view",
      "type": "function"
    },
    {
      "inputs": [
        {
          "internalType": "address",
          "name": "from",
          "type": "address"
        },
        {
          "internalType": "address",
          "name": "to",
          "type": "address"
        },
        {
          "internalType": "uint256",
          "name": "tokenId",
          "type": "uint256"
        }
      ],
      "name": "safeTransferFrom",
      "outputs": [],
      "stateMutability": "nonpayable",
      "type": "function"
    },
    {
      "inputs": [
        {
          "internalType": "address",
          "name": "from",
          "type": "address"
        },
        {
          "internalType": "address",
          "name": "to",
          "type": "address"
        },
        {
          "internalType": "uint256",
          "name": "tokenId",
          "type": "uint256"
        },
        {
          "internalType": "bytes",
          "name": "data",
          "type": "bytes"
        }
      ],
      "name": "safeTransferFrom",
      "outputs": [],
      "stateMutability": "nonpayable",
      "type": "function"
    },
    {
      "inputs": [
        {
          "internalType": "address",
          "name": "operator",
          "type": "address"
        },
        {
          "internalType": "bool",
          "name": "approved",
          "type": "bool"
        }
      ],
      "name": "setApprovalForAll",
      "outputs": [],
      "stateMutability": "nonpayable",
      "type": "function"
    },
    {
      "inputs": [
        {
          "internalType": "bytes4",
          "name": "interfaceId",
          "type": "bytes4"
        }
      ],
      "name": "supportsInterface",
      "outputs": [
        {
          "internalType": "bool",
          "name": "",
          "type": "bool"
        }
      ],
      "stateMutability": "view",
      "type": "function"
    },
    {
      "inputs": [],
      "name": "symbol",
      "outputs": [
        {
          "internalType": "string",
          "name": "",
          "type": "string"
        }
      ],
      "stateMutability": "view",
      "type": "function"
    },
    {
      "inputs": [
        {
          "internalType": "uint256",
          "name": "index",
          "type": "uint256"
        }
      ],
      "name": "tokenByIndex",
      "outputs": [
        {
          "internalType": "uint256",
          "name": "",
          "type": "uint256"
        }
      ],
      "stateMutability": "view",
      "type": "function"
    },
    {
      "inputs": [
        {
          "internalType": "address",
          "name": "owner",
          "type": "address"
        },
        {
          "internalType": "uint256",
          "name": "index",
          "type": "uint256"
        }
      ],
      "name": "tokenOfOwnerByIndex",
      "outputs": [
        {
          "internalType": "uint256",
          "name": "",
          "type": "uint256"
        }
      ],
      "stateMutability": "view",
      "type": "function"
    },
    {
      "inputs": [
        {
          "internalType": "uint256",
          "name": "tokenId",
          "type": "uint256"
        }
      ],
      "name": "tokenURI",
      "outputs": [
        {
          "internalType": "string",
          "name": "",
          "type": "string"
        }
      ],
      "stateMutability": "view",
      "type": "function"
    },
    {
      "inputs": [],
      "name": "totalSupply",
      "outputs": [
        {
          "internalType": "uint256",
          "name": "",
          "type": "uint256"
        }
      ],
      "stateMutability": "view",
      "type": "function"
    },
    {
      "inputs": [
        {
          "internalType": "address",
          "name": "from",
          "type": "address"
        },
        {
          "internalType": "address",
          "name": "to",
          "type": "address"
        },
        {
          "internalType": "uint256",
          "name": "tokenId",
          "type": "uint256"
        }
      ],
      "name": "transferFrom",
      "outputs": [],
      "stateMutability": "nonpayable",
      "type": "function"
    }
  ],
  "bytecode": "0x6080604052600c80546001600160a01b0319908116735ee8d1b65942116da65700849d65cc839e38cc5e17909155600d8054821673b5c051088e47d8d69824bac79499f90042341d02179055600e80549091167364e92a7b43f4395f8c731b8932c9677a829f642b179055600f80547401af269459b32bb2d5c46483c3dee571c671ca0fd56001600160a81b0319909116179055348015620000a057600080fd5b506040516200355338038062003553833981016040819052620000c39162000241565b604080518082018252600c81526b4275696c646572205461736b60a01b6020808301918252835180850190945260048452635461736b60e01b90840152815191929162000113916000916200017e565b508051620001299060019060208401906200017e565b5050600b80546001600160a01b03199081166001600160a01b0397881617909155600d805482169487169490941790935550600e80548316918516919091179055600f805490911691909216179055620002db565b8280546200018c906200029e565b90600052602060002090601f016020900481019282620001b05760008555620001fb565b82601f10620001cb57805160ff1916838001178555620001fb565b82800160010185558215620001fb579182015b82811115620001fb578251825591602001919060010190620001de565b50620002099291506200020d565b5090565b5b808211156200020957600081556001016200020e565b80516001600160a01b03811681146200023c57600080fd5b919050565b600080600080608085870312156200025857600080fd5b620002638562000224565b9350620002736020860162000224565b9250620002836040860162000224565b9150620002936060860162000224565b905092959194509250565b600181811c90821680620002b357607f821691505b60208210811415620002d557634e487b7160e01b600052602260045260246000fd5b50919050565b61326880620002eb6000396000f3fe608060405234801561001057600080fd5b50600436106101735760003560e01c80636352211e116100de578063a22cb46511610097578063c87b56dd11610071578063c87b56dd1461034e578063e1e2955814610361578063e985e9c514610374578063ec9abea2146103b057600080fd5b8063a22cb46514610315578063b88d4fde14610328578063c7945cff1461033b57600080fd5b80636352211e146102a157806370a08231146102b45780637eec20a8146102c75780638c02263b146102da57806395d89b41146102ed578063976217cd146102f557600080fd5b80631c8187a6116101305780631c8187a61461021a57806323b872dd146102425780632f745c59146102555780634185e5071461026857806342842e0e1461027b5780634f6ccce71461028e57600080fd5b806301ffc9a71461017857806306fdde03146101a0578063072bd7ee146101b5578063081812fc146101ca578063095ea7b3146101f557806318160ddd14610208575b600080fd5b61018b610186366004612c31565b6103c3565b60405190151581526020015b60405180910390f35b6101a86103ee565b6040516101979190612d9e565b6101c86101c3366004612a67565b610480565b005b6101dd6101d8366004612c6b565b6109f4565b6040516001600160a01b039091168152602001610197565b6101c8610203366004612be8565b610a1b565b6008545b604051908152602001610197565b61022d610228366004612c6b565b610b31565b60405161019799989796959493929190612db1565b6101c8610250366004612af9565b610c18565b61020c610263366004612be8565b610c49565b600b546101dd906001600160a01b031681565b6101c8610289366004612af9565b610cdf565b61020c61029c366004612c6b565b610cfa565b6101dd6102af366004612c6b565b610d8d565b61020c6102c23660046129f4565b610ded565b6101c86102d5366004612c6b565b610e73565b61018b6102e8366004612c6b565b61120e565b6101a8611219565b610308610303366004612c6b565b611228565b6040516101979190612ee3565b6101c8610323366004612bba565b6113e3565b6101c8610336366004612b3a565b6113f2565b6101c8610349366004612cc2565b61142a565b6101a861035c366004612c6b565b61169f565b6101c861036f366004612c6b565b611713565b61018b610382366004612a2e565b6001600160a01b03918216600090815260056020908152604080832093909416825291909152205460ff1690565b61020c6103be366004612c9d565b611d02565b60006001600160e01b0319821663780e9d6360e01b14806103e857506103e882611e4b565b92915050565b6060600080546103fd90613111565b80601f016020809104026020016040519081016040528092919081815260200182805461042990613111565b80156104765780601f1061044b57610100808354040283529160200191610476565b820191906000526020600020905b81548152906001019060200180831161045957829003601f168201915b5050505050905090565b600b546040516370a0823160e01b81526001600160a01b03808916600483015288928692600092909116906370a082319060240160206040518083038186803b1580156104cc57600080fd5b505afa1580156104e0573d6000803e3d6000fd5b505050506040513d601f19601f820116820180604052508101906105049190612c84565b9050606461051383606e6130af565b61051d9190612fad565b8110156105825760405162461bcd60e51b815260206004820152602860248201527f546f74616c207461736b2062756467657420657863656564732070726f6a65636044820152671d08189d5919d95d60c21b60648201526084015b60405180910390fd5b600e546040516323a30b2360e01b81526001600160a01b03808c1660048301528b926000929116906323a30b239060240160206040518083038186803b1580156105cb57600080fd5b505afa1580156105df573d6000803e3d6000fd5b505050506040513d601f19601f820116820180604052508101906106039190612a11565b90506001600160a01b03811633146106775760405162461bcd60e51b815260206004820152603160248201527f4f6e6c792070726f6a656374277320666f756e6465722063616e206372656174604482015270329030903a30b9b59037b71031b430b4b760791b6064820152608401610579565b600d5460405163593c6e0d60e01b81526001600160a01b038c81166004830152600092169063593c6e0d9060240160206040518083038186803b1580156106bd57600080fd5b505afa1580156106d1573d6000803e3d6000fd5b505050506040513d601f19601f820116820180604052508101906106f59190612a11565b90506001600160a01b03811661075d5760405162461bcd60e51b815260206004820152602760248201527f4275696c6465722070726f66696c6520646f6573206e6f74206578697374206f604482015266371031b430b4b760c91b6064820152608401610579565b60008711801561076d5750600687105b6107b95760405162461bcd60e51b815260206004820152601760248201527f496e76616c6964207461736b20646966666963756c74790000000000000000006044820152606401610579565b6107c38782611d02565b88146107fe5760405162461bcd60e51b815260206004820152600a6024820152690496e76616c69642058560b41b6044820152606401610579565b600f805460ff60a01b19169055610819600a80546001019055565b61082b8b610826600a5490565b611e9b565b6040805161012081019091528a815260208101600081526020018d6001600160a01b03168152602001336001600160a01b031681526020018c6001600160a01b031681526020018a8152602001600081526020018981526020016000151581525060106000610899600a5490565b81526020808201929092526040016000208251805191926108bf928492909101906128e5565b50602082015160018083018054909160ff19909116908360038111156108e7576108e76131a1565b021790555060408201516001820180546001600160a01b03928316610100908102610100600160a81b03199092169190911790915560608401516002840180549184166001600160a01b031992831617905560808501516003850180549190941691161790915560a0830151600483015560c0830151600583015560e08301516006830155909101516007909101805491151560ff19909216919091179055600f805460ff60a01b1916600160a01b1790557fb1c0ef93ef5afc0800a5789b004fdaf5931873276c7ccb409e7d1a310906886a8b6109c4600a5490565b604080516001600160a01b03909316835260208301919091520160405180910390a1505050505050505050505050565b60006109ff82611eb5565b506000908152600460205260409020546001600160a01b031690565b6000610a2682610d8d565b9050806001600160a01b0316836001600160a01b03161415610a945760405162461bcd60e51b815260206004820152602160248201527f4552433732313a20617070726f76616c20746f2063757272656e74206f776e656044820152603960f91b6064820152608401610579565b336001600160a01b0382161480610ab05750610ab08133610382565b610b225760405162461bcd60e51b815260206004820152603e60248201527f4552433732313a20617070726f76652063616c6c6572206973206e6f7420746f60448201527f6b656e206f776e6572206e6f7220617070726f76656420666f7220616c6c00006064820152608401610579565b610b2c8383611f08565b505050565b601060205260009081526040902080548190610b4c90613111565b80601f0160208091040260200160405190810160405280929190818152602001828054610b7890613111565b8015610bc55780601f10610b9a57610100808354040283529160200191610bc5565b820191906000526020600020905b815481529060010190602001808311610ba857829003601f168201915b505050600184015460028501546003860154600487015460058801546006890154600790990154979860ff808716996001600160a01b036101009098048816995095871697509390951694919390921689565b610c223382611f76565b610c3e5760405162461bcd60e51b815260040161057990612e95565b610b2c838383611ff5565b6000610c5483610ded565b8210610cb65760405162461bcd60e51b815260206004820152602b60248201527f455243373231456e756d657261626c653a206f776e657220696e646578206f7560448201526a74206f6620626f756e647360a81b6064820152608401610579565b506001600160a01b03919091166000908152600660209081526040808320938352929052205490565b610b2c838383604051806020016040528060008152506113f2565b6000610d0560085490565b8210610d685760405162461bcd60e51b815260206004820152602c60248201527f455243373231456e756d657261626c653a20676c6f62616c20696e646578206f60448201526b7574206f6620626f756e647360a01b6064820152608401610579565b60088281548110610d7b57610d7b6131cd565b90600052602060002001549050919050565b6000818152600260205260408120546001600160a01b0316806103e85760405162461bcd60e51b8152602060048201526018602482015277115490cdcc8c4e881a5b9d985b1a59081d1bdad95b88125160421b6044820152606401610579565b60006001600160a01b038216610e575760405162461bcd60e51b815260206004820152602960248201527f4552433732313a2061646472657373207a65726f206973206e6f7420612076616044820152683634b21037bbb732b960b91b6064820152608401610579565b506001600160a01b031660009081526003602052604090205490565b80610e7d8161219c565b610e995760405162461bcd60e51b815260040161057990612e6d565b6000828152601060205260409020600201546001600160a01b03163314610f025760405162461bcd60e51b815260206004820181905260248201527f4f6e6c7920666f756e6465722063616e2063616e63656c20746865207461736b6044820152606401610579565b600260008381526010602052604090206001015460ff166003811115610f2a57610f2a6131a1565b14158015610f5e5750600360008381526010602052604090206001015460ff166003811115610f5b57610f5b6131a1565b14155b610fb65760405162461bcd60e51b815260206004820152602360248201527f5461736b20616c726561647920636f6d706c65746564206f722063616e63656c6044820152621b195960ea1b6064820152608401610579565b600160008381526010602052604090206001015460ff166003811115610fde57610fde6131a1565b141561108757600f54600083815260106020526040908190206003810154600590910154915163a9059cbb60e01b81526001600160a01b03918216600482015260248101929092529091169063a9059cbb90604401602060405180830381600087803b15801561104d57600080fd5b505af1158015611061573d6000803e3d6000fd5b505050506040513d601f19601f820116820180604052508101906110859190612c14565b505b600b54600083815260106020526040908190206001810154600491820154925163a9059cbb60e01b81526001600160a01b03610100909204821692810192909252602482019290925291169063a9059cbb90604401602060405180830381600087803b1580156110f657600080fd5b505af115801561110a573d6000803e3d6000fd5b505050506040513d601f19601f8201168201806040525081019061112e9190612c14565b50600b54600083815260106020526040902060018101546004909101546001600160a01b039283169263a9059cbb926101009004169061117090600a90612fad565b6040516001600160e01b031960e085901b1681526001600160a01b0390921660048301526024820152604401602060405180830381600087803b1580156111b657600080fd5b505af11580156111ca573d6000803e3d6000fd5b505050506040513d601f19601f820116820180604052508101906111ee9190612c14565b50506000908152601060205260409020600101805460ff19166003179055565b60006103e88261219c565b6060600180546103fd90613111565b61127860408051610120810190915260608152602081016000815260006020820181905260408201819052606082018190526080820181905260a0820181905260c0820181905260e09091015290565b816112828161219c565b61129e5760405162461bcd60e51b815260040161057990612e6d565b60008381526010602052604090819020815161012081019092528054829082906112c790613111565b80601f01602080910402602001604051908101604052809291908181526020018280546112f390613111565b80156113405780601f1061131557610100808354040283529160200191611340565b820191906000526020600020905b81548152906001019060200180831161132357829003601f168201915b5050509183525050600182015460209091019060ff166003811115611367576113676131a1565b6003811115611378576113786131a1565b815260018201546001600160a01b0361010090910481166020830152600283015481166040830152600383015416606082015260048201546080820152600582015460a0820152600682015460c082015260079091015460ff16151560e09091015291505b50919050565b6113ee3383836121b9565b5050565b6113fc3383611f76565b6114185760405162461bcd60e51b815260040161057990612e95565b61142484848484612288565b50505050565b816114348161219c565b6114505760405162461bcd60e51b815260040161057990612e6d565b6000838152601060205260409020600301546001600160a01b031633146114b95760405162461bcd60e51b815260206004820152601e60248201527f596f75277265206e6f742061206163636570746564206275696c6465722e00006044820152606401610579565b60008381526010602052604081206001015460ff1660038111156114df576114df6131a1565b146115215760405162461bcd60e51b8152602060048201526012602482015271496e76616c6964207461736b20737461746560701b6044820152606401610579565b600f546040516370a0823160e01b815233600482015283916001600160a01b0316906370a082319060240160206040518083038186803b15801561156457600080fd5b505afa158015611578573d6000803e3d6000fd5b505050506040513d601f19601f8201168201806040525081019061159c9190612c84565b10156115ea5760405162461bcd60e51b815260206004820152601860248201527f496e73756666696369656e7420464e445220616d6f756e7400000000000000006044820152606401610579565b600f546040516323b872dd60e01b8152336004820152306024820152604481018490526001600160a01b03909116906323b872dd90606401602060405180830381600087803b15801561163c57600080fd5b505af1158015611650573d6000803e3d6000fd5b505050506040513d601f19601f820116820180604052508101906116749190612c14565b505060009182526010602052604090912060058101919091556001908101805460ff19169091179055565b60606116aa82611eb5565b60006116c160408051602081019091526000815290565b905060008151116116e1576040518060200160405280600081525061170c565b806116eb846122bb565b6040516020016116fc929190612d32565b6040516020818303038152906040525b9392505050565b8061171d8161219c565b6117395760405162461bcd60e51b815260040161057990612e6d565b6000828152601060205260409020600201546001600160a01b031633146117ad5760405162461bcd60e51b815260206004820152602260248201527f4f6e6c7920666f756e6465722063616e20636f6d706c65746520746865207461604482015261736b60f01b6064820152608401610579565b600160008381526010602052604090206001015460ff1660038111156117d5576117d56131a1565b146118225760405162461bcd60e51b815260206004820152601860248201527f5461736b2073686f756c6420626520696e2072657669657700000000000000006044820152606401610579565b600d5460008381526010602052604080822060030154905163593c6e0d60e01b81526001600160a01b0391821660048201529192169063593c6e0d9060240160206040518083038186803b15801561187957600080fd5b505afa15801561188d573d6000803e3d6000fd5b505050506040513d601f19601f820116820180604052508101906118b19190612a11565b600b546000858152601060205260409020600401549192506001600160a01b03169063a9059cbb9083906064906118e990605f6130af565b6118f39190612fad565b6040516001600160e01b031960e085901b1681526001600160a01b0390921660048301526024820152604401602060405180830381600087803b15801561193957600080fd5b505af115801561194d573d6000803e3d6000fd5b505050506040513d601f19601f820116820180604052508101906119719190612c14565b50600b54600c546000858152601060205260409020600401546001600160a01b039283169263a9059cbb9216906064906119ac9060056130af565b6119b69190612fad565b6040516001600160e01b031960e085901b1681526001600160a01b0390921660048301526024820152604401602060405180830381600087803b1580156119fc57600080fd5b505af1158015611a10573d6000803e3d6000fd5b505050506040513d601f19601f82011682018060405250810190611a349190612c14565b50600b54600c546000858152601060205260409020600401546001600160a01b039283169263a9059cbb921690611a6d90600a90612fad565b6040516001600160e01b031960e085901b1681526001600160a01b0390921660048301526024820152604401602060405180830381600087803b158015611ab357600080fd5b505af1158015611ac7573d6000803e3d6000fd5b505050506040513d601f19601f82011682018060405250810190611aeb9190612c14565b506000838152601060205260409081902060018101805460ff191660021790556006015490516381f32edd60e01b815260048101919091526001600160a01b038216906381f32edd90602401600060405180830381600087803b158015611b5157600080fd5b505af1158015611b65573d6000803e3d6000fd5b5050506000848152601060205260409020600401546001600160a01b03831691506327909ee990606490611b9a90605f6130af565b611ba49190612fad565b6040518263ffffffff1660e01b8152600401611bc291815260200190565b600060405180830381600087803b158015611bdc57600080fd5b505af1158015611bf0573d6000803e3d6000fd5b5050600f5460008681526010602052604090819020600501549051632770a7eb60e21b815230600482015260248101919091526001600160a01b039091169250639dc29fac9150604401600060405180830381600087803b158015611c5457600080fd5b505af1158015611c68573d6000803e3d6000fd5b5050506000848152601060205260409020600281015460038201546004909201547f65f534584f0e90047cf062076979fe5dcd2a053548e31fdd49138bef6db88c0293506001600160a01b039182169290911690606490611cca90605f6130af565b611cd49190612fad565b604080516001600160a01b0394851681529390921660208401529082015260600160405180910390a1505050565b6000806103e890506000836001600160a01b03166369e294166040518163ffffffff1660e01b815260040160206040518083038186803b158015611d4557600080fd5b505afa158015611d59573d6000803e3d6000fd5b505050506040513d601f19601f82011682018060405250810190611d7d9190612c84565b905060006002861015611dc857611d958660026130ce565b611da09060326130af565b6002611dad88600a612f95565b611db79190613004565b611dc191906130ce565b9050611e02565b611dd36002876130ce565b611dde9060326130af565b6002611deb88600a612f95565b611df59190613004565b611dff9190612f95565b90505b611e0d8360326130af565b821015611e2257611e1f602d82612f95565b90505b611e2d8360146130af565b821015611e4257611e3f602d82612f95565b90505b95945050505050565b60006001600160e01b031982166380ac58cd60e01b1480611e7c57506001600160e01b03198216635b5e139f60e01b145b806103e857506301ffc9a760e01b6001600160e01b03198316146103e8565b6113ee8282604051806020016040528060008152506123b9565b611ebe8161219c565b611f055760405162461bcd60e51b8152602060048201526018602482015277115490cdcc8c4e881a5b9d985b1a59081d1bdad95b88125160421b6044820152606401610579565b50565b600081815260046020526040902080546001600160a01b0319166001600160a01b0384169081179091558190611f3d82610d8d565b6001600160a01b03167f8c5be1e5ebec7d5bd14f71427d1e84f3dd0314c0f7b2291e5b200ac8c7c3b92560405160405180910390a45050565b600080611f8283610d8d565b9050806001600160a01b0316846001600160a01b03161480611fc957506001600160a01b0380821660009081526005602090815260408083209388168352929052205460ff165b80611fed5750836001600160a01b0316611fe2846109f4565b6001600160a01b0316145b949350505050565b826001600160a01b031661200882610d8d565b6001600160a01b03161461206c5760405162461bcd60e51b815260206004820152602560248201527f4552433732313a207472616e736665722066726f6d20696e636f72726563742060448201526437bbb732b960d91b6064820152608401610579565b6001600160a01b0382166120ce5760405162461bcd60e51b8152602060048201526024808201527f4552433732313a207472616e7366657220746f20746865207a65726f206164646044820152637265737360e01b6064820152608401610579565b6120d98383836123ec565b6120e4600082611f08565b6001600160a01b038316600090815260036020526040812080546001929061210d9084906130ce565b90915550506001600160a01b038216600090815260036020526040812080546001929061213b908490612f95565b909155505060008181526002602052604080822080546001600160a01b0319166001600160a01b0386811691821790925591518493918716917fddf252ad1be2c89b69c2b068fc378daa952ba7f163c4a11628f55a4df523b3ef91a4505050565b6000908152600260205260409020546001600160a01b0316151590565b816001600160a01b0316836001600160a01b0316141561221b5760405162461bcd60e51b815260206004820152601960248201527f4552433732313a20617070726f766520746f2063616c6c6572000000000000006044820152606401610579565b6001600160a01b03838116600081815260056020908152604080832094871680845294825291829020805460ff191686151590811790915591519182527f17307eab39ab6107e8899845ad3d59bd9653f200f220920489ca2b5937696c31910160405180910390a3505050565b612293848484611ff5565b61229f84848484612451565b6114245760405162461bcd60e51b815260040161057990612e1b565b6060816122df5750506040805180820190915260018152600360fc1b602082015290565b8160005b811561230957806122f381613146565b91506123029050600a83612fad565b91506122e3565b60008167ffffffffffffffff811115612324576123246131e3565b6040519080825280601f01601f19166020018201604052801561234e576020820181803683370190505b5090505b8415611fed576123636001836130ce565b9150612370600a86613161565b61237b906030612f95565b60f81b818381518110612390576123906131cd565b60200101906001600160f81b031916908160001a9053506123b2600a86612fad565b9450612352565b6123c3838361255e565b6123d06000848484612451565b610b2c5760405162461bcd60e51b815260040161057990612e1b565b600f54600160a01b900460ff16156124465760405162461bcd60e51b815260206004820152601b60248201527f5461736b20746f6b656e2063616e6e6f74207472616e736665722e00000000006044820152606401610579565b610b2c83838361269d565b60006001600160a01b0384163b1561255357604051630a85bd0160e11b81526001600160a01b0385169063150b7a0290612495903390899088908890600401612d61565b602060405180830381600087803b1580156124af57600080fd5b505af19250505080156124df575060408051601f3d908101601f191682019092526124dc91810190612c4e565b60015b612539573d80801561250d576040519150601f19603f3d011682016040523d82523d6000602084013e612512565b606091505b5080516125315760405162461bcd60e51b815260040161057990612e1b565b805181602001fd5b6001600160e01b031916630a85bd0160e11b149050611fed565b506001949350505050565b6001600160a01b0382166125b45760405162461bcd60e51b815260206004820181905260248201527f4552433732313a206d696e7420746f20746865207a65726f20616464726573736044820152606401610579565b6125bd8161219c565b1561260a5760405162461bcd60e51b815260206004820152601c60248201527f4552433732313a20746f6b656e20616c7265616479206d696e746564000000006044820152606401610579565b612616600083836123ec565b6001600160a01b038216600090815260036020526040812080546001929061263f908490612f95565b909155505060008181526002602052604080822080546001600160a01b0319166001600160a01b03861690811790915590518392907fddf252ad1be2c89b69c2b068fc378daa952ba7f163c4a11628f55a4df523b3ef908290a45050565b6001600160a01b0383166126f8576126f381600880546000838152600960205260408120829055600182018355919091527ff3f7a9fe364faab93b216da50a3214154f22a0a2b415b23a84c8169e8b636ee30155565b61271b565b816001600160a01b0316836001600160a01b03161461271b5761271b8382612755565b6001600160a01b03821661273257610b2c816127f2565b826001600160a01b0316826001600160a01b031614610b2c57610b2c82826128a1565b6000600161276284610ded565b61276c91906130ce565b6000838152600760205260409020549091508082146127bf576001600160a01b03841660009081526006602090815260408083208584528252808320548484528184208190558352600790915290208190555b5060009182526007602090815260408084208490556001600160a01b039094168352600681528383209183525290812055565b600854600090612804906001906130ce565b6000838152600960205260408120546008805493945090928490811061282c5761282c6131cd565b90600052602060002001549050806008838154811061284d5761284d6131cd565b6000918252602080832090910192909255828152600990915260408082208490558582528120556008805480612885576128856131b7565b6001900381819060005260206000200160009055905550505050565b60006128ac83610ded565b6001600160a01b039093166000908152600660209081526040808320868452825280832085905593825260079052919091209190915550565b8280546128f190613111565b90600052602060002090601f0160209004810192826129135760008555612959565b82601f1061292c57805160ff1916838001178555612959565b82800160010185558215612959579182015b8281111561295957825182559160200191906001019061293e565b50612965929150612969565b5090565b5b80821115612965576000815560010161296a565b600067ffffffffffffffff80841115612999576129996131e3565b604051601f8501601f19908116603f011681019082821181831017156129c1576129c16131e3565b816040528093508581528686860111156129da57600080fd5b858560208301376000602087830101525050509392505050565b600060208284031215612a0657600080fd5b813561170c816131f9565b600060208284031215612a2357600080fd5b815161170c816131f9565b60008060408385031215612a4157600080fd5b8235612a4c816131f9565b91506020830135612a5c816131f9565b809150509250929050565b60008060008060008060c08789031215612a8057600080fd5b8635612a8b816131f9565b95506020870135612a9b816131f9565b9450604087013567ffffffffffffffff811115612ab757600080fd5b8701601f81018913612ac857600080fd5b612ad78982356020840161297e565b945050606087013592506080870135915060a087013590509295509295509295565b600080600060608486031215612b0e57600080fd5b8335612b19816131f9565b92506020840135612b29816131f9565b929592945050506040919091013590565b60008060008060808587031215612b5057600080fd5b8435612b5b816131f9565b93506020850135612b6b816131f9565b925060408501359150606085013567ffffffffffffffff811115612b8e57600080fd5b8501601f81018713612b9f57600080fd5b612bae8782356020840161297e565b91505092959194509250565b60008060408385031215612bcd57600080fd5b8235612bd8816131f9565b91506020830135612a5c8161320e565b60008060408385031215612bfb57600080fd5b8235612c06816131f9565b946020939093013593505050565b600060208284031215612c2657600080fd5b815161170c8161320e565b600060208284031215612c4357600080fd5b813561170c8161321c565b600060208284031215612c6057600080fd5b815161170c8161321c565b600060208284031215612c7d57600080fd5b5035919050565b600060208284031215612c9657600080fd5b5051919050565b60008060408385031215612cb057600080fd5b823591506020830135612a5c816131f9565b60008060408385031215612cd557600080fd5b50508035926020909101359150565b60008151808452612cfc8160208601602086016130e5565b601f01601f19169290920160200192915050565b60048110612d2e57634e487b7160e01b600052602160045260246000fd5b9052565b60008351612d448184602088016130e5565b835190830190612d588183602088016130e5565b01949350505050565b6001600160a01b0385811682528416602082015260408101839052608060608201819052600090612d9490830184612ce4565b9695505050505050565b60208152600061170c6020830184612ce4565b6000610120808352612dc58184018d612ce4565b915050612dd5602083018b612d10565b6001600160a01b039889166040830152968816606082015294909616608085015260a084019290925260c083015260e08201529115156101009092019190915292915050565b60208082526032908201527f4552433732313a207472616e7366657220746f206e6f6e20455243373231526560408201527131b2b4bb32b91034b6b83632b6b2b73a32b960711b606082015260800190565b6020808252600e908201526d15185cdac81b9bdd08199bdd5b9960921b604082015260600190565b6020808252602e908201527f4552433732313a2063616c6c6572206973206e6f7420746f6b656e206f776e6560408201526d1c881b9bdc88185c1c1c9bdd995960921b606082015260800190565b6020815260008251610120806020850152612f02610140850183612ce4565b91506020850151612f166040860182612d10565b5060408501516001600160a01b03811660608601525060608501516001600160a01b03811660808601525060808501516001600160a01b03811660a08601525060a085015160c085015260c085015160e085015260e0850151610100818187015280870151915050612f8b8286018215159052565b5090949350505050565b60008219821115612fa857612fa8613175565b500190565b600082612fbc57612fbc61318b565b500490565b600181815b80851115612ffc578160001904821115612fe257612fe2613175565b80851615612fef57918102915b93841c9390800290612fc6565b509250929050565b600061170c60ff84168360008261301d575060016103e8565b8161302a575060006103e8565b8160018114613040576002811461304a57613066565b60019150506103e8565b60ff84111561305b5761305b613175565b50506001821b6103e8565b5060208310610133831016604e8410600b8410161715613089575081810a6103e8565b6130938383612fc1565b80600019048211156130a7576130a7613175565b029392505050565b60008160001904831182151516156130c9576130c9613175565b500290565b6000828210156130e0576130e0613175565b500390565b60005b838110156131005781810151838201526020016130e8565b838111156114245750506000910152565b600181811c9082168061312557607f821691505b602082108114156113dd57634e487b7160e01b600052602260045260246000fd5b600060001982141561315a5761315a613175565b5060010190565b6000826131705761317061318b565b500690565b634e487b7160e01b600052601160045260246000fd5b634e487b7160e01b600052601260045260246000fd5b634e487b7160e01b600052602160045260246000fd5b634e487b7160e01b600052603160045260246000fd5b634e487b7160e01b600052603260045260246000fd5b634e487b7160e01b600052604160045260246000fd5b6001600160a01b0381168114611f0557600080fd5b8015158114611f0557600080fd5b6001600160e01b031981168114611f0557600080fdfea2646970667358221220d52d939ca4f58251dc6776d5cf6aa014ea8a329608ad4073d728a2a5d4b218a764736f6c63430008070033",
  "linkReferences": {},
  "deployedLinkReferences": {}
}