{
  "_format": "hh-sol-artifact-1",
  "contractName": "Task",
  "sourceName": "contracts/Task.sol",
  "abi": [
    {
      "inputs": [
        {
          "internalType": "address",
          "name": "_usdc_address",
          "type": "address"
        },
        {
          "internalType": "address",
          "name": "_profileManageAddress",
          "type": "address"
        },
        {
          "internalType": "address",
          "name": "_projectManageAddress",
          "type": "address"
        }
      ],
      "stateMutability": "nonpayable",
      "type": "constructor"
    },
    {
      "anonymous": false,
      "inputs": [
        {
          "indexed": true,
          "internalType": "address",
          "name": "owner",
          "type": "address"
        },
        {
          "indexed": true,
          "internalType": "address",
          "name": "approved",
          "type": "address"
        },
        {
          "indexed": true,
          "internalType": "uint256",
          "name": "tokenId",
          "type": "uint256"
        }
      ],
      "name": "Approval",
      "type": "event"
    },
    {
      "anonymous": false,
      "inputs": [
        {
          "indexed": true,
          "internalType": "address",
          "name": "owner",
          "type": "address"
        },
        {
          "indexed": true,
          "internalType": "address",
          "name": "operator",
          "type": "address"
        },
        {
          "indexed": false,
          "internalType": "bool",
          "name": "approved",
          "type": "bool"
        }
      ],
      "name": "ApprovalForAll",
      "type": "event"
    },
    {
      "anonymous": false,
      "inputs": [
        {
          "indexed": false,
          "internalType": "address",
          "name": "builderAddress",
          "type": "address"
        },
        {
          "indexed": false,
          "internalType": "uint256",
          "name": "taskId",
          "type": "uint256"
        }
      ],
      "name": "TaskCreated",
      "type": "event"
    },
    {
      "anonymous": false,
      "inputs": [
        {
          "indexed": true,
          "internalType": "address",
          "name": "from",
          "type": "address"
        },
        {
          "indexed": true,
          "internalType": "address",
          "name": "to",
          "type": "address"
        },
        {
          "indexed": true,
          "internalType": "uint256",
          "name": "tokenId",
          "type": "uint256"
        }
      ],
      "name": "Transfer",
      "type": "event"
    },
    {
      "inputs": [],
      "name": "USDCtoken",
      "outputs": [
        {
          "internalType": "contract IERC20",
          "name": "",
          "type": "address"
        }
      ],
      "stateMutability": "view",
      "type": "function"
    },
    {
      "inputs": [
        {
          "internalType": "uint256",
          "name": "_taskId",
          "type": "uint256"
        }
      ],
      "name": "agreeCancellationByBuilder",
      "outputs": [],
      "stateMutability": "nonpayable",
      "type": "function"
    },
    {
      "inputs": [
        {
          "internalType": "address",
          "name": "to",
          "type": "address"
        },
        {
          "internalType": "uint256",
          "name": "tokenId",
          "type": "uint256"
        }
      ],
      "name": "approve",
      "outputs": [],
      "stateMutability": "nonpayable",
      "type": "function"
    },
    {
      "inputs": [
        {
          "internalType": "address",
          "name": "owner",
          "type": "address"
        }
      ],
      "name": "balanceOf",
      "outputs": [
        {
          "internalType": "uint256",
          "name": "",
          "type": "uint256"
        }
      ],
      "stateMutability": "view",
      "type": "function"
    },
    {
      "inputs": [
        {
          "internalType": "uint256",
          "name": "_taskId",
          "type": "uint256"
        }
      ],
      "name": "cancelTask",
      "outputs": [],
      "stateMutability": "nonpayable",
      "type": "function"
    },
    {
      "inputs": [
        {
          "internalType": "uint256",
          "name": "_taskId",
          "type": "uint256"
        }
      ],
      "name": "checkTaskId",
      "outputs": [
        {
          "internalType": "bool",
          "name": "",
          "type": "bool"
        }
      ],
      "stateMutability": "view",
      "type": "function"
    },
    {
      "inputs": [
        {
          "internalType": "uint256",
          "name": "_taskId",
          "type": "uint256"
        }
      ],
      "name": "completeTask",
      "outputs": [],
      "stateMutability": "nonpayable",
      "type": "function"
    },
    {
      "inputs": [
        {
          "internalType": "address",
          "name": "_projectAddress",
          "type": "address"
        },
        {
          "internalType": "address",
          "name": "_builderAddress",
          "type": "address"
        },
        {
          "internalType": "string",
          "name": "_name",
          "type": "string"
        },
        {
          "internalType": "uint256",
          "name": "_usdc",
          "type": "uint256"
        },
        {
          "internalType": "uint256",
          "name": "_xp",
          "type": "uint256"
        }
      ],
      "name": "createTask",
      "outputs": [],
      "stateMutability": "nonpayable",
      "type": "function"
    },
    {
      "inputs": [
        {
          "internalType": "uint256",
          "name": "tokenId",
          "type": "uint256"
        }
      ],
      "name": "getApproved",
      "outputs": [
        {
          "internalType": "address",
          "name": "",
          "type": "address"
        }
      ],
      "stateMutability": "view",
      "type": "function"
    },
    {
      "inputs": [
        {
          "internalType": "address",
          "name": "_builderAddress",
          "type": "address"
        }
      ],
      "name": "getBuilderTasks",
      "outputs": [
        {
          "components": [
            {
              "internalType": "string",
              "name": "name",
              "type": "string"
            },
            {
              "internalType": "enum Task.State",
              "name": "currentState",
              "type": "uint8"
            },
            {
              "internalType": "address",
              "name": "projectAddress",
              "type": "address"
            },
            {
              "internalType": "address",
              "name": "founderAddress",
              "type": "address"
            },
            {
              "internalType": "address",
              "name": "builderAddress",
              "type": "address"
            },
            {
              "internalType": "uint256",
              "name": "usdc_amount",
              "type": "uint256"
            },
            {
              "internalType": "uint256",
              "name": "fndr_amount",
              "type": "uint256"
            },
            {
              "internalType": "uint256",
              "name": "xp",
              "type": "uint256"
            },
            {
              "internalType": "bool",
              "name": "isBuilderAgreed",
              "type": "bool"
            }
          ],
          "internalType": "struct Task.TaskInfo[]",
          "name": "",
          "type": "tuple[]"
        }
      ],
      "stateMutability": "view",
      "type": "function"
    },
    {
      "inputs": [
        {
          "internalType": "uint256",
          "name": "_tokenId",
          "type": "uint256"
        }
      ],
      "name": "getTaskById",
      "outputs": [
        {
          "components": [
            {
              "internalType": "string",
              "name": "name",
              "type": "string"
            },
            {
              "internalType": "enum Task.State",
              "name": "currentState",
              "type": "uint8"
            },
            {
              "internalType": "address",
              "name": "projectAddress",
              "type": "address"
            },
            {
              "internalType": "address",
              "name": "founderAddress",
              "type": "address"
            },
            {
              "internalType": "address",
              "name": "builderAddress",
              "type": "address"
            },
            {
              "internalType": "uint256",
              "name": "usdc_amount",
              "type": "uint256"
            },
            {
              "internalType": "uint256",
              "name": "fndr_amount",
              "type": "uint256"
            },
            {
              "internalType": "uint256",
              "name": "xp",
              "type": "uint256"
            },
            {
              "internalType": "bool",
              "name": "isBuilderAgreed",
              "type": "bool"
            }
          ],
          "internalType": "struct Task.TaskInfo",
          "name": "",
          "type": "tuple"
        }
      ],
      "stateMutability": "view",
      "type": "function"
    },
    {
      "inputs": [
        {
          "internalType": "uint256",
          "name": "",
          "type": "uint256"
        }
      ],
      "name": "idToTask",
      "outputs": [
        {
          "internalType": "string",
          "name": "name",
          "type": "string"
        },
        {
          "internalType": "enum Task.State",
          "name": "currentState",
          "type": "uint8"
        },
        {
          "internalType": "address",
          "name": "projectAddress",
          "type": "address"
        },
        {
          "internalType": "address",
          "name": "founderAddress",
          "type": "address"
        },
        {
          "internalType": "address",
          "name": "builderAddress",
          "type": "address"
        },
        {
          "internalType": "uint256",
          "name": "usdc_amount",
          "type": "uint256"
        },
        {
          "internalType": "uint256",
          "name": "fndr_amount",
          "type": "uint256"
        },
        {
          "internalType": "uint256",
          "name": "xp",
          "type": "uint256"
        },
        {
          "internalType": "bool",
          "name": "isBuilderAgreed",
          "type": "bool"
        }
      ],
      "stateMutability": "view",
      "type": "function"
    },
    {
      "inputs": [
        {
          "internalType": "address",
          "name": "owner",
          "type": "address"
        },
        {
          "internalType": "address",
          "name": "operator",
          "type": "address"
        }
      ],
      "name": "isApprovedForAll",
      "outputs": [
        {
          "internalType": "bool",
          "name": "",
          "type": "bool"
        }
      ],
      "stateMutability": "view",
      "type": "function"
    },
    {
      "inputs": [],
      "name": "name",
      "outputs": [
        {
          "internalType": "string",
          "name": "",
          "type": "string"
        }
      ],
      "stateMutability": "view",
      "type": "function"
    },
    {
      "inputs": [
        {
          "internalType": "uint256",
          "name": "tokenId",
          "type": "uint256"
        }
      ],
      "name": "ownerOf",
      "outputs": [
        {
          "internalType": "address",
          "name": "",
          "type": "address"
        }
      ],
      "stateMutability": "view",
      "type": "function"
    },
    {
      "inputs": [
        {
          "internalType": "address",
          "name": "from",
          "type": "address"
        },
        {
          "internalType": "address",
          "name": "to",
          "type": "address"
        },
        {
          "internalType": "uint256",
          "name": "tokenId",
          "type": "uint256"
        }
      ],
      "name": "safeTransferFrom",
      "outputs": [],
      "stateMutability": "nonpayable",
      "type": "function"
    },
    {
      "inputs": [
        {
          "internalType": "address",
          "name": "from",
          "type": "address"
        },
        {
          "internalType": "address",
          "name": "to",
          "type": "address"
        },
        {
          "internalType": "uint256",
          "name": "tokenId",
          "type": "uint256"
        },
        {
          "internalType": "bytes",
          "name": "data",
          "type": "bytes"
        }
      ],
      "name": "safeTransferFrom",
      "outputs": [],
      "stateMutability": "nonpayable",
      "type": "function"
    },
    {
      "inputs": [
        {
          "internalType": "address",
          "name": "operator",
          "type": "address"
        },
        {
          "internalType": "bool",
          "name": "approved",
          "type": "bool"
        }
      ],
      "name": "setApprovalForAll",
      "outputs": [],
      "stateMutability": "nonpayable",
      "type": "function"
    },
    {
      "inputs": [
        {
          "internalType": "uint256",
          "name": "_taskId",
          "type": "uint256"
        }
      ],
      "name": "startTask",
      "outputs": [],
      "stateMutability": "nonpayable",
      "type": "function"
    },
    {
      "inputs": [
        {
          "internalType": "bytes4",
          "name": "interfaceId",
          "type": "bytes4"
        }
      ],
      "name": "supportsInterface",
      "outputs": [
        {
          "internalType": "bool",
          "name": "",
          "type": "bool"
        }
      ],
      "stateMutability": "view",
      "type": "function"
    },
    {
      "inputs": [],
      "name": "symbol",
      "outputs": [
        {
          "internalType": "string",
          "name": "",
          "type": "string"
        }
      ],
      "stateMutability": "view",
      "type": "function"
    },
    {
      "inputs": [
        {
          "internalType": "uint256",
          "name": "index",
          "type": "uint256"
        }
      ],
      "name": "tokenByIndex",
      "outputs": [
        {
          "internalType": "uint256",
          "name": "",
          "type": "uint256"
        }
      ],
      "stateMutability": "view",
      "type": "function"
    },
    {
      "inputs": [
        {
          "internalType": "address",
          "name": "owner",
          "type": "address"
        },
        {
          "internalType": "uint256",
          "name": "index",
          "type": "uint256"
        }
      ],
      "name": "tokenOfOwnerByIndex",
      "outputs": [
        {
          "internalType": "uint256",
          "name": "",
          "type": "uint256"
        }
      ],
      "stateMutability": "view",
      "type": "function"
    },
    {
      "inputs": [
        {
          "internalType": "uint256",
          "name": "tokenId",
          "type": "uint256"
        }
      ],
      "name": "tokenURI",
      "outputs": [
        {
          "internalType": "string",
          "name": "",
          "type": "string"
        }
      ],
      "stateMutability": "view",
      "type": "function"
    },
    {
      "inputs": [],
      "name": "totalSupply",
      "outputs": [
        {
          "internalType": "uint256",
          "name": "",
          "type": "uint256"
        }
      ],
      "stateMutability": "view",
      "type": "function"
    },
    {
      "inputs": [
        {
          "internalType": "address",
          "name": "from",
          "type": "address"
        },
        {
          "internalType": "address",
          "name": "to",
          "type": "address"
        },
        {
          "internalType": "uint256",
          "name": "tokenId",
          "type": "uint256"
        }
      ],
      "name": "transferFrom",
      "outputs": [],
      "stateMutability": "nonpayable",
      "type": "function"
    }
  ],
  "bytecode": "0x6080604052735ee8d1b65942116da65700849d65cc839e38cc5e600b60006101000a81548173ffffffffffffffffffffffffffffffffffffffff021916908373ffffffffffffffffffffffffffffffffffffffff16021790555073b5c051088e47d8d69824bac79499f90042341d02600c60006101000a81548173ffffffffffffffffffffffffffffffffffffffff021916908373ffffffffffffffffffffffffffffffffffffffff1602179055507364e92a7b43f4395f8c731b8932c9677a829f642b600d60006101000a81548173ffffffffffffffffffffffffffffffffffffffff021916908373ffffffffffffffffffffffffffffffffffffffff1602179055506001600d60146101000a81548160ff0219169083151502179055503480156200012b57600080fd5b5060405162005b4c38038062005b4c833981810160405281019062000151919062000384565b6040518060400160405280600c81526020017f4275696c646572205461736b00000000000000000000000000000000000000008152506040518060400160405280600481526020017f5461736b000000000000000000000000000000000000000000000000000000008152508160009080519060200190620001d5929190620002bd565b508060019080519060200190620001ee929190620002bd565b50505082600a60006101000a81548173ffffffffffffffffffffffffffffffffffffffff021916908373ffffffffffffffffffffffffffffffffffffffff16021790555081600c60006101000a81548173ffffffffffffffffffffffffffffffffffffffff021916908373ffffffffffffffffffffffffffffffffffffffff16021790555080600d60006101000a81548173ffffffffffffffffffffffffffffffffffffffff021916908373ffffffffffffffffffffffffffffffffffffffff16021790555050505062000498565b828054620002cb9062000414565b90600052602060002090601f016020900481019282620002ef57600085556200033b565b82601f106200030a57805160ff19168380011785556200033b565b828001600101855582156200033b579182015b828111156200033a5782518255916020019190600101906200031d565b5b5090506200034a91906200034e565b5090565b5b80821115620003695760008160009055506001016200034f565b5090565b6000815190506200037e816200047e565b92915050565b600080600060608486031215620003a0576200039f62000479565b5b6000620003b0868287016200036d565b9350506020620003c3868287016200036d565b9250506040620003d6868287016200036d565b9150509250925092565b6000620003ed82620003f4565b9050919050565b600073ffffffffffffffffffffffffffffffffffffffff82169050919050565b600060028204905060018216806200042d57607f821691505b602082108114156200044457620004436200044a565b5b50919050565b7f4e487b7100000000000000000000000000000000000000000000000000000000600052602260045260246000fd5b600080fd5b6200048981620003e0565b81146200049557600080fd5b50565b6156a480620004a86000396000f3fe608060405234801561001057600080fd5b506004361061018e5760003560e01c80635f944326116100de578063976217cd11610097578063c87b56dd11610071578063c87b56dd146104d3578063cb339ae614610503578063e1e295581461051f578063e985e9c51461053b5761018e565b8063976217cd1461046b578063a22cb4651461049b578063b88d4fde146104b75761018e565b80635f944326146103855780636352211e146103a157806370a08231146103d15780637eec20a8146104015780638c02263b1461041d57806395d89b411461044d5761018e565b806323b872dd1161014b5780634185e507116101255780634185e507146102eb57806342842e0e146103095780634338eb87146103255780634f6ccce7146103555761018e565b806323b872dd146102835780632eafc5301461029f5780632f745c59146102bb5761018e565b806301ffc9a71461019357806306fdde03146101c3578063081812fc146101e1578063095ea7b31461021157806318160ddd1461022d5780631c8187a61461024b575b600080fd5b6101ad60048036038101906101a89190613d7f565b61056b565b6040516101ba91906145ea565b60405180910390f35b6101cb6105e5565b6040516101d89190614620565b60405180910390f35b6101fb60048036038101906101f69190613dd9565b610677565b6040516102089190614538565b60405180910390f35b61022b60048036038101906102269190613cc9565b6106bd565b005b6102356107d5565b6040516102429190614a18565b60405180910390f35b61026560048036038101906102609190613dd9565b6107e2565b60405161027a99989796959493929190614642565b60405180910390f35b61029d60048036038101906102989190613bb3565b610932565b005b6102b960048036038101906102b49190613dd9565b610992565b005b6102d560048036038101906102d09190613cc9565b610b3c565b6040516102e29190614a18565b60405180910390f35b6102f3610be1565b6040516103009190614605565b60405180910390f35b610323600480360381019061031e9190613bb3565b610c07565b005b61033f600480360381019061033a9190613a82565b610c27565b60405161034c91906145c8565b60405180910390f35b61036f600480360381019061036a9190613dd9565b611087565b60405161037c9190614a18565b60405180910390f35b61039f600480360381019061039a9190613dd9565b6110f8565b005b6103bb60048036038101906103b69190613dd9565b6112b2565b6040516103c89190614538565b60405180910390f35b6103eb60048036038101906103e69190613a82565b611364565b6040516103f89190614a18565b60405180910390f35b61041b60048036038101906104169190613dd9565b61141c565b005b61043760048036038101906104329190613dd9565b611648565b60405161044491906145ea565b60405180910390f35b61045561165a565b6040516104629190614620565b60405180910390f35b61048560048036038101906104809190613dd9565b6116ec565b60405161049291906149f6565b60405180910390f35b6104b560048036038101906104b09190613c89565b61196c565b005b6104d160048036038101906104cc9190613c06565b611982565b005b6104ed60048036038101906104e89190613dd9565b6119e4565b6040516104fa9190614620565b60405180910390f35b61051d60048036038101906105189190613b1c565b611a4c565b005b61053960048036038101906105349190613dd9565b6120ff565b005b61055560048036038101906105509190613adc565b6124f1565b60405161056291906145ea565b60405180910390f35b60007f780e9d63000000000000000000000000000000000000000000000000000000007bffffffffffffffffffffffffffffffffffffffffffffffffffffffff1916827bffffffffffffffffffffffffffffffffffffffffffffffffffffffff191614806105de57506105dd82612585565b5b9050919050565b6060600080546105f490614d99565b80601f016020809104026020016040519081016040528092919081815260200182805461062090614d99565b801561066d5780601f106106425761010080835404028352916020019161066d565b820191906000526020600020905b81548152906001019060200180831161065057829003601f168201915b5050505050905090565b600061068282612667565b6004600083815260200190815260200160002060009054906101000a900473ffffffffffffffffffffffffffffffffffffffff169050919050565b60006106c8826112b2565b90508073ffffffffffffffffffffffffffffffffffffffff168373ffffffffffffffffffffffffffffffffffffffff161415610739576040517f08c379a000000000000000000000000000000000000000000000000000000000815260040161073090614976565b60405180910390fd5b8073ffffffffffffffffffffffffffffffffffffffff166107586126b2565b73ffffffffffffffffffffffffffffffffffffffff1614806107875750610786816107816126b2565b6124f1565b5b6107c6576040517f08c379a00000000000000000000000000000000000000000000000000000000081526004016107bd90614896565b60405180910390fd5b6107d083836126ba565b505050565b6000600880549050905090565b600e60205280600052604060002060009150905080600001805461080590614d99565b80601f016020809104026020016040519081016040528092919081815260200182805461083190614d99565b801561087e5780601f106108535761010080835404028352916020019161087e565b820191906000526020600020905b81548152906001019060200180831161086157829003601f168201915b5050505050908060010160009054906101000a900460ff16908060010160019054906101000a900473ffffffffffffffffffffffffffffffffffffffff16908060020160009054906101000a900473ffffffffffffffffffffffffffffffffffffffff16908060030160009054906101000a900473ffffffffffffffffffffffffffffffffffffffff16908060040154908060050154908060060154908060070160009054906101000a900460ff16905089565b61094361093d6126b2565b82612773565b610982576040517f08c379a0000000000000000000000000000000000000000000000000000000008152600401610979906149d6565b60405180910390fd5b61098d838383612808565b505050565b8061099c81612a6f565b6109db576040517f08c379a00000000000000000000000000000000000000000000000000000000081526004016109d2906148f6565b60405180910390fd5b3373ffffffffffffffffffffffffffffffffffffffff16600e600084815260200190815260200160002060030160009054906101000a900473ffffffffffffffffffffffffffffffffffffffff1673ffffffffffffffffffffffffffffffffffffffff1614610a7f576040517f08c379a0000000000000000000000000000000000000000000000000000000008152600401610a76906147d6565b60405180910390fd5b60006004811115610a9357610a92614ed4565b5b600e600084815260200190815260200160002060010160009054906101000a900460ff166004811115610ac957610ac8614ed4565b5b14610b09576040517f08c379a0000000000000000000000000000000000000000000000000000000008152600401610b00906146f6565b60405180910390fd5b6001600e600084815260200190815260200160002060070160006101000a81548160ff0219169083151502179055505050565b6000610b4783611364565b8210610b88576040517f08c379a0000000000000000000000000000000000000000000000000000000008152600401610b7f90614716565b60405180910390fd5b600660008473ffffffffffffffffffffffffffffffffffffffff1673ffffffffffffffffffffffffffffffffffffffff168152602001908152602001600020600083815260200190815260200160002054905092915050565b600a60009054906101000a900473ffffffffffffffffffffffffffffffffffffffff1681565b610c2283838360405180602001604052806000815250611982565b505050565b6060600073ffffffffffffffffffffffffffffffffffffffff168273ffffffffffffffffffffffffffffffffffffffff161415610c99576040517f08c379a0000000000000000000000000000000000000000000000000000000008152600401610c90906146d6565b60405180910390fd5b600080600190505b610ca96107d5565b8111610d3b578373ffffffffffffffffffffffffffffffffffffffff16600e600083815260200190815260200160002060030160009054906101000a900473ffffffffffffffffffffffffffffffffffffffff1673ffffffffffffffffffffffffffffffffffffffff161415610d28578180610d2490614dfc565b9250505b8080610d3390614dfc565b915050610ca1565b5060008167ffffffffffffffff811115610d5857610d57614f90565b5b604051908082528060200260200182016040528015610d9157816020015b610d7e613717565b815260200190600190039081610d765790505b509050600080600190505b610da46107d5565b811161107b578573ffffffffffffffffffffffffffffffffffffffff16600e600083815260200190815260200160002060030160009054906101000a900473ffffffffffffffffffffffffffffffffffffffff1673ffffffffffffffffffffffffffffffffffffffff16141561106857600e600082815260200190815260200160002060405180610120016040529081600082018054610e4390614d99565b80601f0160208091040260200160405190810160405280929190818152602001828054610e6f90614d99565b8015610ebc5780601f10610e9157610100808354040283529160200191610ebc565b820191906000526020600020905b815481529060010190602001808311610e9f57829003601f168201915b505050505081526020016001820160009054906101000a900460ff166004811115610eea57610ee9614ed4565b5b6004811115610efc57610efb614ed4565b5b81526020016001820160019054906101000a900473ffffffffffffffffffffffffffffffffffffffff1673ffffffffffffffffffffffffffffffffffffffff1673ffffffffffffffffffffffffffffffffffffffff1681526020016002820160009054906101000a900473ffffffffffffffffffffffffffffffffffffffff1673ffffffffffffffffffffffffffffffffffffffff1673ffffffffffffffffffffffffffffffffffffffff1681526020016003820160009054906101000a900473ffffffffffffffffffffffffffffffffffffffff1673ffffffffffffffffffffffffffffffffffffffff1673ffffffffffffffffffffffffffffffffffffffff1681526020016004820154815260200160058201548152602001600682015481526020016007820160009054906101000a900460ff16151515158152505083838151811061104e5761104d614f61565b5b6020026020010181905250818061106490614dfc565b9250505b808061107390614dfc565b915050610d9c565b50819350505050919050565b60006110916107d5565b82106110d2576040517f08c379a00000000000000000000000000000000000000000000000000000000081526004016110c9906149b6565b60405180910390fd5b600882815481106110e6576110e5614f61565b5b90600052602060002001549050919050565b8061110281612a6f565b611141576040517f08c379a0000000000000000000000000000000000000000000000000000000008152600401611138906148f6565b60405180910390fd5b3373ffffffffffffffffffffffffffffffffffffffff16600e600084815260200190815260200160002060030160009054906101000a900473ffffffffffffffffffffffffffffffffffffffff1673ffffffffffffffffffffffffffffffffffffffff16146111e5576040517f08c379a00000000000000000000000000000000000000000000000000000000081526004016111dc90614996565b60405180910390fd5b600060048111156111f9576111f8614ed4565b5b600e600084815260200190815260200160002060010160009054906101000a900460ff16600481111561122f5761122e614ed4565b5b1461126f576040517f08c379a000000000000000000000000000000000000000000000000000000000815260040161126690614836565b60405180910390fd5b6002600e600084815260200190815260200160002060010160006101000a81548160ff021916908360048111156112a9576112a8614ed4565b5b02179055505050565b6000806002600084815260200190815260200160002060009054906101000a900473ffffffffffffffffffffffffffffffffffffffff169050600073ffffffffffffffffffffffffffffffffffffffff168173ffffffffffffffffffffffffffffffffffffffff16141561135b576040517f08c379a000000000000000000000000000000000000000000000000000000000815260040161135290614956565b60405180910390fd5b80915050919050565b60008073ffffffffffffffffffffffffffffffffffffffff168273ffffffffffffffffffffffffffffffffffffffff1614156113d5576040517f08c379a00000000000000000000000000000000000000000000000000000000081526004016113cc90614876565b60405180910390fd5b600360008373ffffffffffffffffffffffffffffffffffffffff1673ffffffffffffffffffffffffffffffffffffffff168152602001908152602001600020549050919050565b8061142681612a6f565b611465576040517f08c379a000000000000000000000000000000000000000000000000000000000815260040161145c906148f6565b60405180910390fd5b3373ffffffffffffffffffffffffffffffffffffffff16600e600084815260200190815260200160002060020160009054906101000a900473ffffffffffffffffffffffffffffffffffffffff1673ffffffffffffffffffffffffffffffffffffffff1614611509576040517f08c379a000000000000000000000000000000000000000000000000000000000815260040161150090614936565b60405180910390fd5b600a60009054906101000a900473ffffffffffffffffffffffffffffffffffffffff1673ffffffffffffffffffffffffffffffffffffffff1663a9059cbb600e600085815260200190815260200160002060010160019054906101000a900473ffffffffffffffffffffffffffffffffffffffff16600e6000868152602001908152602001600020600401546040518363ffffffff1660e01b81526004016115b292919061459f565b602060405180830381600087803b1580156115cc57600080fd5b505af11580156115e0573d6000803e3d6000fd5b505050506040513d601f19601f820116820180604052508101906116049190613d52565b506004600e600084815260200190815260200160002060010160006101000a81548160ff0219169083600481111561163f5761163e614ed4565b5b02179055505050565b600061165382612a6f565b9050919050565b60606001805461166990614d99565b80601f016020809104026020016040519081016040528092919081815260200182805461169590614d99565b80156116e25780601f106116b7576101008083540402835291602001916116e2565b820191906000526020600020905b8154815290600101906020018083116116c557829003601f168201915b5050505050905090565b6116f4613717565b816116fe81612a6f565b61173d576040517f08c379a0000000000000000000000000000000000000000000000000000000008152600401611734906148f6565b60405180910390fd5b600e60008481526020019081526020016000206040518061012001604052908160008201805461176c90614d99565b80601f016020809104026020016040519081016040528092919081815260200182805461179890614d99565b80156117e55780601f106117ba576101008083540402835291602001916117e5565b820191906000526020600020905b8154815290600101906020018083116117c857829003601f168201915b505050505081526020016001820160009054906101000a900460ff16600481111561181357611812614ed4565b5b600481111561182557611824614ed4565b5b81526020016001820160019054906101000a900473ffffffffffffffffffffffffffffffffffffffff1673ffffffffffffffffffffffffffffffffffffffff1673ffffffffffffffffffffffffffffffffffffffff1681526020016002820160009054906101000a900473ffffffffffffffffffffffffffffffffffffffff1673ffffffffffffffffffffffffffffffffffffffff1673ffffffffffffffffffffffffffffffffffffffff1681526020016003820160009054906101000a900473ffffffffffffffffffffffffffffffffffffffff1673ffffffffffffffffffffffffffffffffffffffff1673ffffffffffffffffffffffffffffffffffffffff1681526020016004820154815260200160058201548152602001600682015481526020016007820160009054906101000a900460ff161515151581525050915050919050565b61197e6119776126b2565b8383612adb565b5050565b61199361198d6126b2565b83612773565b6119d2576040517f08c379a00000000000000000000000000000000000000000000000000000000081526004016119c9906149d6565b60405180910390fd5b6119de84848484612c48565b50505050565b60606119ef82612667565b60006119f9612ca4565b90506000815111611a195760405180602001604052806000815250611a44565b80611a2384612cbb565b604051602001611a34929190614514565b6040516020818303038152906040525b915050919050565b848260008273ffffffffffffffffffffffffffffffffffffffff1663235eee1d6040518163ffffffff1660e01b815260040160206040518083038186803b158015611a9657600080fd5b505afa158015611aaa573d6000803e3d6000fd5b505050506040513d601f19601f82011682018060405250810190611ace9190613e06565b905060008373ffffffffffffffffffffffffffffffffffffffff1663bcd148056040518163ffffffff1660e01b815260040160006040518083038186803b158015611b1857600080fd5b505afa158015611b2c573d6000803e3d6000fd5b505050506040513d6000823e3d601f19601f82011682018060405250810190611b559190613d09565b90506000805b8251811015611bb557600e6000848381518110611b7b57611b7a614f61565b5b602002602001015181526020019081526020016000206004015482611ba09190614b73565b91508080611bad90614dfc565b915050611b5b565b50838184611bc39190614c54565b1015611c04576040517f08c379a0000000000000000000000000000000000000000000000000000000008152600401611bfb906148d6565b60405180910390fd5b896000600d60009054906101000a900473ffffffffffffffffffffffffffffffffffffffff1673ffffffffffffffffffffffffffffffffffffffff166323a30b23836040518263ffffffff1660e01b8152600401611c629190614538565b60206040518083038186803b158015611c7a57600080fd5b505afa158015611c8e573d6000803e3d6000fd5b505050506040513d601f19601f82011682018060405250810190611cb29190613aaf565b90503373ffffffffffffffffffffffffffffffffffffffff168173ffffffffffffffffffffffffffffffffffffffff1614611d22576040517f08c379a0000000000000000000000000000000000000000000000000000000008152600401611d1990614916565b60405180910390fd5b6000600c60009054906101000a900473ffffffffffffffffffffffffffffffffffffffff1673ffffffffffffffffffffffffffffffffffffffff1663593c6e0d8d6040518263ffffffff1660e01b8152600401611d7f9190614538565b60206040518083038186803b158015611d9757600080fd5b505afa158015611dab573d6000803e3d6000fd5b505050506040513d601f19601f82011682018060405250810190611dcf9190613aaf565b9050600073ffffffffffffffffffffffffffffffffffffffff168173ffffffffffffffffffffffffffffffffffffffff161415611e41576040517f08c379a0000000000000000000000000000000000000000000000000000000008152600401611e3890614796565b60405180910390fd5b6000600d60146101000a81548160ff0219169083151502179055506000611e666107d5565b9050611e7e8d600183611e799190614b73565b612e1c565b6040518061012001604052808d815260200160006004811115611ea457611ea3614ed4565b5b81526020018f73ffffffffffffffffffffffffffffffffffffffff1681526020018e73ffffffffffffffffffffffffffffffffffffffff168152602001600073ffffffffffffffffffffffffffffffffffffffff1681526020018c8152602001600081526020018b815260200160001515815250600e60008381526020019081526020016000206000820151816000019080519060200190611f479291906137b9565b5060208201518160010160006101000a81548160ff02191690836004811115611f7357611f72614ed4565b5b021790555060408201518160010160016101000a81548173ffffffffffffffffffffffffffffffffffffffff021916908373ffffffffffffffffffffffffffffffffffffffff16021790555060608201518160020160006101000a81548173ffffffffffffffffffffffffffffffffffffffff021916908373ffffffffffffffffffffffffffffffffffffffff16021790555060808201518160030160006101000a81548173ffffffffffffffffffffffffffffffffffffffff021916908373ffffffffffffffffffffffffffffffffffffffff16021790555060a0820151816004015560c0820151816005015560e082015181600601556101008201518160070160006101000a81548160ff0219169083151502179055509050506001600d60146101000a81548160ff0219169083151502179055507fb1c0ef93ef5afc0800a5789b004fdaf5931873276c7ccb409e7d1a310906886a8d6001836120d99190614b73565b6040516120e792919061459f565b60405180910390a15050505050505050505050505050565b61210881612a6f565b612147576040517f08c379a000000000000000000000000000000000000000000000000000000000815260040161213e906148f6565b60405180910390fd5b3373ffffffffffffffffffffffffffffffffffffffff16600e600083815260200190815260200160002060020160009054906101000a900473ffffffffffffffffffffffffffffffffffffffff1673ffffffffffffffffffffffffffffffffffffffff16146121eb576040517f08c379a00000000000000000000000000000000000000000000000000000000081526004016121e2906147b6565b60405180910390fd5b6000600c60009054906101000a900473ffffffffffffffffffffffffffffffffffffffff1673ffffffffffffffffffffffffffffffffffffffff1663593c6e0d600e600085815260200190815260200160002060030160009054906101000a900473ffffffffffffffffffffffffffffffffffffffff166040518263ffffffff1660e01b815260040161227e9190614538565b60206040518083038186803b15801561229657600080fd5b505afa1580156122aa573d6000803e3d6000fd5b505050506040513d601f19601f820116820180604052508101906122ce9190613aaf565b9050600a60009054906101000a900473ffffffffffffffffffffffffffffffffffffffff1673ffffffffffffffffffffffffffffffffffffffff1663a9059cbb826064605f600e6000888152602001908152602001600020600401546123349190614bfa565b61233e9190614bc9565b6040518363ffffffff1660e01b815260040161235b92919061459f565b602060405180830381600087803b15801561237557600080fd5b505af1158015612389573d6000803e3d6000fd5b505050506040513d601f19601f820116820180604052508101906123ad9190613d52565b50600a60009054906101000a900473ffffffffffffffffffffffffffffffffffffffff1673ffffffffffffffffffffffffffffffffffffffff1663a9059cbb600b60009054906101000a900473ffffffffffffffffffffffffffffffffffffffff1660646005600e6000888152602001908152602001600020600401546124349190614bfa565b61243e9190614bc9565b6040518363ffffffff1660e01b815260040161245b92919061459f565b602060405180830381600087803b15801561247557600080fd5b505af1158015612489573d6000803e3d6000fd5b505050506040513d601f19601f820116820180604052508101906124ad9190613d52565b506003600e600084815260200190815260200160002060010160006101000a81548160ff021916908360048111156124e8576124e7614ed4565b5b02179055505050565b6000600560008473ffffffffffffffffffffffffffffffffffffffff1673ffffffffffffffffffffffffffffffffffffffff16815260200190815260200160002060008373ffffffffffffffffffffffffffffffffffffffff1673ffffffffffffffffffffffffffffffffffffffff16815260200190815260200160002060009054906101000a900460ff16905092915050565b60007f80ac58cd000000000000000000000000000000000000000000000000000000007bffffffffffffffffffffffffffffffffffffffffffffffffffffffff1916827bffffffffffffffffffffffffffffffffffffffffffffffffffffffff1916148061265057507f5b5e139f000000000000000000000000000000000000000000000000000000007bffffffffffffffffffffffffffffffffffffffffffffffffffffffff1916827bffffffffffffffffffffffffffffffffffffffffffffffffffffffff1916145b80612660575061265f82612e3a565b5b9050919050565b61267081612a6f565b6126af576040517f08c379a00000000000000000000000000000000000000000000000000000000081526004016126a690614956565b60405180910390fd5b50565b600033905090565b816004600083815260200190815260200160002060006101000a81548173ffffffffffffffffffffffffffffffffffffffff021916908373ffffffffffffffffffffffffffffffffffffffff160217905550808273ffffffffffffffffffffffffffffffffffffffff1661272d836112b2565b73ffffffffffffffffffffffffffffffffffffffff167f8c5be1e5ebec7d5bd14f71427d1e84f3dd0314c0f7b2291e5b200ac8c7c3b92560405160405180910390a45050565b60008061277f836112b2565b90508073ffffffffffffffffffffffffffffffffffffffff168473ffffffffffffffffffffffffffffffffffffffff1614806127c157506127c081856124f1565b5b806127ff57508373ffffffffffffffffffffffffffffffffffffffff166127e784610677565b73ffffffffffffffffffffffffffffffffffffffff16145b91505092915050565b8273ffffffffffffffffffffffffffffffffffffffff16612828826112b2565b73ffffffffffffffffffffffffffffffffffffffff161461287e576040517f08c379a000000000000000000000000000000000000000000000000000000000815260040161287590614756565b60405180910390fd5b600073ffffffffffffffffffffffffffffffffffffffff168273ffffffffffffffffffffffffffffffffffffffff1614156128ee576040517f08c379a00000000000000000000000000000000000000000000000000000000081526004016128e5906147f6565b60405180910390fd5b6128f9838383612ea4565b6129046000826126ba565b6001600360008573ffffffffffffffffffffffffffffffffffffffff1673ffffffffffffffffffffffffffffffffffffffff16815260200190815260200160002060008282546129549190614c54565b925050819055506001600360008473ffffffffffffffffffffffffffffffffffffffff1673ffffffffffffffffffffffffffffffffffffffff16815260200190815260200160002060008282546129ab9190614b73565b92505081905550816002600083815260200190815260200160002060006101000a81548173ffffffffffffffffffffffffffffffffffffffff021916908373ffffffffffffffffffffffffffffffffffffffff160217905550808273ffffffffffffffffffffffffffffffffffffffff168473ffffffffffffffffffffffffffffffffffffffff167fddf252ad1be2c89b69c2b068fc378daa952ba7f163c4a11628f55a4df523b3ef60405160405180910390a4612a6a838383612f04565b505050565b60008073ffffffffffffffffffffffffffffffffffffffff166002600084815260200190815260200160002060009054906101000a900473ffffffffffffffffffffffffffffffffffffffff1673ffffffffffffffffffffffffffffffffffffffff1614159050919050565b8173ffffffffffffffffffffffffffffffffffffffff168373ffffffffffffffffffffffffffffffffffffffff161415612b4a576040517f08c379a0000000000000000000000000000000000000000000000000000000008152600401612b4190614816565b60405180910390fd5b80600560008573ffffffffffffffffffffffffffffffffffffffff1673ffffffffffffffffffffffffffffffffffffffff16815260200190815260200160002060008473ffffffffffffffffffffffffffffffffffffffff1673ffffffffffffffffffffffffffffffffffffffff16815260200190815260200160002060006101000a81548160ff0219169083151502179055508173ffffffffffffffffffffffffffffffffffffffff168373ffffffffffffffffffffffffffffffffffffffff167f17307eab39ab6107e8899845ad3d59bd9653f200f220920489ca2b5937696c3183604051612c3b91906145ea565b60405180910390a3505050565b612c53848484612808565b612c5f84848484612f09565b612c9e576040517f08c379a0000000000000000000000000000000000000000000000000000000008152600401612c9590614736565b60405180910390fd5b50505050565b606060405180602001604052806000815250905090565b60606000821415612d03576040518060400160405280600181526020017f30000000000000000000000000000000000000000000000000000000000000008152509050612e17565b600082905060005b60008214612d35578080612d1e90614dfc565b915050600a82612d2e9190614bc9565b9150612d0b565b60008167ffffffffffffffff811115612d5157612d50614f90565b5b6040519080825280601f01601f191660200182016040528015612d835781602001600182028036833780820191505090505b5090505b60008514612e1057600182612d9c9190614c54565b9150600a85612dab9190614e45565b6030612db79190614b73565b60f81b818381518110612dcd57612dcc614f61565b5b60200101907effffffffffffffffffffffffffffffffffffffffffffffffffffffffffffff1916908160001a905350600a85612e099190614bc9565b9450612d87565b8093505050505b919050565b612e368282604051806020016040528060008152506130a0565b5050565b60007f01ffc9a7000000000000000000000000000000000000000000000000000000007bffffffffffffffffffffffffffffffffffffffffffffffffffffffff1916827bffffffffffffffffffffffffffffffffffffffffffffffffffffffff1916149050919050565b600d60149054906101000a900460ff1615612ef4576040517f08c379a0000000000000000000000000000000000000000000000000000000008152600401612eeb90614856565b60405180910390fd5b612eff8383836130fb565b505050565b505050565b6000612f2a8473ffffffffffffffffffffffffffffffffffffffff1661320f565b15613093578373ffffffffffffffffffffffffffffffffffffffff1663150b7a02612f536126b2565b8786866040518563ffffffff1660e01b8152600401612f759493929190614553565b602060405180830381600087803b158015612f8f57600080fd5b505af1925050508015612fc057506040513d601f19601f82011682018060405250810190612fbd9190613dac565b60015b613043573d8060008114612ff0576040519150601f19603f3d011682016040523d82523d6000602084013e612ff5565b606091505b5060008151141561303b576040517f08c379a000000000000000000000000000000000000000000000000000000000815260040161303290614736565b60405180910390fd5b805181602001fd5b63150b7a0260e01b7bffffffffffffffffffffffffffffffffffffffffffffffffffffffff1916817bffffffffffffffffffffffffffffffffffffffffffffffffffffffff191614915050613098565b600190505b949350505050565b6130aa8383613232565b6130b76000848484612f09565b6130f6576040517f08c379a00000000000000000000000000000000000000000000000000000000081526004016130ed90614736565b60405180910390fd5b505050565b61310683838361340c565b600073ffffffffffffffffffffffffffffffffffffffff168373ffffffffffffffffffffffffffffffffffffffff1614156131495761314481613411565b613188565b8173ffffffffffffffffffffffffffffffffffffffff168373ffffffffffffffffffffffffffffffffffffffff161461318757613186838261345a565b5b5b600073ffffffffffffffffffffffffffffffffffffffff168273ffffffffffffffffffffffffffffffffffffffff1614156131cb576131c6816135c7565b61320a565b8273ffffffffffffffffffffffffffffffffffffffff168273ffffffffffffffffffffffffffffffffffffffff1614613209576132088282613698565b5b5b505050565b6000808273ffffffffffffffffffffffffffffffffffffffff163b119050919050565b600073ffffffffffffffffffffffffffffffffffffffff168273ffffffffffffffffffffffffffffffffffffffff1614156132a2576040517f08c379a0000000000000000000000000000000000000000000000000000000008152600401613299906148b6565b60405180910390fd5b6132ab81612a6f565b156132eb576040517f08c379a00000000000000000000000000000000000000000000000000000000081526004016132e290614776565b60405180910390fd5b6132f760008383612ea4565b6001600360008473ffffffffffffffffffffffffffffffffffffffff1673ffffffffffffffffffffffffffffffffffffffff16815260200190815260200160002060008282546133479190614b73565b92505081905550816002600083815260200190815260200160002060006101000a81548173ffffffffffffffffffffffffffffffffffffffff021916908373ffffffffffffffffffffffffffffffffffffffff160217905550808273ffffffffffffffffffffffffffffffffffffffff16600073ffffffffffffffffffffffffffffffffffffffff167fddf252ad1be2c89b69c2b068fc378daa952ba7f163c4a11628f55a4df523b3ef60405160405180910390a461340860008383612f04565b5050565b505050565b6008805490506009600083815260200190815260200160002081905550600881908060018154018082558091505060019003906000526020600020016000909190919091505550565b6000600161346784611364565b6134719190614c54565b9050600060076000848152602001908152602001600020549050818114613556576000600660008673ffffffffffffffffffffffffffffffffffffffff1673ffffffffffffffffffffffffffffffffffffffff168152602001908152602001600020600084815260200190815260200160002054905080600660008773ffffffffffffffffffffffffffffffffffffffff1673ffffffffffffffffffffffffffffffffffffffff168152602001908152602001600020600084815260200190815260200160002081905550816007600083815260200190815260200160002081905550505b6007600084815260200190815260200160002060009055600660008573ffffffffffffffffffffffffffffffffffffffff1673ffffffffffffffffffffffffffffffffffffffff16815260200190815260200160002060008381526020019081526020016000206000905550505050565b600060016008805490506135db9190614c54565b905060006009600084815260200190815260200160002054905060006008838154811061360b5761360a614f61565b5b90600052602060002001549050806008838154811061362d5761362c614f61565b5b90600052602060002001819055508160096000838152602001908152602001600020819055506009600085815260200190815260200160002060009055600880548061367c5761367b614f32565b5b6001900381819060005260206000200160009055905550505050565b60006136a383611364565b905081600660008573ffffffffffffffffffffffffffffffffffffffff1673ffffffffffffffffffffffffffffffffffffffff168152602001908152602001600020600083815260200190815260200160002081905550806007600084815260200190815260200160002081905550505050565b604051806101200160405280606081526020016000600481111561373e5761373d614ed4565b5b8152602001600073ffffffffffffffffffffffffffffffffffffffff168152602001600073ffffffffffffffffffffffffffffffffffffffff168152602001600073ffffffffffffffffffffffffffffffffffffffff1681526020016000815260200160008152602001600081526020016000151581525090565b8280546137c590614d99565b90600052602060002090601f0160209004810192826137e7576000855561382e565b82601f1061380057805160ff191683800117855561382e565b8280016001018555821561382e579182015b8281111561382d578251825591602001919060010190613812565b5b50905061383b919061383f565b5090565b5b80821115613858576000816000905550600101613840565b5090565b600061386f61386a84614a58565b614a33565b9050808382526020820190508285602086028201111561389257613891614fc4565b5b60005b858110156138c257816138a88882613a6d565b845260208401935060208301925050600181019050613895565b5050509392505050565b60006138df6138da84614a84565b614a33565b9050828152602081018484840111156138fb576138fa614fc9565b5b613906848285614d57565b509392505050565b600061392161391c84614ab5565b614a33565b90508281526020810184848401111561393d5761393c614fc9565b5b613948848285614d57565b509392505050565b60008135905061395f81615612565b92915050565b60008151905061397481615612565b92915050565b600082601f83011261398f5761398e614fbf565b5b815161399f84826020860161385c565b91505092915050565b6000813590506139b781615629565b92915050565b6000815190506139cc81615629565b92915050565b6000813590506139e181615640565b92915050565b6000815190506139f681615640565b92915050565b600082601f830112613a1157613a10614fbf565b5b8135613a218482602086016138cc565b91505092915050565b600082601f830112613a3f57613a3e614fbf565b5b8135613a4f84826020860161390e565b91505092915050565b600081359050613a6781615657565b92915050565b600081519050613a7c81615657565b92915050565b600060208284031215613a9857613a97614fd3565b5b6000613aa684828501613950565b91505092915050565b600060208284031215613ac557613ac4614fd3565b5b6000613ad384828501613965565b91505092915050565b60008060408385031215613af357613af2614fd3565b5b6000613b0185828601613950565b9250506020613b1285828601613950565b9150509250929050565b600080600080600060a08688031215613b3857613b37614fd3565b5b6000613b4688828901613950565b9550506020613b5788828901613950565b945050604086013567ffffffffffffffff811115613b7857613b77614fce565b5b613b8488828901613a2a565b9350506060613b9588828901613a58565b9250506080613ba688828901613a58565b9150509295509295909350565b600080600060608486031215613bcc57613bcb614fd3565b5b6000613bda86828701613950565b9350506020613beb86828701613950565b9250506040613bfc86828701613a58565b9150509250925092565b60008060008060808587031215613c2057613c1f614fd3565b5b6000613c2e87828801613950565b9450506020613c3f87828801613950565b9350506040613c5087828801613a58565b925050606085013567ffffffffffffffff811115613c7157613c70614fce565b5b613c7d878288016139fc565b91505092959194509250565b60008060408385031215613ca057613c9f614fd3565b5b6000613cae85828601613950565b9250506020613cbf858286016139a8565b9150509250929050565b60008060408385031215613ce057613cdf614fd3565b5b6000613cee85828601613950565b9250506020613cff85828601613a58565b9150509250929050565b600060208284031215613d1f57613d1e614fd3565b5b600082015167ffffffffffffffff811115613d3d57613d3c614fce565b5b613d498482850161397a565b91505092915050565b600060208284031215613d6857613d67614fd3565b5b6000613d76848285016139bd565b91505092915050565b600060208284031215613d9557613d94614fd3565b5b6000613da3848285016139d2565b91505092915050565b600060208284031215613dc257613dc1614fd3565b5b6000613dd0848285016139e7565b91505092915050565b600060208284031215613def57613dee614fd3565b5b6000613dfd84828501613a58565b91505092915050565b600060208284031215613e1c57613e1b614fd3565b5b6000613e2a84828501613a6d565b91505092915050565b6000613e3f838361436c565b905092915050565b613e5081614c88565b82525050565b613e5f81614c88565b82525050565b6000613e7082614af6565b613e7a8185614b24565b935083602082028501613e8c85614ae6565b8060005b85811015613ec85784840389528151613ea98582613e33565b9450613eb483614b17565b925060208a01995050600181019050613e90565b50829750879550505050505092915050565b613ee381614c9a565b82525050565b613ef281614c9a565b82525050565b6000613f0382614b01565b613f0d8185614b35565b9350613f1d818560208601614d66565b613f2681614fd8565b840191505092915050565b613f3a81614d0f565b82525050565b613f4981614d21565b82525050565b613f5881614d21565b82525050565b6000613f6982614b0c565b613f738185614b46565b9350613f83818560208601614d66565b613f8c81614fd8565b840191505092915050565b6000613fa282614b0c565b613fac8185614b57565b9350613fbc818560208601614d66565b613fc581614fd8565b840191505092915050565b6000613fdb82614b0c565b613fe58185614b68565b9350613ff5818560208601614d66565b80840191505092915050565b600061400e600f83614b57565b915061401982614fe9565b602082019050919050565b6000614031601283614b57565b915061403c82615012565b602082019050919050565b6000614054602b83614b57565b915061405f8261503b565b604082019050919050565b6000614077603283614b57565b91506140828261508a565b604082019050919050565b600061409a602583614b57565b91506140a5826150d9565b604082019050919050565b60006140bd601c83614b57565b91506140c882615128565b602082019050919050565b60006140e0602783614b57565b91506140eb82615151565b604082019050919050565b6000614103602283614b57565b915061410e826151a0565b604082019050919050565b6000614126603183614b57565b9150614131826151ef565b604082019050919050565b6000614149602483614b57565b91506141548261523e565b604082019050919050565b600061416c601983614b57565b91506141778261528d565b602082019050919050565b600061418f600f83614b57565b915061419a826152b6565b602082019050919050565b60006141b2601b83614b57565b91506141bd826152df565b602082019050919050565b60006141d5602983614b57565b91506141e082615308565b604082019050919050565b60006141f8603e83614b57565b915061420382615357565b604082019050919050565b600061421b602083614b57565b9150614226826153a6565b602082019050919050565b600061423e602283614b57565b9150614249826153cf565b604082019050919050565b6000614261600e83614b57565b915061426c8261541e565b602082019050919050565b6000614284603183614b57565b915061428f82615447565b604082019050919050565b60006142a7602083614b57565b91506142b282615496565b602082019050919050565b60006142ca601883614b57565b91506142d5826154bf565b602082019050919050565b60006142ed602183614b57565b91506142f8826154e8565b604082019050919050565b6000614310601983614b57565b915061431b82615537565b602082019050919050565b6000614333602c83614b57565b915061433e82615560565b604082019050919050565b6000614356602e83614b57565b9150614361826155af565b604082019050919050565b600061012083016000830151848203600086015261438a8282613f5e565b915050602083015161439f6020860182613f40565b5060408301516143b26040860182613e47565b5060608301516143c56060860182613e47565b5060808301516143d86080860182613e47565b5060a08301516143eb60a08601826144f6565b5060c08301516143fe60c08601826144f6565b5060e083015161441160e08601826144f6565b50610100830151614426610100860182613eda565b508091505092915050565b600061012083016000830151848203600086015261444f8282613f5e565b91505060208301516144646020860182613f40565b5060408301516144776040860182613e47565b50606083015161448a6060860182613e47565b50608083015161449d6080860182613e47565b5060a08301516144b060a08601826144f6565b5060c08301516144c360c08601826144f6565b5060e08301516144d660e08601826144f6565b506101008301516144eb610100860182613eda565b508091505092915050565b6144ff81614d05565b82525050565b61450e81614d05565b82525050565b60006145208285613fd0565b915061452c8284613fd0565b91508190509392505050565b600060208201905061454d6000830184613e56565b92915050565b60006080820190506145686000830187613e56565b6145756020830186613e56565b6145826040830185614505565b81810360608301526145948184613ef8565b905095945050505050565b60006040820190506145b46000830185613e56565b6145c16020830184614505565b9392505050565b600060208201905081810360008301526145e28184613e65565b905092915050565b60006020820190506145ff6000830184613ee9565b92915050565b600060208201905061461a6000830184613f31565b92915050565b6000602082019050818103600083015261463a8184613f97565b905092915050565b600061012082019050818103600083015261465d818c613f97565b905061466c602083018b613f4f565b614679604083018a613e56565b6146866060830189613e56565b6146936080830188613e56565b6146a060a0830187614505565b6146ad60c0830186614505565b6146ba60e0830185614505565b6146c8610100830184613ee9565b9a9950505050505050505050565b600060208201905081810360008301526146ef81614001565b9050919050565b6000602082019050818103600083015261470f81614024565b9050919050565b6000602082019050818103600083015261472f81614047565b9050919050565b6000602082019050818103600083015261474f8161406a565b9050919050565b6000602082019050818103600083015261476f8161408d565b9050919050565b6000602082019050818103600083015261478f816140b0565b9050919050565b600060208201905081810360008301526147af816140d3565b9050919050565b600060208201905081810360008301526147cf816140f6565b9050919050565b600060208201905081810360008301526147ef81614119565b9050919050565b6000602082019050818103600083015261480f8161413c565b9050919050565b6000602082019050818103600083015261482f8161415f565b9050919050565b6000602082019050818103600083015261484f81614182565b9050919050565b6000602082019050818103600083015261486f816141a5565b9050919050565b6000602082019050818103600083015261488f816141c8565b9050919050565b600060208201905081810360008301526148af816141eb565b9050919050565b600060208201905081810360008301526148cf8161420e565b9050919050565b600060208201905081810360008301526148ef81614231565b9050919050565b6000602082019050818103600083015261490f81614254565b9050919050565b6000602082019050818103600083015261492f81614277565b9050919050565b6000602082019050818103600083015261494f8161429a565b9050919050565b6000602082019050818103600083015261496f816142bd565b9050919050565b6000602082019050818103600083015261498f816142e0565b9050919050565b600060208201905081810360008301526149af81614303565b9050919050565b600060208201905081810360008301526149cf81614326565b9050919050565b600060208201905081810360008301526149ef81614349565b9050919050565b60006020820190508181036000830152614a108184614431565b905092915050565b6000602082019050614a2d6000830184614505565b92915050565b6000614a3d614a4e565b9050614a498282614dcb565b919050565b6000604051905090565b600067ffffffffffffffff821115614a7357614a72614f90565b5b602082029050602081019050919050565b600067ffffffffffffffff821115614a9f57614a9e614f90565b5b614aa882614fd8565b9050602081019050919050565b600067ffffffffffffffff821115614ad057614acf614f90565b5b614ad982614fd8565b9050602081019050919050565b6000819050602082019050919050565b600081519050919050565b600081519050919050565b600081519050919050565b6000602082019050919050565b600082825260208201905092915050565b600082825260208201905092915050565b600082825260208201905092915050565b600082825260208201905092915050565b600081905092915050565b6000614b7e82614d05565b9150614b8983614d05565b9250827fffffffffffffffffffffffffffffffffffffffffffffffffffffffffffffffff03821115614bbe57614bbd614e76565b5b828201905092915050565b6000614bd482614d05565b9150614bdf83614d05565b925082614bef57614bee614ea5565b5b828204905092915050565b6000614c0582614d05565b9150614c1083614d05565b9250817fffffffffffffffffffffffffffffffffffffffffffffffffffffffffffffffff0483118215151615614c4957614c48614e76565b5b828202905092915050565b6000614c5f82614d05565b9150614c6a83614d05565b925082821015614c7d57614c7c614e76565b5b828203905092915050565b6000614c9382614ce5565b9050919050565b60008115159050919050565b60007fffffffff0000000000000000000000000000000000000000000000000000000082169050919050565b6000819050614ce0826155fe565b919050565b600073ffffffffffffffffffffffffffffffffffffffff82169050919050565b6000819050919050565b6000614d1a82614d33565b9050919050565b6000614d2c82614cd2565b9050919050565b6000614d3e82614d45565b9050919050565b6000614d5082614ce5565b9050919050565b82818337600083830152505050565b60005b83811015614d84578082015181840152602081019050614d69565b83811115614d93576000848401525b50505050565b60006002820490506001821680614db157607f821691505b60208210811415614dc557614dc4614f03565b5b50919050565b614dd482614fd8565b810181811067ffffffffffffffff82111715614df357614df2614f90565b5b80604052505050565b6000614e0782614d05565b91507fffffffffffffffffffffffffffffffffffffffffffffffffffffffffffffffff821415614e3a57614e39614e76565b5b600182019050919050565b6000614e5082614d05565b9150614e5b83614d05565b925082614e6b57614e6a614ea5565b5b828206905092915050565b7f4e487b7100000000000000000000000000000000000000000000000000000000600052601160045260246000fd5b7f4e487b7100000000000000000000000000000000000000000000000000000000600052601260045260246000fd5b7f4e487b7100000000000000000000000000000000000000000000000000000000600052602160045260246000fd5b7f4e487b7100000000000000000000000000000000000000000000000000000000600052602260045260246000fd5b7f4e487b7100000000000000000000000000000000000000000000000000000000600052603160045260246000fd5b7f4e487b7100000000000000000000000000000000000000000000000000000000600052603260045260246000fd5b7f4e487b7100000000000000000000000000000000000000000000000000000000600052604160045260246000fd5b600080fd5b600080fd5b600080fd5b600080fd5b600080fd5b6000601f19601f8301169050919050565b7f496e76616c696420616464726573730000000000000000000000000000000000600082015250565b7f496e76616c6964207461736b2073746174650000000000000000000000000000600082015250565b7f455243373231456e756d657261626c653a206f776e657220696e646578206f7560008201527f74206f6620626f756e6473000000000000000000000000000000000000000000602082015250565b7f4552433732313a207472616e7366657220746f206e6f6e20455243373231526560008201527f63656976657220696d706c656d656e7465720000000000000000000000000000602082015250565b7f4552433732313a207472616e736665722066726f6d20696e636f72726563742060008201527f6f776e6572000000000000000000000000000000000000000000000000000000602082015250565b7f4552433732313a20746f6b656e20616c7265616479206d696e74656400000000600082015250565b7f4275696c6465722070726f66696c6520646f6573206e6f74206578697374206f60008201527f6e20636861696e00000000000000000000000000000000000000000000000000602082015250565b7f4f6e6c7920666f756e6465722063616e20636f6d706c6574652074686520746160008201527f736b000000000000000000000000000000000000000000000000000000000000602082015250565b7f4f6e6c79206163636570746564206275696c6465722063616e2061677265652060008201527f7461736b2063616e63656c6c6174696f6e000000000000000000000000000000602082015250565b7f4552433732313a207472616e7366657220746f20746865207a65726f2061646460008201527f7265737300000000000000000000000000000000000000000000000000000000602082015250565b7f4552433732313a20617070726f766520746f2063616c6c657200000000000000600082015250565b7f416c726561647920737461727465640000000000000000000000000000000000600082015250565b7f5461736b20746f6b656e2063616e6e6f74207472616e736665722e0000000000600082015250565b7f4552433732313a2061646472657373207a65726f206973206e6f74206120766160008201527f6c6964206f776e65720000000000000000000000000000000000000000000000602082015250565b7f4552433732313a20617070726f76652063616c6c6572206973206e6f7420746f60008201527f6b656e206f776e6572206e6f7220617070726f76656420666f7220616c6c0000602082015250565b7f4552433732313a206d696e7420746f20746865207a65726f2061646472657373600082015250565b7f5461736b2062756467657420657863656564732070726f6a656374206275646760008201527f6574000000000000000000000000000000000000000000000000000000000000602082015250565b7f5461736b206e6f7420666f756e64000000000000000000000000000000000000600082015250565b7f4f6e6c792070726f6a656374277320666f756e6465722063616e20637265617460008201527f652061207461736b206f6e20636861696e000000000000000000000000000000602082015250565b7f4f6e6c7920666f756e6465722063616e2063616e63656c20746865207461736b600082015250565b7f4552433732313a20696e76616c696420746f6b656e2049440000000000000000600082015250565b7f4552433732313a20617070726f76616c20746f2063757272656e74206f776e6560008201527f7200000000000000000000000000000000000000000000000000000000000000602082015250565b7f496e636f7272656374206275696c646572206164647265737300000000000000600082015250565b7f455243373231456e756d657261626c653a20676c6f62616c20696e646578206f60008201527f7574206f6620626f756e64730000000000000000000000000000000000000000602082015250565b7f4552433732313a2063616c6c6572206973206e6f7420746f6b656e206f776e6560008201527f72206e6f7220617070726f766564000000000000000000000000000000000000602082015250565b6005811061560f5761560e614ed4565b5b50565b61561b81614c88565b811461562657600080fd5b50565b61563281614c9a565b811461563d57600080fd5b50565b61564981614ca6565b811461565457600080fd5b50565b61566081614d05565b811461566b57600080fd5b5056fea2646970667358221220e37ca17975f7c569b3e25a8fe770fa971fc9bb99fb0d240366940884443c7e5b64736f6c63430008070033",
  "linkReferences": {},
  "deployedLinkReferences": {}
}