{
  "_format": "hh-sol-artifact-1",
  "contractName": "Task",
  "sourceName": "contracts/Task.sol",
  "abi": [
    {
      "anonymous": false,
      "inputs": [
        {
          "indexed": true,
          "internalType": "address",
          "name": "owner",
          "type": "address"
        },
        {
          "indexed": true,
          "internalType": "address",
          "name": "approved",
          "type": "address"
        },
        {
          "indexed": true,
          "internalType": "uint256",
          "name": "tokenId",
          "type": "uint256"
        }
      ],
      "name": "Approval",
      "type": "event"
    },
    {
      "anonymous": false,
      "inputs": [
        {
          "indexed": true,
          "internalType": "address",
          "name": "owner",
          "type": "address"
        },
        {
          "indexed": true,
          "internalType": "address",
          "name": "operator",
          "type": "address"
        },
        {
          "indexed": false,
          "internalType": "bool",
          "name": "approved",
          "type": "bool"
        }
      ],
      "name": "ApprovalForAll",
      "type": "event"
    },
    {
      "anonymous": false,
      "inputs": [
        {
          "indexed": false,
          "internalType": "uint8",
          "name": "version",
          "type": "uint8"
        }
      ],
      "name": "Initialized",
      "type": "event"
    },
    {
      "anonymous": false,
      "inputs": [
        {
          "indexed": false,
          "internalType": "address",
          "name": "founderAddress",
          "type": "address"
        },
        {
          "indexed": false,
          "internalType": "address",
          "name": "builderAddress",
          "type": "address"
        },
        {
          "indexed": false,
          "internalType": "uint256",
          "name": "usdc",
          "type": "uint256"
        }
      ],
      "name": "TaskCompleted",
      "type": "event"
    },
    {
      "anonymous": false,
      "inputs": [
        {
          "indexed": false,
          "internalType": "address",
          "name": "builderAddress",
          "type": "address"
        },
        {
          "indexed": false,
          "internalType": "uint256",
          "name": "taskId",
          "type": "uint256"
        }
      ],
      "name": "TaskCreated",
      "type": "event"
    },
    {
      "anonymous": false,
      "inputs": [
        {
          "indexed": true,
          "internalType": "address",
          "name": "from",
          "type": "address"
        },
        {
          "indexed": true,
          "internalType": "address",
          "name": "to",
          "type": "address"
        },
        {
          "indexed": true,
          "internalType": "uint256",
          "name": "tokenId",
          "type": "uint256"
        }
      ],
      "name": "Transfer",
      "type": "event"
    },
    {
      "inputs": [],
      "name": "FL_wallet",
      "outputs": [
        {
          "internalType": "address",
          "name": "",
          "type": "address"
        }
      ],
      "stateMutability": "view",
      "type": "function"
    },
    {
      "inputs": [],
      "name": "USDCtoken",
      "outputs": [
        {
          "internalType": "contract IERC20",
          "name": "",
          "type": "address"
        }
      ],
      "stateMutability": "view",
      "type": "function"
    },
    {
      "inputs": [
        {
          "internalType": "address",
          "name": "to",
          "type": "address"
        },
        {
          "internalType": "uint256",
          "name": "tokenId",
          "type": "uint256"
        }
      ],
      "name": "approve",
      "outputs": [],
      "stateMutability": "nonpayable",
      "type": "function"
    },
    {
      "inputs": [
        {
          "internalType": "address",
          "name": "owner",
          "type": "address"
        }
      ],
      "name": "balanceOf",
      "outputs": [
        {
          "internalType": "uint256",
          "name": "",
          "type": "uint256"
        }
      ],
      "stateMutability": "view",
      "type": "function"
    },
    {
      "inputs": [
        {
          "internalType": "uint256",
          "name": "_taskId",
          "type": "uint256"
        }
      ],
      "name": "cancelTask",
      "outputs": [],
      "stateMutability": "nonpayable",
      "type": "function"
    },
    {
      "inputs": [
        {
          "internalType": "uint256",
          "name": "_taskId",
          "type": "uint256"
        }
      ],
      "name": "checkTaskId",
      "outputs": [
        {
          "internalType": "bool",
          "name": "",
          "type": "bool"
        }
      ],
      "stateMutability": "view",
      "type": "function"
    },
    {
      "inputs": [
        {
          "internalType": "uint256",
          "name": "_taskId",
          "type": "uint256"
        },
        {
          "internalType": "uint256",
          "name": "_amount",
          "type": "uint256"
        }
      ],
      "name": "commitToTask",
      "outputs": [],
      "stateMutability": "nonpayable",
      "type": "function"
    },
    {
      "inputs": [
        {
          "internalType": "uint256",
          "name": "_taskId",
          "type": "uint256"
        }
      ],
      "name": "completeTask",
      "outputs": [],
      "stateMutability": "nonpayable",
      "type": "function"
    },
    {
      "inputs": [
        {
          "internalType": "address",
          "name": "_projectAddress",
          "type": "address"
        },
        {
          "internalType": "address",
          "name": "_builderAddress",
          "type": "address"
        },
        {
          "internalType": "string",
          "name": "_name",
          "type": "string"
        },
        {
          "internalType": "uint256",
          "name": "_usdc",
          "type": "uint256"
        },
        {
          "internalType": "uint256",
          "name": "_xp",
          "type": "uint256"
        }
      ],
      "name": "createTask",
      "outputs": [],
      "stateMutability": "nonpayable",
      "type": "function"
    },
    {
      "inputs": [
        {
          "internalType": "uint256",
          "name": "tokenId",
          "type": "uint256"
        }
      ],
      "name": "getApproved",
      "outputs": [
        {
          "internalType": "address",
          "name": "",
          "type": "address"
        }
      ],
      "stateMutability": "view",
      "type": "function"
    },
    {
      "inputs": [
        {
          "internalType": "uint256",
          "name": "_tokenId",
          "type": "uint256"
        }
      ],
      "name": "getTaskById",
      "outputs": [
        {
          "components": [
            {
              "internalType": "string",
              "name": "name",
              "type": "string"
            },
            {
              "internalType": "enum Task.State",
              "name": "currentState",
              "type": "uint8"
            },
            {
              "internalType": "address",
              "name": "projectAddress",
              "type": "address"
            },
            {
              "internalType": "address",
              "name": "founderAddress",
              "type": "address"
            },
            {
              "internalType": "address",
              "name": "builderAddress",
              "type": "address"
            },
            {
              "internalType": "uint256",
              "name": "usdc_amount",
              "type": "uint256"
            },
            {
              "internalType": "uint256",
              "name": "fndr_amount",
              "type": "uint256"
            },
            {
              "internalType": "uint256",
              "name": "xp",
              "type": "uint256"
            },
            {
              "internalType": "bool",
              "name": "isBuilderAgreed",
              "type": "bool"
            }
          ],
          "internalType": "struct Task.TaskInfo",
          "name": "",
          "type": "tuple"
        }
      ],
      "stateMutability": "view",
      "type": "function"
    },
    {
      "inputs": [
        {
          "internalType": "uint256",
          "name": "",
          "type": "uint256"
        }
      ],
      "name": "idToTask",
      "outputs": [
        {
          "internalType": "string",
          "name": "name",
          "type": "string"
        },
        {
          "internalType": "enum Task.State",
          "name": "currentState",
          "type": "uint8"
        },
        {
          "internalType": "address",
          "name": "projectAddress",
          "type": "address"
        },
        {
          "internalType": "address",
          "name": "founderAddress",
          "type": "address"
        },
        {
          "internalType": "address",
          "name": "builderAddress",
          "type": "address"
        },
        {
          "internalType": "uint256",
          "name": "usdc_amount",
          "type": "uint256"
        },
        {
          "internalType": "uint256",
          "name": "fndr_amount",
          "type": "uint256"
        },
        {
          "internalType": "uint256",
          "name": "xp",
          "type": "uint256"
        },
        {
          "internalType": "bool",
          "name": "isBuilderAgreed",
          "type": "bool"
        }
      ],
      "stateMutability": "view",
      "type": "function"
    },
    {
      "inputs": [
        {
          "internalType": "address",
          "name": "_usdc_address",
          "type": "address"
        },
        {
          "internalType": "address",
          "name": "_fndr_address",
          "type": "address"
        },
        {
          "internalType": "address",
          "name": "_profileFactoryAddress",
          "type": "address"
        },
        {
          "internalType": "address",
          "name": "_projectFactoryAddress",
          "type": "address"
        },
        {
          "internalType": "address",
          "name": "_owner",
          "type": "address"
        }
      ],
      "name": "initialize",
      "outputs": [],
      "stateMutability": "nonpayable",
      "type": "function"
    },
    {
      "inputs": [
        {
          "internalType": "address",
          "name": "owner",
          "type": "address"
        },
        {
          "internalType": "address",
          "name": "operator",
          "type": "address"
        }
      ],
      "name": "isApprovedForAll",
      "outputs": [
        {
          "internalType": "bool",
          "name": "",
          "type": "bool"
        }
      ],
      "stateMutability": "view",
      "type": "function"
    },
    {
      "inputs": [],
      "name": "name",
      "outputs": [
        {
          "internalType": "string",
          "name": "",
          "type": "string"
        }
      ],
      "stateMutability": "view",
      "type": "function"
    },
    {
      "inputs": [],
      "name": "owner",
      "outputs": [
        {
          "internalType": "address",
          "name": "",
          "type": "address"
        }
      ],
      "stateMutability": "view",
      "type": "function"
    },
    {
      "inputs": [
        {
          "internalType": "uint256",
          "name": "tokenId",
          "type": "uint256"
        }
      ],
      "name": "ownerOf",
      "outputs": [
        {
          "internalType": "address",
          "name": "",
          "type": "address"
        }
      ],
      "stateMutability": "view",
      "type": "function"
    },
    {
      "inputs": [
        {
          "internalType": "address",
          "name": "from",
          "type": "address"
        },
        {
          "internalType": "address",
          "name": "to",
          "type": "address"
        },
        {
          "internalType": "uint256",
          "name": "tokenId",
          "type": "uint256"
        }
      ],
      "name": "safeTransferFrom",
      "outputs": [],
      "stateMutability": "nonpayable",
      "type": "function"
    },
    {
      "inputs": [
        {
          "internalType": "address",
          "name": "from",
          "type": "address"
        },
        {
          "internalType": "address",
          "name": "to",
          "type": "address"
        },
        {
          "internalType": "uint256",
          "name": "tokenId",
          "type": "uint256"
        },
        {
          "internalType": "bytes",
          "name": "data",
          "type": "bytes"
        }
      ],
      "name": "safeTransferFrom",
      "outputs": [],
      "stateMutability": "nonpayable",
      "type": "function"
    },
    {
      "inputs": [
        {
          "internalType": "address",
          "name": "operator",
          "type": "address"
        },
        {
          "internalType": "bool",
          "name": "approved",
          "type": "bool"
        }
      ],
      "name": "setApprovalForAll",
      "outputs": [],
      "stateMutability": "nonpayable",
      "type": "function"
    },
    {
      "inputs": [
        {
          "internalType": "bytes4",
          "name": "interfaceId",
          "type": "bytes4"
        }
      ],
      "name": "supportsInterface",
      "outputs": [
        {
          "internalType": "bool",
          "name": "",
          "type": "bool"
        }
      ],
      "stateMutability": "view",
      "type": "function"
    },
    {
      "inputs": [],
      "name": "symbol",
      "outputs": [
        {
          "internalType": "string",
          "name": "",
          "type": "string"
        }
      ],
      "stateMutability": "view",
      "type": "function"
    },
    {
      "inputs": [
        {
          "internalType": "uint256",
          "name": "index",
          "type": "uint256"
        }
      ],
      "name": "tokenByIndex",
      "outputs": [
        {
          "internalType": "uint256",
          "name": "",
          "type": "uint256"
        }
      ],
      "stateMutability": "view",
      "type": "function"
    },
    {
      "inputs": [
        {
          "internalType": "address",
          "name": "owner",
          "type": "address"
        },
        {
          "internalType": "uint256",
          "name": "index",
          "type": "uint256"
        }
      ],
      "name": "tokenOfOwnerByIndex",
      "outputs": [
        {
          "internalType": "uint256",
          "name": "",
          "type": "uint256"
        }
      ],
      "stateMutability": "view",
      "type": "function"
    },
    {
      "inputs": [
        {
          "internalType": "uint256",
          "name": "tokenId",
          "type": "uint256"
        }
      ],
      "name": "tokenURI",
      "outputs": [
        {
          "internalType": "string",
          "name": "",
          "type": "string"
        }
      ],
      "stateMutability": "view",
      "type": "function"
    },
    {
      "inputs": [],
      "name": "totalSupply",
      "outputs": [
        {
          "internalType": "uint256",
          "name": "",
          "type": "uint256"
        }
      ],
      "stateMutability": "view",
      "type": "function"
    },
    {
      "inputs": [
        {
          "internalType": "address",
          "name": "from",
          "type": "address"
        },
        {
          "internalType": "address",
          "name": "to",
          "type": "address"
        },
        {
          "internalType": "uint256",
          "name": "tokenId",
          "type": "uint256"
        }
      ],
      "name": "transferFrom",
      "outputs": [],
      "stateMutability": "nonpayable",
      "type": "function"
    }
  ],
  "bytecode": "0x608060405260ce80546001600160a01b031916735ee8d1b65942116da65700849d65cc839e38cc5e17905560cf805460ff60a01b1916600160a01b17905534801561004957600080fd5b506131f1806100596000396000f3fe608060405234801561001057600080fd5b50600436106101a95760003560e01c806370a08231116100f9578063b88d4fde11610097578063c87b56dd11610071578063c87b56dd146103aa578063cb339ae6146103bd578063e1e29558146103d0578063e985e9c5146103e357600080fd5b8063b88d4fde14610371578063c42977be14610384578063c7945cff1461039757600080fd5b80638da5cb5b116100d35780638da5cb5b1461032357806395d89b4114610336578063976217cd1461033e578063a22cb4651461035e57600080fd5b806370a08231146102ea5780637eec20a8146102fd5780638c02263b1461031057600080fd5b80631c8187a6116101665780634185e507116101405780634185e5071461029e57806342842e0e146102b15780634f6ccce7146102c45780636352211e146102d757600080fd5b80631c8187a61461025057806323b872dd146102785780632f745c591461028b57600080fd5b806301ffc9a7146101ae57806306fdde03146101d6578063081812fc146101eb578063095ea7b3146102165780631459457a1461022b57806318160ddd1461023e575b600080fd5b6101c16101bc366004612c96565b61041f565b60405190151581526020015b60405180910390f35b6101de61044a565b6040516101cd9190612dde565b6101fe6101f9366004612cd0565b6104dc565b6040516001600160a01b0390911681526020016101cd565b610229610224366004612c4d565b610503565b005b610229610239366004612a65565b61061e565b6099545b6040519081526020016101cd565b61026361025e366004612cd0565b610782565b6040516101cd99989796959493929190612df1565b610229610286366004612b5e565b610869565b610242610299366004612c4d565b61089a565b60ca546101fe906001600160a01b031681565b6102296102bf366004612b5e565b610930565b6102426102d2366004612cd0565b61094b565b6101fe6102e5366004612cd0565b6109de565b6102426102f83660046129f2565b610a3e565b61022961030b366004612cd0565b610ac4565b6101c161031e366004612cd0565b610e3d565b60cf546101fe906001600160a01b031681565b6101de610e48565b61035161034c366004612cd0565b610e57565b6040516101cd9190612fa9565b61022961036c366004612c1f565b611012565b61022961037f366004612b9f565b611021565b60ce546101fe906001600160a01b031681565b6102296103a5366004612d02565b611059565b6101de6103b8366004612cd0565b6112cb565b6102296103cb366004612ad6565b61133f565b6102296103de366004612cd0565b61180c565b6101c16103f1366004612a2c565b6001600160a01b039182166000908152606a6020908152604080832093909416825291909152205460ff1690565b60006001600160e01b0319821663780e9d6360e01b1480610444575061044482611dd0565b92915050565b606060658054610459906130df565b80601f0160208091040260200160405190810160405280929190818152602001828054610485906130df565b80156104d25780601f106104a7576101008083540402835291602001916104d2565b820191906000526020600020905b8154815290600101906020018083116104b557829003601f168201915b5050505050905090565b60006104e782611e20565b506000908152606960205260409020546001600160a01b031690565b600061050e826109de565b9050806001600160a01b0316836001600160a01b031614156105815760405162461bcd60e51b815260206004820152602160248201527f4552433732313a20617070726f76616c20746f2063757272656e74206f776e656044820152603960f91b60648201526084015b60405180910390fd5b336001600160a01b038216148061059d575061059d81336103f1565b61060f5760405162461bcd60e51b815260206004820152603d60248201527f4552433732313a20617070726f76652063616c6c6572206973206e6f7420746f60448201527f6b656e206f776e6572206f7220617070726f76656420666f7220616c6c0000006064820152608401610578565b6106198383611e73565b505050565b600054610100900460ff161580801561063e5750600054600160ff909116105b806106585750303b158015610658575060005460ff166001145b6106bb5760405162461bcd60e51b815260206004820152602e60248201527f496e697469616c697a61626c653a20636f6e747261637420697320616c72656160448201526d191e481a5b9a5d1a585b1a5e995960921b6064820152608401610578565b6000805460ff1916600117905580156106de576000805461ff0019166101001790555b60ca80546001600160a01b03199081166001600160a01b038981169190911790925560cb8054821687841617905560cc8054821686841617905560cd8054821688841617905560cf8054909116918416919091179055801561077a576000805461ff0019169055604051600181527f7f26b83ff96e1f2b6a682f133852f6798a09c465da95921460cefb38474024989060200160405180910390a15b505050505050565b60d06020526000908152604090208054819061079d906130df565b80601f01602080910402602001604051908101604052809291908181526020018280546107c9906130df565b80156108165780601f106107eb57610100808354040283529160200191610816565b820191906000526020600020905b8154815290600101906020018083116107f957829003601f168201915b505050600184015460028501546003860154600487015460058801546006890154600790990154979860ff808716996001600160a01b036101009098048816995095871697509390951694919390921689565b6108733382611ee1565b61088f5760405162461bcd60e51b815260040161057890612e5b565b610619838383611f60565b60006108a583610a3e565b82106109075760405162461bcd60e51b815260206004820152602b60248201527f455243373231456e756d657261626c653a206f776e657220696e646578206f7560448201526a74206f6620626f756e647360a81b6064820152608401610578565b506001600160a01b03919091166000908152609760209081526040808320938352929052205490565b61061983838360405180602001604052806000815250611021565b600061095660995490565b82106109b95760405162461bcd60e51b815260206004820152602c60248201527f455243373231456e756d657261626c653a20676c6f62616c20696e646578206f60448201526b7574206f6620626f756e647360a01b6064820152608401610578565b609982815481106109cc576109cc613156565b90600052602060002001549050919050565b6000818152606760205260408120546001600160a01b0316806104445760405162461bcd60e51b8152602060048201526018602482015277115490cdcc8c4e881a5b9d985b1a59081d1bdad95b88125160421b6044820152606401610578565b60006001600160a01b038216610aa85760405162461bcd60e51b815260206004820152602960248201527f4552433732313a2061646472657373207a65726f206973206e6f7420612076616044820152683634b21037bbb732b960b91b6064820152608401610578565b506001600160a01b031660009081526068602052604090205490565b80610ace816120cf565b610aea5760405162461bcd60e51b815260040161057890612f81565b600082815260d0602052604090206002015482906001600160a01b03163314610b255760405162461bcd60e51b815260040161057890612f3f565b6002600084815260d0602052604090206001015460ff166003811115610b4d57610b4d61312a565b14158015610b8157506003600084815260d0602052604090206001015460ff166003811115610b7e57610b7e61312a565b14155b610bd95760405162461bcd60e51b815260206004820152602360248201527f5461736b20616c726561647920636f6d706c65746564206f722063616e63656c6044820152621b195960ea1b6064820152608401610578565b6001600084815260d0602052604090206001015460ff166003811115610c0157610c0161312a565b1415610caa5760cd54600084815260d06020526040908190206003810154600590910154915163a9059cbb60e01b81526001600160a01b03918216600482015260248101929092529091169063a9059cbb90604401602060405180830381600087803b158015610c7057600080fd5b505af1158015610c84573d6000803e3d6000fd5b505050506040513d601f19601f82011682018060405250810190610ca89190612c79565b505b60ca54600084815260d06020526040908190206001810154600491820154925163a9059cbb60e01b81526001600160a01b03610100909204821692810192909252602482019290925291169063a9059cbb90604401602060405180830381600087803b158015610d1957600080fd5b505af1158015610d2d573d6000803e3d6000fd5b505050506040513d601f19601f82011682018060405250810190610d519190612c79565b5060ca54600084815260d06020526040902060018101546004909101546001600160a01b039283169263a9059cbb9261010090041690610d9390600a9061305b565b6040516001600160e01b031960e085901b1681526001600160a01b0390921660048301526024820152604401602060405180830381600087803b158015610dd957600080fd5b505af1158015610ded573d6000803e3d6000fd5b505050506040513d601f19601f82011682018060405250810190610e119190612c79565b50600083815260d0602052604090206001908101805460039260ff1990911690835b0217905550505050565b6000610444826120cf565b606060668054610459906130df565b610ea760408051610120810190915260608152602081016000815260006020820181905260408201819052606082018190526080820181905260a0820181905260c0820181905260e09091015290565b81610eb1816120cf565b610ecd5760405162461bcd60e51b815260040161057890612f81565b600083815260d060205260409081902081516101208101909252805482908290610ef6906130df565b80601f0160208091040260200160405190810160405280929190818152602001828054610f22906130df565b8015610f6f5780601f10610f4457610100808354040283529160200191610f6f565b820191906000526020600020905b815481529060010190602001808311610f5257829003601f168201915b5050509183525050600182015460209091019060ff166003811115610f9657610f9661312a565b6003811115610fa757610fa761312a565b815260018201546001600160a01b0361010090910481166020830152600283015481166040830152600383015416606082015260048201546080820152600582015460a0820152600682015460c082015260079091015460ff16151560e09091015291505b50919050565b61101d3383836120ec565b5050565b61102b3383611ee1565b6110475760405162461bcd60e51b815260040161057890612e5b565b611053848484846121bb565b50505050565b81611063816120cf565b61107f5760405162461bcd60e51b815260040161057890612f81565b600083815260d060205260409020600301546001600160a01b031633146110e85760405162461bcd60e51b815260206004820152601e60248201527f596f75277265206e6f742061206163636570746564206275696c6465722e00006044820152606401610578565b600083815260d0602052604081206001015460ff16600381111561110e5761110e61312a565b146111505760405162461bcd60e51b8152602060048201526012602482015271496e76616c6964207461736b20737461746560701b6044820152606401610578565b60cd546040516370a0823160e01b815233600482015283916001600160a01b0316906370a082319060240160206040518083038186803b15801561119357600080fd5b505afa1580156111a7573d6000803e3d6000fd5b505050506040513d601f19601f820116820180604052508101906111cb9190612ce9565b10156112195760405162461bcd60e51b815260206004820152601860248201527f496e73756666696369656e7420464e445220616d6f756e7400000000000000006044820152606401610578565b60cd546040516323b872dd60e01b8152336004820152306024820152604481018490526001600160a01b03909116906323b872dd90606401602060405180830381600087803b15801561126b57600080fd5b505af115801561127f573d6000803e3d6000fd5b505050506040513d601f19601f820116820180604052508101906112a39190612c79565b50600083815260d060205260409020600581018390556001908101805460ff19168280610e33565b60606112d682611e20565b60006112ed60408051602081019091526000815290565b9050600081511161130d5760405180602001604052806000815250611338565b80611317846121ee565b604051602001611328929190612d72565b6040516020818303038152906040525b9392505050565b60ca546040516370a0823160e01b81526001600160a01b03808816600483015287928592600092909116906370a082319060240160206040518083038186803b15801561138b57600080fd5b505afa15801561139f573d6000803e3d6000fd5b505050506040513d601f19601f820116820180604052508101906113c39190612ce9565b905060646113d283606e61307d565b6113dc919061305b565b81101561143c5760405162461bcd60e51b815260206004820152602860248201527f546f74616c207461736b2062756467657420657863656564732070726f6a65636044820152671d08189d5919d95d60c21b6064820152608401610578565b60cc546040516323a30b2360e01b81526001600160a01b03808b1660048301528a926000929116906323a30b239060240160206040518083038186803b15801561148557600080fd5b505afa158015611499573d6000803e3d6000fd5b505050506040513d601f19601f820116820180604052508101906114bd9190612a0f565b90506001600160a01b03811633146115315760405162461bcd60e51b815260206004820152603160248201527f4f6e6c792070726f6a656374277320666f756e6465722063616e206372656174604482015270329030903a30b9b59037b71031b430b4b760791b6064820152608401610578565b60cb54604051632737a05b60e01b81526001600160a01b038b811660048301526000921690632737a05b9060240160206040518083038186803b15801561157757600080fd5b505afa15801561158b573d6000803e3d6000fd5b505050506040513d601f19601f820116820180604052508101906115af9190612a0f565b90506001600160a01b0381166116175760405162461bcd60e51b815260206004820152602760248201527f4275696c6465722070726f66696c6520646f6573206e6f74206578697374206f604482015266371031b430b4b760c91b6064820152608401610578565b60cf805460ff60a01b1916905561163260c980546001019055565b6116448a61163f60c95490565b61228b565b60408051610120810190915289815260208101600081526020018c6001600160a01b03168152602001336001600160a01b031681526020018b6001600160a01b03168152602001898152602001600081526020018881526020016000151581525060d060006116b260c95490565b81526020808201929092526040016000208251805191926116d8928492909101906128e3565b50602082015160018083018054909160ff19909116908360038111156117005761170061312a565b021790555060408201516001820180546001600160a01b03928316610100908102610100600160a81b03199092169190911790915560608401516002840180549184166001600160a01b031992831617905560808501516003850180549190941691161790915560a0830151600483015560c0830151600583015560e08301516006830155909101516007909101805491151560ff1990921691909117905560cf805460ff60a01b1916600160a01b1790557fb1c0ef93ef5afc0800a5789b004fdaf5931873276c7ccb409e7d1a310906886a8a6117dd60c95490565b604080516001600160a01b03909316835260208301919091520160405180910390a15050505050505050505050565b80611816816120cf565b6118325760405162461bcd60e51b815260040161057890612f81565b600082815260d0602052604090206002015482906001600160a01b0316331461186d5760405162461bcd60e51b815260040161057890612f3f565b6001600084815260d0602052604090206001015460ff1660038111156118955761189561312a565b146118e25760405162461bcd60e51b815260206004820152601860248201527f5461736b2073686f756c6420626520696e2072657669657700000000000000006044820152606401610578565b60cb54600084815260d06020526040808220600301549051632737a05b60e01b81526001600160a01b03918216600482015291921690632737a05b9060240160206040518083038186803b15801561193957600080fd5b505afa15801561194d573d6000803e3d6000fd5b505050506040513d601f19601f820116820180604052508101906119719190612a0f565b60ca54600086815260d060205260409020600401549192506001600160a01b03169063a9059cbb9083906064906119a990605f61307d565b6119b3919061305b565b6040516001600160e01b031960e085901b1681526001600160a01b0390921660048301526024820152604401602060405180830381600087803b1580156119f957600080fd5b505af1158015611a0d573d6000803e3d6000fd5b505050506040513d601f19601f82011682018060405250810190611a319190612c79565b5060ca5460ce54600086815260d060205260409020600401546001600160a01b039283169263a9059cbb921690606490611a6c90600561307d565b611a76919061305b565b6040516001600160e01b031960e085901b1681526001600160a01b0390921660048301526024820152604401602060405180830381600087803b158015611abc57600080fd5b505af1158015611ad0573d6000803e3d6000fd5b505050506040513d601f19601f82011682018060405250810190611af49190612c79565b5060ca5460ce54600086815260d060205260409020600401546001600160a01b039283169263a9059cbb921690611b2d90600a9061305b565b6040516001600160e01b031960e085901b1681526001600160a01b0390921660048301526024820152604401602060405180830381600087803b158015611b7357600080fd5b505af1158015611b87573d6000803e3d6000fd5b505050506040513d601f19601f82011682018060405250810190611bab9190612c79565b50600084815260d060205260409081902060018101805460ff191660021790556006015490516310a3362d60e11b815260048101919091523060248201526001600160a01b038216906321466c5a90604401600060405180830381600087803b158015611c1757600080fd5b505af1158015611c2b573d6000803e3d6000fd5b505050600085815260d060205260409020600401546001600160a01b0383169150631223f5fc90606490611c6090605f61307d565b611c6a919061305b565b6040516001600160e01b031960e084901b1681526004810191909152306024820152604401600060405180830381600087803b158015611ca957600080fd5b505af1158015611cbd573d6000803e3d6000fd5b505060cd54600087815260d0602052604090819020600501549051632770a7eb60e21b815230600482015260248101919091526001600160a01b039091169250639dc29fac9150604401600060405180830381600087803b158015611d2157600080fd5b505af1158015611d35573d6000803e3d6000fd5b505050600085815260d060205260409020600281015460038201546004909201547f65f534584f0e90047cf062076979fe5dcd2a053548e31fdd49138bef6db88c0293506001600160a01b039182169290911690606490611d9790605f61307d565b611da1919061305b565b604080516001600160a01b0394851681529390921660208401529082015260600160405180910390a150505050565b60006001600160e01b031982166380ac58cd60e01b1480611e0157506001600160e01b03198216635b5e139f60e01b145b8061044457506301ffc9a760e01b6001600160e01b0319831614610444565b611e29816120cf565b611e705760405162461bcd60e51b8152602060048201526018602482015277115490cdcc8c4e881a5b9d985b1a59081d1bdad95b88125160421b6044820152606401610578565b50565b600081815260696020526040902080546001600160a01b0319166001600160a01b0384169081179091558190611ea8826109de565b6001600160a01b03167f8c5be1e5ebec7d5bd14f71427d1e84f3dd0314c0f7b2291e5b200ac8c7c3b92560405160405180910390a45050565b600080611eed836109de565b9050806001600160a01b0316846001600160a01b03161480611f3457506001600160a01b038082166000908152606a602090815260408083209388168352929052205460ff165b80611f585750836001600160a01b0316611f4d846104dc565b6001600160a01b0316145b949350505050565b826001600160a01b0316611f73826109de565b6001600160a01b031614611f995760405162461bcd60e51b815260040161057890612efa565b6001600160a01b038216611ffb5760405162461bcd60e51b8152602060048201526024808201527f4552433732313a207472616e7366657220746f20746865207a65726f206164646044820152637265737360e01b6064820152608401610578565b6120068383836122a5565b826001600160a01b0316612019826109de565b6001600160a01b03161461203f5760405162461bcd60e51b815260040161057890612efa565b600081815260696020908152604080832080546001600160a01b03199081169091556001600160a01b0387811680865260688552838620805460001901905590871680865283862080546001019055868652606790945282852080549092168417909155905184937fddf252ad1be2c89b69c2b068fc378daa952ba7f163c4a11628f55a4df523b3ef91a4505050565b6000908152606760205260409020546001600160a01b0316151590565b816001600160a01b0316836001600160a01b0316141561214e5760405162461bcd60e51b815260206004820152601960248201527f4552433732313a20617070726f766520746f2063616c6c6572000000000000006044820152606401610578565b6001600160a01b038381166000818152606a6020908152604080832094871680845294825291829020805460ff191686151590811790915591519182527f17307eab39ab6107e8899845ad3d59bd9653f200f220920489ca2b5937696c31910160405180910390a3505050565b6121c6848484611f60565b6121d28484848461230a565b6110535760405162461bcd60e51b815260040161057890612ea8565b606060006121fb83612417565b600101905060008167ffffffffffffffff81111561221b5761221b61316c565b6040519080825280601f01601f191660200182016040528015612245576020820181803683370190505b5090508181016020015b600019016f181899199a1a9b1b9c1cb0b131b232b360811b600a86061a8153600a850494508461227e57612283565b61224f565b509392505050565b61101d8282604051806020016040528060008152506124ef565b60cf54600160a01b900460ff16156122ff5760405162461bcd60e51b815260206004820152601b60248201527f5461736b20746f6b656e2063616e6e6f74207472616e736665722e00000000006044820152606401610578565b610619838383612522565b60006001600160a01b0384163b1561240c57604051630a85bd0160e11b81526001600160a01b0385169063150b7a029061234e903390899088908890600401612da1565b602060405180830381600087803b15801561236857600080fd5b505af1925050508015612398575060408051601f3d908101601f1916820190925261239591810190612cb3565b60015b6123f2573d8080156123c6576040519150601f19603f3d011682016040523d82523d6000602084013e6123cb565b606091505b5080516123ea5760405162461bcd60e51b815260040161057890612ea8565b805181602001fd5b6001600160e01b031916630a85bd0160e11b149050611f58565b506001949350505050565b60008072184f03e93ff9f4daa797ed6e38ed64bf6a1f0160401b83106124565772184f03e93ff9f4daa797ed6e38ed64bf6a1f0160401b830492506040015b6d04ee2d6d415b85acef81000000008310612482576d04ee2d6d415b85acef8100000000830492506020015b662386f26fc1000083106124a057662386f26fc10000830492506010015b6305f5e10083106124b8576305f5e100830492506008015b61271083106124cc57612710830492506004015b606483106124de576064830492506002015b600a83106104445760010192915050565b6124f983836125da565b612506600084848461230a565b6106195760405162461bcd60e51b815260040161057890612ea8565b6001600160a01b03831661257d5761257881609980546000838152609a60205260408120829055600182018355919091527f72a152ddfb8e864297c917af52ea6c1c68aead0fee1a62673fcc7e0c94979d000155565b6125a0565b816001600160a01b0316836001600160a01b0316146125a0576125a08382612753565b6001600160a01b0382166125b757610619816127f0565b826001600160a01b0316826001600160a01b03161461061957610619828261289f565b6001600160a01b0382166126305760405162461bcd60e51b815260206004820181905260248201527f4552433732313a206d696e7420746f20746865207a65726f20616464726573736044820152606401610578565b612639816120cf565b156126865760405162461bcd60e51b815260206004820152601c60248201527f4552433732313a20746f6b656e20616c7265616479206d696e746564000000006044820152606401610578565b612692600083836122a5565b61269b816120cf565b156126e85760405162461bcd60e51b815260206004820152601c60248201527f4552433732313a20746f6b656e20616c7265616479206d696e746564000000006044820152606401610578565b6001600160a01b038216600081815260686020908152604080832080546001019055848352606790915280822080546001600160a01b0319168417905551839291907fddf252ad1be2c89b69c2b068fc378daa952ba7f163c4a11628f55a4df523b3ef908290a45050565b6000600161276084610a3e565b61276a919061309c565b6000838152609860205260409020549091508082146127bd576001600160a01b03841660009081526097602090815260408083208584528252808320548484528184208190558352609890915290208190555b5060009182526098602090815260408084208490556001600160a01b039094168352609781528383209183525290812055565b6099546000906128029060019061309c565b6000838152609a60205260408120546099805493945090928490811061282a5761282a613156565b90600052602060002001549050806099838154811061284b5761284b613156565b6000918252602080832090910192909255828152609a9091526040808220849055858252812055609980548061288357612883613140565b6001900381819060005260206000200160009055905550505050565b60006128aa83610a3e565b6001600160a01b039093166000908152609760209081526040808320868452825280832085905593825260989052919091209190915550565b8280546128ef906130df565b90600052602060002090601f0160209004810192826129115760008555612957565b82601f1061292a57805160ff1916838001178555612957565b82800160010185558215612957579182015b8281111561295757825182559160200191906001019061293c565b50612963929150612967565b5090565b5b808211156129635760008155600101612968565b600067ffffffffffffffff808411156129975761299761316c565b604051601f8501601f19908116603f011681019082821181831017156129bf576129bf61316c565b816040528093508581528686860111156129d857600080fd5b858560208301376000602087830101525050509392505050565b600060208284031215612a0457600080fd5b813561133881613182565b600060208284031215612a2157600080fd5b815161133881613182565b60008060408385031215612a3f57600080fd5b8235612a4a81613182565b91506020830135612a5a81613182565b809150509250929050565b600080600080600060a08688031215612a7d57600080fd5b8535612a8881613182565b94506020860135612a9881613182565b93506040860135612aa881613182565b92506060860135612ab881613182565b91506080860135612ac881613182565b809150509295509295909350565b600080600080600060a08688031215612aee57600080fd5b8535612af981613182565b94506020860135612b0981613182565b9350604086013567ffffffffffffffff811115612b2557600080fd5b8601601f81018813612b3657600080fd5b612b458882356020840161297c565b9598949750949560608101359550608001359392505050565b600080600060608486031215612b7357600080fd5b8335612b7e81613182565b92506020840135612b8e81613182565b929592945050506040919091013590565b60008060008060808587031215612bb557600080fd5b8435612bc081613182565b93506020850135612bd081613182565b925060408501359150606085013567ffffffffffffffff811115612bf357600080fd5b8501601f81018713612c0457600080fd5b612c138782356020840161297c565b91505092959194509250565b60008060408385031215612c3257600080fd5b8235612c3d81613182565b91506020830135612a5a81613197565b60008060408385031215612c6057600080fd5b8235612c6b81613182565b946020939093013593505050565b600060208284031215612c8b57600080fd5b815161133881613197565b600060208284031215612ca857600080fd5b8135611338816131a5565b600060208284031215612cc557600080fd5b8151611338816131a5565b600060208284031215612ce257600080fd5b5035919050565b600060208284031215612cfb57600080fd5b5051919050565b60008060408385031215612d1557600080fd5b50508035926020909101359150565b60008151808452612d3c8160208601602086016130b3565b601f01601f19169290920160200192915050565b60048110612d6e57634e487b7160e01b600052602160045260246000fd5b9052565b60008351612d848184602088016130b3565b835190830190612d988183602088016130b3565b01949350505050565b6001600160a01b0385811682528416602082015260408101839052608060608201819052600090612dd490830184612d24565b9695505050505050565b6020815260006113386020830184612d24565b6000610120808352612e058184018d612d24565b915050612e15602083018b612d50565b6001600160a01b039889166040830152968816606082015294909616608085015260a084019290925260c083015260e08201529115156101009092019190915292915050565b6020808252602d908201527f4552433732313a2063616c6c6572206973206e6f7420746f6b656e206f776e6560408201526c1c881bdc88185c1c1c9bdd9959609a1b606082015260800190565b60208082526032908201527f4552433732313a207472616e7366657220746f206e6f6e20455243373231526560408201527131b2b4bb32b91034b6b83632b6b2b73a32b960711b606082015260800190565b60208082526025908201527f4552433732313a207472616e736665722066726f6d20696e636f72726563742060408201526437bbb732b960d91b606082015260800190565b60208082526022908201527f4f6e6c7920666f756e6465722063616e20636f6d706c65746520746865207461604082015261736b60f01b606082015260800190565b6020808252600e908201526d15185cdac81b9bdd08199bdd5b9960921b604082015260600190565b6020815260008251610120806020850152612fc8610140850183612d24565b91506020850151612fdc6040860182612d50565b5060408501516001600160a01b03811660608601525060608501516001600160a01b03811660808601525060808501516001600160a01b03811660a08601525060a085015160c085015260c085015160e085015260e08501516101008181870152808701519150506130518286018215159052565b5090949350505050565b60008261307857634e487b7160e01b600052601260045260246000fd5b500490565b600081600019048311821515161561309757613097613114565b500290565b6000828210156130ae576130ae613114565b500390565b60005b838110156130ce5781810151838201526020016130b6565b838111156110535750506000910152565b600181811c908216806130f357607f821691505b6020821081141561100c57634e487b7160e01b600052602260045260246000fd5b634e487b7160e01b600052601160045260246000fd5b634e487b7160e01b600052602160045260246000fd5b634e487b7160e01b600052603160045260246000fd5b634e487b7160e01b600052603260045260246000fd5b634e487b7160e01b600052604160045260246000fd5b6001600160a01b0381168114611e7057600080fd5b8015158114611e7057600080fd5b6001600160e01b031981168114611e7057600080fdfea26469706673582212209c6d99a9b69c6cc6e846f0ec9af83b850d56cb008b372cb2fae84ed95507faf664736f6c63430008070033",
  "linkReferences": {},
  "deployedLinkReferences": {}
}