{
  "_format": "hh-sol-artifact-1",
  "contractName": "Task",
  "sourceName": "contracts/Task.sol",
  "abi": [
    {
      "inputs": [
        {
          "internalType": "address",
          "name": "_usdc_address",
          "type": "address"
        },
        {
          "internalType": "address",
          "name": "_fndr_address",
          "type": "address"
        },
        {
          "internalType": "address",
          "name": "_profileManageAddress",
          "type": "address"
        },
        {
          "internalType": "address",
          "name": "_projectManageAddress",
          "type": "address"
        }
      ],
      "stateMutability": "nonpayable",
      "type": "constructor"
    },
    {
      "anonymous": false,
      "inputs": [
        {
          "indexed": true,
          "internalType": "address",
          "name": "owner",
          "type": "address"
        },
        {
          "indexed": true,
          "internalType": "address",
          "name": "approved",
          "type": "address"
        },
        {
          "indexed": true,
          "internalType": "uint256",
          "name": "tokenId",
          "type": "uint256"
        }
      ],
      "name": "Approval",
      "type": "event"
    },
    {
      "anonymous": false,
      "inputs": [
        {
          "indexed": true,
          "internalType": "address",
          "name": "owner",
          "type": "address"
        },
        {
          "indexed": true,
          "internalType": "address",
          "name": "operator",
          "type": "address"
        },
        {
          "indexed": false,
          "internalType": "bool",
          "name": "approved",
          "type": "bool"
        }
      ],
      "name": "ApprovalForAll",
      "type": "event"
    },
    {
      "anonymous": false,
      "inputs": [
        {
          "indexed": false,
          "internalType": "address",
          "name": "founderAddress",
          "type": "address"
        },
        {
          "indexed": false,
          "internalType": "address",
          "name": "builderAddress",
          "type": "address"
        },
        {
          "indexed": false,
          "internalType": "uint256",
          "name": "usdc",
          "type": "uint256"
        }
      ],
      "name": "TaskCompleted",
      "type": "event"
    },
    {
      "anonymous": false,
      "inputs": [
        {
          "indexed": false,
          "internalType": "address",
          "name": "builderAddress",
          "type": "address"
        },
        {
          "indexed": false,
          "internalType": "uint256",
          "name": "taskId",
          "type": "uint256"
        }
      ],
      "name": "TaskCreated",
      "type": "event"
    },
    {
      "anonymous": false,
      "inputs": [
        {
          "indexed": true,
          "internalType": "address",
          "name": "from",
          "type": "address"
        },
        {
          "indexed": true,
          "internalType": "address",
          "name": "to",
          "type": "address"
        },
        {
          "indexed": true,
          "internalType": "uint256",
          "name": "tokenId",
          "type": "uint256"
        }
      ],
      "name": "Transfer",
      "type": "event"
    },
    {
      "inputs": [],
      "name": "USDCtoken",
      "outputs": [
        {
          "internalType": "contract IERC20",
          "name": "",
          "type": "address"
        }
      ],
      "stateMutability": "view",
      "type": "function"
    },
    {
      "inputs": [
        {
          "internalType": "address",
          "name": "to",
          "type": "address"
        },
        {
          "internalType": "uint256",
          "name": "tokenId",
          "type": "uint256"
        }
      ],
      "name": "approve",
      "outputs": [],
      "stateMutability": "nonpayable",
      "type": "function"
    },
    {
      "inputs": [
        {
          "internalType": "address",
          "name": "owner",
          "type": "address"
        }
      ],
      "name": "balanceOf",
      "outputs": [
        {
          "internalType": "uint256",
          "name": "",
          "type": "uint256"
        }
      ],
      "stateMutability": "view",
      "type": "function"
    },
    {
      "inputs": [
        {
          "internalType": "uint256",
          "name": "_difficulty",
          "type": "uint256"
        },
        {
          "internalType": "address",
          "name": "_builderProfileAddress",
          "type": "address"
        }
      ],
      "name": "calculateXP",
      "outputs": [
        {
          "internalType": "uint256",
          "name": "",
          "type": "uint256"
        }
      ],
      "stateMutability": "view",
      "type": "function"
    },
    {
      "inputs": [
        {
          "internalType": "uint256",
          "name": "_taskId",
          "type": "uint256"
        }
      ],
      "name": "cancelTask",
      "outputs": [],
      "stateMutability": "nonpayable",
      "type": "function"
    },
    {
      "inputs": [
        {
          "internalType": "uint256",
          "name": "_taskId",
          "type": "uint256"
        }
      ],
      "name": "checkTaskId",
      "outputs": [
        {
          "internalType": "bool",
          "name": "",
          "type": "bool"
        }
      ],
      "stateMutability": "view",
      "type": "function"
    },
    {
      "inputs": [
        {
          "internalType": "uint256",
          "name": "_taskId",
          "type": "uint256"
        },
        {
          "internalType": "uint256",
          "name": "_amount",
          "type": "uint256"
        }
      ],
      "name": "commitToTask",
      "outputs": [],
      "stateMutability": "nonpayable",
      "type": "function"
    },
    {
      "inputs": [
        {
          "internalType": "uint256",
          "name": "_taskId",
          "type": "uint256"
        }
      ],
      "name": "completeTask",
      "outputs": [],
      "stateMutability": "nonpayable",
      "type": "function"
    },
    {
      "inputs": [
        {
          "internalType": "address",
          "name": "_projectAddress",
          "type": "address"
        },
        {
          "internalType": "address",
          "name": "_builderAddress",
          "type": "address"
        },
        {
          "internalType": "string",
          "name": "_name",
          "type": "string"
        },
        {
          "internalType": "uint256",
          "name": "_usdc",
          "type": "uint256"
        },
        {
          "internalType": "uint256",
          "name": "_xp",
          "type": "uint256"
        },
        {
          "internalType": "uint256",
          "name": "_difficulty",
          "type": "uint256"
        }
      ],
      "name": "createTask",
      "outputs": [],
      "stateMutability": "nonpayable",
      "type": "function"
    },
    {
      "inputs": [
        {
          "internalType": "uint256",
          "name": "tokenId",
          "type": "uint256"
        }
      ],
      "name": "getApproved",
      "outputs": [
        {
          "internalType": "address",
          "name": "",
          "type": "address"
        }
      ],
      "stateMutability": "view",
      "type": "function"
    },
    {
      "inputs": [
        {
          "internalType": "uint256",
          "name": "_tokenId",
          "type": "uint256"
        }
      ],
      "name": "getTaskById",
      "outputs": [
        {
          "components": [
            {
              "internalType": "string",
              "name": "name",
              "type": "string"
            },
            {
              "internalType": "enum Task.State",
              "name": "currentState",
              "type": "uint8"
            },
            {
              "internalType": "address",
              "name": "projectAddress",
              "type": "address"
            },
            {
              "internalType": "address",
              "name": "founderAddress",
              "type": "address"
            },
            {
              "internalType": "address",
              "name": "builderAddress",
              "type": "address"
            },
            {
              "internalType": "uint256",
              "name": "usdc_amount",
              "type": "uint256"
            },
            {
              "internalType": "uint256",
              "name": "fndr_amount",
              "type": "uint256"
            },
            {
              "internalType": "uint256",
              "name": "xp",
              "type": "uint256"
            },
            {
              "internalType": "bool",
              "name": "isBuilderAgreed",
              "type": "bool"
            }
          ],
          "internalType": "struct Task.TaskInfo",
          "name": "",
          "type": "tuple"
        }
      ],
      "stateMutability": "view",
      "type": "function"
    },
    {
      "inputs": [
        {
          "internalType": "uint256",
          "name": "",
          "type": "uint256"
        }
      ],
      "name": "idToTask",
      "outputs": [
        {
          "internalType": "string",
          "name": "name",
          "type": "string"
        },
        {
          "internalType": "enum Task.State",
          "name": "currentState",
          "type": "uint8"
        },
        {
          "internalType": "address",
          "name": "projectAddress",
          "type": "address"
        },
        {
          "internalType": "address",
          "name": "founderAddress",
          "type": "address"
        },
        {
          "internalType": "address",
          "name": "builderAddress",
          "type": "address"
        },
        {
          "internalType": "uint256",
          "name": "usdc_amount",
          "type": "uint256"
        },
        {
          "internalType": "uint256",
          "name": "fndr_amount",
          "type": "uint256"
        },
        {
          "internalType": "uint256",
          "name": "xp",
          "type": "uint256"
        },
        {
          "internalType": "bool",
          "name": "isBuilderAgreed",
          "type": "bool"
        }
      ],
      "stateMutability": "view",
      "type": "function"
    },
    {
      "inputs": [
        {
          "internalType": "address",
          "name": "owner",
          "type": "address"
        },
        {
          "internalType": "address",
          "name": "operator",
          "type": "address"
        }
      ],
      "name": "isApprovedForAll",
      "outputs": [
        {
          "internalType": "bool",
          "name": "",
          "type": "bool"
        }
      ],
      "stateMutability": "view",
      "type": "function"
    },
    {
      "inputs": [],
      "name": "name",
      "outputs": [
        {
          "internalType": "string",
          "name": "",
          "type": "string"
        }
      ],
      "stateMutability": "view",
      "type": "function"
    },
    {
      "inputs": [
        {
          "internalType": "uint256",
          "name": "tokenId",
          "type": "uint256"
        }
      ],
      "name": "ownerOf",
      "outputs": [
        {
          "internalType": "address",
          "name": "",
          "type": "address"
        }
      ],
      "stateMutability": "view",
      "type": "function"
    },
    {
      "inputs": [
        {
          "internalType": "address",
          "name": "from",
          "type": "address"
        },
        {
          "internalType": "address",
          "name": "to",
          "type": "address"
        },
        {
          "internalType": "uint256",
          "name": "tokenId",
          "type": "uint256"
        }
      ],
      "name": "safeTransferFrom",
      "outputs": [],
      "stateMutability": "nonpayable",
      "type": "function"
    },
    {
      "inputs": [
        {
          "internalType": "address",
          "name": "from",
          "type": "address"
        },
        {
          "internalType": "address",
          "name": "to",
          "type": "address"
        },
        {
          "internalType": "uint256",
          "name": "tokenId",
          "type": "uint256"
        },
        {
          "internalType": "bytes",
          "name": "data",
          "type": "bytes"
        }
      ],
      "name": "safeTransferFrom",
      "outputs": [],
      "stateMutability": "nonpayable",
      "type": "function"
    },
    {
      "inputs": [
        {
          "internalType": "address",
          "name": "operator",
          "type": "address"
        },
        {
          "internalType": "bool",
          "name": "approved",
          "type": "bool"
        }
      ],
      "name": "setApprovalForAll",
      "outputs": [],
      "stateMutability": "nonpayable",
      "type": "function"
    },
    {
      "inputs": [
        {
          "internalType": "bytes4",
          "name": "interfaceId",
          "type": "bytes4"
        }
      ],
      "name": "supportsInterface",
      "outputs": [
        {
          "internalType": "bool",
          "name": "",
          "type": "bool"
        }
      ],
      "stateMutability": "view",
      "type": "function"
    },
    {
      "inputs": [],
      "name": "symbol",
      "outputs": [
        {
          "internalType": "string",
          "name": "",
          "type": "string"
        }
      ],
      "stateMutability": "view",
      "type": "function"
    },
    {
      "inputs": [
        {
          "internalType": "uint256",
          "name": "index",
          "type": "uint256"
        }
      ],
      "name": "tokenByIndex",
      "outputs": [
        {
          "internalType": "uint256",
          "name": "",
          "type": "uint256"
        }
      ],
      "stateMutability": "view",
      "type": "function"
    },
    {
      "inputs": [
        {
          "internalType": "address",
          "name": "owner",
          "type": "address"
        },
        {
          "internalType": "uint256",
          "name": "index",
          "type": "uint256"
        }
      ],
      "name": "tokenOfOwnerByIndex",
      "outputs": [
        {
          "internalType": "uint256",
          "name": "",
          "type": "uint256"
        }
      ],
      "stateMutability": "view",
      "type": "function"
    },
    {
      "inputs": [
        {
          "internalType": "uint256",
          "name": "tokenId",
          "type": "uint256"
        }
      ],
      "name": "tokenURI",
      "outputs": [
        {
          "internalType": "string",
          "name": "",
          "type": "string"
        }
      ],
      "stateMutability": "view",
      "type": "function"
    },
    {
      "inputs": [],
      "name": "totalSupply",
      "outputs": [
        {
          "internalType": "uint256",
          "name": "",
          "type": "uint256"
        }
      ],
      "stateMutability": "view",
      "type": "function"
    },
    {
      "inputs": [
        {
          "internalType": "address",
          "name": "from",
          "type": "address"
        },
        {
          "internalType": "address",
          "name": "to",
          "type": "address"
        },
        {
          "internalType": "uint256",
          "name": "tokenId",
          "type": "uint256"
        }
      ],
      "name": "transferFrom",
      "outputs": [],
      "stateMutability": "nonpayable",
      "type": "function"
    }
  ],
  "bytecode": "0x6080604052600c80546001600160a01b0319908116734aae4342bf18b07962f54d4a4437d5f0dab8d0ac17909155600d8054821673ef993360f19cb8da685a404532f245f5a2f4dcaa179055600e805490911673d83aca0a6cf1e6ec22c656c055e557105f389b51179055600f8054740143b70b4b13021fef3c546d5f89aa1e151bcdab8c6001600160a81b0319909116179055348015620000a057600080fd5b50604051620036eb380380620036eb833981016040819052620000c39162000241565b604080518082018252600c81526b4275696c646572205461736b60a01b6020808301918252835180850190945260048452635461736b60e01b90840152815191929162000113916000916200017e565b508051620001299060019060208401906200017e565b5050600b80546001600160a01b03199081166001600160a01b0397881617909155600d805482169487169490941790935550600e80548316918516919091179055600f805490911691909216179055620002db565b8280546200018c906200029e565b90600052602060002090601f016020900481019282620001b05760008555620001fb565b82601f10620001cb57805160ff1916838001178555620001fb565b82800160010185558215620001fb579182015b82811115620001fb578251825591602001919060010190620001de565b50620002099291506200020d565b5090565b5b808211156200020957600081556001016200020e565b80516001600160a01b03811681146200023c57600080fd5b919050565b600080600080608085870312156200025857600080fd5b620002638562000224565b9350620002736020860162000224565b9250620002836040860162000224565b9150620002936060860162000224565b905092959194509250565b600181811c90821680620002b357607f821691505b60208210811415620002d557634e487b7160e01b600052602260045260246000fd5b50919050565b61340080620002eb6000396000f3fe608060405234801561001057600080fd5b50600436106101735760003560e01c80636352211e116100de578063a22cb46511610097578063c87b56dd11610071578063c87b56dd1461034e578063e1e2955814610361578063e985e9c514610374578063ec9abea2146103b057600080fd5b8063a22cb46514610315578063b88d4fde14610328578063c7945cff1461033b57600080fd5b80636352211e146102a157806370a08231146102b45780637eec20a8146102c75780638c02263b146102da57806395d89b41146102ed578063976217cd146102f557600080fd5b80631c8187a6116101305780631c8187a61461021a57806323b872dd146102425780632f745c59146102555780634185e5071461026857806342842e0e1461027b5780634f6ccce71461028e57600080fd5b806301ffc9a71461017857806306fdde03146101a0578063072bd7ee146101b5578063081812fc146101ca578063095ea7b3146101f557806318160ddd14610208575b600080fd5b61018b610186366004612d98565b6103c3565b60405190151581526020015b60405180910390f35b6101a86103ee565b6040516101979190612f05565b6101c86101c3366004612b21565b610480565b005b6101dd6101d8366004612dd2565b610acc565b6040516001600160a01b039091168152602001610197565b6101c8610203366004612ca2565b610af3565b6008545b604051908152602001610197565b61022d610228366004612dd2565b610c09565b60405161019799989796959493929190612f18565b6101c8610250366004612bb3565b610cf0565b61020c610263366004612ca2565b610d21565b600b546101dd906001600160a01b031681565b6101c8610289366004612bb3565b610db7565b61020c61029c366004612dd2565b610dd2565b6101dd6102af366004612dd2565b610e65565b61020c6102c2366004612aae565b610ec5565b6101c86102d5366004612dd2565b610f4b565b61018b6102e8366004612dd2565b6112e6565b6101a86112f1565b610308610303366004612dd2565b611300565b604051610197919061304a565b6101c8610323366004612c74565b6114bb565b6101c8610336366004612bf4565b6114ca565b6101c8610349366004612e29565b611502565b6101a861035c366004612dd2565b611777565b6101c861036f366004612dd2565b6117eb565b61018b610382366004612ae8565b6001600160a01b03918216600090815260056020908152604080832093909416825291909152205460ff1690565b61020c6103be366004612e04565b611dda565b60006001600160e01b0319821663780e9d6360e01b14806103e857506103e882611f23565b92915050565b6060600080546103fd906132a9565b80601f0160208091040260200160405190810160405280929190818152602001828054610429906132a9565b80156104765780601f1061044b57610100808354040283529160200191610476565b820191906000526020600020905b81548152906001019060200180831161045957829003601f168201915b5050505050905090565b600b546040516370a0823160e01b81526001600160a01b03808916600483015288928692600092909116906370a082319060240160206040518083038186803b1580156104cc57600080fd5b505afa1580156104e0573d6000803e3d6000fd5b505050506040513d601f19601f820116820180604052508101906105049190612deb565b90506000836001600160a01b031663bcd148056040518163ffffffff1660e01b815260040160006040518083038186803b15801561054157600080fd5b505afa158015610555573d6000803e3d6000fd5b505050506040513d6000823e601f3d908101601f1916820160405261057d9190810190612cce565b90506000805b82518110156105db57601060008483815181106105a2576105a2613365565b6020026020010151815260200190815260200160002060040154826105c7919061312d565b9150806105d3816132de565b915050610583565b5060646105e985606e613247565b6105f39190613145565b8310156106585760405162461bcd60e51b815260206004820152602860248201527f546f74616c207461736b2062756467657420657863656564732070726f6a65636044820152671d08189d5919d95d60c21b60648201526084015b60405180910390fd5b600e546040516323a30b2360e01b81526001600160a01b03808e1660048301528d926000929116906323a30b239060240160206040518083038186803b1580156106a157600080fd5b505afa1580156106b5573d6000803e3d6000fd5b505050506040513d601f19601f820116820180604052508101906106d99190612acb565b90506001600160a01b038116331461074d5760405162461bcd60e51b815260206004820152603160248201527f4f6e6c792070726f6a656374277320666f756e6465722063616e206372656174604482015270329030903a30b9b59037b71031b430b4b760791b606482015260840161064f565b600d5460405163593c6e0d60e01b81526001600160a01b038e81166004830152600092169063593c6e0d9060240160206040518083038186803b15801561079357600080fd5b505afa1580156107a7573d6000803e3d6000fd5b505050506040513d601f19601f820116820180604052508101906107cb9190612acb565b90506001600160a01b0381166108335760405162461bcd60e51b815260206004820152602760248201527f4275696c6465722070726f66696c6520646f6573206e6f74206578697374206f604482015266371031b430b4b760c91b606482015260840161064f565b6000891180156108435750600689105b61088f5760405162461bcd60e51b815260206004820152601760248201527f496e76616c6964207461736b20646966666963756c7479000000000000000000604482015260640161064f565b6108998982611dda565b8a146108d45760405162461bcd60e51b815260206004820152600a6024820152690496e76616c69642058560b41b604482015260640161064f565b600f805460ff60a01b191690556108ef600a80546001019055565b6109018d6108fc600a5490565b611f73565b6040805161012081019091528c815260208101600081526020018f6001600160a01b03168152602001336001600160a01b031681526020018e6001600160a01b031681526020018c8152602001600081526020018b8152602001600015158152506010600061096f600a5490565b8152602080820192909252604001600020825180519192610995928492909101906129bd565b50602082015160018083018054909160ff19909116908360038111156109bd576109bd613339565b021790555060408201516001820180546001600160a01b03928316610100908102610100600160a81b03199092169190911790915560608401516002840180549184166001600160a01b031992831617905560808501516003850180549190941691161790915560a0830151600483015560c0830151600583015560e08301516006830155909101516007909101805491151560ff19909216919091179055600f805460ff60a01b1916600160a01b1790557fb1c0ef93ef5afc0800a5789b004fdaf5931873276c7ccb409e7d1a310906886a8d610a9a600a5490565b604080516001600160a01b03909316835260208301919091520160405180910390a15050505050505050505050505050565b6000610ad782611f8d565b506000908152600460205260409020546001600160a01b031690565b6000610afe82610e65565b9050806001600160a01b0316836001600160a01b03161415610b6c5760405162461bcd60e51b815260206004820152602160248201527f4552433732313a20617070726f76616c20746f2063757272656e74206f776e656044820152603960f91b606482015260840161064f565b336001600160a01b0382161480610b885750610b888133610382565b610bfa5760405162461bcd60e51b815260206004820152603e60248201527f4552433732313a20617070726f76652063616c6c6572206973206e6f7420746f60448201527f6b656e206f776e6572206e6f7220617070726f76656420666f7220616c6c0000606482015260840161064f565b610c048383611fe0565b505050565b601060205260009081526040902080548190610c24906132a9565b80601f0160208091040260200160405190810160405280929190818152602001828054610c50906132a9565b8015610c9d5780601f10610c7257610100808354040283529160200191610c9d565b820191906000526020600020905b815481529060010190602001808311610c8057829003601f168201915b505050600184015460028501546003860154600487015460058801546006890154600790990154979860ff808716996001600160a01b036101009098048816995095871697509390951694919390921689565b610cfa338261204e565b610d165760405162461bcd60e51b815260040161064f90612ffc565b610c048383836120cd565b6000610d2c83610ec5565b8210610d8e5760405162461bcd60e51b815260206004820152602b60248201527f455243373231456e756d657261626c653a206f776e657220696e646578206f7560448201526a74206f6620626f756e647360a81b606482015260840161064f565b506001600160a01b03919091166000908152600660209081526040808320938352929052205490565b610c04838383604051806020016040528060008152506114ca565b6000610ddd60085490565b8210610e405760405162461bcd60e51b815260206004820152602c60248201527f455243373231456e756d657261626c653a20676c6f62616c20696e646578206f60448201526b7574206f6620626f756e647360a01b606482015260840161064f565b60088281548110610e5357610e53613365565b90600052602060002001549050919050565b6000818152600260205260408120546001600160a01b0316806103e85760405162461bcd60e51b8152602060048201526018602482015277115490cdcc8c4e881a5b9d985b1a59081d1bdad95b88125160421b604482015260640161064f565b60006001600160a01b038216610f2f5760405162461bcd60e51b815260206004820152602960248201527f4552433732313a2061646472657373207a65726f206973206e6f7420612076616044820152683634b21037bbb732b960b91b606482015260840161064f565b506001600160a01b031660009081526003602052604090205490565b80610f5581612274565b610f715760405162461bcd60e51b815260040161064f90612fd4565b6000828152601060205260409020600201546001600160a01b03163314610fda5760405162461bcd60e51b815260206004820181905260248201527f4f6e6c7920666f756e6465722063616e2063616e63656c20746865207461736b604482015260640161064f565b600260008381526010602052604090206001015460ff16600381111561100257611002613339565b141580156110365750600360008381526010602052604090206001015460ff16600381111561103357611033613339565b14155b61108e5760405162461bcd60e51b815260206004820152602360248201527f5461736b20616c726561647920636f6d706c65746564206f722063616e63656c6044820152621b195960ea1b606482015260840161064f565b600160008381526010602052604090206001015460ff1660038111156110b6576110b6613339565b141561115f57600f54600083815260106020526040908190206003810154600590910154915163a9059cbb60e01b81526001600160a01b03918216600482015260248101929092529091169063a9059cbb90604401602060405180830381600087803b15801561112557600080fd5b505af1158015611139573d6000803e3d6000fd5b505050506040513d601f19601f8201168201806040525081019061115d9190612d7b565b505b600b54600083815260106020526040908190206001810154600491820154925163a9059cbb60e01b81526001600160a01b03610100909204821692810192909252602482019290925291169063a9059cbb90604401602060405180830381600087803b1580156111ce57600080fd5b505af11580156111e2573d6000803e3d6000fd5b505050506040513d601f19601f820116820180604052508101906112069190612d7b565b50600b54600083815260106020526040902060018101546004909101546001600160a01b039283169263a9059cbb926101009004169061124890600a90613145565b6040516001600160e01b031960e085901b1681526001600160a01b0390921660048301526024820152604401602060405180830381600087803b15801561128e57600080fd5b505af11580156112a2573d6000803e3d6000fd5b505050506040513d601f19601f820116820180604052508101906112c69190612d7b565b50506000908152601060205260409020600101805460ff19166003179055565b60006103e882612274565b6060600180546103fd906132a9565b61135060408051610120810190915260608152602081016000815260006020820181905260408201819052606082018190526080820181905260a0820181905260c0820181905260e09091015290565b8161135a81612274565b6113765760405162461bcd60e51b815260040161064f90612fd4565b600083815260106020526040908190208151610120810190925280548290829061139f906132a9565b80601f01602080910402602001604051908101604052809291908181526020018280546113cb906132a9565b80156114185780601f106113ed57610100808354040283529160200191611418565b820191906000526020600020905b8154815290600101906020018083116113fb57829003601f168201915b5050509183525050600182015460209091019060ff16600381111561143f5761143f613339565b600381111561145057611450613339565b815260018201546001600160a01b0361010090910481166020830152600283015481166040830152600383015416606082015260048201546080820152600582015460a0820152600682015460c082015260079091015460ff16151560e09091015291505b50919050565b6114c6338383612291565b5050565b6114d4338361204e565b6114f05760405162461bcd60e51b815260040161064f90612ffc565b6114fc84848484612360565b50505050565b8161150c81612274565b6115285760405162461bcd60e51b815260040161064f90612fd4565b6000838152601060205260409020600301546001600160a01b031633146115915760405162461bcd60e51b815260206004820152601e60248201527f596f75277265206e6f742061206163636570746564206275696c6465722e0000604482015260640161064f565b60008381526010602052604081206001015460ff1660038111156115b7576115b7613339565b146115f95760405162461bcd60e51b8152602060048201526012602482015271496e76616c6964207461736b20737461746560701b604482015260640161064f565b600f546040516370a0823160e01b815233600482015283916001600160a01b0316906370a082319060240160206040518083038186803b15801561163c57600080fd5b505afa158015611650573d6000803e3d6000fd5b505050506040513d601f19601f820116820180604052508101906116749190612deb565b10156116c25760405162461bcd60e51b815260206004820152601860248201527f496e73756666696369656e7420464e445220616d6f756e740000000000000000604482015260640161064f565b600f546040516323b872dd60e01b8152336004820152306024820152604481018490526001600160a01b03909116906323b872dd90606401602060405180830381600087803b15801561171457600080fd5b505af1158015611728573d6000803e3d6000fd5b505050506040513d601f19601f8201168201806040525081019061174c9190612d7b565b505060009182526010602052604090912060058101919091556001908101805460ff19169091179055565b606061178282611f8d565b600061179960408051602081019091526000815290565b905060008151116117b957604051806020016040528060008152506117e4565b806117c384612393565b6040516020016117d4929190612e99565b6040516020818303038152906040525b9392505050565b806117f581612274565b6118115760405162461bcd60e51b815260040161064f90612fd4565b6000828152601060205260409020600201546001600160a01b031633146118855760405162461bcd60e51b815260206004820152602260248201527f4f6e6c7920666f756e6465722063616e20636f6d706c65746520746865207461604482015261736b60f01b606482015260840161064f565b600160008381526010602052604090206001015460ff1660038111156118ad576118ad613339565b146118fa5760405162461bcd60e51b815260206004820152601860248201527f5461736b2073686f756c6420626520696e207265766965770000000000000000604482015260640161064f565b600d5460008381526010602052604080822060030154905163593c6e0d60e01b81526001600160a01b0391821660048201529192169063593c6e0d9060240160206040518083038186803b15801561195157600080fd5b505afa158015611965573d6000803e3d6000fd5b505050506040513d601f19601f820116820180604052508101906119899190612acb565b600b546000858152601060205260409020600401549192506001600160a01b03169063a9059cbb9083906064906119c190605f613247565b6119cb9190613145565b6040516001600160e01b031960e085901b1681526001600160a01b0390921660048301526024820152604401602060405180830381600087803b158015611a1157600080fd5b505af1158015611a25573d6000803e3d6000fd5b505050506040513d601f19601f82011682018060405250810190611a499190612d7b565b50600b54600c546000858152601060205260409020600401546001600160a01b039283169263a9059cbb921690606490611a84906005613247565b611a8e9190613145565b6040516001600160e01b031960e085901b1681526001600160a01b0390921660048301526024820152604401602060405180830381600087803b158015611ad457600080fd5b505af1158015611ae8573d6000803e3d6000fd5b505050506040513d601f19601f82011682018060405250810190611b0c9190612d7b565b50600b54600c546000858152601060205260409020600401546001600160a01b039283169263a9059cbb921690611b4590600a90613145565b6040516001600160e01b031960e085901b1681526001600160a01b0390921660048301526024820152604401602060405180830381600087803b158015611b8b57600080fd5b505af1158015611b9f573d6000803e3d6000fd5b505050506040513d601f19601f82011682018060405250810190611bc39190612d7b565b506000838152601060205260409081902060018101805460ff191660021790556006015490516381f32edd60e01b815260048101919091526001600160a01b038216906381f32edd90602401600060405180830381600087803b158015611c2957600080fd5b505af1158015611c3d573d6000803e3d6000fd5b5050506000848152601060205260409020600401546001600160a01b03831691506327909ee990606490611c7290605f613247565b611c7c9190613145565b6040518263ffffffff1660e01b8152600401611c9a91815260200190565b600060405180830381600087803b158015611cb457600080fd5b505af1158015611cc8573d6000803e3d6000fd5b5050600f5460008681526010602052604090819020600501549051632770a7eb60e21b815230600482015260248101919091526001600160a01b039091169250639dc29fac9150604401600060405180830381600087803b158015611d2c57600080fd5b505af1158015611d40573d6000803e3d6000fd5b5050506000848152601060205260409020600281015460038201546004909201547f65f534584f0e90047cf062076979fe5dcd2a053548e31fdd49138bef6db88c0293506001600160a01b039182169290911690606490611da290605f613247565b611dac9190613145565b604080516001600160a01b0394851681529390921660208401529082015260600160405180910390a1505050565b6000806103e890506000836001600160a01b03166369e294166040518163ffffffff1660e01b815260040160206040518083038186803b158015611e1d57600080fd5b505afa158015611e31573d6000803e3d6000fd5b505050506040513d601f19601f82011682018060405250810190611e559190612deb565b905060006002861015611ea057611e6d866002613266565b611e78906032613247565b6002611e8588600a61312d565b611e8f919061319c565b611e999190613266565b9050611eda565b611eab600287613266565b611eb6906032613247565b6002611ec388600a61312d565b611ecd919061319c565b611ed7919061312d565b90505b611ee5836032613247565b821015611efa57611ef7602d8261312d565b90505b611f05836014613247565b821015611f1a57611f17602d8261312d565b90505b95945050505050565b60006001600160e01b031982166380ac58cd60e01b1480611f5457506001600160e01b03198216635b5e139f60e01b145b806103e857506301ffc9a760e01b6001600160e01b03198316146103e8565b6114c6828260405180602001604052806000815250612491565b611f9681612274565b611fdd5760405162461bcd60e51b8152602060048201526018602482015277115490cdcc8c4e881a5b9d985b1a59081d1bdad95b88125160421b604482015260640161064f565b50565b600081815260046020526040902080546001600160a01b0319166001600160a01b038416908117909155819061201582610e65565b6001600160a01b03167f8c5be1e5ebec7d5bd14f71427d1e84f3dd0314c0f7b2291e5b200ac8c7c3b92560405160405180910390a45050565b60008061205a83610e65565b9050806001600160a01b0316846001600160a01b031614806120a157506001600160a01b0380821660009081526005602090815260408083209388168352929052205460ff165b806120c55750836001600160a01b03166120ba84610acc565b6001600160a01b0316145b949350505050565b826001600160a01b03166120e082610e65565b6001600160a01b0316146121445760405162461bcd60e51b815260206004820152602560248201527f4552433732313a207472616e736665722066726f6d20696e636f72726563742060448201526437bbb732b960d91b606482015260840161064f565b6001600160a01b0382166121a65760405162461bcd60e51b8152602060048201526024808201527f4552433732313a207472616e7366657220746f20746865207a65726f206164646044820152637265737360e01b606482015260840161064f565b6121b18383836124c4565b6121bc600082611fe0565b6001600160a01b03831660009081526003602052604081208054600192906121e5908490613266565b90915550506001600160a01b038216600090815260036020526040812080546001929061221390849061312d565b909155505060008181526002602052604080822080546001600160a01b0319166001600160a01b0386811691821790925591518493918716917fddf252ad1be2c89b69c2b068fc378daa952ba7f163c4a11628f55a4df523b3ef91a4505050565b6000908152600260205260409020546001600160a01b0316151590565b816001600160a01b0316836001600160a01b031614156122f35760405162461bcd60e51b815260206004820152601960248201527f4552433732313a20617070726f766520746f2063616c6c657200000000000000604482015260640161064f565b6001600160a01b03838116600081815260056020908152604080832094871680845294825291829020805460ff191686151590811790915591519182527f17307eab39ab6107e8899845ad3d59bd9653f200f220920489ca2b5937696c31910160405180910390a3505050565b61236b8484846120cd565b61237784848484612529565b6114fc5760405162461bcd60e51b815260040161064f90612f82565b6060816123b75750506040805180820190915260018152600360fc1b602082015290565b8160005b81156123e157806123cb816132de565b91506123da9050600a83613145565b91506123bb565b60008167ffffffffffffffff8111156123fc576123fc61337b565b6040519080825280601f01601f191660200182016040528015612426576020820181803683370190505b5090505b84156120c55761243b600183613266565b9150612448600a866132f9565b61245390603061312d565b60f81b81838151811061246857612468613365565b60200101906001600160f81b031916908160001a90535061248a600a86613145565b945061242a565b61249b8383612636565b6124a86000848484612529565b610c045760405162461bcd60e51b815260040161064f90612f82565b600f54600160a01b900460ff161561251e5760405162461bcd60e51b815260206004820152601b60248201527f5461736b20746f6b656e2063616e6e6f74207472616e736665722e0000000000604482015260640161064f565b610c04838383612775565b60006001600160a01b0384163b1561262b57604051630a85bd0160e11b81526001600160a01b0385169063150b7a029061256d903390899088908890600401612ec8565b602060405180830381600087803b15801561258757600080fd5b505af19250505080156125b7575060408051601f3d908101601f191682019092526125b491810190612db5565b60015b612611573d8080156125e5576040519150601f19603f3d011682016040523d82523d6000602084013e6125ea565b606091505b5080516126095760405162461bcd60e51b815260040161064f90612f82565b805181602001fd5b6001600160e01b031916630a85bd0160e11b1490506120c5565b506001949350505050565b6001600160a01b03821661268c5760405162461bcd60e51b815260206004820181905260248201527f4552433732313a206d696e7420746f20746865207a65726f2061646472657373604482015260640161064f565b61269581612274565b156126e25760405162461bcd60e51b815260206004820152601c60248201527f4552433732313a20746f6b656e20616c7265616479206d696e74656400000000604482015260640161064f565b6126ee600083836124c4565b6001600160a01b038216600090815260036020526040812080546001929061271790849061312d565b909155505060008181526002602052604080822080546001600160a01b0319166001600160a01b03861690811790915590518392907fddf252ad1be2c89b69c2b068fc378daa952ba7f163c4a11628f55a4df523b3ef908290a45050565b6001600160a01b0383166127d0576127cb81600880546000838152600960205260408120829055600182018355919091527ff3f7a9fe364faab93b216da50a3214154f22a0a2b415b23a84c8169e8b636ee30155565b6127f3565b816001600160a01b0316836001600160a01b0316146127f3576127f3838261282d565b6001600160a01b03821661280a57610c04816128ca565b826001600160a01b0316826001600160a01b031614610c0457610c048282612979565b6000600161283a84610ec5565b6128449190613266565b600083815260076020526040902054909150808214612897576001600160a01b03841660009081526006602090815260408083208584528252808320548484528184208190558352600790915290208190555b5060009182526007602090815260408084208490556001600160a01b039094168352600681528383209183525290812055565b6008546000906128dc90600190613266565b6000838152600960205260408120546008805493945090928490811061290457612904613365565b90600052602060002001549050806008838154811061292557612925613365565b600091825260208083209091019290925582815260099091526040808220849055858252812055600880548061295d5761295d61334f565b6001900381819060005260206000200160009055905550505050565b600061298483610ec5565b6001600160a01b039093166000908152600660209081526040808320868452825280832085905593825260079052919091209190915550565b8280546129c9906132a9565b90600052602060002090601f0160209004810192826129eb5760008555612a31565b82601f10612a0457805160ff1916838001178555612a31565b82800160010185558215612a31579182015b82811115612a31578251825591602001919060010190612a16565b50612a3d929150612a41565b5090565b5b80821115612a3d5760008155600101612a42565b600067ffffffffffffffff831115612a7057612a7061337b565b612a83601f8401601f19166020016130fc565b9050828152838383011115612a9757600080fd5b828260208301376000602084830101529392505050565b600060208284031215612ac057600080fd5b81356117e481613391565b600060208284031215612add57600080fd5b81516117e481613391565b60008060408385031215612afb57600080fd5b8235612b0681613391565b91506020830135612b1681613391565b809150509250929050565b60008060008060008060c08789031215612b3a57600080fd5b8635612b4581613391565b95506020870135612b5581613391565b9450604087013567ffffffffffffffff811115612b7157600080fd5b8701601f81018913612b8257600080fd5b612b9189823560208401612a56565b945050606087013592506080870135915060a087013590509295509295509295565b600080600060608486031215612bc857600080fd5b8335612bd381613391565b92506020840135612be381613391565b929592945050506040919091013590565b60008060008060808587031215612c0a57600080fd5b8435612c1581613391565b93506020850135612c2581613391565b925060408501359150606085013567ffffffffffffffff811115612c4857600080fd5b8501601f81018713612c5957600080fd5b612c6887823560208401612a56565b91505092959194509250565b60008060408385031215612c8757600080fd5b8235612c9281613391565b91506020830135612b16816133a6565b60008060408385031215612cb557600080fd5b8235612cc081613391565b946020939093013593505050565b60006020808385031215612ce157600080fd5b825167ffffffffffffffff80821115612cf957600080fd5b818501915085601f830112612d0d57600080fd5b815181811115612d1f57612d1f61337b565b8060051b9150612d308483016130fc565b8181528481019084860184860187018a1015612d4b57600080fd5b600095505b83861015612d6e578051835260019590950194918601918601612d50565b5098975050505050505050565b600060208284031215612d8d57600080fd5b81516117e4816133a6565b600060208284031215612daa57600080fd5b81356117e4816133b4565b600060208284031215612dc757600080fd5b81516117e4816133b4565b600060208284031215612de457600080fd5b5035919050565b600060208284031215612dfd57600080fd5b5051919050565b60008060408385031215612e1757600080fd5b823591506020830135612b1681613391565b60008060408385031215612e3c57600080fd5b50508035926020909101359150565b60008151808452612e6381602086016020860161327d565b601f01601f19169290920160200192915050565b60048110612e9557634e487b7160e01b600052602160045260246000fd5b9052565b60008351612eab81846020880161327d565b835190830190612ebf81836020880161327d565b01949350505050565b6001600160a01b0385811682528416602082015260408101839052608060608201819052600090612efb90830184612e4b565b9695505050505050565b6020815260006117e46020830184612e4b565b6000610120808352612f2c8184018d612e4b565b915050612f3c602083018b612e77565b6001600160a01b039889166040830152968816606082015294909616608085015260a084019290925260c083015260e08201529115156101009092019190915292915050565b60208082526032908201527f4552433732313a207472616e7366657220746f206e6f6e20455243373231526560408201527131b2b4bb32b91034b6b83632b6b2b73a32b960711b606082015260800190565b6020808252600e908201526d15185cdac81b9bdd08199bdd5b9960921b604082015260600190565b6020808252602e908201527f4552433732313a2063616c6c6572206973206e6f7420746f6b656e206f776e6560408201526d1c881b9bdc88185c1c1c9bdd995960921b606082015260800190565b6020815260008251610120806020850152613069610140850183612e4b565b9150602085015161307d6040860182612e77565b5060408501516001600160a01b03811660608601525060608501516001600160a01b03811660808601525060808501516001600160a01b03811660a08601525060a085015160c085015260c085015160e085015260e08501516101008181870152808701519150506130f28286018215159052565b5090949350505050565b604051601f8201601f1916810167ffffffffffffffff811182821017156131255761312561337b565b604052919050565b600082198211156131405761314061330d565b500190565b60008261315457613154613323565b500490565b600181815b8085111561319457816000190482111561317a5761317a61330d565b8085161561318757918102915b93841c939080029061315e565b509250929050565b60006117e460ff8416836000826131b5575060016103e8565b816131c2575060006103e8565b81600181146131d857600281146131e2576131fe565b60019150506103e8565b60ff8411156131f3576131f361330d565b50506001821b6103e8565b5060208310610133831016604e8410600b8410161715613221575081810a6103e8565b61322b8383613159565b806000190482111561323f5761323f61330d565b029392505050565b60008160001904831182151516156132615761326161330d565b500290565b6000828210156132785761327861330d565b500390565b60005b83811015613298578181015183820152602001613280565b838111156114fc5750506000910152565b600181811c908216806132bd57607f821691505b602082108114156114b557634e487b7160e01b600052602260045260246000fd5b60006000198214156132f2576132f261330d565b5060010190565b60008261330857613308613323565b500690565b634e487b7160e01b600052601160045260246000fd5b634e487b7160e01b600052601260045260246000fd5b634e487b7160e01b600052602160045260246000fd5b634e487b7160e01b600052603160045260246000fd5b634e487b7160e01b600052603260045260246000fd5b634e487b7160e01b600052604160045260246000fd5b6001600160a01b0381168114611fdd57600080fd5b8015158114611fdd57600080fd5b6001600160e01b031981168114611fdd57600080fdfea264697066735822122048859bbbbbb4722e19ce18870b3d271659765a6849152f09293f5e1efba9af2964736f6c63430008070033",
  "linkReferences": {},
  "deployedLinkReferences": {}
}