{
  "_format": "hh-sol-artifact-1",
  "contractName": "Task",
  "sourceName": "contracts/Task.sol",
  "abi": [
    {
      "anonymous": false,
      "inputs": [
        {
          "indexed": true,
          "internalType": "address",
          "name": "owner",
          "type": "address"
        },
        {
          "indexed": true,
          "internalType": "address",
          "name": "approved",
          "type": "address"
        },
        {
          "indexed": true,
          "internalType": "uint256",
          "name": "tokenId",
          "type": "uint256"
        }
      ],
      "name": "Approval",
      "type": "event"
    },
    {
      "anonymous": false,
      "inputs": [
        {
          "indexed": true,
          "internalType": "address",
          "name": "owner",
          "type": "address"
        },
        {
          "indexed": true,
          "internalType": "address",
          "name": "operator",
          "type": "address"
        },
        {
          "indexed": false,
          "internalType": "bool",
          "name": "approved",
          "type": "bool"
        }
      ],
      "name": "ApprovalForAll",
      "type": "event"
    },
    {
      "anonymous": false,
      "inputs": [
        {
          "indexed": false,
          "internalType": "uint8",
          "name": "version",
          "type": "uint8"
        }
      ],
      "name": "Initialized",
      "type": "event"
    },
    {
      "anonymous": false,
      "inputs": [
        {
          "indexed": false,
          "internalType": "address",
          "name": "founderAddress",
          "type": "address"
        },
        {
          "indexed": false,
          "internalType": "address",
          "name": "builderAddress",
          "type": "address"
        },
        {
          "indexed": false,
          "internalType": "uint256",
          "name": "usdc",
          "type": "uint256"
        }
      ],
      "name": "TaskCompleted",
      "type": "event"
    },
    {
      "anonymous": false,
      "inputs": [
        {
          "indexed": false,
          "internalType": "address",
          "name": "builderAddress",
          "type": "address"
        },
        {
          "indexed": false,
          "internalType": "uint256",
          "name": "taskId",
          "type": "uint256"
        }
      ],
      "name": "TaskCreated",
      "type": "event"
    },
    {
      "anonymous": false,
      "inputs": [
        {
          "indexed": true,
          "internalType": "address",
          "name": "from",
          "type": "address"
        },
        {
          "indexed": true,
          "internalType": "address",
          "name": "to",
          "type": "address"
        },
        {
          "indexed": true,
          "internalType": "uint256",
          "name": "tokenId",
          "type": "uint256"
        }
      ],
      "name": "Transfer",
      "type": "event"
    },
    {
      "inputs": [],
      "name": "USDCtoken",
      "outputs": [
        {
          "internalType": "contract IERC20",
          "name": "",
          "type": "address"
        }
      ],
      "stateMutability": "view",
      "type": "function"
    },
    {
      "inputs": [
        {
          "internalType": "address",
          "name": "to",
          "type": "address"
        },
        {
          "internalType": "uint256",
          "name": "tokenId",
          "type": "uint256"
        }
      ],
      "name": "approve",
      "outputs": [],
      "stateMutability": "nonpayable",
      "type": "function"
    },
    {
      "inputs": [
        {
          "internalType": "address",
          "name": "owner",
          "type": "address"
        }
      ],
      "name": "balanceOf",
      "outputs": [
        {
          "internalType": "uint256",
          "name": "",
          "type": "uint256"
        }
      ],
      "stateMutability": "view",
      "type": "function"
    },
    {
      "inputs": [
        {
          "internalType": "uint256",
          "name": "_taskId",
          "type": "uint256"
        },
        {
          "internalType": "address",
          "name": "_builderProfileAddress",
          "type": "address"
        }
      ],
      "name": "cancelTask",
      "outputs": [],
      "stateMutability": "nonpayable",
      "type": "function"
    },
    {
      "inputs": [
        {
          "internalType": "uint256",
          "name": "_taskId",
          "type": "uint256"
        }
      ],
      "name": "checkTaskId",
      "outputs": [
        {
          "internalType": "bool",
          "name": "",
          "type": "bool"
        }
      ],
      "stateMutability": "view",
      "type": "function"
    },
    {
      "inputs": [
        {
          "internalType": "uint256",
          "name": "_taskId",
          "type": "uint256"
        },
        {
          "internalType": "uint256",
          "name": "_amount",
          "type": "uint256"
        },
        {
          "internalType": "address",
          "name": "_profileAddress",
          "type": "address"
        }
      ],
      "name": "commitToTask",
      "outputs": [],
      "stateMutability": "nonpayable",
      "type": "function"
    },
    {
      "inputs": [
        {
          "internalType": "uint256",
          "name": "_taskId",
          "type": "uint256"
        },
        {
          "internalType": "address",
          "name": "_taskFactoryAddress",
          "type": "address"
        }
      ],
      "name": "completeTask",
      "outputs": [],
      "stateMutability": "nonpayable",
      "type": "function"
    },
    {
      "inputs": [
        {
          "internalType": "address",
          "name": "_projectAddress",
          "type": "address"
        },
        {
          "internalType": "address",
          "name": "_builderAddress",
          "type": "address"
        },
        {
          "internalType": "string",
          "name": "_name",
          "type": "string"
        },
        {
          "internalType": "uint256",
          "name": "_usdc",
          "type": "uint256"
        },
        {
          "internalType": "uint256",
          "name": "_xp",
          "type": "uint256"
        }
      ],
      "name": "createTask",
      "outputs": [],
      "stateMutability": "nonpayable",
      "type": "function"
    },
    {
      "inputs": [
        {
          "internalType": "uint256",
          "name": "tokenId",
          "type": "uint256"
        }
      ],
      "name": "getApproved",
      "outputs": [
        {
          "internalType": "address",
          "name": "",
          "type": "address"
        }
      ],
      "stateMutability": "view",
      "type": "function"
    },
    {
      "inputs": [
        {
          "internalType": "uint256",
          "name": "_tokenId",
          "type": "uint256"
        }
      ],
      "name": "getTaskById",
      "outputs": [
        {
          "components": [
            {
              "internalType": "string",
              "name": "name",
              "type": "string"
            },
            {
              "internalType": "enum Task.State",
              "name": "currentState",
              "type": "uint8"
            },
            {
              "internalType": "address",
              "name": "projectAddress",
              "type": "address"
            },
            {
              "internalType": "address",
              "name": "founderAddress",
              "type": "address"
            },
            {
              "internalType": "address",
              "name": "builderAddress",
              "type": "address"
            },
            {
              "internalType": "uint256",
              "name": "usdc_amount",
              "type": "uint256"
            },
            {
              "internalType": "uint256",
              "name": "fndr_amount",
              "type": "uint256"
            },
            {
              "internalType": "uint256",
              "name": "xp",
              "type": "uint256"
            },
            {
              "internalType": "bool",
              "name": "isBuilderAgreed",
              "type": "bool"
            }
          ],
          "internalType": "struct Task.TaskInfo",
          "name": "",
          "type": "tuple"
        }
      ],
      "stateMutability": "view",
      "type": "function"
    },
    {
      "inputs": [
        {
          "internalType": "uint256",
          "name": "",
          "type": "uint256"
        }
      ],
      "name": "idToTask",
      "outputs": [
        {
          "internalType": "string",
          "name": "name",
          "type": "string"
        },
        {
          "internalType": "enum Task.State",
          "name": "currentState",
          "type": "uint8"
        },
        {
          "internalType": "address",
          "name": "projectAddress",
          "type": "address"
        },
        {
          "internalType": "address",
          "name": "founderAddress",
          "type": "address"
        },
        {
          "internalType": "address",
          "name": "builderAddress",
          "type": "address"
        },
        {
          "internalType": "uint256",
          "name": "usdc_amount",
          "type": "uint256"
        },
        {
          "internalType": "uint256",
          "name": "fndr_amount",
          "type": "uint256"
        },
        {
          "internalType": "uint256",
          "name": "xp",
          "type": "uint256"
        },
        {
          "internalType": "bool",
          "name": "isBuilderAgreed",
          "type": "bool"
        }
      ],
      "stateMutability": "view",
      "type": "function"
    },
    {
      "inputs": [
        {
          "internalType": "address",
          "name": "_usdc_address",
          "type": "address"
        },
        {
          "internalType": "address",
          "name": "_fndr_address",
          "type": "address"
        },
        {
          "internalType": "address",
          "name": "_profileFactoryAddress",
          "type": "address"
        },
        {
          "internalType": "address",
          "name": "_projectFactoryAddress",
          "type": "address"
        },
        {
          "internalType": "address",
          "name": "_owner",
          "type": "address"
        }
      ],
      "name": "initialize",
      "outputs": [],
      "stateMutability": "nonpayable",
      "type": "function"
    },
    {
      "inputs": [
        {
          "internalType": "address",
          "name": "owner",
          "type": "address"
        },
        {
          "internalType": "address",
          "name": "operator",
          "type": "address"
        }
      ],
      "name": "isApprovedForAll",
      "outputs": [
        {
          "internalType": "bool",
          "name": "",
          "type": "bool"
        }
      ],
      "stateMutability": "view",
      "type": "function"
    },
    {
      "inputs": [],
      "name": "name",
      "outputs": [
        {
          "internalType": "string",
          "name": "",
          "type": "string"
        }
      ],
      "stateMutability": "view",
      "type": "function"
    },
    {
      "inputs": [],
      "name": "owner",
      "outputs": [
        {
          "internalType": "address",
          "name": "",
          "type": "address"
        }
      ],
      "stateMutability": "view",
      "type": "function"
    },
    {
      "inputs": [
        {
          "internalType": "uint256",
          "name": "tokenId",
          "type": "uint256"
        }
      ],
      "name": "ownerOf",
      "outputs": [
        {
          "internalType": "address",
          "name": "",
          "type": "address"
        }
      ],
      "stateMutability": "view",
      "type": "function"
    },
    {
      "inputs": [
        {
          "internalType": "address",
          "name": "",
          "type": "address"
        }
      ],
      "name": "profileLinked",
      "outputs": [
        {
          "internalType": "address",
          "name": "",
          "type": "address"
        }
      ],
      "stateMutability": "view",
      "type": "function"
    },
    {
      "inputs": [
        {
          "internalType": "address",
          "name": "from",
          "type": "address"
        },
        {
          "internalType": "address",
          "name": "to",
          "type": "address"
        },
        {
          "internalType": "uint256",
          "name": "tokenId",
          "type": "uint256"
        }
      ],
      "name": "safeTransferFrom",
      "outputs": [],
      "stateMutability": "nonpayable",
      "type": "function"
    },
    {
      "inputs": [
        {
          "internalType": "address",
          "name": "from",
          "type": "address"
        },
        {
          "internalType": "address",
          "name": "to",
          "type": "address"
        },
        {
          "internalType": "uint256",
          "name": "tokenId",
          "type": "uint256"
        },
        {
          "internalType": "bytes",
          "name": "data",
          "type": "bytes"
        }
      ],
      "name": "safeTransferFrom",
      "outputs": [],
      "stateMutability": "nonpayable",
      "type": "function"
    },
    {
      "inputs": [
        {
          "internalType": "address",
          "name": "operator",
          "type": "address"
        },
        {
          "internalType": "bool",
          "name": "approved",
          "type": "bool"
        }
      ],
      "name": "setApprovalForAll",
      "outputs": [],
      "stateMutability": "nonpayable",
      "type": "function"
    },
    {
      "inputs": [
        {
          "internalType": "bytes4",
          "name": "interfaceId",
          "type": "bytes4"
        }
      ],
      "name": "supportsInterface",
      "outputs": [
        {
          "internalType": "bool",
          "name": "",
          "type": "bool"
        }
      ],
      "stateMutability": "view",
      "type": "function"
    },
    {
      "inputs": [],
      "name": "symbol",
      "outputs": [
        {
          "internalType": "string",
          "name": "",
          "type": "string"
        }
      ],
      "stateMutability": "view",
      "type": "function"
    },
    {
      "inputs": [
        {
          "internalType": "uint256",
          "name": "index",
          "type": "uint256"
        }
      ],
      "name": "tokenByIndex",
      "outputs": [
        {
          "internalType": "uint256",
          "name": "",
          "type": "uint256"
        }
      ],
      "stateMutability": "view",
      "type": "function"
    },
    {
      "inputs": [
        {
          "internalType": "address",
          "name": "owner",
          "type": "address"
        },
        {
          "internalType": "uint256",
          "name": "index",
          "type": "uint256"
        }
      ],
      "name": "tokenOfOwnerByIndex",
      "outputs": [
        {
          "internalType": "uint256",
          "name": "",
          "type": "uint256"
        }
      ],
      "stateMutability": "view",
      "type": "function"
    },
    {
      "inputs": [
        {
          "internalType": "uint256",
          "name": "tokenId",
          "type": "uint256"
        }
      ],
      "name": "tokenURI",
      "outputs": [
        {
          "internalType": "string",
          "name": "",
          "type": "string"
        }
      ],
      "stateMutability": "view",
      "type": "function"
    },
    {
      "inputs": [],
      "name": "totalSupply",
      "outputs": [
        {
          "internalType": "uint256",
          "name": "",
          "type": "uint256"
        }
      ],
      "stateMutability": "view",
      "type": "function"
    },
    {
      "inputs": [
        {
          "internalType": "address",
          "name": "from",
          "type": "address"
        },
        {
          "internalType": "address",
          "name": "to",
          "type": "address"
        },
        {
          "internalType": "uint256",
          "name": "tokenId",
          "type": "uint256"
        }
      ],
      "name": "transferFrom",
      "outputs": [],
      "stateMutability": "nonpayable",
      "type": "function"
    }
  ],
  "bytecode": "0x608060405260ce805460ff60a01b1916600160a01b17905534801561002357600080fd5b50613203806100336000396000f3fe608060405234801561001057600080fd5b50600436106101a95760003560e01c80634f6ccce7116100f9578063976217cd11610097578063c87b56dd11610071578063c87b56dd146103c0578063cb339ae6146103d3578063e985e9c5146103e6578063ee709a891461042257600080fd5b8063976217cd1461037a578063a22cb4651461039a578063b88d4fde146103ad57600080fd5b80638b5c3ee8116100d35780638b5c3ee8146103395780638c02263b1461034c5780638da5cb5b1461035f57806395d89b411461037257600080fd5b80634f6ccce7146103005780636352211e1461031357806370a082311461032657600080fd5b80631c8187a61161016657806329e517f41161014057806329e517f4146102b45780632f745c59146102c75780634185e507146102da57806342842e0e146102ed57600080fd5b80631c8187a61461025057806323b872dd1461027857806326bc55fe1461028b57600080fd5b806301ffc9a7146101ae57806306fdde03146101d6578063081812fc146101eb578063095ea7b3146102165780631459457a1461022b57806318160ddd1461023e575b600080fd5b6101c16101bc366004612950565b610435565b60405190151581526020015b60405180910390f35b6101de610460565b6040516101cd91906129c5565b6101fe6101f93660046129d8565b6104f2565b6040516001600160a01b0390911681526020016101cd565b610229610224366004612a06565b610519565b005b610229610239366004612a32565b610634565b6099545b6040519081526020016101cd565b61026361025e3660046129d8565b610798565b6040516101cd99989796959493929190612adb565b610229610286366004612b45565b61087f565b6101fe610299366004612b86565b60d0602052600090815260409020546001600160a01b031681565b6102296102c2366004612ba3565b6108b0565b6102426102d5366004612a06565b610e56565b60ca546101fe906001600160a01b031681565b6102296102fb366004612b45565b610eec565b61024261030e3660046129d8565b610f07565b6101fe6103213660046129d8565b610f9a565b610242610334366004612b86565b610ffa565b610229610347366004612bd3565b611080565b6101c161035a3660046129d8565b61131e565b60ce546101fe906001600160a01b031681565b6101de611329565b61038d6103883660046129d8565b611338565b6040516101cd9190612c0c565b6102296103a8366004612ccc565b6114f3565b6102296103bb366004612d86565b611502565b6101de6103ce3660046129d8565b61153a565b6102296103e1366004612e06565b6115ae565b6101c16103f4366004612e8e565b6001600160a01b039182166000908152606a6020908152604080832093909416825291909152205460ff1690565b610229610430366004612ba3565b611a7b565b60006001600160e01b0319821663780e9d6360e01b148061045a575061045a82611d8e565b92915050565b60606065805461046f90612ebc565b80601f016020809104026020016040519081016040528092919081815260200182805461049b90612ebc565b80156104e85780601f106104bd576101008083540402835291602001916104e8565b820191906000526020600020905b8154815290600101906020018083116104cb57829003601f168201915b5050505050905090565b60006104fd82611dde565b506000908152606960205260409020546001600160a01b031690565b600061052482610f9a565b9050806001600160a01b0316836001600160a01b031614156105975760405162461bcd60e51b815260206004820152602160248201527f4552433732313a20617070726f76616c20746f2063757272656e74206f776e656044820152603960f91b60648201526084015b60405180910390fd5b336001600160a01b03821614806105b357506105b381336103f4565b6106255760405162461bcd60e51b815260206004820152603d60248201527f4552433732313a20617070726f76652063616c6c6572206973206e6f7420746f60448201527f6b656e206f776e6572206f7220617070726f76656420666f7220616c6c000000606482015260840161058e565b61062f8383611e31565b505050565b600054610100900460ff16158080156106545750600054600160ff909116105b8061066e5750303b15801561066e575060005460ff166001145b6106d15760405162461bcd60e51b815260206004820152602e60248201527f496e697469616c697a61626c653a20636f6e747261637420697320616c72656160448201526d191e481a5b9a5d1a585b1a5e995960921b606482015260840161058e565b6000805460ff1916600117905580156106f4576000805461ff0019166101001790555b60ca80546001600160a01b03199081166001600160a01b038981169190911790925560cb8054821687841617905560cc8054821686841617905560cd8054821688841617905560ce80549091169184169190911790558015610790576000805461ff0019169055604051600181527f7f26b83ff96e1f2b6a682f133852f6798a09c465da95921460cefb38474024989060200160405180910390a15b505050505050565b60cf602052600090815260409020805481906107b390612ebc565b80601f01602080910402602001604051908101604052809291908181526020018280546107df90612ebc565b801561082c5780601f106108015761010080835404028352916020019161082c565b820191906000526020600020905b81548152906001019060200180831161080f57829003601f168201915b505050600184015460028501546003860154600487015460058801546006890154600790990154979860ff808716996001600160a01b036101009098048816995095871697509390951694919390921689565b6108893382611e9f565b6108a55760405162461bcd60e51b815260040161058e90612ef1565b61062f838383611f1e565b816108ba8161208d565b6108d65760405162461bcd60e51b815260040161058e90612f3e565b600083815260cf602052604090206002015483906001600160a01b031633146109115760405162461bcd60e51b815260040161058e90612f66565b6001600085815260cf602052604090206001015460ff16600381111561093957610939612aa3565b146109865760405162461bcd60e51b815260206004820152601860248201527f5461736b2073686f756c6420626520696e207265766965770000000000000000604482015260640161058e565b60cb54600085815260cf6020526040808220600301549051632737a05b60e01b81526001600160a01b03918216600482015291921690632737a05b9060240160206040518083038186803b1580156109dd57600080fd5b505afa1580156109f1573d6000803e3d6000fd5b505050506040513d601f19601f82011682018060405250810190610a159190612fa8565b905060008490506000816001600160a01b0316632d6b3a6b6040518163ffffffff1660e01b815260040160206040518083038186803b158015610a5757600080fd5b505afa158015610a6b573d6000803e3d6000fd5b505050506040513d601f19601f82011682018060405250810190610a8f9190612fa8565b60ca54600089815260cf602052604090819020600490810154915163a9059cbb60e01b815293945084936001600160a01b039093169263a9059cbb92610aeb928992016001600160a01b03929092168252602082015260400190565b602060405180830381600087803b158015610b0557600080fd5b505af1158015610b19573d6000803e3d6000fd5b505050506040513d601f19601f82011682018060405250810190610b3d9190612fc5565b5060ca60009054906101000a90046001600160a01b03166001600160a01b031663a9059cbb826001600160a01b031662da7e726040518163ffffffff1660e01b815260040160206040518083038186803b158015610b9a57600080fd5b505afa158015610bae573d6000803e3d6000fd5b505050506040513d601f19601f82011682018060405250810190610bd29190612fa8565b60008b815260cf6020526040902060040154606490610bf2906005612ff8565b610bfc9190613017565b6040516001600160e01b031960e085901b1681526001600160a01b0390921660048301526024820152604401602060405180830381600087803b158015610c4257600080fd5b505af1158015610c56573d6000803e3d6000fd5b505050506040513d601f19601f82011682018060405250810190610c7a9190612fc5565b50600088815260cf60205260409081902060018101805460ff191660021790556006015490516381f32edd60e01b815260048101919091526001600160a01b038516906381f32edd90602401600060405180830381600087803b158015610ce057600080fd5b505af1158015610cf4573d6000803e3d6000fd5b505050600089815260cf60205260409081902060049081015491516327909ee960e01b8152908101919091526001600160a01b03861691506327909ee990602401600060405180830381600087803b158015610d4f57600080fd5b505af1158015610d63573d6000803e3d6000fd5b505060cd5460008b815260cf602052604090819020600501549051632770a7eb60e21b815230600482015260248101919091526001600160a01b039091169250639dc29fac9150604401600060405180830381600087803b158015610dc757600080fd5b505af1158015610ddb573d6000803e3d6000fd5b505050600089815260cf60209081526040918290206002810154600382015460049092015484516001600160a01b03928316815291909216928101929092528183015290517f65f534584f0e90047cf062076979fe5dcd2a053548e31fdd49138bef6db88c0292509081900360600190a15050505050505050565b6000610e6183610ffa565b8210610ec35760405162461bcd60e51b815260206004820152602b60248201527f455243373231456e756d657261626c653a206f776e657220696e646578206f7560448201526a74206f6620626f756e647360a81b606482015260840161058e565b506001600160a01b03919091166000908152609760209081526040808320938352929052205490565b61062f83838360405180602001604052806000815250611502565b6000610f1260995490565b8210610f755760405162461bcd60e51b815260206004820152602c60248201527f455243373231456e756d657261626c653a20676c6f62616c20696e646578206f60448201526b7574206f6620626f756e647360a01b606482015260840161058e565b60998281548110610f8857610f88613039565b90600052602060002001549050919050565b6000818152606760205260408120546001600160a01b03168061045a5760405162461bcd60e51b8152602060048201526018602482015277115490cdcc8c4e881a5b9d985b1a59081d1bdad95b88125160421b604482015260640161058e565b60006001600160a01b0382166110645760405162461bcd60e51b815260206004820152602960248201527f4552433732313a2061646472657373207a65726f206973206e6f7420612076616044820152683634b21037bbb732b960b91b606482015260840161058e565b506001600160a01b031660009081526068602052604090205490565b8261108a8161208d565b6110a65760405162461bcd60e51b815260040161058e90612f3e565b600084815260cf60205260409020600301546001600160a01b0316331461110f5760405162461bcd60e51b815260206004820152601e60248201527f596f75277265206e6f742061206163636570746564206275696c6465722e0000604482015260640161058e565b600084815260cf602052604081206001015460ff16600381111561113557611135612aa3565b146111775760405162461bcd60e51b8152602060048201526012602482015271496e76616c6964207461736b20737461746560701b604482015260640161058e565b60cd546040516370a0823160e01b815233600482015284916001600160a01b0316906370a082319060240160206040518083038186803b1580156111ba57600080fd5b505afa1580156111ce573d6000803e3d6000fd5b505050506040513d601f19601f820116820180604052508101906111f2919061304f565b10156112405760405162461bcd60e51b815260206004820152601860248201527f496e73756666696369656e7420464e445220616d6f756e740000000000000000604482015260640161058e565b60cd546040516323b872dd60e01b8152336004820152306024820152604481018590526001600160a01b03909116906323b872dd90606401602060405180830381600087803b15801561129257600080fd5b505af11580156112a6573d6000803e3d6000fd5b505050506040513d601f19601f820116820180604052508101906112ca9190612fc5565b50600084815260cf60205260409020600581018490556001908101805460ff191682800217905550506001600160a01b0316600090815260d06020526040902080546001600160a01b031916301790555050565b600061045a8261208d565b60606066805461046f90612ebc565b61138860408051610120810190915260608152602081016000815260006020820181905260408201819052606082018190526080820181905260a0820181905260c0820181905260e09091015290565b816113928161208d565b6113ae5760405162461bcd60e51b815260040161058e90612f3e565b600083815260cf602052604090819020815161012081019092528054829082906113d790612ebc565b80601f016020809104026020016040519081016040528092919081815260200182805461140390612ebc565b80156114505780601f1061142557610100808354040283529160200191611450565b820191906000526020600020905b81548152906001019060200180831161143357829003601f168201915b5050509183525050600182015460209091019060ff16600381111561147757611477612aa3565b600381111561148857611488612aa3565b815260018201546001600160a01b0361010090910481166020830152600283015481166040830152600383015416606082015260048201546080820152600582015460a0820152600682015460c082015260079091015460ff16151560e09091015291505b50919050565b6114fe3383836120aa565b5050565b61150c3383611e9f565b6115285760405162461bcd60e51b815260040161058e90612ef1565b61153484848484612179565b50505050565b606061154582611dde565b600061155c60408051602081019091526000815290565b9050600081511161157c57604051806020016040528060008152506115a7565b80611586846121ac565b604051602001611597929190613068565b6040516020818303038152906040525b9392505050565b60ca546040516370a0823160e01b81526001600160a01b03808816600483015287928592600092909116906370a082319060240160206040518083038186803b1580156115fa57600080fd5b505afa15801561160e573d6000803e3d6000fd5b505050506040513d601f19601f82011682018060405250810190611632919061304f565b9050606461164183606e612ff8565b61164b9190613017565b8110156116ab5760405162461bcd60e51b815260206004820152602860248201527f546f74616c207461736b2062756467657420657863656564732070726f6a65636044820152671d08189d5919d95d60c21b606482015260840161058e565b60cc546040516323a30b2360e01b81526001600160a01b03808b1660048301528a926000929116906323a30b239060240160206040518083038186803b1580156116f457600080fd5b505afa158015611708573d6000803e3d6000fd5b505050506040513d601f19601f8201168201806040525081019061172c9190612fa8565b90506001600160a01b03811633146117a05760405162461bcd60e51b815260206004820152603160248201527f4f6e6c792070726f6a656374277320666f756e6465722063616e206372656174604482015270329030903a30b9b59037b71031b430b4b760791b606482015260840161058e565b60cb54604051632737a05b60e01b81526001600160a01b038b811660048301526000921690632737a05b9060240160206040518083038186803b1580156117e657600080fd5b505afa1580156117fa573d6000803e3d6000fd5b505050506040513d601f19601f8201168201806040525081019061181e9190612fa8565b90506001600160a01b0381166118865760405162461bcd60e51b815260206004820152602760248201527f4275696c6465722070726f66696c6520646f6573206e6f74206578697374206f604482015266371031b430b4b760c91b606482015260840161058e565b60ce805460ff60a01b191690556118a160c980546001019055565b6118b38a6118ae60c95490565b612249565b60408051610120810190915289815260208101600081526020018c6001600160a01b03168152602001336001600160a01b031681526020018b6001600160a01b03168152602001898152602001600081526020018881526020016000151581525060cf600061192160c95490565b8152602080820192909252604001600020825180519192611947928492909101906128a1565b50602082015160018083018054909160ff199091169083600381111561196f5761196f612aa3565b021790555060408201516001820180546001600160a01b03928316610100908102610100600160a81b03199092169190911790915560608401516002840180549184166001600160a01b031992831617905560808501516003850180549190941691161790915560a0830151600483015560c0830151600583015560e08301516006830155909101516007909101805491151560ff1990921691909117905560ce805460ff60a01b1916600160a01b1790557fb1c0ef93ef5afc0800a5789b004fdaf5931873276c7ccb409e7d1a310906886a8a611a4c60c95490565b604080516001600160a01b03909316835260208301919091520160405180910390a15050505050505050505050565b81611a858161208d565b611aa15760405162461bcd60e51b815260040161058e90612f3e565b600083815260cf602052604090206002015483906001600160a01b03163314611adc5760405162461bcd60e51b815260040161058e90612f66565b6002600085815260cf602052604090206001015460ff166003811115611b0457611b04612aa3565b14158015611b3857506003600085815260cf602052604090206001015460ff166003811115611b3557611b35612aa3565b14155b611b905760405162461bcd60e51b815260206004820152602360248201527f5461736b20616c726561647920636f6d706c65746564206f722063616e63656c6044820152621b195960ea1b606482015260840161058e565b6001600085815260cf602052604090206001015460ff166003811115611bb857611bb8612aa3565b1415611c615760cd54600085815260cf6020526040908190206003810154600590910154915163a9059cbb60e01b81526001600160a01b03918216600482015260248101929092529091169063a9059cbb90604401602060405180830381600087803b158015611c2757600080fd5b505af1158015611c3b573d6000803e3d6000fd5b505050506040513d601f19601f82011682018060405250810190611c5f9190612fc5565b505b60ca54600085815260cf6020526040902060018101546004909101546001600160a01b039283169263a9059cbb9261010090041690606490611ca4906005612ff8565b611cae9190613017565b600088815260cf6020526040902060040154611cca9190613097565b6040516001600160e01b031960e085901b1681526001600160a01b0390921660048301526024820152604401602060405180830381600087803b158015611d1057600080fd5b505af1158015611d24573d6000803e3d6000fd5b505050506040513d601f19601f82011682018060405250810190611d489190612fc5565b505050600091825260cf60209081526040808420600101805460ff191660031790556001600160a01b0392909216835260d09052902080546001600160a01b0319169055565b60006001600160e01b031982166380ac58cd60e01b1480611dbf57506001600160e01b03198216635b5e139f60e01b145b8061045a57506301ffc9a760e01b6001600160e01b031983161461045a565b611de78161208d565b611e2e5760405162461bcd60e51b8152602060048201526018602482015277115490cdcc8c4e881a5b9d985b1a59081d1bdad95b88125160421b604482015260640161058e565b50565b600081815260696020526040902080546001600160a01b0319166001600160a01b0384169081179091558190611e6682610f9a565b6001600160a01b03167f8c5be1e5ebec7d5bd14f71427d1e84f3dd0314c0f7b2291e5b200ac8c7c3b92560405160405180910390a45050565b600080611eab83610f9a565b9050806001600160a01b0316846001600160a01b03161480611ef257506001600160a01b038082166000908152606a602090815260408083209388168352929052205460ff165b80611f165750836001600160a01b0316611f0b846104f2565b6001600160a01b0316145b949350505050565b826001600160a01b0316611f3182610f9a565b6001600160a01b031614611f575760405162461bcd60e51b815260040161058e906130af565b6001600160a01b038216611fb95760405162461bcd60e51b8152602060048201526024808201527f4552433732313a207472616e7366657220746f20746865207a65726f206164646044820152637265737360e01b606482015260840161058e565b611fc4838383612263565b826001600160a01b0316611fd782610f9a565b6001600160a01b031614611ffd5760405162461bcd60e51b815260040161058e906130af565b600081815260696020908152604080832080546001600160a01b03199081169091556001600160a01b0387811680865260688552838620805460001901905590871680865283862080546001019055868652606790945282852080549092168417909155905184937fddf252ad1be2c89b69c2b068fc378daa952ba7f163c4a11628f55a4df523b3ef91a4505050565b6000908152606760205260409020546001600160a01b0316151590565b816001600160a01b0316836001600160a01b0316141561210c5760405162461bcd60e51b815260206004820152601960248201527f4552433732313a20617070726f766520746f2063616c6c657200000000000000604482015260640161058e565b6001600160a01b038381166000818152606a6020908152604080832094871680845294825291829020805460ff191686151590811790915591519182527f17307eab39ab6107e8899845ad3d59bd9653f200f220920489ca2b5937696c31910160405180910390a3505050565b612184848484611f1e565b612190848484846122c8565b6115345760405162461bcd60e51b815260040161058e906130f4565b606060006121b9836123d5565b600101905060008167ffffffffffffffff8111156121d9576121d9612cfa565b6040519080825280601f01601f191660200182016040528015612203576020820181803683370190505b5090508181016020015b600019016f181899199a1a9b1b9c1cb0b131b232b360811b600a86061a8153600a850494508461223c57612241565b61220d565b509392505050565b6114fe8282604051806020016040528060008152506124ad565b60ce54600160a01b900460ff16156122bd5760405162461bcd60e51b815260206004820152601b60248201527f5461736b20746f6b656e2063616e6e6f74207472616e736665722e0000000000604482015260640161058e565b61062f8383836124e0565b60006001600160a01b0384163b156123ca57604051630a85bd0160e11b81526001600160a01b0385169063150b7a029061230c903390899088908890600401613146565b602060405180830381600087803b15801561232657600080fd5b505af1925050508015612356575060408051601f3d908101601f1916820190925261235391810190613183565b60015b6123b0573d808015612384576040519150601f19603f3d011682016040523d82523d6000602084013e612389565b606091505b5080516123a85760405162461bcd60e51b815260040161058e906130f4565b805181602001fd5b6001600160e01b031916630a85bd0160e11b149050611f16565b506001949350505050565b60008072184f03e93ff9f4daa797ed6e38ed64bf6a1f0160401b83106124145772184f03e93ff9f4daa797ed6e38ed64bf6a1f0160401b830492506040015b6d04ee2d6d415b85acef81000000008310612440576d04ee2d6d415b85acef8100000000830492506020015b662386f26fc10000831061245e57662386f26fc10000830492506010015b6305f5e1008310612476576305f5e100830492506008015b612710831061248a57612710830492506004015b6064831061249c576064830492506002015b600a831061045a5760010192915050565b6124b78383612598565b6124c460008484846122c8565b61062f5760405162461bcd60e51b815260040161058e906130f4565b6001600160a01b03831661253b5761253681609980546000838152609a60205260408120829055600182018355919091527f72a152ddfb8e864297c917af52ea6c1c68aead0fee1a62673fcc7e0c94979d000155565b61255e565b816001600160a01b0316836001600160a01b03161461255e5761255e8382612711565b6001600160a01b0382166125755761062f816127ae565b826001600160a01b0316826001600160a01b03161461062f5761062f828261285d565b6001600160a01b0382166125ee5760405162461bcd60e51b815260206004820181905260248201527f4552433732313a206d696e7420746f20746865207a65726f2061646472657373604482015260640161058e565b6125f78161208d565b156126445760405162461bcd60e51b815260206004820152601c60248201527f4552433732313a20746f6b656e20616c7265616479206d696e74656400000000604482015260640161058e565b61265060008383612263565b6126598161208d565b156126a65760405162461bcd60e51b815260206004820152601c60248201527f4552433732313a20746f6b656e20616c7265616479206d696e74656400000000604482015260640161058e565b6001600160a01b038216600081815260686020908152604080832080546001019055848352606790915280822080546001600160a01b0319168417905551839291907fddf252ad1be2c89b69c2b068fc378daa952ba7f163c4a11628f55a4df523b3ef908290a45050565b6000600161271e84610ffa565b61272891906131a0565b60008381526098602052604090205490915080821461277b576001600160a01b03841660009081526097602090815260408083208584528252808320548484528184208190558352609890915290208190555b5060009182526098602090815260408084208490556001600160a01b039094168352609781528383209183525290812055565b6099546000906127c0906001906131a0565b6000838152609a6020526040812054609980549394509092849081106127e8576127e8613039565b90600052602060002001549050806099838154811061280957612809613039565b6000918252602080832090910192909255828152609a90915260408082208490558582528120556099805480612841576128416131b7565b6001900381819060005260206000200160009055905550505050565b600061286883610ffa565b6001600160a01b039093166000908152609760209081526040808320868452825280832085905593825260989052919091209190915550565b8280546128ad90612ebc565b90600052602060002090601f0160209004810192826128cf5760008555612915565b82601f106128e857805160ff1916838001178555612915565b82800160010185558215612915579182015b828111156129155782518255916020019190600101906128fa565b50612921929150612925565b5090565b5b808211156129215760008155600101612926565b6001600160e01b031981168114611e2e57600080fd5b60006020828403121561296257600080fd5b81356115a78161293a565b60005b83811015612988578181015183820152602001612970565b838111156115345750506000910152565b600081518084526129b181602086016020860161296d565b601f01601f19169290920160200192915050565b6020815260006115a76020830184612999565b6000602082840312156129ea57600080fd5b5035919050565b6001600160a01b0381168114611e2e57600080fd5b60008060408385031215612a1957600080fd5b8235612a24816129f1565b946020939093013593505050565b600080600080600060a08688031215612a4a57600080fd5b8535612a55816129f1565b94506020860135612a65816129f1565b93506040860135612a75816129f1565b92506060860135612a85816129f1565b91506080860135612a95816129f1565b809150509295509295909350565b634e487b7160e01b600052602160045260246000fd5b60048110612ad757634e487b7160e01b600052602160045260246000fd5b9052565b6000610120808352612aef8184018d612999565b915050612aff602083018b612ab9565b6001600160a01b039889166040830152968816606082015294909616608085015260a084019290925260c083015260e08201529115156101009092019190915292915050565b600080600060608486031215612b5a57600080fd5b8335612b65816129f1565b92506020840135612b75816129f1565b929592945050506040919091013590565b600060208284031215612b9857600080fd5b81356115a7816129f1565b60008060408385031215612bb657600080fd5b823591506020830135612bc8816129f1565b809150509250929050565b600080600060608486031215612be857600080fd5b83359250602084013591506040840135612c01816129f1565b809150509250925092565b6020815260008251610120806020850152612c2b610140850183612999565b91506020850151612c3f6040860182612ab9565b5060408501516001600160a01b03811660608601525060608501516001600160a01b03811660808601525060808501516001600160a01b03811660a08601525060a085015160c085015260c085015160e085015260e0850151610100818187015280870151915050612cb48286018215159052565b5090949350505050565b8015158114611e2e57600080fd5b60008060408385031215612cdf57600080fd5b8235612cea816129f1565b91506020830135612bc881612cbe565b634e487b7160e01b600052604160045260246000fd5b600067ffffffffffffffff80841115612d2b57612d2b612cfa565b604051601f8501601f19908116603f01168101908282118183101715612d5357612d53612cfa565b81604052809350858152868686011115612d6c57600080fd5b858560208301376000602087830101525050509392505050565b60008060008060808587031215612d9c57600080fd5b8435612da7816129f1565b93506020850135612db7816129f1565b925060408501359150606085013567ffffffffffffffff811115612dda57600080fd5b8501601f81018713612deb57600080fd5b612dfa87823560208401612d10565b91505092959194509250565b600080600080600060a08688031215612e1e57600080fd5b8535612e29816129f1565b94506020860135612e39816129f1565b9350604086013567ffffffffffffffff811115612e5557600080fd5b8601601f81018813612e6657600080fd5b612e7588823560208401612d10565b9598949750949560608101359550608001359392505050565b60008060408385031215612ea157600080fd5b8235612eac816129f1565b91506020830135612bc8816129f1565b600181811c90821680612ed057607f821691505b602082108114156114ed57634e487b7160e01b600052602260045260246000fd5b6020808252602d908201527f4552433732313a2063616c6c6572206973206e6f7420746f6b656e206f776e6560408201526c1c881bdc88185c1c1c9bdd9959609a1b606082015260800190565b6020808252600e908201526d15185cdac81b9bdd08199bdd5b9960921b604082015260600190565b60208082526022908201527f4f6e6c7920666f756e6465722063616e20636f6d706c65746520746865207461604082015261736b60f01b606082015260800190565b600060208284031215612fba57600080fd5b81516115a7816129f1565b600060208284031215612fd757600080fd5b81516115a781612cbe565b634e487b7160e01b600052601160045260246000fd5b600081600019048311821515161561301257613012612fe2565b500290565b60008261303457634e487b7160e01b600052601260045260246000fd5b500490565b634e487b7160e01b600052603260045260246000fd5b60006020828403121561306157600080fd5b5051919050565b6000835161307a81846020880161296d565b83519083019061308e81836020880161296d565b01949350505050565b600082198211156130aa576130aa612fe2565b500190565b60208082526025908201527f4552433732313a207472616e736665722066726f6d20696e636f72726563742060408201526437bbb732b960d91b606082015260800190565b60208082526032908201527f4552433732313a207472616e7366657220746f206e6f6e20455243373231526560408201527131b2b4bb32b91034b6b83632b6b2b73a32b960711b606082015260800190565b6001600160a01b038581168252841660208201526040810183905260806060820181905260009061317990830184612999565b9695505050505050565b60006020828403121561319557600080fd5b81516115a78161293a565b6000828210156131b2576131b2612fe2565b500390565b634e487b7160e01b600052603160045260246000fdfea2646970667358221220e791042643c57498a0feaf76b6e273c03eff96db9bd9177271813299435c548c64736f6c63430008090033",
  "linkReferences": {},
  "deployedLinkReferences": {}
}