{
  "_format": "hh-sol-artifact-1",
  "contractName": "Task",
  "sourceName": "contracts/Task.sol",
  "abi": [
    {
      "inputs": [],
      "stateMutability": "nonpayable",
      "type": "constructor"
    },
    {
      "anonymous": false,
      "inputs": [
        {
          "indexed": true,
          "internalType": "address",
          "name": "owner",
          "type": "address"
        },
        {
          "indexed": true,
          "internalType": "address",
          "name": "approved",
          "type": "address"
        },
        {
          "indexed": true,
          "internalType": "uint256",
          "name": "tokenId",
          "type": "uint256"
        }
      ],
      "name": "Approval",
      "type": "event"
    },
    {
      "anonymous": false,
      "inputs": [
        {
          "indexed": true,
          "internalType": "address",
          "name": "owner",
          "type": "address"
        },
        {
          "indexed": true,
          "internalType": "address",
          "name": "operator",
          "type": "address"
        },
        {
          "indexed": false,
          "internalType": "bool",
          "name": "approved",
          "type": "bool"
        }
      ],
      "name": "ApprovalForAll",
      "type": "event"
    },
    {
      "anonymous": false,
      "inputs": [
        {
          "indexed": true,
          "internalType": "address",
          "name": "from",
          "type": "address"
        },
        {
          "indexed": true,
          "internalType": "address",
          "name": "to",
          "type": "address"
        },
        {
          "indexed": true,
          "internalType": "uint256",
          "name": "tokenId",
          "type": "uint256"
        }
      ],
      "name": "Transfer",
      "type": "event"
    },
    {
      "inputs": [
        {
          "internalType": "address",
          "name": "to",
          "type": "address"
        },
        {
          "internalType": "uint256",
          "name": "tokenId",
          "type": "uint256"
        }
      ],
      "name": "approve",
      "outputs": [],
      "stateMutability": "nonpayable",
      "type": "function"
    },
    {
      "inputs": [
        {
          "internalType": "uint256",
          "name": "_tokenId",
          "type": "uint256"
        },
        {
          "internalType": "address",
          "name": "_builderAddress",
          "type": "address"
        }
      ],
      "name": "assignTaskToBuilder",
      "outputs": [],
      "stateMutability": "nonpayable",
      "type": "function"
    },
    {
      "inputs": [
        {
          "internalType": "address",
          "name": "owner",
          "type": "address"
        }
      ],
      "name": "balanceOf",
      "outputs": [
        {
          "internalType": "uint256",
          "name": "",
          "type": "uint256"
        }
      ],
      "stateMutability": "view",
      "type": "function"
    },
    {
      "inputs": [
        {
          "internalType": "uint256",
          "name": "_taskId",
          "type": "uint256"
        }
      ],
      "name": "completeTask",
      "outputs": [],
      "stateMutability": "nonpayable",
      "type": "function"
    },
    {
      "inputs": [
        {
          "internalType": "string",
          "name": "_name",
          "type": "string"
        },
        {
          "internalType": "uint256",
          "name": "_usdc",
          "type": "uint256"
        },
        {
          "internalType": "uint256",
          "name": "_xp",
          "type": "uint256"
        }
      ],
      "name": "createTask",
      "outputs": [
        {
          "internalType": "uint256",
          "name": "",
          "type": "uint256"
        }
      ],
      "stateMutability": "nonpayable",
      "type": "function"
    },
    {
      "inputs": [
        {
          "internalType": "uint256",
          "name": "tokenId",
          "type": "uint256"
        }
      ],
      "name": "getApproved",
      "outputs": [
        {
          "internalType": "address",
          "name": "",
          "type": "address"
        }
      ],
      "stateMutability": "view",
      "type": "function"
    },
    {
      "inputs": [
        {
          "internalType": "address",
          "name": "_builderAddress",
          "type": "address"
        }
      ],
      "name": "getBuilderTasks",
      "outputs": [
        {
          "components": [
            {
              "internalType": "string",
              "name": "name",
              "type": "string"
            },
            {
              "internalType": "enum Task.State",
              "name": "currentState",
              "type": "uint8"
            },
            {
              "internalType": "address",
              "name": "builderAddress",
              "type": "address"
            },
            {
              "internalType": "uint256",
              "name": "usdc_amount",
              "type": "uint256"
            },
            {
              "internalType": "uint256",
              "name": "fndr_amount",
              "type": "uint256"
            },
            {
              "internalType": "uint256",
              "name": "xp",
              "type": "uint256"
            }
          ],
          "internalType": "struct Task.TaskInfo[]",
          "name": "",
          "type": "tuple[]"
        }
      ],
      "stateMutability": "view",
      "type": "function"
    },
    {
      "inputs": [
        {
          "internalType": "uint256",
          "name": "_tokenId",
          "type": "uint256"
        }
      ],
      "name": "getTaskById",
      "outputs": [
        {
          "components": [
            {
              "internalType": "string",
              "name": "name",
              "type": "string"
            },
            {
              "internalType": "enum Task.State",
              "name": "currentState",
              "type": "uint8"
            },
            {
              "internalType": "address",
              "name": "builderAddress",
              "type": "address"
            },
            {
              "internalType": "uint256",
              "name": "usdc_amount",
              "type": "uint256"
            },
            {
              "internalType": "uint256",
              "name": "fndr_amount",
              "type": "uint256"
            },
            {
              "internalType": "uint256",
              "name": "xp",
              "type": "uint256"
            }
          ],
          "internalType": "struct Task.TaskInfo",
          "name": "",
          "type": "tuple"
        }
      ],
      "stateMutability": "view",
      "type": "function"
    },
    {
      "inputs": [
        {
          "internalType": "uint256",
          "name": "",
          "type": "uint256"
        }
      ],
      "name": "idToTask",
      "outputs": [
        {
          "internalType": "string",
          "name": "name",
          "type": "string"
        },
        {
          "internalType": "enum Task.State",
          "name": "currentState",
          "type": "uint8"
        },
        {
          "internalType": "address",
          "name": "builderAddress",
          "type": "address"
        },
        {
          "internalType": "uint256",
          "name": "usdc_amount",
          "type": "uint256"
        },
        {
          "internalType": "uint256",
          "name": "fndr_amount",
          "type": "uint256"
        },
        {
          "internalType": "uint256",
          "name": "xp",
          "type": "uint256"
        }
      ],
      "stateMutability": "view",
      "type": "function"
    },
    {
      "inputs": [
        {
          "internalType": "address",
          "name": "owner",
          "type": "address"
        },
        {
          "internalType": "address",
          "name": "operator",
          "type": "address"
        }
      ],
      "name": "isApprovedForAll",
      "outputs": [
        {
          "internalType": "bool",
          "name": "",
          "type": "bool"
        }
      ],
      "stateMutability": "view",
      "type": "function"
    },
    {
      "inputs": [],
      "name": "name",
      "outputs": [
        {
          "internalType": "string",
          "name": "",
          "type": "string"
        }
      ],
      "stateMutability": "view",
      "type": "function"
    },
    {
      "inputs": [
        {
          "internalType": "uint256",
          "name": "tokenId",
          "type": "uint256"
        }
      ],
      "name": "ownerOf",
      "outputs": [
        {
          "internalType": "address",
          "name": "",
          "type": "address"
        }
      ],
      "stateMutability": "view",
      "type": "function"
    },
    {
      "inputs": [
        {
          "internalType": "address",
          "name": "from",
          "type": "address"
        },
        {
          "internalType": "address",
          "name": "to",
          "type": "address"
        },
        {
          "internalType": "uint256",
          "name": "tokenId",
          "type": "uint256"
        }
      ],
      "name": "safeTransferFrom",
      "outputs": [],
      "stateMutability": "nonpayable",
      "type": "function"
    },
    {
      "inputs": [
        {
          "internalType": "address",
          "name": "from",
          "type": "address"
        },
        {
          "internalType": "address",
          "name": "to",
          "type": "address"
        },
        {
          "internalType": "uint256",
          "name": "tokenId",
          "type": "uint256"
        },
        {
          "internalType": "bytes",
          "name": "data",
          "type": "bytes"
        }
      ],
      "name": "safeTransferFrom",
      "outputs": [],
      "stateMutability": "nonpayable",
      "type": "function"
    },
    {
      "inputs": [
        {
          "internalType": "address",
          "name": "operator",
          "type": "address"
        },
        {
          "internalType": "bool",
          "name": "approved",
          "type": "bool"
        }
      ],
      "name": "setApprovalForAll",
      "outputs": [],
      "stateMutability": "nonpayable",
      "type": "function"
    },
    {
      "inputs": [
        {
          "internalType": "uint256",
          "name": "_taskId",
          "type": "uint256"
        }
      ],
      "name": "startTask",
      "outputs": [],
      "stateMutability": "nonpayable",
      "type": "function"
    },
    {
      "inputs": [
        {
          "internalType": "bytes4",
          "name": "interfaceId",
          "type": "bytes4"
        }
      ],
      "name": "supportsInterface",
      "outputs": [
        {
          "internalType": "bool",
          "name": "",
          "type": "bool"
        }
      ],
      "stateMutability": "view",
      "type": "function"
    },
    {
      "inputs": [],
      "name": "symbol",
      "outputs": [
        {
          "internalType": "string",
          "name": "",
          "type": "string"
        }
      ],
      "stateMutability": "view",
      "type": "function"
    },
    {
      "inputs": [
        {
          "internalType": "uint256",
          "name": "index",
          "type": "uint256"
        }
      ],
      "name": "tokenByIndex",
      "outputs": [
        {
          "internalType": "uint256",
          "name": "",
          "type": "uint256"
        }
      ],
      "stateMutability": "view",
      "type": "function"
    },
    {
      "inputs": [
        {
          "internalType": "address",
          "name": "owner",
          "type": "address"
        },
        {
          "internalType": "uint256",
          "name": "index",
          "type": "uint256"
        }
      ],
      "name": "tokenOfOwnerByIndex",
      "outputs": [
        {
          "internalType": "uint256",
          "name": "",
          "type": "uint256"
        }
      ],
      "stateMutability": "view",
      "type": "function"
    },
    {
      "inputs": [
        {
          "internalType": "uint256",
          "name": "tokenId",
          "type": "uint256"
        }
      ],
      "name": "tokenURI",
      "outputs": [
        {
          "internalType": "string",
          "name": "",
          "type": "string"
        }
      ],
      "stateMutability": "view",
      "type": "function"
    },
    {
      "inputs": [],
      "name": "totalSupply",
      "outputs": [
        {
          "internalType": "uint256",
          "name": "",
          "type": "uint256"
        }
      ],
      "stateMutability": "view",
      "type": "function"
    },
    {
      "inputs": [
        {
          "internalType": "address",
          "name": "from",
          "type": "address"
        },
        {
          "internalType": "address",
          "name": "to",
          "type": "address"
        },
        {
          "internalType": "uint256",
          "name": "tokenId",
          "type": "uint256"
        }
      ],
      "name": "transferFrom",
      "outputs": [],
      "stateMutability": "nonpayable",
      "type": "function"
    }
  ],
  "bytecode": "0x60806040523480156200001157600080fd5b506040518060400160405280600c81526020017f4275696c646572205461736b00000000000000000000000000000000000000008152506040518060400160405280600481526020017f5461736b00000000000000000000000000000000000000000000000000000000815250816000908051906020019062000096929190620000b8565b508060019080519060200190620000af929190620000b8565b505050620001cd565b828054620000c69062000168565b90600052602060002090601f016020900481019282620000ea576000855562000136565b82601f106200010557805160ff191683800117855562000136565b8280016001018555821562000136579182015b828111156200013557825182559160200191906001019062000118565b5b50905062000145919062000149565b5090565b5b80821115620001645760008160009055506001016200014a565b5090565b600060028204905060018216806200018157607f821691505b602082108114156200019857620001976200019e565b5b50919050565b7f4e487b7100000000000000000000000000000000000000000000000000000000600052602260045260246000fd5b6141d580620001dd6000396000f3fe608060405234801561001057600080fd5b506004361061014d5760003560e01c80634f6ccce7116100c3578063a22cb4651161007c578063a22cb46514610401578063b88d4fde1461041d578063c87b56dd14610439578063e1e2955814610469578063e52ed67914610485578063e985e9c5146104a15761014d565b80634f6ccce7146103075780635f944326146103375780636352211e1461035357806370a082311461038357806395d89b41146103b3578063976217cd146103d15761014d565b806318160ddd1161011557806318160ddd1461021c5780631c8187a61461023a57806323b872dd1461026f5780632f745c591461028b57806342842e0e146102bb5780634338eb87146102d75761014d565b806301ffc9a714610152578063059378ea1461018257806306fdde03146101b2578063081812fc146101d0578063095ea7b314610200575b600080fd5b61016c60048036038101906101679190612e13565b6104d1565b6040516101799190613529565b60405180910390f35b61019c60048036038101906101979190612e6d565b61054b565b6040516101a99190613810565b60405180910390f35b6101ba6106ac565b6040516101c79190613544565b60405180910390f35b6101ea60048036038101906101e59190612edc565b61073e565b6040516101f791906134a0565b60405180910390f35b61021a60048036038101906102159190612dd3565b610784565b005b61022461089c565b6040516102319190613810565b60405180910390f35b610254600480360381019061024f9190612edc565b6108a9565b60405161026696959493929190613566565b60405180910390f35b61028960048036038101906102849190612cbd565b61099a565b005b6102a560048036038101906102a09190612dd3565b6109fa565b6040516102b29190613810565b60405180910390f35b6102d560048036038101906102d09190612cbd565b610a9f565b005b6102f160048036038101906102ec9190612c50565b610abf565b6040516102fe9190613507565b60405180910390f35b610321600480360381019061031c9190612edc565b610eff565b60405161032e9190613810565b60405180910390f35b610351600480360381019061034c9190612edc565b610f70565b005b61036d60048036038101906103689190612edc565b6110a0565b60405161037a91906134a0565b60405180910390f35b61039d60048036038101906103989190612c50565b611152565b6040516103aa9190613810565b60405180910390f35b6103bb61120a565b6040516103c89190613544565b60405180910390f35b6103eb60048036038101906103e69190612edc565b61129c565b6040516103f891906137ee565b60405180910390f35b61041b60048036038101906104169190612d93565b611454565b005b61043760048036038101906104329190612d10565b61146a565b005b610453600480360381019061044e9190612edc565b6114cc565b6040516104609190613544565b60405180910390f35b610483600480360381019061047e9190612edc565b611534565b005b61049f600480360381019061049a9190612f09565b611664565b005b6104bb60048036038101906104b69190612c7d565b611840565b6040516104c89190613529565b60405180910390f35b60007f780e9d63000000000000000000000000000000000000000000000000000000007bffffffffffffffffffffffffffffffffffffffffffffffffffffffff1916827bffffffffffffffffffffffffffffffffffffffffffffffffffffffff191614806105445750610543826118d4565b5b9050919050565b60008061055661089c565b905061056e33600183610569919061393f565b6119b6565b6040518060c001604052808681526020016000600381111561059357610592613c10565b5b8152602001600073ffffffffffffffffffffffffffffffffffffffff1681526020018581526020016000815260200184815250600a60006105d261089c565b815260200190815260200160002060008201518160000190805190602001906105fc929190612a06565b5060208201518160010160006101000a81548160ff0219169083600381111561062857610627613c10565b5b021790555060408201518160010160016101000a81548173ffffffffffffffffffffffffffffffffffffffff021916908373ffffffffffffffffffffffffffffffffffffffff160217905550606082015181600201556080820151816003015560a082015181600401559050506001816106a2919061393f565b9150509392505050565b6060600080546106bb90613ad5565b80601f01602080910402602001604051908101604052809291908181526020018280546106e790613ad5565b80156107345780601f1061070957610100808354040283529160200191610734565b820191906000526020600020905b81548152906001019060200180831161071757829003601f168201915b5050505050905090565b6000610749826119d4565b6004600083815260200190815260200160002060009054906101000a900473ffffffffffffffffffffffffffffffffffffffff169050919050565b600061078f826110a0565b90508073ffffffffffffffffffffffffffffffffffffffff168373ffffffffffffffffffffffffffffffffffffffff161415610800576040517f08c379a00000000000000000000000000000000000000000000000000000000081526004016107f79061376e565b60405180910390fd5b8073ffffffffffffffffffffffffffffffffffffffff1661081f611a1f565b73ffffffffffffffffffffffffffffffffffffffff16148061084e575061084d81610848611a1f565b611840565b5b61088d576040517f08c379a0000000000000000000000000000000000000000000000000000000008152600401610884906136ee565b60405180910390fd5b6108978383611a27565b505050565b6000600880549050905090565b600a6020528060005260406000206000915090508060000180546108cc90613ad5565b80601f01602080910402602001604051908101604052809291908181526020018280546108f890613ad5565b80156109455780601f1061091a57610100808354040283529160200191610945565b820191906000526020600020905b81548152906001019060200180831161092857829003601f168201915b5050505050908060010160009054906101000a900460ff16908060010160019054906101000a900473ffffffffffffffffffffffffffffffffffffffff16908060020154908060030154908060040154905086565b6109ab6109a5611a1f565b82611ae0565b6109ea576040517f08c379a00000000000000000000000000000000000000000000000000000000081526004016109e1906137ce565b60405180910390fd5b6109f5838383611b75565b505050565b6000610a0583611152565b8210610a46576040517f08c379a0000000000000000000000000000000000000000000000000000000008152600401610a3d906135ee565b60405180910390fd5b600660008473ffffffffffffffffffffffffffffffffffffffff1673ffffffffffffffffffffffffffffffffffffffff168152602001908152602001600020600083815260200190815260200160002054905092915050565b610aba8383836040518060200160405280600081525061146a565b505050565b6060600073ffffffffffffffffffffffffffffffffffffffff168273ffffffffffffffffffffffffffffffffffffffff161415610b31576040517f08c379a0000000000000000000000000000000000000000000000000000000008152600401610b28906135ce565b60405180910390fd5b600080600190505b610b4161089c565b8111610c27573373ffffffffffffffffffffffffffffffffffffffff16600a600083815260200190815260200160002060010160019054906101000a900473ffffffffffffffffffffffffffffffffffffffff1673ffffffffffffffffffffffffffffffffffffffff16148015610c00575060006003811115610bc757610bc6613c10565b5b600a600083815260200190815260200160002060010160009054906101000a900460ff166003811115610bfd57610bfc613c10565b5b14155b15610c14578180610c1090613b38565b9250505b8080610c1f90613b38565b915050610b39565b5060008167ffffffffffffffff811115610c4457610c43613ccc565b5b604051908082528060200260200182016040528015610c7d57816020015b610c6a612a8c565b815260200190600190039081610c625790505b509050600080600190505b610c9061089c565b8111610ef3573373ffffffffffffffffffffffffffffffffffffffff16600a600083815260200190815260200160002060010160019054906101000a900473ffffffffffffffffffffffffffffffffffffffff1673ffffffffffffffffffffffffffffffffffffffff16148015610d4f575060006003811115610d1657610d15613c10565b5b600a600083815260200190815260200160002060010160009054906101000a900460ff166003811115610d4c57610d4b613c10565b5b14155b15610ee057600a60008281526020019081526020016000206040518060c0016040529081600082018054610d8290613ad5565b80601f0160208091040260200160405190810160405280929190818152602001828054610dae90613ad5565b8015610dfb5780601f10610dd057610100808354040283529160200191610dfb565b820191906000526020600020905b815481529060010190602001808311610dde57829003601f168201915b505050505081526020016001820160009054906101000a900460ff166003811115610e2957610e28613c10565b5b6003811115610e3b57610e3a613c10565b5b81526020016001820160019054906101000a900473ffffffffffffffffffffffffffffffffffffffff1673ffffffffffffffffffffffffffffffffffffffff1673ffffffffffffffffffffffffffffffffffffffff1681526020016002820154815260200160038201548152602001600482015481525050838381518110610ec657610ec5613c9d565b5b60200260200101819052508180610edc90613b38565b9250505b8080610eeb90613b38565b915050610c88565b50819350505050919050565b6000610f0961089c565b8210610f4a576040517f08c379a0000000000000000000000000000000000000000000000000000000008152600401610f41906137ae565b60405180910390fd5b60088281548110610f5e57610f5d613c9d565b5b90600052602060002001549050919050565b80610f7a81611ddc565b610fb9576040517f08c379a0000000000000000000000000000000000000000000000000000000008152600401610fb09061372e565b60405180910390fd5b3373ffffffffffffffffffffffffffffffffffffffff16600a600084815260200190815260200160002060010160019054906101000a900473ffffffffffffffffffffffffffffffffffffffff1673ffffffffffffffffffffffffffffffffffffffff161461105d576040517f08c379a00000000000000000000000000000000000000000000000000000000081526004016110549061378e565b60405180910390fd5b6002600a600084815260200190815260200160002060010160006101000a81548160ff0219169083600381111561109757611096613c10565b5b02179055505050565b6000806002600084815260200190815260200160002060009054906101000a900473ffffffffffffffffffffffffffffffffffffffff169050600073ffffffffffffffffffffffffffffffffffffffff168173ffffffffffffffffffffffffffffffffffffffff161415611149576040517f08c379a00000000000000000000000000000000000000000000000000000000081526004016111409061374e565b60405180910390fd5b80915050919050565b60008073ffffffffffffffffffffffffffffffffffffffff168273ffffffffffffffffffffffffffffffffffffffff1614156111c3576040517f08c379a00000000000000000000000000000000000000000000000000000000081526004016111ba906136ce565b60405180910390fd5b600360008373ffffffffffffffffffffffffffffffffffffffff1673ffffffffffffffffffffffffffffffffffffffff168152602001908152602001600020549050919050565b60606001805461121990613ad5565b80601f016020809104026020016040519081016040528092919081815260200182805461124590613ad5565b80156112925780601f1061126757610100808354040283529160200191611292565b820191906000526020600020905b81548152906001019060200180831161127557829003601f168201915b5050505050905090565b6112a4612a8c565b816112ae81611ddc565b6112ed576040517f08c379a00000000000000000000000000000000000000000000000000000000081526004016112e49061372e565b60405180910390fd5b600a60008481526020019081526020016000206040518060c001604052908160008201805461131b90613ad5565b80601f016020809104026020016040519081016040528092919081815260200182805461134790613ad5565b80156113945780601f1061136957610100808354040283529160200191611394565b820191906000526020600020905b81548152906001019060200180831161137757829003601f168201915b505050505081526020016001820160009054906101000a900460ff1660038111156113c2576113c1613c10565b5b60038111156113d4576113d3613c10565b5b81526020016001820160019054906101000a900473ffffffffffffffffffffffffffffffffffffffff1673ffffffffffffffffffffffffffffffffffffffff1673ffffffffffffffffffffffffffffffffffffffff1681526020016002820154815260200160038201548152602001600482015481525050915050919050565b61146661145f611a1f565b8383611e48565b5050565b61147b611475611a1f565b83611ae0565b6114ba576040517f08c379a00000000000000000000000000000000000000000000000000000000081526004016114b1906137ce565b60405180910390fd5b6114c684848484611fb5565b50505050565b60606114d7826119d4565b60006114e1612011565b90506000815111611501576040518060200160405280600081525061152c565b8061150b84612028565b60405160200161151c92919061347c565b6040516020818303038152906040525b915050919050565b8061153e81611ddc565b61157d576040517f08c379a00000000000000000000000000000000000000000000000000000000081526004016115749061372e565b60405180910390fd5b3373ffffffffffffffffffffffffffffffffffffffff16600a600084815260200190815260200160002060010160019054906101000a900473ffffffffffffffffffffffffffffffffffffffff1673ffffffffffffffffffffffffffffffffffffffff1614611621576040517f08c379a00000000000000000000000000000000000000000000000000000000081526004016116189061378e565b60405180910390fd5b6003600a600084815260200190815260200160002060010160006101000a81548160ff0219169083600381111561165b5761165a613c10565b5b02179055505050565b8161166e81611ddc565b6116ad576040517f08c379a00000000000000000000000000000000000000000000000000000000081526004016116a49061372e565b60405180910390fd5b600073ffffffffffffffffffffffffffffffffffffffff168273ffffffffffffffffffffffffffffffffffffffff16141561171d576040517f08c379a0000000000000000000000000000000000000000000000000000000008152600401611714906135ce565b60405180910390fd5b6000600381111561173157611730613c10565b5b600a600085815260200190815260200160002060010160009054906101000a900460ff16600381111561176757611766613c10565b5b146117a7576040517f08c379a000000000000000000000000000000000000000000000000000000000815260040161179e9061362e565b60405180910390fd5b6001600a600085815260200190815260200160002060010160006101000a81548160ff021916908360038111156117e1576117e0613c10565b5b021790555081600a600085815260200190815260200160002060010160016101000a81548173ffffffffffffffffffffffffffffffffffffffff021916908373ffffffffffffffffffffffffffffffffffffffff160217905550505050565b6000600560008473ffffffffffffffffffffffffffffffffffffffff1673ffffffffffffffffffffffffffffffffffffffff16815260200190815260200160002060008373ffffffffffffffffffffffffffffffffffffffff1673ffffffffffffffffffffffffffffffffffffffff16815260200190815260200160002060009054906101000a900460ff16905092915050565b60007f80ac58cd000000000000000000000000000000000000000000000000000000007bffffffffffffffffffffffffffffffffffffffffffffffffffffffff1916827bffffffffffffffffffffffffffffffffffffffffffffffffffffffff1916148061199f57507f5b5e139f000000000000000000000000000000000000000000000000000000007bffffffffffffffffffffffffffffffffffffffffffffffffffffffff1916827bffffffffffffffffffffffffffffffffffffffffffffffffffffffff1916145b806119af57506119ae82612189565b5b9050919050565b6119d08282604051806020016040528060008152506121f3565b5050565b6119dd81611ddc565b611a1c576040517f08c379a0000000000000000000000000000000000000000000000000000000008152600401611a139061374e565b60405180910390fd5b50565b600033905090565b816004600083815260200190815260200160002060006101000a81548173ffffffffffffffffffffffffffffffffffffffff021916908373ffffffffffffffffffffffffffffffffffffffff160217905550808273ffffffffffffffffffffffffffffffffffffffff16611a9a836110a0565b73ffffffffffffffffffffffffffffffffffffffff167f8c5be1e5ebec7d5bd14f71427d1e84f3dd0314c0f7b2291e5b200ac8c7c3b92560405160405180910390a45050565b600080611aec836110a0565b90508073ffffffffffffffffffffffffffffffffffffffff168473ffffffffffffffffffffffffffffffffffffffff161480611b2e5750611b2d8185611840565b5b80611b6c57508373ffffffffffffffffffffffffffffffffffffffff16611b548461073e565b73ffffffffffffffffffffffffffffffffffffffff16145b91505092915050565b8273ffffffffffffffffffffffffffffffffffffffff16611b95826110a0565b73ffffffffffffffffffffffffffffffffffffffff1614611beb576040517f08c379a0000000000000000000000000000000000000000000000000000000008152600401611be29061364e565b60405180910390fd5b600073ffffffffffffffffffffffffffffffffffffffff168273ffffffffffffffffffffffffffffffffffffffff161415611c5b576040517f08c379a0000000000000000000000000000000000000000000000000000000008152600401611c529061368e565b60405180910390fd5b611c6683838361224e565b611c71600082611a27565b6001600360008573ffffffffffffffffffffffffffffffffffffffff1673ffffffffffffffffffffffffffffffffffffffff1681526020019081526020016000206000828254611cc191906139c6565b925050819055506001600360008473ffffffffffffffffffffffffffffffffffffffff1673ffffffffffffffffffffffffffffffffffffffff1681526020019081526020016000206000828254611d18919061393f565b92505081905550816002600083815260200190815260200160002060006101000a81548173ffffffffffffffffffffffffffffffffffffffff021916908373ffffffffffffffffffffffffffffffffffffffff160217905550808273ffffffffffffffffffffffffffffffffffffffff168473ffffffffffffffffffffffffffffffffffffffff167fddf252ad1be2c89b69c2b068fc378daa952ba7f163c4a11628f55a4df523b3ef60405160405180910390a4611dd7838383612362565b505050565b60008073ffffffffffffffffffffffffffffffffffffffff166002600084815260200190815260200160002060009054906101000a900473ffffffffffffffffffffffffffffffffffffffff1673ffffffffffffffffffffffffffffffffffffffff1614159050919050565b8173ffffffffffffffffffffffffffffffffffffffff168373ffffffffffffffffffffffffffffffffffffffff161415611eb7576040517f08c379a0000000000000000000000000000000000000000000000000000000008152600401611eae906136ae565b60405180910390fd5b80600560008573ffffffffffffffffffffffffffffffffffffffff1673ffffffffffffffffffffffffffffffffffffffff16815260200190815260200160002060008473ffffffffffffffffffffffffffffffffffffffff1673ffffffffffffffffffffffffffffffffffffffff16815260200190815260200160002060006101000a81548160ff0219169083151502179055508173ffffffffffffffffffffffffffffffffffffffff168373ffffffffffffffffffffffffffffffffffffffff167f17307eab39ab6107e8899845ad3d59bd9653f200f220920489ca2b5937696c3183604051611fa89190613529565b60405180910390a3505050565b611fc0848484611b75565b611fcc84848484612367565b61200b576040517f08c379a00000000000000000000000000000000000000000000000000000000081526004016120029061360e565b60405180910390fd5b50505050565b606060405180602001604052806000815250905090565b60606000821415612070576040518060400160405280600181526020017f30000000000000000000000000000000000000000000000000000000000000008152509050612184565b600082905060005b600082146120a257808061208b90613b38565b915050600a8261209b9190613995565b9150612078565b60008167ffffffffffffffff8111156120be576120bd613ccc565b5b6040519080825280601f01601f1916602001820160405280156120f05781602001600182028036833780820191505090505b5090505b6000851461217d5760018261210991906139c6565b9150600a856121189190613b81565b6030612124919061393f565b60f81b81838151811061213a57612139613c9d565b5b60200101907effffffffffffffffffffffffffffffffffffffffffffffffffffffffffffff1916908160001a905350600a856121769190613995565b94506120f4565b8093505050505b919050565b60007f01ffc9a7000000000000000000000000000000000000000000000000000000007bffffffffffffffffffffffffffffffffffffffffffffffffffffffff1916827bffffffffffffffffffffffffffffffffffffffffffffffffffffffff1916149050919050565b6121fd83836124fe565b61220a6000848484612367565b612249576040517f08c379a00000000000000000000000000000000000000000000000000000000081526004016122409061360e565b60405180910390fd5b505050565b6122598383836126d8565b600073ffffffffffffffffffffffffffffffffffffffff168373ffffffffffffffffffffffffffffffffffffffff16141561229c57612297816126dd565b6122db565b8173ffffffffffffffffffffffffffffffffffffffff168373ffffffffffffffffffffffffffffffffffffffff16146122da576122d98382612726565b5b5b600073ffffffffffffffffffffffffffffffffffffffff168273ffffffffffffffffffffffffffffffffffffffff16141561231e5761231981612893565b61235d565b8273ffffffffffffffffffffffffffffffffffffffff168273ffffffffffffffffffffffffffffffffffffffff161461235c5761235b8282612964565b5b5b505050565b505050565b60006123888473ffffffffffffffffffffffffffffffffffffffff166129e3565b156124f1578373ffffffffffffffffffffffffffffffffffffffff1663150b7a026123b1611a1f565b8786866040518563ffffffff1660e01b81526004016123d394939291906134bb565b602060405180830381600087803b1580156123ed57600080fd5b505af192505050801561241e57506040513d601f19601f8201168201806040525081019061241b9190612e40565b60015b6124a1573d806000811461244e576040519150601f19603f3d011682016040523d82523d6000602084013e612453565b606091505b50600081511415612499576040517f08c379a00000000000000000000000000000000000000000000000000000000081526004016124909061360e565b60405180910390fd5b805181602001fd5b63150b7a0260e01b7bffffffffffffffffffffffffffffffffffffffffffffffffffffffff1916817bffffffffffffffffffffffffffffffffffffffffffffffffffffffff1916149150506124f6565b600190505b949350505050565b600073ffffffffffffffffffffffffffffffffffffffff168273ffffffffffffffffffffffffffffffffffffffff16141561256e576040517f08c379a00000000000000000000000000000000000000000000000000000000081526004016125659061370e565b60405180910390fd5b61257781611ddc565b156125b7576040517f08c379a00000000000000000000000000000000000000000000000000000000081526004016125ae9061366e565b60405180910390fd5b6125c36000838361224e565b6001600360008473ffffffffffffffffffffffffffffffffffffffff1673ffffffffffffffffffffffffffffffffffffffff1681526020019081526020016000206000828254612613919061393f565b92505081905550816002600083815260200190815260200160002060006101000a81548173ffffffffffffffffffffffffffffffffffffffff021916908373ffffffffffffffffffffffffffffffffffffffff160217905550808273ffffffffffffffffffffffffffffffffffffffff16600073ffffffffffffffffffffffffffffffffffffffff167fddf252ad1be2c89b69c2b068fc378daa952ba7f163c4a11628f55a4df523b3ef60405160405180910390a46126d460008383612362565b5050565b505050565b6008805490506009600083815260200190815260200160002081905550600881908060018154018082558091505060019003906000526020600020016000909190919091505550565b6000600161273384611152565b61273d91906139c6565b9050600060076000848152602001908152602001600020549050818114612822576000600660008673ffffffffffffffffffffffffffffffffffffffff1673ffffffffffffffffffffffffffffffffffffffff168152602001908152602001600020600084815260200190815260200160002054905080600660008773ffffffffffffffffffffffffffffffffffffffff1673ffffffffffffffffffffffffffffffffffffffff168152602001908152602001600020600084815260200190815260200160002081905550816007600083815260200190815260200160002081905550505b6007600084815260200190815260200160002060009055600660008573ffffffffffffffffffffffffffffffffffffffff1673ffffffffffffffffffffffffffffffffffffffff16815260200190815260200160002060008381526020019081526020016000206000905550505050565b600060016008805490506128a791906139c6565b90506000600960008481526020019081526020016000205490506000600883815481106128d7576128d6613c9d565b5b9060005260206000200154905080600883815481106128f9576128f8613c9d565b5b90600052602060002001819055508160096000838152602001908152602001600020819055506009600085815260200190815260200160002060009055600880548061294857612947613c6e565b5b6001900381819060005260206000200160009055905550505050565b600061296f83611152565b905081600660008573ffffffffffffffffffffffffffffffffffffffff1673ffffffffffffffffffffffffffffffffffffffff168152602001908152602001600020600083815260200190815260200160002081905550806007600084815260200190815260200160002081905550505050565b6000808273ffffffffffffffffffffffffffffffffffffffff163b119050919050565b828054612a1290613ad5565b90600052602060002090601f016020900481019282612a345760008555612a7b565b82601f10612a4d57805160ff1916838001178555612a7b565b82800160010185558215612a7b579182015b82811115612a7a578251825591602001919060010190612a5f565b5b509050612a889190612aea565b5090565b6040518060c001604052806060815260200160006003811115612ab257612ab1613c10565b5b8152602001600073ffffffffffffffffffffffffffffffffffffffff1681526020016000815260200160008152602001600081525090565b5b80821115612b03576000816000905550600101612aeb565b5090565b6000612b1a612b1584613850565b61382b565b905082815260208101848484011115612b3657612b35613d00565b5b612b41848285613a93565b509392505050565b6000612b5c612b5784613881565b61382b565b905082815260208101848484011115612b7857612b77613d00565b5b612b83848285613a93565b509392505050565b600081359050612b9a81614143565b92915050565b600081359050612baf8161415a565b92915050565b600081359050612bc481614171565b92915050565b600081519050612bd981614171565b92915050565b600082601f830112612bf457612bf3613cfb565b5b8135612c04848260208601612b07565b91505092915050565b600082601f830112612c2257612c21613cfb565b5b8135612c32848260208601612b49565b91505092915050565b600081359050612c4a81614188565b92915050565b600060208284031215612c6657612c65613d0a565b5b6000612c7484828501612b8b565b91505092915050565b60008060408385031215612c9457612c93613d0a565b5b6000612ca285828601612b8b565b9250506020612cb385828601612b8b565b9150509250929050565b600080600060608486031215612cd657612cd5613d0a565b5b6000612ce486828701612b8b565b9350506020612cf586828701612b8b565b9250506040612d0686828701612c3b565b9150509250925092565b60008060008060808587031215612d2a57612d29613d0a565b5b6000612d3887828801612b8b565b9450506020612d4987828801612b8b565b9350506040612d5a87828801612c3b565b925050606085013567ffffffffffffffff811115612d7b57612d7a613d05565b5b612d8787828801612bdf565b91505092959194509250565b60008060408385031215612daa57612da9613d0a565b5b6000612db885828601612b8b565b9250506020612dc985828601612ba0565b9150509250929050565b60008060408385031215612dea57612de9613d0a565b5b6000612df885828601612b8b565b9250506020612e0985828601612c3b565b9150509250929050565b600060208284031215612e2957612e28613d0a565b5b6000612e3784828501612bb5565b91505092915050565b600060208284031215612e5657612e55613d0a565b5b6000612e6484828501612bca565b91505092915050565b600080600060608486031215612e8657612e85613d0a565b5b600084013567ffffffffffffffff811115612ea457612ea3613d05565b5b612eb086828701612c0d565b9350506020612ec186828701612c3b565b9250506040612ed286828701612c3b565b9150509250925092565b600060208284031215612ef257612ef1613d0a565b5b6000612f0084828501612c3b565b91505092915050565b60008060408385031215612f2057612f1f613d0a565b5b6000612f2e85828601612c3b565b9250506020612f3f85828601612b8b565b9150509250929050565b6000612f55838361334c565b905092915050565b612f66816139fa565b82525050565b612f75816139fa565b82525050565b6000612f86826138c2565b612f9081856138f0565b935083602082028501612fa2856138b2565b8060005b85811015612fde5784840389528151612fbf8582612f49565b9450612fca836138e3565b925060208a01995050600181019050612fa6565b50829750879550505050505092915050565b612ff981613a0c565b82525050565b600061300a826138cd565b6130148185613901565b9350613024818560208601613aa2565b61302d81613d0f565b840191505092915050565b61304181613a81565b82525050565b61305081613a81565b82525050565b6000613061826138d8565b61306b8185613912565b935061307b818560208601613aa2565b61308481613d0f565b840191505092915050565b600061309a826138d8565b6130a48185613923565b93506130b4818560208601613aa2565b6130bd81613d0f565b840191505092915050565b60006130d3826138d8565b6130dd8185613934565b93506130ed818560208601613aa2565b80840191505092915050565b6000613106600f83613923565b915061311182613d20565b602082019050919050565b6000613129602b83613923565b915061313482613d49565b604082019050919050565b600061314c603283613923565b915061315782613d98565b604082019050919050565b600061316f601e83613923565b915061317a82613de7565b602082019050919050565b6000613192602583613923565b915061319d82613e10565b604082019050919050565b60006131b5601c83613923565b91506131c082613e5f565b602082019050919050565b60006131d8602483613923565b91506131e382613e88565b604082019050919050565b60006131fb601983613923565b915061320682613ed7565b602082019050919050565b600061321e602983613923565b915061322982613f00565b604082019050919050565b6000613241603e83613923565b915061324c82613f4f565b604082019050919050565b6000613264602083613923565b915061326f82613f9e565b602082019050919050565b6000613287600e83613923565b915061329282613fc7565b602082019050919050565b60006132aa601883613923565b91506132b582613ff0565b602082019050919050565b60006132cd602183613923565b91506132d882614019565b604082019050919050565b60006132f0601983613923565b91506132fb82614068565b602082019050919050565b6000613313602c83613923565b915061331e82614091565b604082019050919050565b6000613336602e83613923565b9150613341826140e0565b604082019050919050565b600060c08301600083015184820360008601526133698282613056565b915050602083015161337e6020860182613038565b5060408301516133916040860182612f5d565b5060608301516133a4606086018261345e565b5060808301516133b7608086018261345e565b5060a08301516133ca60a086018261345e565b508091505092915050565b600060c08301600083015184820360008601526133f28282613056565b91505060208301516134076020860182613038565b50604083015161341a6040860182612f5d565b50606083015161342d606086018261345e565b506080830151613440608086018261345e565b5060a083015161345360a086018261345e565b508091505092915050565b61346781613a77565b82525050565b61347681613a77565b82525050565b600061348882856130c8565b915061349482846130c8565b91508190509392505050565b60006020820190506134b56000830184612f6c565b92915050565b60006080820190506134d06000830187612f6c565b6134dd6020830186612f6c565b6134ea604083018561346d565b81810360608301526134fc8184612fff565b905095945050505050565b600060208201905081810360008301526135218184612f7b565b905092915050565b600060208201905061353e6000830184612ff0565b92915050565b6000602082019050818103600083015261355e818461308f565b905092915050565b600060c0820190508181036000830152613580818961308f565b905061358f6020830188613047565b61359c6040830187612f6c565b6135a9606083018661346d565b6135b6608083018561346d565b6135c360a083018461346d565b979650505050505050565b600060208201905081810360008301526135e7816130f9565b9050919050565b600060208201905081810360008301526136078161311c565b9050919050565b600060208201905081810360008301526136278161313f565b9050919050565b6000602082019050818103600083015261364781613162565b9050919050565b6000602082019050818103600083015261366781613185565b9050919050565b60006020820190508181036000830152613687816131a8565b9050919050565b600060208201905081810360008301526136a7816131cb565b9050919050565b600060208201905081810360008301526136c7816131ee565b9050919050565b600060208201905081810360008301526136e781613211565b9050919050565b6000602082019050818103600083015261370781613234565b9050919050565b6000602082019050818103600083015261372781613257565b9050919050565b600060208201905081810360008301526137478161327a565b9050919050565b600060208201905081810360008301526137678161329d565b9050919050565b60006020820190508181036000830152613787816132c0565b9050919050565b600060208201905081810360008301526137a7816132e3565b9050919050565b600060208201905081810360008301526137c781613306565b9050919050565b600060208201905081810360008301526137e781613329565b9050919050565b6000602082019050818103600083015261380881846133d5565b905092915050565b6000602082019050613825600083018461346d565b92915050565b6000613835613846565b90506138418282613b07565b919050565b6000604051905090565b600067ffffffffffffffff82111561386b5761386a613ccc565b5b61387482613d0f565b9050602081019050919050565b600067ffffffffffffffff82111561389c5761389b613ccc565b5b6138a582613d0f565b9050602081019050919050565b6000819050602082019050919050565b600081519050919050565b600081519050919050565b600081519050919050565b6000602082019050919050565b600082825260208201905092915050565b600082825260208201905092915050565b600082825260208201905092915050565b600082825260208201905092915050565b600081905092915050565b600061394a82613a77565b915061395583613a77565b9250827fffffffffffffffffffffffffffffffffffffffffffffffffffffffffffffffff0382111561398a57613989613bb2565b5b828201905092915050565b60006139a082613a77565b91506139ab83613a77565b9250826139bb576139ba613be1565b5b828204905092915050565b60006139d182613a77565b91506139dc83613a77565b9250828210156139ef576139ee613bb2565b5b828203905092915050565b6000613a0582613a57565b9050919050565b60008115159050919050565b60007fffffffff0000000000000000000000000000000000000000000000000000000082169050919050565b6000819050613a528261412f565b919050565b600073ffffffffffffffffffffffffffffffffffffffff82169050919050565b6000819050919050565b6000613a8c82613a44565b9050919050565b82818337600083830152505050565b60005b83811015613ac0578082015181840152602081019050613aa5565b83811115613acf576000848401525b50505050565b60006002820490506001821680613aed57607f821691505b60208210811415613b0157613b00613c3f565b5b50919050565b613b1082613d0f565b810181811067ffffffffffffffff82111715613b2f57613b2e613ccc565b5b80604052505050565b6000613b4382613a77565b91507fffffffffffffffffffffffffffffffffffffffffffffffffffffffffffffffff821415613b7657613b75613bb2565b5b600182019050919050565b6000613b8c82613a77565b9150613b9783613a77565b925082613ba757613ba6613be1565b5b828206905092915050565b7f4e487b7100000000000000000000000000000000000000000000000000000000600052601160045260246000fd5b7f4e487b7100000000000000000000000000000000000000000000000000000000600052601260045260246000fd5b7f4e487b7100000000000000000000000000000000000000000000000000000000600052602160045260246000fd5b7f4e487b7100000000000000000000000000000000000000000000000000000000600052602260045260246000fd5b7f4e487b7100000000000000000000000000000000000000000000000000000000600052603160045260246000fd5b7f4e487b7100000000000000000000000000000000000000000000000000000000600052603260045260246000fd5b7f4e487b7100000000000000000000000000000000000000000000000000000000600052604160045260246000fd5b600080fd5b600080fd5b600080fd5b600080fd5b6000601f19601f8301169050919050565b7f496e76616c696420616464726573730000000000000000000000000000000000600082015250565b7f455243373231456e756d657261626c653a206f776e657220696e646578206f7560008201527f74206f6620626f756e6473000000000000000000000000000000000000000000602082015250565b7f4552433732313a207472616e7366657220746f206e6f6e20455243373231526560008201527f63656976657220696d706c656d656e7465720000000000000000000000000000602082015250565b7f43757272656e74207461736b20616c72656164792061737369676e65642e0000600082015250565b7f4552433732313a207472616e736665722066726f6d20696e636f72726563742060008201527f6f776e6572000000000000000000000000000000000000000000000000000000602082015250565b7f4552433732313a20746f6b656e20616c7265616479206d696e74656400000000600082015250565b7f4552433732313a207472616e7366657220746f20746865207a65726f2061646460008201527f7265737300000000000000000000000000000000000000000000000000000000602082015250565b7f4552433732313a20617070726f766520746f2063616c6c657200000000000000600082015250565b7f4552433732313a2061646472657373207a65726f206973206e6f74206120766160008201527f6c6964206f776e65720000000000000000000000000000000000000000000000602082015250565b7f4552433732313a20617070726f76652063616c6c6572206973206e6f7420746f60008201527f6b656e206f776e6572206e6f7220617070726f76656420666f7220616c6c0000602082015250565b7f4552433732313a206d696e7420746f20746865207a65726f2061646472657373600082015250565b7f5461736b206e6f7420666f756e64000000000000000000000000000000000000600082015250565b7f4552433732313a20696e76616c696420746f6b656e2049440000000000000000600082015250565b7f4552433732313a20617070726f76616c20746f2063757272656e74206f776e6560008201527f7200000000000000000000000000000000000000000000000000000000000000602082015250565b7f496e636f7272656374206275696c646572206164647265737300000000000000600082015250565b7f455243373231456e756d657261626c653a20676c6f62616c20696e646578206f60008201527f7574206f6620626f756e64730000000000000000000000000000000000000000602082015250565b7f4552433732313a2063616c6c6572206973206e6f7420746f6b656e206f776e6560008201527f72206e6f7220617070726f766564000000000000000000000000000000000000602082015250565b600481106141405761413f613c10565b5b50565b61414c816139fa565b811461415757600080fd5b50565b61416381613a0c565b811461416e57600080fd5b50565b61417a81613a18565b811461418557600080fd5b50565b61419181613a77565b811461419c57600080fd5b5056fea2646970667358221220f7ab933ebe67a5d0fad7125d5d5ba51d3397b4a98cee6a7a7f247b31682bd98064736f6c63430008070033",
  "linkReferences": {},
  "deployedLinkReferences": {}
}