{
  "_format": "hh-sol-artifact-1",
  "contractName": "Task",
  "sourceName": "contracts/Task.sol",
  "abi": [
    {
      "inputs": [
        {
          "internalType": "address",
          "name": "_usdc_address",
          "type": "address"
        },
        {
          "internalType": "address",
          "name": "_fndr_address",
          "type": "address"
        },
        {
          "internalType": "address",
          "name": "_profileManageAddress",
          "type": "address"
        },
        {
          "internalType": "address",
          "name": "_projectManageAddress",
          "type": "address"
        }
      ],
      "stateMutability": "nonpayable",
      "type": "constructor"
    },
    {
      "anonymous": false,
      "inputs": [
        {
          "indexed": true,
          "internalType": "address",
          "name": "owner",
          "type": "address"
        },
        {
          "indexed": true,
          "internalType": "address",
          "name": "approved",
          "type": "address"
        },
        {
          "indexed": true,
          "internalType": "uint256",
          "name": "tokenId",
          "type": "uint256"
        }
      ],
      "name": "Approval",
      "type": "event"
    },
    {
      "anonymous": false,
      "inputs": [
        {
          "indexed": true,
          "internalType": "address",
          "name": "owner",
          "type": "address"
        },
        {
          "indexed": true,
          "internalType": "address",
          "name": "operator",
          "type": "address"
        },
        {
          "indexed": false,
          "internalType": "bool",
          "name": "approved",
          "type": "bool"
        }
      ],
      "name": "ApprovalForAll",
      "type": "event"
    },
    {
      "anonymous": false,
      "inputs": [
        {
          "indexed": false,
          "internalType": "address",
          "name": "founderAddress",
          "type": "address"
        },
        {
          "indexed": false,
          "internalType": "address",
          "name": "builderAddress",
          "type": "address"
        },
        {
          "indexed": false,
          "internalType": "uint256",
          "name": "usdc",
          "type": "uint256"
        }
      ],
      "name": "TaskCompleted",
      "type": "event"
    },
    {
      "anonymous": false,
      "inputs": [
        {
          "indexed": false,
          "internalType": "address",
          "name": "builderAddress",
          "type": "address"
        },
        {
          "indexed": false,
          "internalType": "uint256",
          "name": "taskId",
          "type": "uint256"
        }
      ],
      "name": "TaskCreated",
      "type": "event"
    },
    {
      "anonymous": false,
      "inputs": [
        {
          "indexed": true,
          "internalType": "address",
          "name": "from",
          "type": "address"
        },
        {
          "indexed": true,
          "internalType": "address",
          "name": "to",
          "type": "address"
        },
        {
          "indexed": true,
          "internalType": "uint256",
          "name": "tokenId",
          "type": "uint256"
        }
      ],
      "name": "Transfer",
      "type": "event"
    },
    {
      "inputs": [],
      "name": "USDCtoken",
      "outputs": [
        {
          "internalType": "contract IERC20",
          "name": "",
          "type": "address"
        }
      ],
      "stateMutability": "view",
      "type": "function"
    },
    {
      "inputs": [
        {
          "internalType": "uint256",
          "name": "_taskId",
          "type": "uint256"
        }
      ],
      "name": "agreeCancellationByBuilder",
      "outputs": [],
      "stateMutability": "nonpayable",
      "type": "function"
    },
    {
      "inputs": [
        {
          "internalType": "address",
          "name": "to",
          "type": "address"
        },
        {
          "internalType": "uint256",
          "name": "tokenId",
          "type": "uint256"
        }
      ],
      "name": "approve",
      "outputs": [],
      "stateMutability": "nonpayable",
      "type": "function"
    },
    {
      "inputs": [
        {
          "internalType": "address",
          "name": "owner",
          "type": "address"
        }
      ],
      "name": "balanceOf",
      "outputs": [
        {
          "internalType": "uint256",
          "name": "",
          "type": "uint256"
        }
      ],
      "stateMutability": "view",
      "type": "function"
    },
    {
      "inputs": [
        {
          "internalType": "uint256",
          "name": "_difficulty",
          "type": "uint256"
        },
        {
          "internalType": "address",
          "name": "_builderProfileAddress",
          "type": "address"
        }
      ],
      "name": "calculateXP",
      "outputs": [
        {
          "internalType": "uint256",
          "name": "",
          "type": "uint256"
        }
      ],
      "stateMutability": "view",
      "type": "function"
    },
    {
      "inputs": [
        {
          "internalType": "uint256",
          "name": "_taskId",
          "type": "uint256"
        }
      ],
      "name": "cancelTask",
      "outputs": [],
      "stateMutability": "nonpayable",
      "type": "function"
    },
    {
      "inputs": [
        {
          "internalType": "uint256",
          "name": "_taskId",
          "type": "uint256"
        }
      ],
      "name": "checkTaskId",
      "outputs": [
        {
          "internalType": "bool",
          "name": "",
          "type": "bool"
        }
      ],
      "stateMutability": "view",
      "type": "function"
    },
    {
      "inputs": [
        {
          "internalType": "uint256",
          "name": "_taskId",
          "type": "uint256"
        },
        {
          "internalType": "uint256",
          "name": "_amount",
          "type": "uint256"
        }
      ],
      "name": "commitToTask",
      "outputs": [],
      "stateMutability": "nonpayable",
      "type": "function"
    },
    {
      "inputs": [
        {
          "internalType": "uint256",
          "name": "_taskId",
          "type": "uint256"
        }
      ],
      "name": "completeTask",
      "outputs": [],
      "stateMutability": "nonpayable",
      "type": "function"
    },
    {
      "inputs": [
        {
          "internalType": "address",
          "name": "_projectAddress",
          "type": "address"
        },
        {
          "internalType": "address",
          "name": "_builderAddress",
          "type": "address"
        },
        {
          "internalType": "string",
          "name": "_name",
          "type": "string"
        },
        {
          "internalType": "uint256",
          "name": "_usdc",
          "type": "uint256"
        },
        {
          "internalType": "uint256",
          "name": "_xp",
          "type": "uint256"
        },
        {
          "internalType": "uint256",
          "name": "_difficulty",
          "type": "uint256"
        }
      ],
      "name": "createTask",
      "outputs": [],
      "stateMutability": "nonpayable",
      "type": "function"
    },
    {
      "inputs": [
        {
          "internalType": "uint256",
          "name": "tokenId",
          "type": "uint256"
        }
      ],
      "name": "getApproved",
      "outputs": [
        {
          "internalType": "address",
          "name": "",
          "type": "address"
        }
      ],
      "stateMutability": "view",
      "type": "function"
    },
    {
      "inputs": [
        {
          "internalType": "uint256",
          "name": "_tokenId",
          "type": "uint256"
        }
      ],
      "name": "getTaskById",
      "outputs": [
        {
          "components": [
            {
              "internalType": "string",
              "name": "name",
              "type": "string"
            },
            {
              "internalType": "enum Task.State",
              "name": "currentState",
              "type": "uint8"
            },
            {
              "internalType": "address",
              "name": "projectAddress",
              "type": "address"
            },
            {
              "internalType": "address",
              "name": "founderAddress",
              "type": "address"
            },
            {
              "internalType": "address",
              "name": "builderAddress",
              "type": "address"
            },
            {
              "internalType": "uint256",
              "name": "usdc_amount",
              "type": "uint256"
            },
            {
              "internalType": "uint256",
              "name": "fndr_amount",
              "type": "uint256"
            },
            {
              "internalType": "uint256",
              "name": "xp",
              "type": "uint256"
            },
            {
              "internalType": "bool",
              "name": "isBuilderAgreed",
              "type": "bool"
            }
          ],
          "internalType": "struct Task.TaskInfo",
          "name": "",
          "type": "tuple"
        }
      ],
      "stateMutability": "view",
      "type": "function"
    },
    {
      "inputs": [
        {
          "internalType": "uint256",
          "name": "",
          "type": "uint256"
        }
      ],
      "name": "idToTask",
      "outputs": [
        {
          "internalType": "string",
          "name": "name",
          "type": "string"
        },
        {
          "internalType": "enum Task.State",
          "name": "currentState",
          "type": "uint8"
        },
        {
          "internalType": "address",
          "name": "projectAddress",
          "type": "address"
        },
        {
          "internalType": "address",
          "name": "founderAddress",
          "type": "address"
        },
        {
          "internalType": "address",
          "name": "builderAddress",
          "type": "address"
        },
        {
          "internalType": "uint256",
          "name": "usdc_amount",
          "type": "uint256"
        },
        {
          "internalType": "uint256",
          "name": "fndr_amount",
          "type": "uint256"
        },
        {
          "internalType": "uint256",
          "name": "xp",
          "type": "uint256"
        },
        {
          "internalType": "bool",
          "name": "isBuilderAgreed",
          "type": "bool"
        }
      ],
      "stateMutability": "view",
      "type": "function"
    },
    {
      "inputs": [
        {
          "internalType": "address",
          "name": "owner",
          "type": "address"
        },
        {
          "internalType": "address",
          "name": "operator",
          "type": "address"
        }
      ],
      "name": "isApprovedForAll",
      "outputs": [
        {
          "internalType": "bool",
          "name": "",
          "type": "bool"
        }
      ],
      "stateMutability": "view",
      "type": "function"
    },
    {
      "inputs": [],
      "name": "name",
      "outputs": [
        {
          "internalType": "string",
          "name": "",
          "type": "string"
        }
      ],
      "stateMutability": "view",
      "type": "function"
    },
    {
      "inputs": [
        {
          "internalType": "uint256",
          "name": "tokenId",
          "type": "uint256"
        }
      ],
      "name": "ownerOf",
      "outputs": [
        {
          "internalType": "address",
          "name": "",
          "type": "address"
        }
      ],
      "stateMutability": "view",
      "type": "function"
    },
    {
      "inputs": [
        {
          "internalType": "address",
          "name": "from",
          "type": "address"
        },
        {
          "internalType": "address",
          "name": "to",
          "type": "address"
        },
        {
          "internalType": "uint256",
          "name": "tokenId",
          "type": "uint256"
        }
      ],
      "name": "safeTransferFrom",
      "outputs": [],
      "stateMutability": "nonpayable",
      "type": "function"
    },
    {
      "inputs": [
        {
          "internalType": "address",
          "name": "from",
          "type": "address"
        },
        {
          "internalType": "address",
          "name": "to",
          "type": "address"
        },
        {
          "internalType": "uint256",
          "name": "tokenId",
          "type": "uint256"
        },
        {
          "internalType": "bytes",
          "name": "data",
          "type": "bytes"
        }
      ],
      "name": "safeTransferFrom",
      "outputs": [],
      "stateMutability": "nonpayable",
      "type": "function"
    },
    {
      "inputs": [
        {
          "internalType": "address",
          "name": "operator",
          "type": "address"
        },
        {
          "internalType": "bool",
          "name": "approved",
          "type": "bool"
        }
      ],
      "name": "setApprovalForAll",
      "outputs": [],
      "stateMutability": "nonpayable",
      "type": "function"
    },
    {
      "inputs": [
        {
          "internalType": "bytes4",
          "name": "interfaceId",
          "type": "bytes4"
        }
      ],
      "name": "supportsInterface",
      "outputs": [
        {
          "internalType": "bool",
          "name": "",
          "type": "bool"
        }
      ],
      "stateMutability": "view",
      "type": "function"
    },
    {
      "inputs": [],
      "name": "symbol",
      "outputs": [
        {
          "internalType": "string",
          "name": "",
          "type": "string"
        }
      ],
      "stateMutability": "view",
      "type": "function"
    },
    {
      "inputs": [
        {
          "internalType": "uint256",
          "name": "index",
          "type": "uint256"
        }
      ],
      "name": "tokenByIndex",
      "outputs": [
        {
          "internalType": "uint256",
          "name": "",
          "type": "uint256"
        }
      ],
      "stateMutability": "view",
      "type": "function"
    },
    {
      "inputs": [
        {
          "internalType": "address",
          "name": "owner",
          "type": "address"
        },
        {
          "internalType": "uint256",
          "name": "index",
          "type": "uint256"
        }
      ],
      "name": "tokenOfOwnerByIndex",
      "outputs": [
        {
          "internalType": "uint256",
          "name": "",
          "type": "uint256"
        }
      ],
      "stateMutability": "view",
      "type": "function"
    },
    {
      "inputs": [
        {
          "internalType": "uint256",
          "name": "tokenId",
          "type": "uint256"
        }
      ],
      "name": "tokenURI",
      "outputs": [
        {
          "internalType": "string",
          "name": "",
          "type": "string"
        }
      ],
      "stateMutability": "view",
      "type": "function"
    },
    {
      "inputs": [],
      "name": "totalSupply",
      "outputs": [
        {
          "internalType": "uint256",
          "name": "",
          "type": "uint256"
        }
      ],
      "stateMutability": "view",
      "type": "function"
    },
    {
      "inputs": [
        {
          "internalType": "address",
          "name": "from",
          "type": "address"
        },
        {
          "internalType": "address",
          "name": "to",
          "type": "address"
        },
        {
          "internalType": "uint256",
          "name": "tokenId",
          "type": "uint256"
        }
      ],
      "name": "transferFrom",
      "outputs": [],
      "stateMutability": "nonpayable",
      "type": "function"
    }
  ],
  "bytecode": "0x6080604052600c80546001600160a01b0319908116735ee8d1b65942116da65700849d65cc839e38cc5e17909155600d8054821673b5c051088e47d8d69824bac79499f90042341d02179055600e80549091167364e92a7b43f4395f8c731b8932c9677a829f642b179055600f80547401af269459b32bb2d5c46483c3dee571c671ca0fd56001600160a81b0319909116179055348015620000a057600080fd5b506040516200372338038062003723833981016040819052620000c39162000241565b604080518082018252600c81526b4275696c646572205461736b60a01b6020808301918252835180850190945260048452635461736b60e01b90840152815191929162000113916000916200017e565b508051620001299060019060208401906200017e565b5050600b80546001600160a01b03199081166001600160a01b0397881617909155600d805482169487169490941790935550600e80548316918516919091179055600f805490911691909216179055620002db565b8280546200018c906200029e565b90600052602060002090601f016020900481019282620001b05760008555620001fb565b82601f10620001cb57805160ff1916838001178555620001fb565b82800160010185558215620001fb579182015b82811115620001fb578251825591602001919060010190620001de565b50620002099291506200020d565b5090565b5b808211156200020957600081556001016200020e565b80516001600160a01b03811681146200023c57600080fd5b919050565b600080600080608085870312156200025857600080fd5b620002638562000224565b9350620002736020860162000224565b9250620002836040860162000224565b9150620002936060860162000224565b905092959194509250565b600181811c90821680620002b357607f821691505b60208210811415620002d557634e487b7160e01b600052602260045260246000fd5b50919050565b61343880620002eb6000396000f3fe608060405234801561001057600080fd5b506004361061018e5760003560e01c80636352211e116100de578063a22cb46511610097578063c87b56dd11610071578063c87b56dd1461037c578063e1e295581461038f578063e985e9c5146103a2578063ec9abea2146103de57600080fd5b8063a22cb46514610343578063b88d4fde14610356578063c7945cff1461036957600080fd5b80636352211e146102cf57806370a08231146102e25780637eec20a8146102f55780638c02263b1461030857806395d89b411461031b578063976217cd1461032357600080fd5b80631c8187a61161014b5780632f745c59116101255780632f745c59146102835780634185e5071461029657806342842e0e146102a95780634f6ccce7146102bc57600080fd5b80631c8187a61461023557806323b872dd1461025d5780632eafc5301461027057600080fd5b806301ffc9a71461019357806306fdde03146101bb578063072bd7ee146101d0578063081812fc146101e5578063095ea7b31461021057806318160ddd14610223575b600080fd5b6101a66101a1366004612dd0565b6103f1565b60405190151581526020015b60405180910390f35b6101c361041c565b6040516101b29190612f3d565b6101e36101de366004612b59565b6104ae565b005b6101f86101f3366004612e0a565b610ade565b6040516001600160a01b0390911681526020016101b2565b6101e361021e366004612cda565b610b05565b6008545b6040519081526020016101b2565b610248610243366004612e0a565b610c1b565b6040516101b299989796959493929190612f50565b6101e361026b366004612beb565b610d02565b6101e361027e366004612e0a565b610d33565b610227610291366004612cda565b610e65565b600b546101f8906001600160a01b031681565b6101e36102b7366004612beb565b610efb565b6102276102ca366004612e0a565b610f16565b6101f86102dd366004612e0a565b610fa9565b6102276102f0366004612ae6565b611009565b6101e3610303366004612e0a565b61108f565b6101a6610316366004612e0a565b6113d3565b6101c36113de565b610336610331366004612e0a565b6113ed565b6040516101b29190613082565b6101e3610351366004612cac565b6115a8565b6101e3610364366004612c2c565b6115b7565b6101e3610377366004612e61565b6115ef565b6101c361038a366004612e0a565b611866565b6101e361039d366004612e0a565b6118da565b6101a66103b0366004612b20565b6001600160a01b03918216600090815260056020908152604080832093909416825291909152205460ff1690565b6102276103ec366004612e3c565b611e12565b60006001600160e01b0319821663780e9d6360e01b1480610416575061041682611f5b565b92915050565b60606000805461042b906132e1565b80601f0160208091040260200160405190810160405280929190818152602001828054610457906132e1565b80156104a45780601f10610479576101008083540402835291602001916104a4565b820191906000526020600020905b81548152906001019060200180831161048757829003601f168201915b5050505050905090565b85836000826001600160a01b031663235eee1d6040518163ffffffff1660e01b815260040160206040518083038186803b1580156104eb57600080fd5b505afa1580156104ff573d6000803e3d6000fd5b505050506040513d601f19601f820116820180604052508101906105239190612e23565b90506000836001600160a01b031663bcd148056040518163ffffffff1660e01b815260040160006040518083038186803b15801561056057600080fd5b505afa158015610574573d6000803e3d6000fd5b505050506040513d6000823e601f3d908101601f1916820160405261059c9190810190612d06565b90506000805b82518110156105fa57601060008483815181106105c1576105c161339d565b6020026020010151815260200190815260200160002060040154826105e69190613165565b9150806105f281613316565b9150506105a2565b5083610606828561329e565b101561066a5760405162461bcd60e51b815260206004820152602860248201527f546f74616c207461736b2062756467657420657863656564732070726f6a65636044820152671d08189d5919d95d60c21b60648201526084015b60405180910390fd5b600e546040516323a30b2360e01b81526001600160a01b03808e1660048301528d926000929116906323a30b239060240160206040518083038186803b1580156106b357600080fd5b505afa1580156106c7573d6000803e3d6000fd5b505050506040513d601f19601f820116820180604052508101906106eb9190612b03565b90506001600160a01b038116331461075f5760405162461bcd60e51b815260206004820152603160248201527f4f6e6c792070726f6a656374277320666f756e6465722063616e206372656174604482015270329030903a30b9b59037b71031b430b4b760791b6064820152608401610661565b600d5460405163593c6e0d60e01b81526001600160a01b038e81166004830152600092169063593c6e0d9060240160206040518083038186803b1580156107a557600080fd5b505afa1580156107b9573d6000803e3d6000fd5b505050506040513d601f19601f820116820180604052508101906107dd9190612b03565b90506001600160a01b0381166108455760405162461bcd60e51b815260206004820152602760248201527f4275696c6465722070726f66696c6520646f6573206e6f74206578697374206f604482015266371031b430b4b760c91b6064820152608401610661565b6000891180156108555750600689105b6108a15760405162461bcd60e51b815260206004820152601760248201527f496e76616c6964207461736b20646966666963756c74790000000000000000006044820152606401610661565b6108ab8982611e12565b8a146108e65760405162461bcd60e51b815260206004820152600a6024820152690496e76616c69642058560b41b6044820152606401610661565b600f805460ff60a01b19169055610901600a80546001019055565b6109138d61090e600a5490565b611fab565b6040805161012081019091528c815260208101600081526020018f6001600160a01b03168152602001336001600160a01b031681526020018e6001600160a01b031681526020018c8152602001600081526020018b81526020016000151581525060106000610981600a5490565b81526020808201929092526040016000208251805191926109a7928492909101906129f5565b50602082015160018083018054909160ff19909116908360038111156109cf576109cf613371565b021790555060408201516001820180546001600160a01b03928316610100908102610100600160a81b03199092169190911790915560608401516002840180549184166001600160a01b031992831617905560808501516003850180549190941691161790915560a0830151600483015560c0830151600583015560e08301516006830155909101516007909101805491151560ff19909216919091179055600f805460ff60a01b1916600160a01b1790557fb1c0ef93ef5afc0800a5789b004fdaf5931873276c7ccb409e7d1a310906886a8d610aac600a5490565b604080516001600160a01b03909316835260208301919091520160405180910390a15050505050505050505050505050565b6000610ae982611fc5565b506000908152600460205260409020546001600160a01b031690565b6000610b1082610fa9565b9050806001600160a01b0316836001600160a01b03161415610b7e5760405162461bcd60e51b815260206004820152602160248201527f4552433732313a20617070726f76616c20746f2063757272656e74206f776e656044820152603960f91b6064820152608401610661565b336001600160a01b0382161480610b9a5750610b9a81336103b0565b610c0c5760405162461bcd60e51b815260206004820152603e60248201527f4552433732313a20617070726f76652063616c6c6572206973206e6f7420746f60448201527f6b656e206f776e6572206e6f7220617070726f76656420666f7220616c6c00006064820152608401610661565b610c168383612018565b505050565b601060205260009081526040902080548190610c36906132e1565b80601f0160208091040260200160405190810160405280929190818152602001828054610c62906132e1565b8015610caf5780601f10610c8457610100808354040283529160200191610caf565b820191906000526020600020905b815481529060010190602001808311610c9257829003601f168201915b505050600184015460028501546003860154600487015460058801546006890154600790990154979860ff808716996001600160a01b036101009098048816995095871697509390951694919390921689565b610d0c3382612086565b610d285760405162461bcd60e51b815260040161066190613034565b610c16838383612105565b80610d3d816122ac565b610d595760405162461bcd60e51b81526004016106619061300c565b6000828152601060205260409020600301546001600160a01b03163314610ddc5760405162461bcd60e51b815260206004820152603160248201527f4f6e6c79206163636570746564206275696c6465722063616e206167726565206044820152703a30b9b59031b0b731b2b63630ba34b7b760791b6064820152608401610661565b600160008381526010602052604090206001015460ff166003811115610e0457610e04613371565b14610e465760405162461bcd60e51b8152602060048201526012602482015271496e76616c6964207461736b20737461746560701b6044820152606401610661565b506000908152601060205260409020600701805460ff19166001179055565b6000610e7083611009565b8210610ed25760405162461bcd60e51b815260206004820152602b60248201527f455243373231456e756d657261626c653a206f776e657220696e646578206f7560448201526a74206f6620626f756e647360a81b6064820152608401610661565b506001600160a01b03919091166000908152600660209081526040808320938352929052205490565b610c16838383604051806020016040528060008152506115b7565b6000610f2160085490565b8210610f845760405162461bcd60e51b815260206004820152602c60248201527f455243373231456e756d657261626c653a20676c6f62616c20696e646578206f60448201526b7574206f6620626f756e647360a01b6064820152608401610661565b60088281548110610f9757610f9761339d565b90600052602060002001549050919050565b6000818152600260205260408120546001600160a01b0316806104165760405162461bcd60e51b8152602060048201526018602482015277115490cdcc8c4e881a5b9d985b1a59081d1bdad95b88125160421b6044820152606401610661565b60006001600160a01b0382166110735760405162461bcd60e51b815260206004820152602960248201527f4552433732313a2061646472657373207a65726f206973206e6f7420612076616044820152683634b21037bbb732b960b91b6064820152608401610661565b506001600160a01b031660009081526003602052604090205490565b80611099816122ac565b6110b55760405162461bcd60e51b81526004016106619061300c565b6000828152601060205260409020600201546001600160a01b0316331461111e5760405162461bcd60e51b815260206004820181905260248201527f4f6e6c7920666f756e6465722063616e2063616e63656c20746865207461736b6044820152606401610661565b600260008381526010602052604090206001015460ff16600381111561114657611146613371565b1415801561117a5750600360008381526010602052604090206001015460ff16600381111561117757611177613371565b14155b6111d25760405162461bcd60e51b815260206004820152602360248201527f5461736b20616c726561647920636f6d706c65746564206f722063616e63656c6044820152621b195960ea1b6064820152608401610661565b600160008381526010602052604090206001015460ff1660038111156111fa576111fa613371565b141561130c5760008281526010602052604090206007015460ff166112725760405162461bcd60e51b815260206004820152602860248201527f4275696c646572206469646e277420616772656520746f2063616e63656c2074604482015267686973207461736b60c01b6064820152608401610661565b600f546000838152601060205260409081902060050154905163a9059cbb60e01b815233600482015260248101919091526001600160a01b039091169063a9059cbb90604401602060405180830381600087803b1580156112d257600080fd5b505af11580156112e6573d6000803e3d6000fd5b505050506040513d601f19601f8201168201806040525081019061130a9190612db3565b505b600b54600083815260106020526040908190206001810154600491820154925163a9059cbb60e01b81526001600160a01b03610100909204821692810192909252602482019290925291169063a9059cbb90604401602060405180830381600087803b15801561137b57600080fd5b505af115801561138f573d6000803e3d6000fd5b505050506040513d601f19601f820116820180604052508101906113b39190612db3565b50506000908152601060205260409020600101805460ff19166003179055565b6000610416826122ac565b60606001805461042b906132e1565b61143d60408051610120810190915260608152602081016000815260006020820181905260408201819052606082018190526080820181905260a0820181905260c0820181905260e09091015290565b81611447816122ac565b6114635760405162461bcd60e51b81526004016106619061300c565b600083815260106020526040908190208151610120810190925280548290829061148c906132e1565b80601f01602080910402602001604051908101604052809291908181526020018280546114b8906132e1565b80156115055780601f106114da57610100808354040283529160200191611505565b820191906000526020600020905b8154815290600101906020018083116114e857829003601f168201915b5050509183525050600182015460209091019060ff16600381111561152c5761152c613371565b600381111561153d5761153d613371565b815260018201546001600160a01b0361010090910481166020830152600283015481166040830152600383015416606082015260048201546080820152600582015460a0820152600682015460c082015260079091015460ff16151560e09091015291505b50919050565b6115b33383836122c9565b5050565b6115c13383612086565b6115dd5760405162461bcd60e51b815260040161066190613034565b6115e984848484612398565b50505050565b816115f9816122ac565b6116155760405162461bcd60e51b81526004016106619061300c565b6000838152601060205260409020600301546001600160a01b0316331461167e5760405162461bcd60e51b815260206004820152601e60248201527f596f75277265206e6f742061206163636570746564206275696c6465722e00006044820152606401610661565b600160008481526010602052604090206001015460ff1660038111156116a6576116a6613371565b146116e85760405162461bcd60e51b8152602060048201526012602482015271496e76616c6964207461736b20737461746560701b6044820152606401610661565b600f546040516370a0823160e01b815233600482015283916001600160a01b0316906370a082319060240160206040518083038186803b15801561172b57600080fd5b505afa15801561173f573d6000803e3d6000fd5b505050506040513d601f19601f820116820180604052508101906117639190612e23565b10156117b15760405162461bcd60e51b815260206004820152601860248201527f496e73756666696369656e7420464e445220616d6f756e7400000000000000006044820152606401610661565b600f546040516323b872dd60e01b8152336004820152306024820152604481018490526001600160a01b03909116906323b872dd90606401602060405180830381600087803b15801561180357600080fd5b505af1158015611817573d6000803e3d6000fd5b505050506040513d601f19601f8201168201806040525081019061183b9190612db3565b505060009182526010602052604090912060058101919091556001908101805460ff19169091179055565b606061187182611fc5565b600061188860408051602081019091526000815290565b905060008151116118a857604051806020016040528060008152506118d3565b806118b2846123cb565b6040516020016118c3929190612ed1565b6040516020818303038152906040525b9392505050565b806118e4816122ac565b6119005760405162461bcd60e51b81526004016106619061300c565b6000828152601060205260409020600201546001600160a01b031633146119745760405162461bcd60e51b815260206004820152602260248201527f4f6e6c7920666f756e6465722063616e20636f6d706c65746520746865207461604482015261736b60f01b6064820152608401610661565b600160008381526010602052604090206001015460ff16600381111561199c5761199c613371565b146119e95760405162461bcd60e51b815260206004820152601860248201527f5461736b2073686f756c6420626520696e2072657669657700000000000000006044820152606401610661565b600d5460008381526010602052604080822060030154905163593c6e0d60e01b81526001600160a01b0391821660048201529192169063593c6e0d9060240160206040518083038186803b158015611a4057600080fd5b505afa158015611a54573d6000803e3d6000fd5b505050506040513d601f19601f82011682018060405250810190611a789190612b03565b600b546000858152601060205260409020600401549192506001600160a01b03169063a9059cbb908390606490611ab090605f61327f565b611aba919061317d565b6040516001600160e01b031960e085901b1681526001600160a01b0390921660048301526024820152604401602060405180830381600087803b158015611b0057600080fd5b505af1158015611b14573d6000803e3d6000fd5b505050506040513d601f19601f82011682018060405250810190611b389190612db3565b50600b54600c546000858152601060205260409020600401546001600160a01b039283169263a9059cbb921690606490611b7390600561327f565b611b7d919061317d565b6040516001600160e01b031960e085901b1681526001600160a01b0390921660048301526024820152604401602060405180830381600087803b158015611bc357600080fd5b505af1158015611bd7573d6000803e3d6000fd5b505050506040513d601f19601f82011682018060405250810190611bfb9190612db3565b506000838152601060205260409081902060018101805460ff191660021790556006015490516381f32edd60e01b815260048101919091526001600160a01b038216906381f32edd90602401600060405180830381600087803b158015611c6157600080fd5b505af1158015611c75573d6000803e3d6000fd5b5050506000848152601060205260409020600401546001600160a01b03831691506327909ee990606490611caa90605f61327f565b611cb4919061317d565b6040518263ffffffff1660e01b8152600401611cd291815260200190565b600060405180830381600087803b158015611cec57600080fd5b505af1158015611d00573d6000803e3d6000fd5b5050600f5460008681526010602052604090819020600501549051632770a7eb60e21b815230600482015260248101919091526001600160a01b039091169250639dc29fac9150604401600060405180830381600087803b158015611d6457600080fd5b505af1158015611d78573d6000803e3d6000fd5b5050506000848152601060205260409020600281015460038201546004909201547f65f534584f0e90047cf062076979fe5dcd2a053548e31fdd49138bef6db88c0293506001600160a01b039182169290911690606490611dda90605f61327f565b611de4919061317d565b604080516001600160a01b0394851681529390921660208401529082015260600160405180910390a1505050565b6000806103e890506000836001600160a01b03166369e294166040518163ffffffff1660e01b815260040160206040518083038186803b158015611e5557600080fd5b505afa158015611e69573d6000803e3d6000fd5b505050506040513d601f19601f82011682018060405250810190611e8d9190612e23565b905060006002861015611ed857611ea586600261329e565b611eb090603261327f565b6002611ebd88600a613165565b611ec791906131d4565b611ed1919061329e565b9050611f12565b611ee360028761329e565b611eee90603261327f565b6002611efb88600a613165565b611f0591906131d4565b611f0f9190613165565b90505b611f1d83603261327f565b821015611f3257611f2f602d82613165565b90505b611f3d83601461327f565b821015611f5257611f4f602d82613165565b90505b95945050505050565b60006001600160e01b031982166380ac58cd60e01b1480611f8c57506001600160e01b03198216635b5e139f60e01b145b8061041657506301ffc9a760e01b6001600160e01b0319831614610416565b6115b38282604051806020016040528060008152506124c9565b611fce816122ac565b6120155760405162461bcd60e51b8152602060048201526018602482015277115490cdcc8c4e881a5b9d985b1a59081d1bdad95b88125160421b6044820152606401610661565b50565b600081815260046020526040902080546001600160a01b0319166001600160a01b038416908117909155819061204d82610fa9565b6001600160a01b03167f8c5be1e5ebec7d5bd14f71427d1e84f3dd0314c0f7b2291e5b200ac8c7c3b92560405160405180910390a45050565b60008061209283610fa9565b9050806001600160a01b0316846001600160a01b031614806120d957506001600160a01b0380821660009081526005602090815260408083209388168352929052205460ff165b806120fd5750836001600160a01b03166120f284610ade565b6001600160a01b0316145b949350505050565b826001600160a01b031661211882610fa9565b6001600160a01b03161461217c5760405162461bcd60e51b815260206004820152602560248201527f4552433732313a207472616e736665722066726f6d20696e636f72726563742060448201526437bbb732b960d91b6064820152608401610661565b6001600160a01b0382166121de5760405162461bcd60e51b8152602060048201526024808201527f4552433732313a207472616e7366657220746f20746865207a65726f206164646044820152637265737360e01b6064820152608401610661565b6121e98383836124fc565b6121f4600082612018565b6001600160a01b038316600090815260036020526040812080546001929061221d90849061329e565b90915550506001600160a01b038216600090815260036020526040812080546001929061224b908490613165565b909155505060008181526002602052604080822080546001600160a01b0319166001600160a01b0386811691821790925591518493918716917fddf252ad1be2c89b69c2b068fc378daa952ba7f163c4a11628f55a4df523b3ef91a4505050565b6000908152600260205260409020546001600160a01b0316151590565b816001600160a01b0316836001600160a01b0316141561232b5760405162461bcd60e51b815260206004820152601960248201527f4552433732313a20617070726f766520746f2063616c6c6572000000000000006044820152606401610661565b6001600160a01b03838116600081815260056020908152604080832094871680845294825291829020805460ff191686151590811790915591519182527f17307eab39ab6107e8899845ad3d59bd9653f200f220920489ca2b5937696c31910160405180910390a3505050565b6123a3848484612105565b6123af84848484612561565b6115e95760405162461bcd60e51b815260040161066190612fba565b6060816123ef5750506040805180820190915260018152600360fc1b602082015290565b8160005b8115612419578061240381613316565b91506124129050600a8361317d565b91506123f3565b60008167ffffffffffffffff811115612434576124346133b3565b6040519080825280601f01601f19166020018201604052801561245e576020820181803683370190505b5090505b84156120fd5761247360018361329e565b9150612480600a86613331565b61248b906030613165565b60f81b8183815181106124a0576124a061339d565b60200101906001600160f81b031916908160001a9053506124c2600a8661317d565b9450612462565b6124d3838361266e565b6124e06000848484612561565b610c165760405162461bcd60e51b815260040161066190612fba565b600f54600160a01b900460ff16156125565760405162461bcd60e51b815260206004820152601b60248201527f5461736b20746f6b656e2063616e6e6f74207472616e736665722e00000000006044820152606401610661565b610c168383836127ad565b60006001600160a01b0384163b1561266357604051630a85bd0160e11b81526001600160a01b0385169063150b7a02906125a5903390899088908890600401612f00565b602060405180830381600087803b1580156125bf57600080fd5b505af19250505080156125ef575060408051601f3d908101601f191682019092526125ec91810190612ded565b60015b612649573d80801561261d576040519150601f19603f3d011682016040523d82523d6000602084013e612622565b606091505b5080516126415760405162461bcd60e51b815260040161066190612fba565b805181602001fd5b6001600160e01b031916630a85bd0160e11b1490506120fd565b506001949350505050565b6001600160a01b0382166126c45760405162461bcd60e51b815260206004820181905260248201527f4552433732313a206d696e7420746f20746865207a65726f20616464726573736044820152606401610661565b6126cd816122ac565b1561271a5760405162461bcd60e51b815260206004820152601c60248201527f4552433732313a20746f6b656e20616c7265616479206d696e746564000000006044820152606401610661565b612726600083836124fc565b6001600160a01b038216600090815260036020526040812080546001929061274f908490613165565b909155505060008181526002602052604080822080546001600160a01b0319166001600160a01b03861690811790915590518392907fddf252ad1be2c89b69c2b068fc378daa952ba7f163c4a11628f55a4df523b3ef908290a45050565b6001600160a01b0383166128085761280381600880546000838152600960205260408120829055600182018355919091527ff3f7a9fe364faab93b216da50a3214154f22a0a2b415b23a84c8169e8b636ee30155565b61282b565b816001600160a01b0316836001600160a01b03161461282b5761282b8382612865565b6001600160a01b03821661284257610c1681612902565b826001600160a01b0316826001600160a01b031614610c1657610c1682826129b1565b6000600161287284611009565b61287c919061329e565b6000838152600760205260409020549091508082146128cf576001600160a01b03841660009081526006602090815260408083208584528252808320548484528184208190558352600790915290208190555b5060009182526007602090815260408084208490556001600160a01b039094168352600681528383209183525290812055565b6008546000906129149060019061329e565b6000838152600960205260408120546008805493945090928490811061293c5761293c61339d565b90600052602060002001549050806008838154811061295d5761295d61339d565b600091825260208083209091019290925582815260099091526040808220849055858252812055600880548061299557612995613387565b6001900381819060005260206000200160009055905550505050565b60006129bc83611009565b6001600160a01b039093166000908152600660209081526040808320868452825280832085905593825260079052919091209190915550565b828054612a01906132e1565b90600052602060002090601f016020900481019282612a235760008555612a69565b82601f10612a3c57805160ff1916838001178555612a69565b82800160010185558215612a69579182015b82811115612a69578251825591602001919060010190612a4e565b50612a75929150612a79565b5090565b5b80821115612a755760008155600101612a7a565b600067ffffffffffffffff831115612aa857612aa86133b3565b612abb601f8401601f1916602001613134565b9050828152838383011115612acf57600080fd5b828260208301376000602084830101529392505050565b600060208284031215612af857600080fd5b81356118d3816133c9565b600060208284031215612b1557600080fd5b81516118d3816133c9565b60008060408385031215612b3357600080fd5b8235612b3e816133c9565b91506020830135612b4e816133c9565b809150509250929050565b60008060008060008060c08789031215612b7257600080fd5b8635612b7d816133c9565b95506020870135612b8d816133c9565b9450604087013567ffffffffffffffff811115612ba957600080fd5b8701601f81018913612bba57600080fd5b612bc989823560208401612a8e565b945050606087013592506080870135915060a087013590509295509295509295565b600080600060608486031215612c0057600080fd5b8335612c0b816133c9565b92506020840135612c1b816133c9565b929592945050506040919091013590565b60008060008060808587031215612c4257600080fd5b8435612c4d816133c9565b93506020850135612c5d816133c9565b925060408501359150606085013567ffffffffffffffff811115612c8057600080fd5b8501601f81018713612c9157600080fd5b612ca087823560208401612a8e565b91505092959194509250565b60008060408385031215612cbf57600080fd5b8235612cca816133c9565b91506020830135612b4e816133de565b60008060408385031215612ced57600080fd5b8235612cf8816133c9565b946020939093013593505050565b60006020808385031215612d1957600080fd5b825167ffffffffffffffff80821115612d3157600080fd5b818501915085601f830112612d4557600080fd5b815181811115612d5757612d576133b3565b8060051b9150612d68848301613134565b8181528481019084860184860187018a1015612d8357600080fd5b600095505b83861015612da6578051835260019590950194918601918601612d88565b5098975050505050505050565b600060208284031215612dc557600080fd5b81516118d3816133de565b600060208284031215612de257600080fd5b81356118d3816133ec565b600060208284031215612dff57600080fd5b81516118d3816133ec565b600060208284031215612e1c57600080fd5b5035919050565b600060208284031215612e3557600080fd5b5051919050565b60008060408385031215612e4f57600080fd5b823591506020830135612b4e816133c9565b60008060408385031215612e7457600080fd5b50508035926020909101359150565b60008151808452612e9b8160208601602086016132b5565b601f01601f19169290920160200192915050565b60048110612ecd57634e487b7160e01b600052602160045260246000fd5b9052565b60008351612ee38184602088016132b5565b835190830190612ef78183602088016132b5565b01949350505050565b6001600160a01b0385811682528416602082015260408101839052608060608201819052600090612f3390830184612e83565b9695505050505050565b6020815260006118d36020830184612e83565b6000610120808352612f648184018d612e83565b915050612f74602083018b612eaf565b6001600160a01b039889166040830152968816606082015294909616608085015260a084019290925260c083015260e08201529115156101009092019190915292915050565b60208082526032908201527f4552433732313a207472616e7366657220746f206e6f6e20455243373231526560408201527131b2b4bb32b91034b6b83632b6b2b73a32b960711b606082015260800190565b6020808252600e908201526d15185cdac81b9bdd08199bdd5b9960921b604082015260600190565b6020808252602e908201527f4552433732313a2063616c6c6572206973206e6f7420746f6b656e206f776e6560408201526d1c881b9bdc88185c1c1c9bdd995960921b606082015260800190565b60208152600082516101208060208501526130a1610140850183612e83565b915060208501516130b56040860182612eaf565b5060408501516001600160a01b03811660608601525060608501516001600160a01b03811660808601525060808501516001600160a01b03811660a08601525060a085015160c085015260c085015160e085015260e085015161010081818701528087015191505061312a8286018215159052565b5090949350505050565b604051601f8201601f1916810167ffffffffffffffff8111828210171561315d5761315d6133b3565b604052919050565b6000821982111561317857613178613345565b500190565b60008261318c5761318c61335b565b500490565b600181815b808511156131cc5781600019048211156131b2576131b2613345565b808516156131bf57918102915b93841c9390800290613196565b509250929050565b60006118d360ff8416836000826131ed57506001610416565b816131fa57506000610416565b8160018114613210576002811461321a57613236565b6001915050610416565b60ff84111561322b5761322b613345565b50506001821b610416565b5060208310610133831016604e8410600b8410161715613259575081810a610416565b6132638383613191565b806000190482111561327757613277613345565b029392505050565b600081600019048311821515161561329957613299613345565b500290565b6000828210156132b0576132b0613345565b500390565b60005b838110156132d05781810151838201526020016132b8565b838111156115e95750506000910152565b600181811c908216806132f557607f821691505b602082108114156115a257634e487b7160e01b600052602260045260246000fd5b600060001982141561332a5761332a613345565b5060010190565b6000826133405761334061335b565b500690565b634e487b7160e01b600052601160045260246000fd5b634e487b7160e01b600052601260045260246000fd5b634e487b7160e01b600052602160045260246000fd5b634e487b7160e01b600052603160045260246000fd5b634e487b7160e01b600052603260045260246000fd5b634e487b7160e01b600052604160045260246000fd5b6001600160a01b038116811461201557600080fd5b801515811461201557600080fd5b6001600160e01b03198116811461201557600080fdfea264697066735822122006805f9d6c34d3162c65bfe1f1b1daa5ed553c64b9b1e5fccdf27adb7449641164736f6c63430008070033",
  "linkReferences": {},
  "deployedLinkReferences": {}
}